{
	"contracts/Project1/Real_State.sol": {
		"RealState": {
			"abi": [
				{
					"inputs": [
						{
							"internalType": "uint256",
							"name": "_inspectorId",
							"type": "uint256"
						},
						{
							"internalType": "string",
							"name": "_name",
							"type": "string"
						},
						{
							"internalType": "uint256",
							"name": "_age",
							"type": "uint256"
						},
						{
							"internalType": "string",
							"name": "_designation",
							"type": "string"
						}
					],
					"stateMutability": "nonpayable",
					"type": "constructor"
				},
				{
					"anonymous": false,
					"inputs": [
						{
							"indexed": false,
							"internalType": "string",
							"name": "",
							"type": "string"
						},
						{
							"indexed": false,
							"internalType": "uint256",
							"name": "",
							"type": "uint256"
						}
					],
					"name": "Land",
					"type": "event"
				},
				{
					"anonymous": false,
					"inputs": [
						{
							"indexed": false,
							"internalType": "string",
							"name": "",
							"type": "string"
						},
						{
							"indexed": false,
							"internalType": "string",
							"name": "",
							"type": "string"
						},
						{
							"indexed": false,
							"internalType": "address",
							"name": "",
							"type": "address"
						}
					],
					"name": "Users",
					"type": "event"
				},
				{
					"inputs": [
						{
							"internalType": "address",
							"name": "",
							"type": "address"
						}
					],
					"name": "BuyerMapping",
					"outputs": [
						{
							"internalType": "string",
							"name": "buyerName",
							"type": "string"
						},
						{
							"internalType": "uint256",
							"name": "buyerAge",
							"type": "uint256"
						},
						{
							"internalType": "string",
							"name": "city",
							"type": "string"
						},
						{
							"internalType": "uint256",
							"name": "cnic",
							"type": "uint256"
						},
						{
							"internalType": "string",
							"name": "email",
							"type": "string"
						},
						{
							"internalType": "bool",
							"name": "isBuyerVerified",
							"type": "bool"
						}
					],
					"stateMutability": "view",
					"type": "function"
				},
				{
					"inputs": [
						{
							"internalType": "address",
							"name": "",
							"type": "address"
						}
					],
					"name": "CheckBuyerRegistration",
					"outputs": [
						{
							"internalType": "bool",
							"name": "",
							"type": "bool"
						}
					],
					"stateMutability": "view",
					"type": "function"
				},
				{
					"inputs": [
						{
							"internalType": "uint256",
							"name": "",
							"type": "uint256"
						}
					],
					"name": "CheckLandRegistration",
					"outputs": [
						{
							"internalType": "bool",
							"name": "",
							"type": "bool"
						}
					],
					"stateMutability": "view",
					"type": "function"
				},
				{
					"inputs": [
						{
							"internalType": "address",
							"name": "",
							"type": "address"
						}
					],
					"name": "CheckSellerRegistration",
					"outputs": [
						{
							"internalType": "bool",
							"name": "",
							"type": "bool"
						}
					],
					"stateMutability": "view",
					"type": "function"
				},
				{
					"inputs": [
						{
							"internalType": "uint256",
							"name": "",
							"type": "uint256"
						}
					],
					"name": "InspectorMapping",
					"outputs": [
						{
							"internalType": "address",
							"name": "landInspectorId",
							"type": "address"
						},
						{
							"internalType": "string",
							"name": "inspectorName",
							"type": "string"
						},
						{
							"internalType": "uint256",
							"name": "inspectorAge",
							"type": "uint256"
						},
						{
							"internalType": "string",
							"name": "desgination",
							"type": "string"
						}
					],
					"stateMutability": "view",
					"type": "function"
				},
				{
					"inputs": [
						{
							"internalType": "uint256",
							"name": "",
							"type": "uint256"
						}
					],
					"name": "Lands",
					"outputs": [
						{
							"internalType": "uint256",
							"name": "landId",
							"type": "uint256"
						},
						{
							"internalType": "string",
							"name": "area",
							"type": "string"
						},
						{
							"internalType": "string",
							"name": "city",
							"type": "string"
						},
						{
							"internalType": "string",
							"name": "state",
							"type": "string"
						},
						{
							"internalType": "uint256",
							"name": "landPrice",
							"type": "uint256"
						},
						{
							"internalType": "bool",
							"name": "isLandSold",
							"type": "bool"
						},
						{
							"internalType": "bool",
							"name": "isLandVerified",
							"type": "bool"
						},
						{
							"internalType": "address",
							"name": "propertyOwner",
							"type": "address"
						},
						{
							"internalType": "string",
							"name": "propertyOwnerName",
							"type": "string"
						}
					],
					"stateMutability": "view",
					"type": "function"
				},
				{
					"inputs": [
						{
							"internalType": "address",
							"name": "",
							"type": "address"
						}
					],
					"name": "SellerMapping",
					"outputs": [
						{
							"internalType": "string",
							"name": "sellerName",
							"type": "string"
						},
						{
							"internalType": "uint256",
							"name": "sellerAge",
							"type": "uint256"
						},
						{
							"internalType": "string",
							"name": "city",
							"type": "string"
						},
						{
							"internalType": "uint256",
							"name": "sellerCNIC",
							"type": "uint256"
						},
						{
							"internalType": "string",
							"name": "email",
							"type": "string"
						},
						{
							"internalType": "bool",
							"name": "isSellerVerified",
							"type": "bool"
						}
					],
					"stateMutability": "view",
					"type": "function"
				},
				{
					"inputs": [
						{
							"internalType": "uint256",
							"name": "_landId",
							"type": "uint256"
						},
						{
							"internalType": "address payable",
							"name": "_to",
							"type": "address"
						}
					],
					"name": "buyLand",
					"outputs": [],
					"stateMutability": "payable",
					"type": "function"
				},
				{
					"inputs": [
						{
							"internalType": "address",
							"name": "_buyerAddress",
							"type": "address"
						}
					],
					"name": "changeBuyertoSeller",
					"outputs": [],
					"stateMutability": "nonpayable",
					"type": "function"
				},
				{
					"inputs": [
						{
							"internalType": "address",
							"name": "_sellerAddress",
							"type": "address"
						}
					],
					"name": "changeSellertoBuyer",
					"outputs": [],
					"stateMutability": "nonpayable",
					"type": "function"
				},
				{
					"inputs": [
						{
							"internalType": "address",
							"name": "_buyerAddress",
							"type": "address"
						}
					],
					"name": "checkIsBuyer",
					"outputs": [
						{
							"internalType": "bool",
							"name": "",
							"type": "bool"
						}
					],
					"stateMutability": "view",
					"type": "function"
				},
				{
					"inputs": [
						{
							"internalType": "address",
							"name": "_sellerAddress",
							"type": "address"
						}
					],
					"name": "checkIsSeller",
					"outputs": [
						{
							"internalType": "bool",
							"name": "",
							"type": "bool"
						}
					],
					"stateMutability": "view",
					"type": "function"
				},
				{
					"inputs": [
						{
							"internalType": "uint256",
							"name": "_landId",
							"type": "uint256"
						}
					],
					"name": "checkIsland",
					"outputs": [
						{
							"internalType": "bool",
							"name": "",
							"type": "bool"
						}
					],
					"stateMutability": "view",
					"type": "function"
				},
				{
					"inputs": [
						{
							"internalType": "uint256",
							"name": "landId",
							"type": "uint256"
						}
					],
					"name": "getLandById",
					"outputs": [
						{
							"internalType": "uint256",
							"name": "",
							"type": "uint256"
						},
						{
							"internalType": "string",
							"name": "",
							"type": "string"
						},
						{
							"internalType": "string",
							"name": "",
							"type": "string"
						},
						{
							"internalType": "string",
							"name": "",
							"type": "string"
						},
						{
							"internalType": "uint256",
							"name": "",
							"type": "uint256"
						},
						{
							"internalType": "address",
							"name": "",
							"type": "address"
						},
						{
							"internalType": "string",
							"name": "",
							"type": "string"
						}
					],
					"stateMutability": "view",
					"type": "function"
				},
				{
					"inputs": [],
					"name": "inspector",
					"outputs": [
						{
							"internalType": "address",
							"name": "",
							"type": "address"
						},
						{
							"internalType": "string",
							"name": "",
							"type": "string"
						}
					],
					"stateMutability": "view",
					"type": "function"
				},
				{
					"inputs": [],
					"name": "inspectorAddress",
					"outputs": [
						{
							"internalType": "address",
							"name": "",
							"type": "address"
						}
					],
					"stateMutability": "view",
					"type": "function"
				},
				{
					"inputs": [
						{
							"internalType": "uint256",
							"name": "_landId",
							"type": "uint256"
						}
					],
					"name": "landOwner",
					"outputs": [
						{
							"internalType": "address",
							"name": "",
							"type": "address"
						},
						{
							"internalType": "string",
							"name": "",
							"type": "string"
						}
					],
					"stateMutability": "view",
					"type": "function"
				},
				{
					"inputs": [
						{
							"internalType": "address",
							"name": "buyerId",
							"type": "address"
						},
						{
							"internalType": "string",
							"name": "_buyerName",
							"type": "string"
						},
						{
							"internalType": "uint256",
							"name": "_buyerAge",
							"type": "uint256"
						},
						{
							"internalType": "string",
							"name": "_city",
							"type": "string"
						},
						{
							"internalType": "uint256",
							"name": "_buyerCnic",
							"type": "uint256"
						},
						{
							"internalType": "string",
							"name": "_email",
							"type": "string"
						}
					],
					"name": "registerBuyer",
					"outputs": [],
					"stateMutability": "nonpayable",
					"type": "function"
				},
				{
					"inputs": [
						{
							"internalType": "uint256",
							"name": "landId",
							"type": "uint256"
						},
						{
							"internalType": "string",
							"name": "_area",
							"type": "string"
						},
						{
							"internalType": "string",
							"name": "_city",
							"type": "string"
						},
						{
							"internalType": "string",
							"name": "_state",
							"type": "string"
						},
						{
							"internalType": "uint256",
							"name": "_landPrice",
							"type": "uint256"
						}
					],
					"name": "registerLand",
					"outputs": [],
					"stateMutability": "nonpayable",
					"type": "function"
				},
				{
					"inputs": [
						{
							"internalType": "address",
							"name": "sellerId",
							"type": "address"
						},
						{
							"internalType": "string",
							"name": "_sellerName",
							"type": "string"
						},
						{
							"internalType": "uint256",
							"name": "_sellerAge",
							"type": "uint256"
						},
						{
							"internalType": "string",
							"name": "_city",
							"type": "string"
						},
						{
							"internalType": "uint256",
							"name": "_sellerCnic",
							"type": "uint256"
						},
						{
							"internalType": "string",
							"name": "_email",
							"type": "string"
						}
					],
					"name": "registerSeller",
					"outputs": [],
					"stateMutability": "nonpayable",
					"type": "function"
				},
				{
					"inputs": [],
					"name": "totalBuyers",
					"outputs": [
						{
							"internalType": "uint256",
							"name": "",
							"type": "uint256"
						}
					],
					"stateMutability": "view",
					"type": "function"
				},
				{
					"inputs": [],
					"name": "totalLands",
					"outputs": [
						{
							"internalType": "uint256",
							"name": "",
							"type": "uint256"
						}
					],
					"stateMutability": "view",
					"type": "function"
				},
				{
					"inputs": [],
					"name": "totalSellers",
					"outputs": [
						{
							"internalType": "uint256",
							"name": "",
							"type": "uint256"
						}
					],
					"stateMutability": "view",
					"type": "function"
				},
				{
					"inputs": [
						{
							"internalType": "uint256",
							"name": "landId",
							"type": "uint256"
						},
						{
							"internalType": "address",
							"name": "_address",
							"type": "address"
						}
					],
					"name": "transferLand",
					"outputs": [],
					"stateMutability": "nonpayable",
					"type": "function"
				},
				{
					"inputs": [
						{
							"internalType": "string",
							"name": "_buyerName",
							"type": "string"
						},
						{
							"internalType": "uint256",
							"name": "_buyerAge",
							"type": "uint256"
						},
						{
							"internalType": "string",
							"name": "city",
							"type": "string"
						},
						{
							"internalType": "uint256",
							"name": "_buyerCNIC",
							"type": "uint256"
						},
						{
							"internalType": "string",
							"name": "email",
							"type": "string"
						}
					],
					"name": "updateBuyer",
					"outputs": [],
					"stateMutability": "nonpayable",
					"type": "function"
				},
				{
					"inputs": [
						{
							"internalType": "string",
							"name": "_sellerName",
							"type": "string"
						},
						{
							"internalType": "uint256",
							"name": "_sellerAge",
							"type": "uint256"
						},
						{
							"internalType": "string",
							"name": "city",
							"type": "string"
						},
						{
							"internalType": "uint256",
							"name": "_sellerCNIC",
							"type": "uint256"
						},
						{
							"internalType": "string",
							"name": "email",
							"type": "string"
						}
					],
					"name": "updateSeller",
					"outputs": [],
					"stateMutability": "nonpayable",
					"type": "function"
				},
				{
					"inputs": [
						{
							"internalType": "address",
							"name": "_buyerAddress",
							"type": "address"
						}
					],
					"name": "verifyBuyer",
					"outputs": [],
					"stateMutability": "nonpayable",
					"type": "function"
				},
				{
					"inputs": [
						{
							"internalType": "uint256",
							"name": "_landId",
							"type": "uint256"
						}
					],
					"name": "verifyLand",
					"outputs": [],
					"stateMutability": "nonpayable",
					"type": "function"
				},
				{
					"inputs": [
						{
							"internalType": "address",
							"name": "_sellerAddress",
							"type": "address"
						}
					],
					"name": "verifySeller",
					"outputs": [],
					"stateMutability": "nonpayable",
					"type": "function"
				}
			],
			"devdoc": {
				"kind": "dev",
				"methods": {},
				"version": 1
			},
			"evm": {
				"assembly": "    /* \"contracts/Project1/Real_State.sol\":1061:16990  contract RealState{... */\n  mstore(0x40, 0x80)\n    /* \"contracts/Project1/Real_State.sol\":2702:3052  constructor(uint _inspectorId, string memory _name, uint _age, string memory _designation) {... */\n  callvalue\n  dup1\n  iszero\n  tag_1\n  jumpi\n  0x00\n  dup1\n  revert\ntag_1:\n  pop\n  mload(0x40)\n  sub(codesize, bytecodeSize)\n  dup1\n  bytecodeSize\n  dup4\n  codecopy\n  dup2\n  add\n  0x40\n  dup2\n  swap1\n  mstore\n  tag_2\n  swap2\n  tag_3\n  jump\t// in\ntag_2:\n    /* \"contracts/Project1/Real_State.sol\":2804:2820  inspectorAddress */\n  0x00\n    /* \"contracts/Project1/Real_State.sol\":2804:2833  inspectorAddress = msg.sender */\n  dup1\n  sload\n    /* \"contracts/Project1/Real_State.sol\":2823:2833  msg.sender */\n  caller\n  not(sub(shl(0xa0, 0x01), 0x01))\n    /* \"contracts/Project1/Real_State.sol\":2804:2833  inspectorAddress = msg.sender */\n  swap2\n  dup3\n  and\n  dup2\n  or\n  dup4\n  sstore\n  0x01\n    /* \"contracts/Project1/Real_State.sol\":2844:2870  inspectorId = _inspectorId */\n  dup8\n  dup2\n  sstore\n    /* \"contracts/Project1/Real_State.sol\":2914:2972  LandInspector(inspectorAddress, _name, _age, _designation) */\n  0x40\n  dup1\n  mload\n  0x80\n  dup2\n  add\n  dup3\n  mstore\n  swap3\n  dup4\n  mstore\n  0x20\n  dup1\n  dup5\n  add\n  dup10\n  dup2\n  mstore\n  dup5\n  dup4\n  add\n  dup10\n  swap1\n  mstore\n  0x60\n  dup6\n  add\n  dup9\n  swap1\n  mstore\n    /* \"contracts/Project1/Real_State.sol\":2881:2911  InspectorMapping[_inspectorId] */\n  dup11\n  dup8\n  mstore\n    /* \"contracts/Project1/Real_State.sol\":2881:2897  InspectorMapping */\n  0x06\n    /* \"contracts/Project1/Real_State.sol\":2881:2911  InspectorMapping[_inspectorId] */\n  swap1\n  swap2\n  mstore\n  swap5\n  keccak256\n    /* \"contracts/Project1/Real_State.sol\":2881:2972  InspectorMapping[_inspectorId] = LandInspector(inspectorAddress, _name, _age, _designation) */\n  dup3\n  mload\n  dup2\n  sload\n  swap1\n  swap5\n  and\n  sub(shl(0xa0, 0x01), 0x01)\n  swap1\n  swap5\n  and\n  swap4\n  swap1\n  swap4\n  or\n  dup4\n  sstore\n  swap3\n  mload\n    /* \"contracts/Project1/Real_State.sol\":2914:2972  LandInspector(inspectorAddress, _name, _age, _designation) */\n  swap1\n  swap3\n    /* \"contracts/Project1/Real_State.sol\":2881:2972  InspectorMapping[_inspectorId] = LandInspector(inspectorAddress, _name, _age, _designation) */\n  dup3\n  add\n  swap1\n  tag_6\n  swap1\n  dup3\n  tag_7\n  jump\t// in\ntag_6:\n  pop\n  0x40\n  dup3\n  add\n  mload\n  0x02\n  dup3\n  add\n  sstore\n  0x60\n  dup3\n  add\n  mload\n  0x03\n  dup3\n  add\n  swap1\n  tag_8\n  swap1\n  dup3\n  tag_7\n  jump\t// in\ntag_8:\n  pop\n  pop\n    /* \"contracts/Project1/Real_State.sol\":3027:3043  inspectorAddress */\n  sload(0x00)\n    /* \"contracts/Project1/Real_State.sol\":2988:3044  Users(\"Inspector Registered: \", _name, inspectorAddress) */\n  mload(0x40)\n  0xe682a073cb99a4f3efc2d12900fbc67d6fbdf6a8e7279087bd717f0a2621e148\n  swap3\n  pop\n  tag_9\n  swap2\n    /* \"contracts/Project1/Real_State.sol\":3020:3025  _name */\n  dup7\n  swap2\n  sub(shl(0xa0, 0x01), 0x01)\n    /* \"contracts/Project1/Real_State.sol\":3027:3043  inspectorAddress */\n  swap1\n  swap2\n  and\n  swap1\n    /* \"contracts/Project1/Real_State.sol\":2988:3044  Users(\"Inspector Registered: \", _name, inspectorAddress) */\n  tag_10\n  jump\t// in\ntag_9:\n  mload(0x40)\n  dup1\n  swap2\n  sub\n  swap1\n  log1\n    /* \"contracts/Project1/Real_State.sol\":2702:3052  constructor(uint _inspectorId, string memory _name, uint _age, string memory _designation) {... */\n  pop\n  pop\n  pop\n  pop\n    /* \"contracts/Project1/Real_State.sol\":1061:16990  contract RealState{... */\n  jump(tag_19)\n    /* \"#utility.yul\":14:141   */\ntag_12:\n    /* \"#utility.yul\":75:85   */\n  0x4e487b71\n    /* \"#utility.yul\":70:73   */\n  0xe0\n    /* \"#utility.yul\":66:86   */\n  shl\n    /* \"#utility.yul\":63:64   */\n  0x00\n    /* \"#utility.yul\":56:87   */\n  mstore\n    /* \"#utility.yul\":106:110   */\n  0x41\n    /* \"#utility.yul\":103:104   */\n  0x04\n    /* \"#utility.yul\":96:111   */\n  mstore\n    /* \"#utility.yul\":130:134   */\n  0x24\n    /* \"#utility.yul\":127:128   */\n  0x00\n    /* \"#utility.yul\":120:135   */\n  revert\n    /* \"#utility.yul\":146:396   */\ntag_13:\n    /* \"#utility.yul\":231:232   */\n  0x00\n    /* \"#utility.yul\":241:354   */\ntag_22:\n    /* \"#utility.yul\":255:261   */\n  dup4\n    /* \"#utility.yul\":252:253   */\n  dup2\n    /* \"#utility.yul\":249:262   */\n  lt\n    /* \"#utility.yul\":241:354   */\n  iszero\n  tag_24\n  jumpi\n    /* \"#utility.yul\":331:342   */\n  dup2\n  dup2\n  add\n    /* \"#utility.yul\":325:343   */\n  mload\n    /* \"#utility.yul\":312:323   */\n  dup4\n  dup3\n  add\n    /* \"#utility.yul\":305:344   */\n  mstore\n    /* \"#utility.yul\":277:279   */\n  0x20\n    /* \"#utility.yul\":270:280   */\n  add\n    /* \"#utility.yul\":241:354   */\n  jump(tag_22)\ntag_24:\n  pop\n  pop\n    /* \"#utility.yul\":388:389   */\n  0x00\n    /* \"#utility.yul\":370:386   */\n  swap2\n  add\n    /* \"#utility.yul\":363:390   */\n  mstore\n    /* \"#utility.yul\":146:396   */\n  jump\t// out\n    /* \"#utility.yul\":401:1100   */\ntag_14:\n    /* \"#utility.yul\":455:460   */\n  0x00\n    /* \"#utility.yul\":508:511   */\n  dup3\n    /* \"#utility.yul\":501:505   */\n  0x1f\n    /* \"#utility.yul\":493:499   */\n  dup4\n    /* \"#utility.yul\":489:506   */\n  add\n    /* \"#utility.yul\":485:512   */\n  slt\n    /* \"#utility.yul\":475:530   */\n  tag_26\n  jumpi\n    /* \"#utility.yul\":526:527   */\n  0x00\n    /* \"#utility.yul\":523:524   */\n  dup1\n    /* \"#utility.yul\":516:528   */\n  revert\n    /* \"#utility.yul\":475:530   */\ntag_26:\n    /* \"#utility.yul\":549:562   */\n  dup2\n  mload\n  sub(shl(0x40, 0x01), 0x01)\n    /* \"#utility.yul\":611:621   */\n  dup1\n  dup3\n  gt\n    /* \"#utility.yul\":608:644   */\n  iszero\n  tag_28\n  jumpi\n    /* \"#utility.yul\":624:642   */\n  tag_28\n  tag_12\n  jump\t// in\ntag_28:\n    /* \"#utility.yul\":699:701   */\n  0x40\n    /* \"#utility.yul\":693:702   */\n  mload\n    /* \"#utility.yul\":667:669   */\n  0x1f\n    /* \"#utility.yul\":753:766   */\n  dup4\n  add\n  not(0x1f)\n    /* \"#utility.yul\":749:771   */\n  swap1\n  dup2\n  and\n    /* \"#utility.yul\":773:775   */\n  0x3f\n    /* \"#utility.yul\":745:776   */\n  add\n    /* \"#utility.yul\":741:781   */\n  and\n    /* \"#utility.yul\":729:782   */\n  dup2\n  add\n  swap1\n    /* \"#utility.yul\":797:815   */\n  dup3\n  dup3\n  gt\n    /* \"#utility.yul\":817:839   */\n  dup2\n  dup4\n  lt\n    /* \"#utility.yul\":794:840   */\n  or\n    /* \"#utility.yul\":791:863   */\n  iszero\n  tag_30\n  jumpi\n    /* \"#utility.yul\":843:861   */\n  tag_30\n  tag_12\n  jump\t// in\ntag_30:\n    /* \"#utility.yul\":883:893   */\n  dup2\n    /* \"#utility.yul\":879:881   */\n  0x40\n    /* \"#utility.yul\":872:894   */\n  mstore\n    /* \"#utility.yul\":918:920   */\n  dup4\n    /* \"#utility.yul\":910:916   */\n  dup2\n    /* \"#utility.yul\":903:921   */\n  mstore\n    /* \"#utility.yul\":964:967   */\n  dup7\n    /* \"#utility.yul\":957:961   */\n  0x20\n    /* \"#utility.yul\":952:954   */\n  dup6\n    /* \"#utility.yul\":944:950   */\n  dup9\n    /* \"#utility.yul\":940:955   */\n  add\n    /* \"#utility.yul\":936:962   */\n  add\n    /* \"#utility.yul\":933:968   */\n  gt\n    /* \"#utility.yul\":930:985   */\n  iszero\n  tag_31\n  jumpi\n    /* \"#utility.yul\":981:982   */\n  0x00\n    /* \"#utility.yul\":978:979   */\n  dup1\n    /* \"#utility.yul\":971:983   */\n  revert\n    /* \"#utility.yul\":930:985   */\ntag_31:\n    /* \"#utility.yul\":994:1070   */\n  tag_32\n    /* \"#utility.yul\":1067:1069   */\n  dup5\n    /* \"#utility.yul\":1060:1064   */\n  0x20\n    /* \"#utility.yul\":1052:1058   */\n  dup4\n    /* \"#utility.yul\":1048:1065   */\n  add\n    /* \"#utility.yul\":1041:1045   */\n  0x20\n    /* \"#utility.yul\":1033:1039   */\n  dup10\n    /* \"#utility.yul\":1029:1046   */\n  add\n    /* \"#utility.yul\":994:1070   */\n  tag_13\n  jump\t// in\ntag_32:\n    /* \"#utility.yul\":1088:1094   */\n  swap7\n    /* \"#utility.yul\":401:1100   */\n  swap6\n  pop\n  pop\n  pop\n  pop\n  pop\n  pop\n  jump\t// out\n    /* \"#utility.yul\":1105:1790   */\ntag_3:\n    /* \"#utility.yul\":1222:1228   */\n  0x00\n    /* \"#utility.yul\":1230:1236   */\n  dup1\n    /* \"#utility.yul\":1238:1244   */\n  0x00\n    /* \"#utility.yul\":1246:1252   */\n  dup1\n    /* \"#utility.yul\":1299:1302   */\n  0x80\n    /* \"#utility.yul\":1287:1296   */\n  dup6\n    /* \"#utility.yul\":1278:1285   */\n  dup8\n    /* \"#utility.yul\":1274:1297   */\n  sub\n    /* \"#utility.yul\":1270:1303   */\n  slt\n    /* \"#utility.yul\":1267:1320   */\n  iszero\n  tag_34\n  jumpi\n    /* \"#utility.yul\":1316:1317   */\n  0x00\n    /* \"#utility.yul\":1313:1314   */\n  dup1\n    /* \"#utility.yul\":1306:1318   */\n  revert\n    /* \"#utility.yul\":1267:1320   */\ntag_34:\n    /* \"#utility.yul\":1339:1355   */\n  dup5\n  mload\n    /* \"#utility.yul\":1399:1401   */\n  0x20\n    /* \"#utility.yul\":1384:1402   */\n  dup7\n  add\n    /* \"#utility.yul\":1378:1403   */\n  mload\n    /* \"#utility.yul\":1339:1355   */\n  swap1\n  swap5\n  pop\n  sub(shl(0x40, 0x01), 0x01)\n    /* \"#utility.yul\":1452:1466   */\n  dup1\n  dup3\n  gt\n    /* \"#utility.yul\":1449:1483   */\n  iszero\n  tag_35\n  jumpi\n    /* \"#utility.yul\":1479:1480   */\n  0x00\n    /* \"#utility.yul\":1476:1477   */\n  dup1\n    /* \"#utility.yul\":1469:1481   */\n  revert\n    /* \"#utility.yul\":1449:1483   */\ntag_35:\n    /* \"#utility.yul\":1502:1563   */\n  tag_36\n    /* \"#utility.yul\":1555:1562   */\n  dup9\n    /* \"#utility.yul\":1546:1552   */\n  dup4\n    /* \"#utility.yul\":1535:1544   */\n  dup10\n    /* \"#utility.yul\":1531:1553   */\n  add\n    /* \"#utility.yul\":1502:1563   */\n  tag_14\n  jump\t// in\ntag_36:\n    /* \"#utility.yul\":1492:1563   */\n  swap5\n  pop\n    /* \"#utility.yul\":1603:1605   */\n  0x40\n    /* \"#utility.yul\":1592:1601   */\n  dup8\n    /* \"#utility.yul\":1588:1606   */\n  add\n    /* \"#utility.yul\":1582:1607   */\n  mload\n    /* \"#utility.yul\":1572:1607   */\n  swap4\n  pop\n    /* \"#utility.yul\":1653:1655   */\n  0x60\n    /* \"#utility.yul\":1642:1651   */\n  dup8\n    /* \"#utility.yul\":1638:1656   */\n  add\n    /* \"#utility.yul\":1632:1657   */\n  mload\n    /* \"#utility.yul\":1616:1657   */\n  swap2\n  pop\n    /* \"#utility.yul\":1682:1684   */\n  dup1\n    /* \"#utility.yul\":1672:1680   */\n  dup3\n    /* \"#utility.yul\":1669:1685   */\n  gt\n    /* \"#utility.yul\":1666:1702   */\n  iszero\n  tag_37\n  jumpi\n    /* \"#utility.yul\":1698:1699   */\n  0x00\n    /* \"#utility.yul\":1695:1696   */\n  dup1\n    /* \"#utility.yul\":1688:1700   */\n  revert\n    /* \"#utility.yul\":1666:1702   */\ntag_37:\n  pop\n    /* \"#utility.yul\":1721:1784   */\n  tag_38\n    /* \"#utility.yul\":1776:1783   */\n  dup8\n    /* \"#utility.yul\":1765:1773   */\n  dup3\n    /* \"#utility.yul\":1754:1763   */\n  dup9\n    /* \"#utility.yul\":1750:1774   */\n  add\n    /* \"#utility.yul\":1721:1784   */\n  tag_14\n  jump\t// in\ntag_38:\n    /* \"#utility.yul\":1711:1784   */\n  swap2\n  pop\n  pop\n    /* \"#utility.yul\":1105:1790   */\n  swap3\n  swap6\n  swap2\n  swap5\n  pop\n  swap3\n  pop\n  jump\t// out\n    /* \"#utility.yul\":1795:2175   */\ntag_15:\n    /* \"#utility.yul\":1874:1875   */\n  0x01\n    /* \"#utility.yul\":1870:1882   */\n  dup2\n  dup2\n  shr\n  swap1\n    /* \"#utility.yul\":1917:1929   */\n  dup3\n  and\n  dup1\n    /* \"#utility.yul\":1938:1999   */\n  tag_40\n  jumpi\n    /* \"#utility.yul\":1992:1996   */\n  0x7f\n    /* \"#utility.yul\":1984:1990   */\n  dup3\n    /* \"#utility.yul\":1980:1997   */\n  and\n    /* \"#utility.yul\":1970:1997   */\n  swap2\n  pop\n    /* \"#utility.yul\":1938:1999   */\ntag_40:\n    /* \"#utility.yul\":2045:2047   */\n  0x20\n    /* \"#utility.yul\":2037:2043   */\n  dup3\n    /* \"#utility.yul\":2034:2048   */\n  lt\n    /* \"#utility.yul\":2014:2032   */\n  dup2\n    /* \"#utility.yul\":2011:2049   */\n  sub\n    /* \"#utility.yul\":2008:2169   */\n  tag_41\n  jumpi\n    /* \"#utility.yul\":2091:2101   */\n  0x4e487b71\n    /* \"#utility.yul\":2086:2089   */\n  0xe0\n    /* \"#utility.yul\":2082:2102   */\n  shl\n    /* \"#utility.yul\":2079:2080   */\n  0x00\n    /* \"#utility.yul\":2072:2103   */\n  mstore\n    /* \"#utility.yul\":2126:2130   */\n  0x22\n    /* \"#utility.yul\":2123:2124   */\n  0x04\n    /* \"#utility.yul\":2116:2131   */\n  mstore\n    /* \"#utility.yul\":2154:2158   */\n  0x24\n    /* \"#utility.yul\":2151:2152   */\n  0x00\n    /* \"#utility.yul\":2144:2159   */\n  revert\n    /* \"#utility.yul\":2008:2169   */\ntag_41:\n  pop\n    /* \"#utility.yul\":1795:2175   */\n  swap2\n  swap1\n  pop\n  jump\t// out\n    /* \"#utility.yul\":2306:2851   */\ntag_17:\n    /* \"#utility.yul\":2408:2410   */\n  0x1f\n    /* \"#utility.yul\":2403:2406   */\n  dup3\n    /* \"#utility.yul\":2400:2411   */\n  gt\n    /* \"#utility.yul\":2397:2845   */\n  iszero\n  tag_44\n  jumpi\n    /* \"#utility.yul\":2444:2445   */\n  0x00\n    /* \"#utility.yul\":2469:2474   */\n  dup2\n    /* \"#utility.yul\":2465:2467   */\n  dup2\n    /* \"#utility.yul\":2458:2475   */\n  mstore\n    /* \"#utility.yul\":2514:2518   */\n  0x20\n    /* \"#utility.yul\":2510:2512   */\n  dup2\n    /* \"#utility.yul\":2500:2519   */\n  keccak256\n    /* \"#utility.yul\":2584:2586   */\n  0x1f\n    /* \"#utility.yul\":2572:2582   */\n  dup6\n    /* \"#utility.yul\":2568:2587   */\n  add\n    /* \"#utility.yul\":2565:2566   */\n  0x05\n    /* \"#utility.yul\":2561:2588   */\n  shr\n    /* \"#utility.yul\":2555:2559   */\n  dup2\n    /* \"#utility.yul\":2551:2589   */\n  add\n    /* \"#utility.yul\":2620:2624   */\n  0x20\n    /* \"#utility.yul\":2608:2618   */\n  dup7\n    /* \"#utility.yul\":2605:2625   */\n  lt\n    /* \"#utility.yul\":2602:2649   */\n  iszero\n  tag_45\n  jumpi\n  pop\n    /* \"#utility.yul\":2643:2647   */\n  dup1\n    /* \"#utility.yul\":2602:2649   */\ntag_45:\n    /* \"#utility.yul\":2698:2700   */\n  0x1f\n    /* \"#utility.yul\":2693:2696   */\n  dup6\n    /* \"#utility.yul\":2689:2701   */\n  add\n    /* \"#utility.yul\":2686:2687   */\n  0x05\n    /* \"#utility.yul\":2682:2702   */\n  shr\n    /* \"#utility.yul\":2676:2680   */\n  dup3\n    /* \"#utility.yul\":2672:2703   */\n  add\n    /* \"#utility.yul\":2662:2703   */\n  swap2\n  pop\n    /* \"#utility.yul\":2753:2835   */\ntag_46:\n    /* \"#utility.yul\":2771:2773   */\n  dup2\n    /* \"#utility.yul\":2764:2769   */\n  dup2\n    /* \"#utility.yul\":2761:2774   */\n  lt\n    /* \"#utility.yul\":2753:2835   */\n  iszero\n  tag_48\n  jumpi\n    /* \"#utility.yul\":2816:2833   */\n  dup3\n  dup2\n  sstore\n    /* \"#utility.yul\":2797:2798   */\n  0x01\n    /* \"#utility.yul\":2786:2799   */\n  add\n    /* \"#utility.yul\":2753:2835   */\n  jump(tag_46)\ntag_48:\n    /* \"#utility.yul\":2757:2760   */\n  pop\n  pop\n  pop\n    /* \"#utility.yul\":2397:2845   */\ntag_44:\n    /* \"#utility.yul\":2306:2851   */\n  pop\n  pop\n  pop\n  jump\t// out\n    /* \"#utility.yul\":3027:4379   */\ntag_7:\n    /* \"#utility.yul\":3147:3157   */\n  dup2\n  mload\n  sub(shl(0x40, 0x01), 0x01)\n    /* \"#utility.yul\":3169:3199   */\n  dup2\n  gt\n    /* \"#utility.yul\":3166:3222   */\n  iszero\n  tag_52\n  jumpi\n    /* \"#utility.yul\":3202:3220   */\n  tag_52\n  tag_12\n  jump\t// in\ntag_52:\n    /* \"#utility.yul\":3231:3328   */\n  tag_53\n    /* \"#utility.yul\":3321:3327   */\n  dup2\n    /* \"#utility.yul\":3281:3319   */\n  tag_54\n    /* \"#utility.yul\":3313:3317   */\n  dup5\n    /* \"#utility.yul\":3307:3318   */\n  sload\n    /* \"#utility.yul\":3281:3319   */\n  tag_15\n  jump\t// in\ntag_54:\n    /* \"#utility.yul\":3275:3279   */\n  dup5\n    /* \"#utility.yul\":3231:3328   */\n  tag_17\n  jump\t// in\ntag_53:\n    /* \"#utility.yul\":3383:3387   */\n  0x20\n  dup1\n    /* \"#utility.yul\":3447:3449   */\n  0x1f\n    /* \"#utility.yul\":3436:3450   */\n  dup4\n  gt\n    /* \"#utility.yul\":3464:3465   */\n  0x01\n    /* \"#utility.yul\":3459:4122   */\n  dup2\n  eq\n  tag_56\n  jumpi\n    /* \"#utility.yul\":4166:4167   */\n  0x00\n    /* \"#utility.yul\":4183:4189   */\n  dup5\n    /* \"#utility.yul\":4180:4269   */\n  iszero\n  tag_57\n  jumpi\n  pop\n    /* \"#utility.yul\":4235:4254   */\n  dup6\n  dup4\n  add\n    /* \"#utility.yul\":4229:4255   */\n  mload\n    /* \"#utility.yul\":4180:4269   */\ntag_57:\n  not(0x00)\n    /* \"#utility.yul\":2984:2985   */\n  0x03\n    /* \"#utility.yul\":2980:2991   */\n  dup7\n  swap1\n  shl\n    /* \"#utility.yul\":2976:3000   */\n  shr\n    /* \"#utility.yul\":2972:3001   */\n  not\n    /* \"#utility.yul\":2962:3002   */\n  and\n    /* \"#utility.yul\":3008:3009   */\n  0x01\n    /* \"#utility.yul\":3004:3015   */\n  dup6\n  swap1\n  shl\n    /* \"#utility.yul\":2959:3016   */\n  or\n    /* \"#utility.yul\":4282:4363   */\n  dup6\n  sstore\n    /* \"#utility.yul\":3429:4373   */\n  jump(tag_48)\n    /* \"#utility.yul\":3459:4122   */\ntag_56:\n    /* \"#utility.yul\":2253:2254   */\n  0x00\n    /* \"#utility.yul\":2246:2260   */\n  dup6\n  dup2\n  mstore\n    /* \"#utility.yul\":2290:2294   */\n  0x20\n    /* \"#utility.yul\":2277:2295   */\n  dup2\n  keccak256\n  not(0x1f)\n    /* \"#utility.yul\":3495:3515   */\n  dup7\n  and\n  swap2\n    /* \"#utility.yul\":3613:3849   */\ntag_60:\n    /* \"#utility.yul\":3627:3634   */\n  dup3\n    /* \"#utility.yul\":3624:3625   */\n  dup2\n    /* \"#utility.yul\":3621:3635   */\n  lt\n    /* \"#utility.yul\":3613:3849   */\n  iszero\n  tag_62\n  jumpi\n    /* \"#utility.yul\":3716:3735   */\n  dup9\n  dup7\n  add\n    /* \"#utility.yul\":3710:3736   */\n  mload\n    /* \"#utility.yul\":3695:3737   */\n  dup3\n  sstore\n    /* \"#utility.yul\":3808:3835   */\n  swap5\n  dup5\n  add\n  swap5\n    /* \"#utility.yul\":3776:3777   */\n  0x01\n    /* \"#utility.yul\":3764:3778   */\n  swap1\n  swap2\n  add\n  swap1\n    /* \"#utility.yul\":3643:3662   */\n  dup5\n  add\n    /* \"#utility.yul\":3613:3849   */\n  jump(tag_60)\ntag_62:\n    /* \"#utility.yul\":3617:3620   */\n  pop\n    /* \"#utility.yul\":3877:3883   */\n  dup6\n    /* \"#utility.yul\":3868:3875   */\n  dup3\n    /* \"#utility.yul\":3865:3884   */\n  lt\n    /* \"#utility.yul\":3862:4063   */\n  iszero\n  tag_63\n  jumpi\n    /* \"#utility.yul\":3938:3957   */\n  dup8\n  dup6\n  add\n    /* \"#utility.yul\":3932:3958   */\n  mload\n  not(0x00)\n    /* \"#utility.yul\":4021:4022   */\n  0x03\n    /* \"#utility.yul\":4017:4031   */\n  dup9\n  swap1\n  shl\n    /* \"#utility.yul\":4033:4036   */\n  0xf8\n    /* \"#utility.yul\":4013:4037   */\n  and\n    /* \"#utility.yul\":4009:4046   */\n  shr\n    /* \"#utility.yul\":4005:4047   */\n  not\n    /* \"#utility.yul\":3990:4048   */\n  and\n    /* \"#utility.yul\":3975:4049   */\n  dup2\n  sstore\n    /* \"#utility.yul\":3862:4063   */\ntag_63:\n  pop\n  pop\n  pop\n  pop\n  pop\n    /* \"#utility.yul\":4109:4110   */\n  0x01\n    /* \"#utility.yul\":4093:4107   */\n  swap1\n  dup2\n  shl\n    /* \"#utility.yul\":4089:4111   */\n  add\n    /* \"#utility.yul\":4076:4112   */\n  swap1\n  sstore\n  pop\n    /* \"#utility.yul\":3027:4379   */\n  jump\t// out\n    /* \"#utility.yul\":4384:5126   */\ntag_10:\n    /* \"#utility.yul\":4662:4664   */\n  0x60\n    /* \"#utility.yul\":4651:4660   */\n  dup2\n    /* \"#utility.yul\":4644:4665   */\n  mstore\n    /* \"#utility.yul\":4701:4703   */\n  0x16\n    /* \"#utility.yul\":4696:4698   */\n  0x60\n    /* \"#utility.yul\":4685:4694   */\n  dup3\n    /* \"#utility.yul\":4681:4699   */\n  add\n    /* \"#utility.yul\":4674:4704   */\n  mstore\n    /* \"#utility.yul\":4741:4765   */\n  0x496e73706563746f7220526567697374657265643a2000000000000000000000\n    /* \"#utility.yul\":4735:4738   */\n  0x80\n    /* \"#utility.yul\":4724:4733   */\n  dup3\n    /* \"#utility.yul\":4720:4739   */\n  add\n    /* \"#utility.yul\":4713:4766   */\n  mstore\n    /* \"#utility.yul\":4804:4807   */\n  0xa0\n    /* \"#utility.yul\":4797:4801   */\n  0x20\n    /* \"#utility.yul\":4786:4795   */\n  dup3\n    /* \"#utility.yul\":4782:4802   */\n  add\n    /* \"#utility.yul\":4775:4808   */\n  mstore\n    /* \"#utility.yul\":4625:4629   */\n  0x00\n    /* \"#utility.yul\":4837:4843   */\n  dup4\n    /* \"#utility.yul\":4831:4844   */\n  mload\n    /* \"#utility.yul\":4881:4887   */\n  dup1\n    /* \"#utility.yul\":4875:4878   */\n  0xa0\n    /* \"#utility.yul\":4864:4873   */\n  dup5\n    /* \"#utility.yul\":4860:4879   */\n  add\n    /* \"#utility.yul\":4853:4888   */\n  mstore\n    /* \"#utility.yul\":4897:4979   */\n  tag_65\n    /* \"#utility.yul\":4972:4978   */\n  dup2\n    /* \"#utility.yul\":4966:4969   */\n  0xc0\n    /* \"#utility.yul\":4955:4964   */\n  dup6\n    /* \"#utility.yul\":4951:4970   */\n  add\n    /* \"#utility.yul\":4944:4948   */\n  0x20\n    /* \"#utility.yul\":4936:4942   */\n  dup9\n    /* \"#utility.yul\":4932:4949   */\n  add\n    /* \"#utility.yul\":4897:4979   */\n  tag_13\n  jump\t// in\ntag_65:\n  sub(shl(0xa0, 0x01), 0x01)\n    /* \"#utility.yul\":5087:5119   */\n  swap4\n  swap1\n  swap4\n  and\n    /* \"#utility.yul\":5082:5084   */\n  0x40\n    /* \"#utility.yul\":5067:5085   */\n  dup4\n  add\n    /* \"#utility.yul\":5060:5120   */\n  mstore\n  pop\n    /* \"#utility.yul\":5040:5042   */\n  0x1f\n    /* \"#utility.yul\":5019:5034   */\n  swap2\n  swap1\n  swap2\n  add\n  not(0x1f)\n    /* \"#utility.yul\":5015:5044   */\n  and\n    /* \"#utility.yul\":5000:5045   */\n  add\n    /* \"#utility.yul\":5047:5050   */\n  0xc0\n    /* \"#utility.yul\":4996:5051   */\n  add\n  swap2\n    /* \"#utility.yul\":4384:5126   */\n  swap1\n  pop\n  jump\t// out\ntag_19:\n    /* \"contracts/Project1/Real_State.sol\":1061:16990  contract RealState{... */\n  dataSize(sub_0)\n  dup1\n  dataOffset(sub_0)\n  0x00\n  codecopy\n  0x00\n  return\nstop\n\nsub_0: assembly {\n        /* \"contracts/Project1/Real_State.sol\":1061:16990  contract RealState{... */\n      mstore(0x40, 0x80)\n      jumpi(tag_1, lt(calldatasize, 0x04))\n      shr(0xe0, calldataload(0x00))\n      dup1\n      0x7ed11e62\n      gt\n      tag_31\n      jumpi\n      dup1\n      0xd1760e60\n      gt\n      tag_32\n      jumpi\n      dup1\n      0xe43bf1f4\n      gt\n      tag_33\n      jumpi\n      dup1\n      0xe43bf1f4\n      eq\n      tag_27\n      jumpi\n      dup1\n      0xe9db0fcc\n      eq\n      tag_28\n      jumpi\n      dup1\n      0xed2cee9e\n      eq\n      tag_29\n      jumpi\n      dup1\n      0xf9c43bdf\n      eq\n      tag_30\n      jumpi\n      0x00\n      dup1\n      revert\n    tag_33:\n      dup1\n      0xd1760e60\n      eq\n      tag_23\n      jumpi\n      dup1\n      0xdd4d181f\n      eq\n      tag_24\n      jumpi\n      dup1\n      0xdec091ad\n      eq\n      tag_25\n      jumpi\n      dup1\n      0xdef936c3\n      eq\n      tag_26\n      jumpi\n      0x00\n      dup1\n      revert\n    tag_32:\n      dup1\n      0x985e2b57\n      gt\n      tag_34\n      jumpi\n      dup1\n      0x985e2b57\n      eq\n      tag_19\n      jumpi\n      dup1\n      0xab517074\n      eq\n      tag_20\n      jumpi\n      dup1\n      0xbf68808d\n      eq\n      tag_21\n      jumpi\n      dup1\n      0xc798ff7d\n      eq\n      tag_22\n      jumpi\n      0x00\n      dup1\n      revert\n    tag_34:\n      dup1\n      0x7ed11e62\n      eq\n      tag_16\n      jumpi\n      dup1\n      0x8a733aa7\n      eq\n      tag_17\n      jumpi\n      dup1\n      0x96c331bb\n      eq\n      tag_18\n      jumpi\n      0x00\n      dup1\n      revert\n    tag_31:\n      dup1\n      0x52959ea2\n      gt\n      tag_35\n      jumpi\n      dup1\n      0x6d3f4b7a\n      gt\n      tag_36\n      jumpi\n      dup1\n      0x6d3f4b7a\n      eq\n      tag_12\n      jumpi\n      dup1\n      0x727c04c8\n      eq\n      tag_13\n      jumpi\n      dup1\n      0x76aa67e3\n      eq\n      tag_14\n      jumpi\n      dup1\n      0x7c46e851\n      eq\n      tag_15\n      jumpi\n      0x00\n      dup1\n      revert\n    tag_36:\n      dup1\n      0x52959ea2\n      eq\n      tag_9\n      jumpi\n      dup1\n      0x6814800b\n      eq\n      tag_10\n      jumpi\n      dup1\n      0x696f8c57\n      eq\n      tag_11\n      jumpi\n      0x00\n      dup1\n      revert\n    tag_35:\n      dup1\n      0x32be894b\n      gt\n      tag_37\n      jumpi\n      dup1\n      0x32be894b\n      eq\n      tag_5\n      jumpi\n      dup1\n      0x3923a853\n      eq\n      tag_6\n      jumpi\n      dup1\n      0x3abd0136\n      eq\n      tag_7\n      jumpi\n      dup1\n      0x4dcb280e\n      eq\n      tag_8\n      jumpi\n      0x00\n      dup1\n      revert\n    tag_37:\n      dup1\n      0x1d8de063\n      eq\n      tag_2\n      jumpi\n      dup1\n      0x226897b5\n      eq\n      tag_3\n      jumpi\n      dup1\n      0x2658d9ac\n      eq\n      tag_4\n      jumpi\n    tag_1:\n      0x00\n      dup1\n      revert\n        /* \"contracts/Project1/Real_State.sol\":1274:1296  uint public totalLands */\n    tag_2:\n      callvalue\n      dup1\n      iszero\n      tag_38\n      jumpi\n      0x00\n      dup1\n      revert\n    tag_38:\n      pop\n      tag_39\n      sload(0x02)\n      dup2\n      jump\n    tag_39:\n      mload(0x40)\n        /* \"#utility.yul\":160:185   */\n      swap1\n      dup2\n      mstore\n        /* \"#utility.yul\":148:150   */\n      0x20\n        /* \"#utility.yul\":133:151   */\n      add\n        /* \"contracts/Project1/Real_State.sol\":1274:1296  uint public totalLands */\n    tag_41:\n      mload(0x40)\n      dup1\n      swap2\n      sub\n      swap1\n      return\n        /* \"contracts/Project1/Real_State.sol\":1536:1574  mapping(uint => LandInfo) public Lands */\n    tag_3:\n      callvalue\n      dup1\n      iszero\n      tag_43\n      jumpi\n      0x00\n      dup1\n      revert\n    tag_43:\n      pop\n      tag_44\n      tag_45\n      calldatasize\n      0x04\n      tag_46\n      jump\t// in\n    tag_45:\n      tag_47\n      jump\t// in\n    tag_44:\n      mload(0x40)\n      tag_41\n      swap10\n      swap9\n      swap8\n      swap7\n      swap6\n      swap5\n      swap4\n      swap3\n      swap2\n      swap1\n      tag_49\n      jump\t// in\n        /* \"contracts/Project1/Real_State.sol\":8536:9614  function changeSellertoBuyer... */\n    tag_4:\n      callvalue\n      dup1\n      iszero\n      tag_50\n      jumpi\n      0x00\n      dup1\n      revert\n    tag_50:\n      pop\n      tag_51\n      tag_52\n      calldatasize\n      0x04\n      tag_53\n      jump\t// in\n    tag_52:\n      tag_54\n      jump\t// in\n    tag_51:\n      stop\n        /* \"contracts/Project1/Real_State.sol\":2392:2442  mapping(uint => bool) public CheckLandRegistration */\n    tag_5:\n      callvalue\n      dup1\n      iszero\n      tag_55\n      jumpi\n      0x00\n      dup1\n      revert\n    tag_55:\n      pop\n      tag_56\n      tag_57\n      calldatasize\n      0x04\n      tag_46\n      jump\t// in\n    tag_57:\n      mstore(0x20, 0x0b)\n      0x00\n      swap1\n      dup2\n      mstore\n      0x40\n      swap1\n      keccak256\n      sload\n      0xff\n      and\n      dup2\n      jump\n    tag_56:\n      mload(0x40)\n        /* \"#utility.yul\":2504:2518   */\n      swap1\n      iszero\n        /* \"#utility.yul\":2497:2519   */\n      iszero\n        /* \"#utility.yul\":2479:2520   */\n      dup2\n      mstore\n        /* \"#utility.yul\":2467:2469   */\n      0x20\n        /* \"#utility.yul\":2452:2470   */\n      add\n        /* \"contracts/Project1/Real_State.sol\":2392:2442  mapping(uint => bool) public CheckLandRegistration */\n      tag_41\n        /* \"#utility.yul\":2339:2526   */\n      jump\n        /* \"contracts/Project1/Real_State.sol\":13672:13860  function checkIsSeller... */\n    tag_6:\n      callvalue\n      dup1\n      iszero\n      tag_61\n      jumpi\n      0x00\n      dup1\n      revert\n    tag_61:\n      pop\n      tag_56\n      tag_63\n      calldatasize\n      0x04\n      tag_53\n      jump\t// in\n    tag_63:\n      sub(shl(0xa0, 0x01), 0x01)\n        /* \"contracts/Project1/Real_State.sol\":13806:13835  SellerMapping[_sellerAddress] */\n      and\n        /* \"contracts/Project1/Real_State.sol\":13777:13781  bool */\n      0x00\n        /* \"contracts/Project1/Real_State.sol\":13806:13835  SellerMapping[_sellerAddress] */\n      swap1\n      dup2\n      mstore\n        /* \"contracts/Project1/Real_State.sol\":13806:13819  SellerMapping */\n      0x07\n        /* \"contracts/Project1/Real_State.sol\":13806:13835  SellerMapping[_sellerAddress] */\n      0x20\n      mstore\n      0x40\n      swap1\n      keccak256\n        /* \"contracts/Project1/Real_State.sol\":13806:13852  SellerMapping[_sellerAddress].isSellerVerified */\n      0x05\n      add\n      sload\n      0xff\n      and\n      swap1\n        /* \"contracts/Project1/Real_State.sol\":13672:13860  function checkIsSeller... */\n      jump\n        /* \"contracts/Project1/Real_State.sol\":1436:1459  uint public totalBuyers */\n    tag_7:\n      callvalue\n      dup1\n      iszero\n      tag_66\n      jumpi\n      0x00\n      dup1\n      revert\n    tag_66:\n      pop\n      tag_39\n      sload(0x04)\n      dup2\n      jump\n        /* \"contracts/Project1/Real_State.sol\":14539:14779  function landOwner... */\n    tag_8:\n      callvalue\n      dup1\n      iszero\n      tag_70\n      jumpi\n      0x00\n      dup1\n      revert\n    tag_70:\n      pop\n      tag_71\n      tag_72\n      calldatasize\n      0x04\n      tag_46\n      jump\t// in\n    tag_72:\n      tag_73\n      jump\t// in\n    tag_71:\n      mload(0x40)\n      tag_41\n      swap3\n      swap2\n      swap1\n      tag_75\n      jump\t// in\n        /* \"contracts/Project1/Real_State.sol\":13985:14161  function checkIsBuyer... */\n    tag_9:\n      callvalue\n      dup1\n      iszero\n      tag_76\n      jumpi\n      0x00\n      dup1\n      revert\n    tag_76:\n      pop\n      tag_56\n      tag_78\n      calldatasize\n      0x04\n      tag_53\n      jump\t// in\n    tag_78:\n      sub(shl(0xa0, 0x01), 0x01)\n        /* \"contracts/Project1/Real_State.sol\":14110:14137  BuyerMapping[_buyerAddress] */\n      and\n        /* \"contracts/Project1/Real_State.sol\":14087:14091  bool */\n      0x00\n        /* \"contracts/Project1/Real_State.sol\":14110:14137  BuyerMapping[_buyerAddress] */\n      swap1\n      dup2\n      mstore\n        /* \"contracts/Project1/Real_State.sol\":14110:14122  BuyerMapping */\n      0x08\n        /* \"contracts/Project1/Real_State.sol\":14110:14137  BuyerMapping[_buyerAddress] */\n      0x20\n      mstore\n      0x40\n      swap1\n      keccak256\n        /* \"contracts/Project1/Real_State.sol\":14110:14153  BuyerMapping[_buyerAddress].isBuyerVerified */\n      0x05\n      add\n      sload\n      0xff\n      and\n      swap1\n        /* \"contracts/Project1/Real_State.sol\":13985:14161  function checkIsBuyer... */\n      jump\n        /* \"contracts/Project1/Real_State.sol\":12311:13046  function verifyBuyer... */\n    tag_10:\n      callvalue\n      dup1\n      iszero\n      tag_81\n      jumpi\n      0x00\n      dup1\n      revert\n    tag_81:\n      pop\n      tag_51\n      tag_83\n      calldatasize\n      0x04\n      tag_53\n      jump\t// in\n    tag_83:\n      tag_84\n      jump\t// in\n        /* \"contracts/Project1/Real_State.sol\":1160:1191  address public inspectorAddress */\n    tag_11:\n      callvalue\n      dup1\n      iszero\n      tag_85\n      jumpi\n      0x00\n      dup1\n      revert\n    tag_85:\n      pop\n      sload(0x00)\n      tag_86\n      swap1\n      sub(shl(0xa0, 0x01), 0x01)\n      and\n      dup2\n      jump\n    tag_86:\n      mload(0x40)\n      sub(shl(0xa0, 0x01), 0x01)\n        /* \"#utility.yul\":3017:3049   */\n      swap1\n      swap2\n      and\n        /* \"#utility.yul\":2999:3050   */\n      dup2\n      mstore\n        /* \"#utility.yul\":2987:2989   */\n      0x20\n        /* \"#utility.yul\":2972:2990   */\n      add\n        /* \"contracts/Project1/Real_State.sol\":1160:1191  address public inspectorAddress */\n      tag_41\n        /* \"#utility.yul\":2853:3056   */\n      jump\n        /* \"contracts/Project1/Real_State.sol\":1354:1378  uint public totalSellers */\n    tag_12:\n      callvalue\n      dup1\n      iszero\n      tag_90\n      jumpi\n      0x00\n      dup1\n      revert\n    tag_90:\n      pop\n      tag_39\n      sload(0x03)\n      dup2\n      jump\n        /* \"contracts/Project1/Real_State.sol\":10830:11475  function getLandById... */\n    tag_13:\n      callvalue\n      dup1\n      iszero\n      tag_94\n      jumpi\n      0x00\n      dup1\n      revert\n    tag_94:\n      pop\n      tag_95\n      tag_96\n      calldatasize\n      0x04\n      tag_46\n      jump\t// in\n    tag_96:\n      tag_97\n      jump\t// in\n    tag_95:\n      mload(0x40)\n      tag_41\n      swap8\n      swap7\n      swap6\n      swap5\n      swap4\n      swap3\n      swap2\n      swap1\n      tag_99\n      jump\t// in\n        /* \"contracts/Project1/Real_State.sol\":2331:2385  mapping(address => bool) public CheckBuyerRegistration */\n    tag_14:\n      callvalue\n      dup1\n      iszero\n      tag_100\n      jumpi\n      0x00\n      dup1\n      revert\n    tag_100:\n      pop\n      tag_56\n      tag_102\n      calldatasize\n      0x04\n      tag_53\n      jump\t// in\n    tag_102:\n      mstore(0x20, 0x0a)\n      0x00\n      swap1\n      dup2\n      mstore\n      0x40\n      swap1\n      keccak256\n      sload\n      0xff\n      and\n      dup2\n      jump\n        /* \"contracts/Project1/Real_State.sol\":3397:4671  function registerSeller... */\n    tag_15:\n      callvalue\n      dup1\n      iszero\n      tag_105\n      jumpi\n      0x00\n      dup1\n      revert\n    tag_105:\n      pop\n      tag_51\n      tag_107\n      calldatasize\n      0x04\n      tag_108\n      jump\t// in\n    tag_107:\n      tag_109\n      jump\t// in\n        /* \"contracts/Project1/Real_State.sol\":15260:16201  function buyLand... */\n    tag_16:\n      tag_51\n      tag_111\n      calldatasize\n      0x04\n      tag_112\n      jump\t// in\n    tag_111:\n      tag_113\n      jump\t// in\n        /* \"contracts/Project1/Real_State.sol\":2269:2324  mapping(address => bool) public CheckSellerRegistration */\n    tag_17:\n      callvalue\n      dup1\n      iszero\n      tag_114\n      jumpi\n      0x00\n      dup1\n      revert\n    tag_114:\n      pop\n      tag_56\n      tag_116\n      calldatasize\n      0x04\n      tag_53\n      jump\t// in\n    tag_116:\n      mstore(0x20, 0x09)\n      0x00\n      swap1\n      dup2\n      mstore\n      0x40\n      swap1\n      keccak256\n      sload\n      0xff\n      and\n      dup2\n      jump\n        /* \"contracts/Project1/Real_State.sol\":4749:5322  function updateSeller... */\n    tag_18:\n      callvalue\n      dup1\n      iszero\n      tag_119\n      jumpi\n      0x00\n      dup1\n      revert\n    tag_119:\n      pop\n      tag_51\n      tag_121\n      calldatasize\n      0x04\n      tag_122\n      jump\t// in\n    tag_121:\n      tag_123\n      jump\t// in\n        /* \"contracts/Project1/Real_State.sol\":5392:6619  function registerBuyer... */\n    tag_19:\n      callvalue\n      dup1\n      iszero\n      tag_124\n      jumpi\n      0x00\n      dup1\n      revert\n    tag_124:\n      pop\n      tag_51\n      tag_126\n      calldatasize\n      0x04\n      tag_108\n      jump\t// in\n    tag_126:\n      tag_127\n      jump\t// in\n        /* \"contracts/Project1/Real_State.sol\":1939:1988  mapping(address => BuyerInfo) public BuyerMapping */\n    tag_20:\n      callvalue\n      dup1\n      iszero\n      tag_128\n      jumpi\n      0x00\n      dup1\n      revert\n    tag_128:\n      pop\n      tag_129\n      tag_130\n      calldatasize\n      0x04\n      tag_53\n      jump\t// in\n    tag_130:\n      tag_131\n      jump\t// in\n    tag_129:\n      mload(0x40)\n      tag_41\n      swap7\n      swap6\n      swap5\n      swap4\n      swap3\n      swap2\n      swap1\n      tag_133\n      jump\t// in\n        /* \"contracts/Project1/Real_State.sol\":14285:14444  function checkIsland... */\n    tag_21:\n      callvalue\n      dup1\n      iszero\n      tag_134\n      jumpi\n      0x00\n      dup1\n      revert\n    tag_134:\n      pop\n      tag_56\n      tag_136\n      calldatasize\n      0x04\n      tag_46\n      jump\t// in\n    tag_136:\n        /* \"contracts/Project1/Real_State.sol\":14378:14382  bool */\n      0x00\n        /* \"contracts/Project1/Real_State.sol\":14407:14421  Lands[_landId] */\n      swap1\n      dup2\n      mstore\n        /* \"contracts/Project1/Real_State.sol\":14407:14412  Lands */\n      0x05\n        /* \"contracts/Project1/Real_State.sol\":14407:14421  Lands[_landId] */\n      0x20\n      dup2\n      swap1\n      mstore\n      0x40\n      swap1\n      swap2\n      keccak256\n        /* \"contracts/Project1/Real_State.sol\":14407:14436  Lands[_landId].isLandVerified */\n      add\n      sload\n      0x0100\n      swap1\n      div\n      0xff\n      and\n      swap1\n        /* \"contracts/Project1/Real_State.sol\":14285:14444  function checkIsland... */\n      jump\n        /* \"contracts/Project1/Real_State.sol\":16301:16985  function transferLand... */\n    tag_22:\n      callvalue\n      dup1\n      iszero\n      tag_139\n      jumpi\n      0x00\n      dup1\n      revert\n    tag_139:\n      pop\n      tag_51\n      tag_141\n      calldatasize\n      0x04\n      tag_112\n      jump\t// in\n    tag_141:\n      tag_143\n      jump\t// in\n        /* \"contracts/Project1/Real_State.sol\":11560:12227  function verifySeller... */\n    tag_23:\n      callvalue\n      dup1\n      iszero\n      tag_144\n      jumpi\n      0x00\n      dup1\n      revert\n    tag_144:\n      pop\n      tag_51\n      tag_146\n      calldatasize\n      0x04\n      tag_53\n      jump\t// in\n    tag_146:\n      tag_147\n      jump\t// in\n        /* \"contracts/Project1/Real_State.sol\":9695:10752  function changeBuyertoSeller... */\n    tag_24:\n      callvalue\n      dup1\n      iszero\n      tag_148\n      jumpi\n      0x00\n      dup1\n      revert\n    tag_148:\n      pop\n      tag_51\n      tag_150\n      calldatasize\n      0x04\n      tag_53\n      jump\t// in\n    tag_150:\n      tag_151\n      jump\t// in\n        /* \"contracts/Project1/Real_State.sol\":1806:1857  mapping(address => SellerInfo) public SellerMapping */\n    tag_25:\n      callvalue\n      dup1\n      iszero\n      tag_152\n      jumpi\n      0x00\n      dup1\n      revert\n    tag_152:\n      pop\n      tag_129\n      tag_154\n      calldatasize\n      0x04\n      tag_53\n      jump\t// in\n    tag_154:\n      tag_155\n      jump\t// in\n        /* \"contracts/Project1/Real_State.sol\":1667:1721  mapping(uint => LandInspector) public InspectorMapping */\n    tag_26:\n      callvalue\n      dup1\n      iszero\n      tag_157\n      jumpi\n      0x00\n      dup1\n      revert\n    tag_157:\n      pop\n      tag_158\n      tag_159\n      calldatasize\n      0x04\n      tag_46\n      jump\t// in\n    tag_159:\n      tag_160\n      jump\t// in\n    tag_158:\n      mload(0x40)\n      tag_41\n      swap5\n      swap4\n      swap3\n      swap2\n      swap1\n      tag_162\n      jump\t// in\n        /* \"contracts/Project1/Real_State.sol\":6698:7238  function updateBuyer... */\n    tag_27:\n      callvalue\n      dup1\n      iszero\n      tag_163\n      jumpi\n      0x00\n      dup1\n      revert\n    tag_163:\n      pop\n      tag_51\n      tag_165\n      calldatasize\n      0x04\n      tag_122\n      jump\t// in\n    tag_165:\n      tag_166\n      jump\t// in\n        /* \"contracts/Project1/Real_State.sol\":7306:8457  function registerLand... */\n    tag_28:\n      callvalue\n      dup1\n      iszero\n      tag_167\n      jumpi\n      0x00\n      dup1\n      revert\n    tag_167:\n      pop\n      tag_51\n      tag_169\n      calldatasize\n      0x04\n      tag_170\n      jump\t// in\n    tag_169:\n      tag_171\n      jump\t// in\n        /* \"contracts/Project1/Real_State.sol\":14836:15060  function inspector()... */\n    tag_29:\n      callvalue\n      dup1\n      iszero\n      tag_172\n      jumpi\n      0x00\n      dup1\n      revert\n    tag_172:\n      pop\n      tag_71\n      tag_174\n      jump\t// in\n        /* \"contracts/Project1/Real_State.sol\":13129:13544  function verifyLand... */\n    tag_30:\n      callvalue\n      dup1\n      iszero\n      tag_176\n      jumpi\n      0x00\n      dup1\n      revert\n    tag_176:\n      pop\n      tag_51\n      tag_178\n      calldatasize\n      0x04\n      tag_46\n      jump\t// in\n    tag_178:\n      tag_179\n      jump\t// in\n        /* \"contracts/Project1/Real_State.sol\":1536:1574  mapping(uint => LandInfo) public Lands */\n    tag_47:\n      mstore(0x20, 0x05)\n      0x00\n      swap1\n      dup2\n      mstore\n      0x40\n      swap1\n      keccak256\n      dup1\n      sload\n      0x01\n      dup3\n      add\n      dup1\n      sload\n      swap2\n      swap3\n      swap2\n      tag_180\n      swap1\n      tag_181\n      jump\t// in\n    tag_180:\n      dup1\n      0x1f\n      add\n      0x20\n      dup1\n      swap2\n      div\n      mul\n      0x20\n      add\n      mload(0x40)\n      swap1\n      dup2\n      add\n      0x40\n      mstore\n      dup1\n      swap3\n      swap2\n      swap1\n      dup2\n      dup2\n      mstore\n      0x20\n      add\n      dup3\n      dup1\n      sload\n      tag_182\n      swap1\n      tag_181\n      jump\t// in\n    tag_182:\n      dup1\n      iszero\n      tag_183\n      jumpi\n      dup1\n      0x1f\n      lt\n      tag_184\n      jumpi\n      0x0100\n      dup1\n      dup4\n      sload\n      div\n      mul\n      dup4\n      mstore\n      swap2\n      0x20\n      add\n      swap2\n      jump(tag_183)\n    tag_184:\n      dup3\n      add\n      swap2\n      swap1\n      0x00\n      mstore\n      keccak256(0x00, 0x20)\n      swap1\n    tag_185:\n      dup2\n      sload\n      dup2\n      mstore\n      swap1\n      0x01\n      add\n      swap1\n      0x20\n      add\n      dup1\n      dup4\n      gt\n      tag_185\n      jumpi\n      dup3\n      swap1\n      sub\n      0x1f\n      and\n      dup3\n      add\n      swap2\n    tag_183:\n      pop\n      pop\n      pop\n      pop\n      pop\n      swap1\n      dup1\n      0x02\n      add\n      dup1\n      sload\n      tag_186\n      swap1\n      tag_181\n      jump\t// in\n    tag_186:\n      dup1\n      0x1f\n      add\n      0x20\n      dup1\n      swap2\n      div\n      mul\n      0x20\n      add\n      mload(0x40)\n      swap1\n      dup2\n      add\n      0x40\n      mstore\n      dup1\n      swap3\n      swap2\n      swap1\n      dup2\n      dup2\n      mstore\n      0x20\n      add\n      dup3\n      dup1\n      sload\n      tag_187\n      swap1\n      tag_181\n      jump\t// in\n    tag_187:\n      dup1\n      iszero\n      tag_188\n      jumpi\n      dup1\n      0x1f\n      lt\n      tag_189\n      jumpi\n      0x0100\n      dup1\n      dup4\n      sload\n      div\n      mul\n      dup4\n      mstore\n      swap2\n      0x20\n      add\n      swap2\n      jump(tag_188)\n    tag_189:\n      dup3\n      add\n      swap2\n      swap1\n      0x00\n      mstore\n      keccak256(0x00, 0x20)\n      swap1\n    tag_190:\n      dup2\n      sload\n      dup2\n      mstore\n      swap1\n      0x01\n      add\n      swap1\n      0x20\n      add\n      dup1\n      dup4\n      gt\n      tag_190\n      jumpi\n      dup3\n      swap1\n      sub\n      0x1f\n      and\n      dup3\n      add\n      swap2\n    tag_188:\n      pop\n      pop\n      pop\n      pop\n      pop\n      swap1\n      dup1\n      0x03\n      add\n      dup1\n      sload\n      tag_191\n      swap1\n      tag_181\n      jump\t// in\n    tag_191:\n      dup1\n      0x1f\n      add\n      0x20\n      dup1\n      swap2\n      div\n      mul\n      0x20\n      add\n      mload(0x40)\n      swap1\n      dup2\n      add\n      0x40\n      mstore\n      dup1\n      swap3\n      swap2\n      swap1\n      dup2\n      dup2\n      mstore\n      0x20\n      add\n      dup3\n      dup1\n      sload\n      tag_192\n      swap1\n      tag_181\n      jump\t// in\n    tag_192:\n      dup1\n      iszero\n      tag_193\n      jumpi\n      dup1\n      0x1f\n      lt\n      tag_194\n      jumpi\n      0x0100\n      dup1\n      dup4\n      sload\n      div\n      mul\n      dup4\n      mstore\n      swap2\n      0x20\n      add\n      swap2\n      jump(tag_193)\n    tag_194:\n      dup3\n      add\n      swap2\n      swap1\n      0x00\n      mstore\n      keccak256(0x00, 0x20)\n      swap1\n    tag_195:\n      dup2\n      sload\n      dup2\n      mstore\n      swap1\n      0x01\n      add\n      swap1\n      0x20\n      add\n      dup1\n      dup4\n      gt\n      tag_195\n      jumpi\n      dup3\n      swap1\n      sub\n      0x1f\n      and\n      dup3\n      add\n      swap2\n    tag_193:\n      pop\n      pop\n      pop\n      pop\n      0x04\n      dup4\n      add\n      sload\n      0x05\n      dup5\n      add\n      sload\n      0x06\n      dup6\n      add\n      dup1\n      sload\n      swap5\n      swap6\n      swap3\n      swap5\n      0xff\n      dup1\n      dup5\n      and\n      swap6\n      pop\n      0x0100\n      dup5\n      div\n      and\n      swap4\n      0x010000\n      swap1\n      swap4\n      div\n      sub(shl(0xa0, 0x01), 0x01)\n      and\n      swap3\n      swap2\n      swap1\n      tag_196\n      swap1\n      tag_181\n      jump\t// in\n    tag_196:\n      dup1\n      0x1f\n      add\n      0x20\n      dup1\n      swap2\n      div\n      mul\n      0x20\n      add\n      mload(0x40)\n      swap1\n      dup2\n      add\n      0x40\n      mstore\n      dup1\n      swap3\n      swap2\n      swap1\n      dup2\n      dup2\n      mstore\n      0x20\n      add\n      dup3\n      dup1\n      sload\n      tag_197\n      swap1\n      tag_181\n      jump\t// in\n    tag_197:\n      dup1\n      iszero\n      tag_198\n      jumpi\n      dup1\n      0x1f\n      lt\n      tag_199\n      jumpi\n      0x0100\n      dup1\n      dup4\n      sload\n      div\n      mul\n      dup4\n      mstore\n      swap2\n      0x20\n      add\n      swap2\n      jump(tag_198)\n    tag_199:\n      dup3\n      add\n      swap2\n      swap1\n      0x00\n      mstore\n      keccak256(0x00, 0x20)\n      swap1\n    tag_200:\n      dup2\n      sload\n      dup2\n      mstore\n      swap1\n      0x01\n      add\n      swap1\n      0x20\n      add\n      dup1\n      dup4\n      gt\n      tag_200\n      jumpi\n      dup3\n      swap1\n      sub\n      0x1f\n      and\n      dup3\n      add\n      swap2\n    tag_198:\n      pop\n      pop\n      pop\n      pop\n      pop\n      swap1\n      pop\n      dup10\n      jump\t// out\n        /* \"contracts/Project1/Real_State.sol\":8536:9614  function changeSellertoBuyer... */\n    tag_54:\n        /* \"contracts/Project1/Real_State.sol\":3223:3239  inspectorAddress */\n      and(sub(shl(0xa0, 0x01), 0x01), sload(0x00))\n        /* \"contracts/Project1/Real_State.sol\":3243:3253  msg.sender */\n      caller\n        /* \"contracts/Project1/Real_State.sol\":3223:3253  inspectorAddress == msg.sender */\n      eq\n        /* \"contracts/Project1/Real_State.sol\":3215:3308  require(inspectorAddress == msg.sender, \"You are not authorized to execute this transaction\") */\n      tag_202\n      jumpi\n      mload(0x40)\n      shl(0xe5, 0x461bcd)\n      dup2\n      mstore\n      0x04\n      add\n      tag_203\n      swap1\n      tag_204\n      jump\t// in\n    tag_203:\n      mload(0x40)\n      dup1\n      swap2\n      sub\n      swap1\n      revert\n    tag_202:\n      sub(shl(0xa0, 0x01), 0x01)\n        /* \"contracts/Project1/Real_State.sol\":8666:8705  CheckSellerRegistration[_sellerAddress] */\n      dup2\n      and\n      0x00\n      swap1\n      dup2\n      mstore\n        /* \"contracts/Project1/Real_State.sol\":8666:8689  CheckSellerRegistration */\n      0x09\n        /* \"contracts/Project1/Real_State.sol\":8666:8705  CheckSellerRegistration[_sellerAddress] */\n      0x20\n      mstore\n      0x40\n      swap1\n      keccak256\n      sload\n      0xff\n      and\n        /* \"contracts/Project1/Real_State.sol\":8666:8713  CheckSellerRegistration[_sellerAddress] == true */\n      iszero\n      iszero\n        /* \"contracts/Project1/Real_State.sol\":8666:8705  CheckSellerRegistration[_sellerAddress] */\n      0x01\n        /* \"contracts/Project1/Real_State.sol\":8666:8713  CheckSellerRegistration[_sellerAddress] == true */\n      eq\n        /* \"contracts/Project1/Real_State.sol\":8658:8768  require(CheckSellerRegistration[_sellerAddress] == true, \"Seller is not registered with the provided Address\") */\n      tag_206\n      jumpi\n      mload(0x40)\n      shl(0xe5, 0x461bcd)\n      dup2\n      mstore\n        /* \"#utility.yul\":10659:10661   */\n      0x20\n        /* \"contracts/Project1/Real_State.sol\":8658:8768  require(CheckSellerRegistration[_sellerAddress] == true, \"Seller is not registered with the provided Address\") */\n      0x04\n      dup3\n      add\n        /* \"#utility.yul\":10641:10662   */\n      mstore\n        /* \"#utility.yul\":10698:10700   */\n      0x32\n        /* \"#utility.yul\":10678:10696   */\n      0x24\n      dup3\n      add\n        /* \"#utility.yul\":10671:10701   */\n      mstore\n        /* \"#utility.yul\":10737:10771   */\n      0x53656c6c6572206973206e6f7420726567697374657265642077697468207468\n        /* \"#utility.yul\":10717:10735   */\n      0x44\n      dup3\n      add\n        /* \"#utility.yul\":10710:10772   */\n      mstore\n      shl(0x70, 0x652070726f76696465642041646472657373)\n        /* \"#utility.yul\":10788:10806   */\n      0x64\n      dup3\n      add\n        /* \"#utility.yul\":10781:10829   */\n      mstore\n        /* \"#utility.yul\":10846:10865   */\n      0x84\n      add\n        /* \"contracts/Project1/Real_State.sol\":8658:8768  require(CheckSellerRegistration[_sellerAddress] == true, \"Seller is not registered with the provided Address\") */\n      tag_203\n        /* \"#utility.yul\":10457:10871   */\n      jump\n        /* \"contracts/Project1/Real_State.sol\":8658:8768  require(CheckSellerRegistration[_sellerAddress] == true, \"Seller is not registered with the provided Address\") */\n    tag_206:\n      sub(shl(0xa0, 0x01), 0x01)\n        /* \"contracts/Project1/Real_State.sol\":8787:8816  SellerMapping[_sellerAddress] */\n      dup2\n      and\n      0x00\n      swap1\n      dup2\n      mstore\n        /* \"contracts/Project1/Real_State.sol\":8787:8800  SellerMapping */\n      0x07\n        /* \"contracts/Project1/Real_State.sol\":8787:8816  SellerMapping[_sellerAddress] */\n      0x20\n      mstore\n      0x40\n      swap1\n      keccak256\n        /* \"contracts/Project1/Real_State.sol\":8787:8833  SellerMapping[_sellerAddress].isSellerVerified */\n      0x05\n      add\n      sload\n      0xff\n      and\n        /* \"contracts/Project1/Real_State.sol\":8787:8841  SellerMapping[_sellerAddress].isSellerVerified == true */\n      iszero\n      iszero\n        /* \"contracts/Project1/Real_State.sol\":8787:8833  SellerMapping[_sellerAddress].isSellerVerified */\n      0x01\n        /* \"contracts/Project1/Real_State.sol\":8787:8841  SellerMapping[_sellerAddress].isSellerVerified == true */\n      eq\n        /* \"contracts/Project1/Real_State.sol\":8779:8890  require(SellerMapping[_sellerAddress].isSellerVerified == true, \"Seller is not verified by the Land Inspector\") */\n      tag_209\n      jumpi\n      mload(0x40)\n      shl(0xe5, 0x461bcd)\n      dup2\n      mstore\n        /* \"#utility.yul\":11078:11080   */\n      0x20\n        /* \"contracts/Project1/Real_State.sol\":8779:8890  require(SellerMapping[_sellerAddress].isSellerVerified == true, \"Seller is not verified by the Land Inspector\") */\n      0x04\n      dup3\n      add\n        /* \"#utility.yul\":11060:11081   */\n      mstore\n        /* \"#utility.yul\":11117:11119   */\n      0x2c\n        /* \"#utility.yul\":11097:11115   */\n      0x24\n      dup3\n      add\n        /* \"#utility.yul\":11090:11120   */\n      mstore\n        /* \"#utility.yul\":11156:11190   */\n      0x53656c6c6572206973206e6f7420766572696669656420627920746865204c61\n        /* \"#utility.yul\":11136:11154   */\n      0x44\n      dup3\n      add\n        /* \"#utility.yul\":11129:11191   */\n      mstore\n      shl(0xa1, 0x37321024b739b832b1ba37b9)\n        /* \"#utility.yul\":11207:11225   */\n      0x64\n      dup3\n      add\n        /* \"#utility.yul\":11200:11242   */\n      mstore\n        /* \"#utility.yul\":11259:11278   */\n      0x84\n      add\n        /* \"contracts/Project1/Real_State.sol\":8779:8890  require(SellerMapping[_sellerAddress].isSellerVerified == true, \"Seller is not verified by the Land Inspector\") */\n      tag_203\n        /* \"#utility.yul\":10876:11284   */\n      jump\n        /* \"contracts/Project1/Real_State.sol\":8779:8890  require(SellerMapping[_sellerAddress].isSellerVerified == true, \"Seller is not verified by the Land Inspector\") */\n    tag_209:\n      sub(shl(0xa0, 0x01), 0x01)\n        /* \"contracts/Project1/Real_State.sol\":8944:8973  SellerMapping[_sellerAddress] */\n      dup2\n      and\n      0x00\n      swap1\n      dup2\n      mstore\n        /* \"contracts/Project1/Real_State.sol\":8944:8957  SellerMapping */\n      0x07\n        /* \"contracts/Project1/Real_State.sol\":8944:8973  SellerMapping[_sellerAddress] */\n      0x20\n      swap1\n      dup2\n      mstore\n      0x40\n      dup1\n      dup4\n      keccak256\n        /* \"contracts/Project1/Real_State.sol\":8903:8915  BuyerMapping */\n      0x08\n        /* \"contracts/Project1/Real_State.sol\":8903:8931  BuyerMapping[_sellerAddress] */\n      swap1\n      swap3\n      mstore\n      swap1\n      swap2\n      keccak256\n      swap1\n        /* \"contracts/Project1/Real_State.sol\":8903:8984  BuyerMapping[_sellerAddress].buyerName = SellerMapping[_sellerAddress].sellerName */\n      tag_212\n      swap1\n        /* \"contracts/Project1/Real_State.sol\":8903:8931  BuyerMapping[_sellerAddress] */\n      dup3\n        /* \"contracts/Project1/Real_State.sol\":8903:8984  BuyerMapping[_sellerAddress].buyerName = SellerMapping[_sellerAddress].sellerName */\n      tag_213\n      jump\t// in\n    tag_212:\n      pop\n      sub(shl(0xa0, 0x01), 0x01)\n        /* \"contracts/Project1/Real_State.sol\":9035:9064  SellerMapping[_sellerAddress] */\n      dup2\n      and\n      0x00\n      swap1\n      dup2\n      mstore\n        /* \"contracts/Project1/Real_State.sol\":9035:9048  SellerMapping */\n      0x07\n        /* \"contracts/Project1/Real_State.sol\":9035:9064  SellerMapping[_sellerAddress] */\n      0x20\n      swap1\n      dup2\n      mstore\n      0x40\n      dup1\n      dup4\n      keccak256\n        /* \"contracts/Project1/Real_State.sol\":9035:9074  SellerMapping[_sellerAddress].sellerAge */\n      0x01\n      dup1\n      dup3\n      add\n      sload\n        /* \"contracts/Project1/Real_State.sol\":8995:9007  BuyerMapping */\n      0x08\n        /* \"contracts/Project1/Real_State.sol\":8995:9023  BuyerMapping[_sellerAddress] */\n      swap1\n      swap5\n      mstore\n      swap2\n      swap1\n      swap4\n      keccak256\n        /* \"contracts/Project1/Real_State.sol\":8995:9032  BuyerMapping[_sellerAddress].buyerAge */\n      swap1\n      dup2\n      add\n        /* \"contracts/Project1/Real_State.sol\":8995:9074  BuyerMapping[_sellerAddress].buyerAge = SellerMapping[_sellerAddress].sellerAge */\n      swap2\n      swap1\n      swap2\n      sstore\n        /* \"contracts/Project1/Real_State.sol\":9121:9155  SellerMapping[_sellerAddress].city */\n      0x02\n        /* \"contracts/Project1/Real_State.sol\":9085:9118  BuyerMapping[_sellerAddress].city */\n      swap1\n      dup2\n      add\n      swap2\n        /* \"contracts/Project1/Real_State.sol\":9085:9155  BuyerMapping[_sellerAddress].city = SellerMapping[_sellerAddress].city */\n      tag_214\n      swap2\n        /* \"contracts/Project1/Real_State.sol\":9121:9155  SellerMapping[_sellerAddress].city */\n      add\n        /* \"contracts/Project1/Real_State.sol\":9085:9118  BuyerMapping[_sellerAddress].city */\n      dup3\n        /* \"contracts/Project1/Real_State.sol\":9085:9155  BuyerMapping[_sellerAddress].city = SellerMapping[_sellerAddress].city */\n      tag_213\n      jump\t// in\n    tag_214:\n      pop\n      sub(shl(0xa0, 0x01), 0x01)\n        /* \"contracts/Project1/Real_State.sol\":9202:9231  SellerMapping[_sellerAddress] */\n      dup2\n      and\n      0x00\n      swap1\n      dup2\n      mstore\n        /* \"contracts/Project1/Real_State.sol\":9202:9215  SellerMapping */\n      0x07\n        /* \"contracts/Project1/Real_State.sol\":9202:9231  SellerMapping[_sellerAddress] */\n      0x20\n      swap1\n      dup2\n      mstore\n      0x40\n      dup1\n      dup4\n      keccak256\n        /* \"contracts/Project1/Real_State.sol\":9202:9242  SellerMapping[_sellerAddress].sellerCNIC */\n      0x03\n      dup1\n      dup3\n      add\n      sload\n        /* \"contracts/Project1/Real_State.sol\":9166:9178  BuyerMapping */\n      0x08\n        /* \"contracts/Project1/Real_State.sol\":9166:9194  BuyerMapping[_sellerAddress] */\n      swap1\n      swap5\n      mstore\n      swap2\n      swap1\n      swap4\n      keccak256\n        /* \"contracts/Project1/Real_State.sol\":9166:9199  BuyerMapping[_sellerAddress].cnic */\n      swap1\n      dup2\n      add\n        /* \"contracts/Project1/Real_State.sol\":9166:9242  BuyerMapping[_sellerAddress].cnic = SellerMapping[_sellerAddress].sellerCNIC */\n      swap2\n      swap1\n      swap2\n      sstore\n        /* \"contracts/Project1/Real_State.sol\":9290:9325  SellerMapping[_sellerAddress].email */\n      0x04\n        /* \"contracts/Project1/Real_State.sol\":9253:9287  BuyerMapping[_sellerAddress].email */\n      swap1\n      dup2\n      add\n      swap2\n        /* \"contracts/Project1/Real_State.sol\":9253:9325  BuyerMapping[_sellerAddress].email = SellerMapping[_sellerAddress].email */\n      tag_215\n      swap2\n        /* \"contracts/Project1/Real_State.sol\":9290:9325  SellerMapping[_sellerAddress].email */\n      add\n        /* \"contracts/Project1/Real_State.sol\":9253:9287  BuyerMapping[_sellerAddress].email */\n      dup3\n        /* \"contracts/Project1/Real_State.sol\":9253:9325  BuyerMapping[_sellerAddress].email = SellerMapping[_sellerAddress].email */\n      tag_213\n      jump\t// in\n    tag_215:\n      pop\n      sub(shl(0xa0, 0x01), 0x01)\n        /* \"contracts/Project1/Real_State.sol\":9336:9364  BuyerMapping[_sellerAddress] */\n      dup2\n      and\n        /* \"contracts/Project1/Real_State.sol\":9383:9388  false */\n      0x00\n        /* \"contracts/Project1/Real_State.sol\":9336:9364  BuyerMapping[_sellerAddress] */\n      swap1\n      dup2\n      mstore\n        /* \"contracts/Project1/Real_State.sol\":9336:9348  BuyerMapping */\n      0x08\n        /* \"contracts/Project1/Real_State.sol\":9336:9364  BuyerMapping[_sellerAddress] */\n      0x20\n      swap1\n      dup2\n      mstore\n      0x40\n      dup1\n      dup4\n      keccak256\n        /* \"contracts/Project1/Real_State.sol\":9336:9380  BuyerMapping[_sellerAddress].isBuyerVerified */\n      0x05\n      add\n        /* \"contracts/Project1/Real_State.sol\":9336:9388  BuyerMapping[_sellerAddress].isBuyerVerified = false */\n      dup1\n      sload\n      not(0xff)\n      swap1\n      dup2\n      and\n      swap1\n      swap2\n      sstore\n        /* \"contracts/Project1/Real_State.sol\":9399:9421  CheckBuyerRegistration */\n      0x0a\n        /* \"contracts/Project1/Real_State.sol\":9399:9437  CheckBuyerRegistration[_sellerAddress] */\n      dup4\n      mstore\n      dup2\n      dup5\n      keccak256\n        /* \"contracts/Project1/Real_State.sol\":9399:9444  CheckBuyerRegistration[_sellerAddress] = true */\n      dup1\n      sload\n      dup3\n      and\n        /* \"contracts/Project1/Real_State.sol\":9336:9388  BuyerMapping[_sellerAddress].isBuyerVerified = false */\n      0x01\n        /* \"contracts/Project1/Real_State.sol\":9399:9444  CheckBuyerRegistration[_sellerAddress] = true */\n      swap1\n      dup2\n      or\n      swap1\n      swap2\n      sstore\n        /* \"contracts/Project1/Real_State.sol\":9455:9478  CheckSellerRegistration */\n      0x09\n        /* \"contracts/Project1/Real_State.sol\":9455:9494  CheckSellerRegistration[_sellerAddress] */\n      swap1\n      swap4\n      mstore\n      swap1\n      dup4\n      keccak256\n        /* \"contracts/Project1/Real_State.sol\":9455:9502  CheckSellerRegistration[_sellerAddress] = false */\n      dup1\n      sload\n      swap1\n      swap2\n      and\n      swap1\n      sstore\n        /* \"contracts/Project1/Real_State.sol\":9513:9525  totalSellers */\n      0x03\n        /* \"contracts/Project1/Real_State.sol\":9513:9530  totalSellers -= 1 */\n      dup1\n      sload\n        /* \"contracts/Project1/Real_State.sol\":9336:9388  BuyerMapping[_sellerAddress].isBuyerVerified = false */\n      swap2\n      swap3\n        /* \"contracts/Project1/Real_State.sol\":9513:9525  totalSellers */\n      swap1\n      swap2\n        /* \"contracts/Project1/Real_State.sol\":9513:9530  totalSellers -= 1 */\n      tag_216\n      swap1\n        /* \"contracts/Project1/Real_State.sol\":9336:9388  BuyerMapping[_sellerAddress].isBuyerVerified = false */\n      dup5\n      swap1\n        /* \"contracts/Project1/Real_State.sol\":9513:9530  totalSellers -= 1 */\n      tag_217\n      jump\t// in\n    tag_216:\n      swap3\n      pop\n      pop\n      dup2\n      swap1\n      sstore\n      pop\n        /* \"contracts/Project1/Real_State.sol\":9556:9557  1 */\n      0x01\n        /* \"contracts/Project1/Real_State.sol\":9541:9552  totalBuyers */\n      0x04\n      0x00\n        /* \"contracts/Project1/Real_State.sol\":9541:9557  totalBuyers += 1 */\n      dup3\n      dup3\n      sload\n      tag_218\n      swap2\n      swap1\n      tag_219\n      jump\t// in\n    tag_218:\n      swap1\n      swap2\n      sstore\n      pop\n      pop\n      sub(shl(0xa0, 0x01), 0x01)\n        /* \"contracts/Project1/Real_State.sol\":9577:9606  SellerMapping[_sellerAddress] */\n      dup2\n      and\n      0x00\n      swap1\n      dup2\n      mstore\n        /* \"contracts/Project1/Real_State.sol\":9577:9590  SellerMapping */\n      0x07\n        /* \"contracts/Project1/Real_State.sol\":9577:9606  SellerMapping[_sellerAddress] */\n      0x20\n      mstore\n      0x40\n      dup2\n      keccak256\n      swap1\n        /* \"contracts/Project1/Real_State.sol\":9570:9606  delete SellerMapping[_sellerAddress] */\n      tag_220\n        /* \"contracts/Project1/Real_State.sol\":9577:9606  SellerMapping[_sellerAddress] */\n      dup3\n      dup3\n        /* \"contracts/Project1/Real_State.sol\":9570:9606  delete SellerMapping[_sellerAddress] */\n      tag_221\n      jump\t// in\n    tag_220:\n      0x01\n      dup3\n      add\n      0x00\n      swap1\n      sstore\n      0x02\n      dup3\n      add\n      0x00\n      tag_222\n      swap2\n      swap1\n      tag_221\n      jump\t// in\n    tag_222:\n      0x03\n      dup3\n      add\n      0x00\n      swap1\n      sstore\n      0x04\n      dup3\n      add\n      0x00\n      tag_223\n      swap2\n      swap1\n      tag_221\n      jump\t// in\n    tag_223:\n      pop\n      0x05\n      add\n      dup1\n      sload\n      not(0xff)\n      and\n      swap1\n      sstore\n      pop\n        /* \"contracts/Project1/Real_State.sol\":8536:9614  function changeSellertoBuyer... */\n      jump\t// out\n        /* \"contracts/Project1/Real_State.sol\":14539:14779  function landOwner... */\n    tag_73:\n        /* \"contracts/Project1/Real_State.sol\":14645:14652  address */\n      0x00\n        /* \"contracts/Project1/Real_State.sol\":14708:14722  Lands[_landId] */\n      dup2\n      dup2\n      mstore\n        /* \"contracts/Project1/Real_State.sol\":14708:14713  Lands */\n      0x05\n        /* \"contracts/Project1/Real_State.sol\":14708:14722  Lands[_landId] */\n      0x20\n      dup2\n      swap1\n      mstore\n      0x40\n      dup3\n      keccak256\n        /* \"contracts/Project1/Real_State.sol\":14708:14736  Lands[_landId].propertyOwner */\n      swap1\n      dup2\n      add\n      sload\n        /* \"contracts/Project1/Real_State.sol\":14738:14770  Lands[_landId].propertyOwnerName */\n      0x06\n      swap1\n      swap2\n      add\n        /* \"contracts/Project1/Real_State.sol\":14700:14771  return (Lands[_landId].propertyOwner, Lands[_landId].propertyOwnerName) */\n      dup1\n      sload\n        /* \"contracts/Project1/Real_State.sol\":14663:14676  string memory */\n      0x60\n      swap3\n        /* \"contracts/Project1/Real_State.sol\":14708:14736  Lands[_landId].propertyOwner */\n      0x010000\n      swap1\n      div\n      sub(shl(0xa0, 0x01), 0x01)\n      and\n      swap2\n        /* \"contracts/Project1/Real_State.sol\":14738:14770  Lands[_landId].propertyOwnerName */\n      swap1\n      dup2\n      swap1\n        /* \"contracts/Project1/Real_State.sol\":14700:14771  return (Lands[_landId].propertyOwner, Lands[_landId].propertyOwnerName) */\n      tag_226\n      swap1\n      tag_181\n      jump\t// in\n    tag_226:\n      dup1\n      0x1f\n      add\n      0x20\n      dup1\n      swap2\n      div\n      mul\n      0x20\n      add\n      mload(0x40)\n      swap1\n      dup2\n      add\n      0x40\n      mstore\n      dup1\n      swap3\n      swap2\n      swap1\n      dup2\n      dup2\n      mstore\n      0x20\n      add\n      dup3\n      dup1\n      sload\n      tag_227\n      swap1\n      tag_181\n      jump\t// in\n    tag_227:\n      dup1\n      iszero\n      tag_228\n      jumpi\n      dup1\n      0x1f\n      lt\n      tag_229\n      jumpi\n      0x0100\n      dup1\n      dup4\n      sload\n      div\n      mul\n      dup4\n      mstore\n      swap2\n      0x20\n      add\n      swap2\n      jump(tag_228)\n    tag_229:\n      dup3\n      add\n      swap2\n      swap1\n      0x00\n      mstore\n      keccak256(0x00, 0x20)\n      swap1\n    tag_230:\n      dup2\n      sload\n      dup2\n      mstore\n      swap1\n      0x01\n      add\n      swap1\n      0x20\n      add\n      dup1\n      dup4\n      gt\n      tag_230\n      jumpi\n      dup3\n      swap1\n      sub\n      0x1f\n      and\n      dup3\n      add\n      swap2\n    tag_228:\n      pop\n      pop\n      pop\n      pop\n      pop\n      swap1\n      pop\n      swap2\n      pop\n      swap2\n      pop\n        /* \"contracts/Project1/Real_State.sol\":14539:14779  function landOwner... */\n      swap2\n      pop\n      swap2\n      jump\t// out\n        /* \"contracts/Project1/Real_State.sol\":12311:13046  function verifyBuyer... */\n    tag_84:\n        /* \"contracts/Project1/Real_State.sol\":3223:3239  inspectorAddress */\n      and(sub(shl(0xa0, 0x01), 0x01), sload(0x00))\n        /* \"contracts/Project1/Real_State.sol\":3243:3253  msg.sender */\n      caller\n        /* \"contracts/Project1/Real_State.sol\":3223:3253  inspectorAddress == msg.sender */\n      eq\n        /* \"contracts/Project1/Real_State.sol\":3215:3308  require(inspectorAddress == msg.sender, \"You are not authorized to execute this transaction\") */\n      tag_233\n      jumpi\n      mload(0x40)\n      shl(0xe5, 0x461bcd)\n      dup2\n      mstore\n      0x04\n      add\n      tag_203\n      swap1\n      tag_204\n      jump\t// in\n    tag_233:\n      sub(shl(0xa0, 0x01), 0x01)\n        /* \"contracts/Project1/Real_State.sol\":12432:12469  CheckBuyerRegistration[_buyerAddress] */\n      dup2\n      and\n      0x00\n      swap1\n      dup2\n      mstore\n        /* \"contracts/Project1/Real_State.sol\":12432:12454  CheckBuyerRegistration */\n      0x0a\n        /* \"contracts/Project1/Real_State.sol\":12432:12469  CheckBuyerRegistration[_buyerAddress] */\n      0x20\n      mstore\n      0x40\n      swap1\n      keccak256\n      sload\n      0xff\n      and\n        /* \"contracts/Project1/Real_State.sol\":12432:12477  CheckBuyerRegistration[_buyerAddress] == true */\n      iszero\n      iszero\n        /* \"contracts/Project1/Real_State.sol\":12432:12469  CheckBuyerRegistration[_buyerAddress] */\n      0x01\n        /* \"contracts/Project1/Real_State.sol\":12432:12477  CheckBuyerRegistration[_buyerAddress] == true */\n      eq\n        /* \"contracts/Project1/Real_State.sol\":12424:12528  require(CheckBuyerRegistration[_buyerAddress] == true, \"Buyer with the provided Address does not Exist\") */\n      tag_236\n      jumpi\n      mload(0x40)\n      shl(0xe5, 0x461bcd)\n      dup2\n      mstore\n        /* \"#utility.yul\":14173:14175   */\n      0x20\n        /* \"contracts/Project1/Real_State.sol\":12424:12528  require(CheckBuyerRegistration[_buyerAddress] == true, \"Buyer with the provided Address does not Exist\") */\n      0x04\n      dup3\n      add\n        /* \"#utility.yul\":14155:14176   */\n      mstore\n        /* \"#utility.yul\":14212:14214   */\n      0x2e\n        /* \"#utility.yul\":14192:14210   */\n      0x24\n      dup3\n      add\n        /* \"#utility.yul\":14185:14215   */\n      mstore\n        /* \"#utility.yul\":14251:14285   */\n      0x42757965722077697468207468652070726f7669646564204164647265737320\n        /* \"#utility.yul\":14231:14249   */\n      0x44\n      dup3\n      add\n        /* \"#utility.yul\":14224:14286   */\n      mstore\n      shl(0x92, 0x191bd95cc81b9bdd08115e1a5cdd)\n        /* \"#utility.yul\":14302:14320   */\n      0x64\n      dup3\n      add\n        /* \"#utility.yul\":14295:14339   */\n      mstore\n        /* \"#utility.yul\":14356:14375   */\n      0x84\n      add\n        /* \"contracts/Project1/Real_State.sol\":12424:12528  require(CheckBuyerRegistration[_buyerAddress] == true, \"Buyer with the provided Address does not Exist\") */\n      tag_203\n        /* \"#utility.yul\":13971:14381   */\n      jump\n        /* \"contracts/Project1/Real_State.sol\":12424:12528  require(CheckBuyerRegistration[_buyerAddress] == true, \"Buyer with the provided Address does not Exist\") */\n    tag_236:\n      sub(shl(0xa0, 0x01), 0x01)\n        /* \"contracts/Project1/Real_State.sol\":12547:12585  CheckSellerRegistration[_buyerAddress] */\n      dup2\n      and\n      0x00\n      swap1\n      dup2\n      mstore\n        /* \"contracts/Project1/Real_State.sol\":12547:12570  CheckSellerRegistration */\n      0x09\n        /* \"contracts/Project1/Real_State.sol\":12547:12585  CheckSellerRegistration[_buyerAddress] */\n      0x20\n      mstore\n      0x40\n      swap1\n      keccak256\n      sload\n      0xff\n      and\n        /* \"contracts/Project1/Real_State.sol\":12547:12594  CheckSellerRegistration[_buyerAddress] == false */\n      iszero\n        /* \"contracts/Project1/Real_State.sol\":12539:12636  require(CheckSellerRegistration[_buyerAddress] == false,\"Seller is registered with this Address\") */\n      tag_239\n      jumpi\n      mload(0x40)\n      shl(0xe5, 0x461bcd)\n      dup2\n      mstore\n        /* \"#utility.yul\":14588:14590   */\n      0x20\n        /* \"contracts/Project1/Real_State.sol\":12539:12636  require(CheckSellerRegistration[_buyerAddress] == false,\"Seller is registered with this Address\") */\n      0x04\n      dup3\n      add\n        /* \"#utility.yul\":14570:14591   */\n      mstore\n        /* \"#utility.yul\":14627:14629   */\n      0x26\n        /* \"#utility.yul\":14607:14625   */\n      0x24\n      dup3\n      add\n        /* \"#utility.yul\":14600:14630   */\n      mstore\n        /* \"#utility.yul\":14666:14700   */\n      0x53656c6c65722069732072656769737465726564207769746820746869732041\n        /* \"#utility.yul\":14646:14664   */\n      0x44\n      dup3\n      add\n        /* \"#utility.yul\":14639:14701   */\n      mstore\n      shl(0xd0, 0x646472657373)\n        /* \"#utility.yul\":14717:14735   */\n      0x64\n      dup3\n      add\n        /* \"#utility.yul\":14710:14746   */\n      mstore\n        /* \"#utility.yul\":14763:14782   */\n      0x84\n      add\n        /* \"contracts/Project1/Real_State.sol\":12539:12636  require(CheckSellerRegistration[_buyerAddress] == false,\"Seller is registered with this Address\") */\n      tag_203\n        /* \"#utility.yul\":14386:14788   */\n      jump\n        /* \"contracts/Project1/Real_State.sol\":12539:12636  require(CheckSellerRegistration[_buyerAddress] == false,\"Seller is registered with this Address\") */\n    tag_239:\n      sub(shl(0xa0, 0x01), 0x01)\n        /* \"contracts/Project1/Real_State.sol\":12655:12683  SellerMapping[_buyerAddress] */\n      dup2\n      and\n      0x00\n      swap1\n      dup2\n      mstore\n        /* \"contracts/Project1/Real_State.sol\":12655:12668  SellerMapping */\n      0x07\n        /* \"contracts/Project1/Real_State.sol\":12655:12683  SellerMapping[_buyerAddress] */\n      0x20\n      mstore\n      0x40\n      swap1\n      keccak256\n        /* \"contracts/Project1/Real_State.sol\":12655:12694  SellerMapping[_buyerAddress].sellerCNIC */\n      0x03\n      add\n      sload\n        /* \"contracts/Project1/Real_State.sol\":12655:12699  SellerMapping[_buyerAddress].sellerCNIC == 0 */\n      iszero\n        /* \"contracts/Project1/Real_State.sol\":12647:12726  require(SellerMapping[_buyerAddress].sellerCNIC == 0, \"This is Seller Address\") */\n      tag_242\n      jumpi\n      mload(0x40)\n      shl(0xe5, 0x461bcd)\n      dup2\n      mstore\n        /* \"#utility.yul\":14995:14997   */\n      0x20\n        /* \"contracts/Project1/Real_State.sol\":12647:12726  require(SellerMapping[_buyerAddress].sellerCNIC == 0, \"This is Seller Address\") */\n      0x04\n      dup3\n      add\n        /* \"#utility.yul\":14977:14998   */\n      mstore\n        /* \"#utility.yul\":15034:15036   */\n      0x16\n        /* \"#utility.yul\":15014:15032   */\n      0x24\n      dup3\n      add\n        /* \"#utility.yul\":15007:15037   */\n      mstore\n      shl(0x50, 0x546869732069732053656c6c65722041646472657373)\n        /* \"#utility.yul\":15053:15071   */\n      0x44\n      dup3\n      add\n        /* \"#utility.yul\":15046:15098   */\n      mstore\n        /* \"#utility.yul\":15115:15133   */\n      0x64\n      add\n        /* \"contracts/Project1/Real_State.sol\":12647:12726  require(SellerMapping[_buyerAddress].sellerCNIC == 0, \"This is Seller Address\") */\n      tag_203\n        /* \"#utility.yul\":14793:15139   */\n      jump\n        /* \"contracts/Project1/Real_State.sol\":12647:12726  require(SellerMapping[_buyerAddress].sellerCNIC == 0, \"This is Seller Address\") */\n    tag_242:\n      sub(shl(0xa0, 0x01), 0x01)\n        /* \"contracts/Project1/Real_State.sol\":12745:12772  BuyerMapping[_buyerAddress] */\n      dup2\n      and\n      0x00\n      swap1\n      dup2\n      mstore\n        /* \"contracts/Project1/Real_State.sol\":12745:12757  BuyerMapping */\n      0x08\n        /* \"contracts/Project1/Real_State.sol\":12745:12772  BuyerMapping[_buyerAddress] */\n      0x20\n      mstore\n      0x40\n      swap1\n      keccak256\n        /* \"contracts/Project1/Real_State.sol\":12745:12788  BuyerMapping[_buyerAddress].isBuyerVerified */\n      0x05\n      add\n      sload\n      0xff\n      and\n        /* \"contracts/Project1/Real_State.sol\":12745:12797  BuyerMapping[_buyerAddress].isBuyerVerified == false */\n      iszero\n        /* \"contracts/Project1/Real_State.sol\":12737:12849  require(BuyerMapping[_buyerAddress].isBuyerVerified == false, \"Buyer with provided address is already verified\") */\n      tag_245\n      jumpi\n      mload(0x40)\n      shl(0xe5, 0x461bcd)\n      dup2\n      mstore\n        /* \"#utility.yul\":15346:15348   */\n      0x20\n        /* \"contracts/Project1/Real_State.sol\":12737:12849  require(BuyerMapping[_buyerAddress].isBuyerVerified == false, \"Buyer with provided address is already verified\") */\n      0x04\n      dup3\n      add\n        /* \"#utility.yul\":15328:15349   */\n      mstore\n        /* \"#utility.yul\":15385:15387   */\n      0x2f\n        /* \"#utility.yul\":15365:15383   */\n      0x24\n      dup3\n      add\n        /* \"#utility.yul\":15358:15388   */\n      mstore\n        /* \"#utility.yul\":15424:15458   */\n      0x427579657220776974682070726f766964656420616464726573732069732061\n        /* \"#utility.yul\":15404:15422   */\n      0x44\n      dup3\n      add\n        /* \"#utility.yul\":15397:15459   */\n      mstore\n      shl(0x8a, 0x1b1c9958591e481d995c9a599a5959)\n        /* \"#utility.yul\":15475:15493   */\n      0x64\n      dup3\n      add\n        /* \"#utility.yul\":15468:15513   */\n      mstore\n        /* \"#utility.yul\":15530:15549   */\n      0x84\n      add\n        /* \"contracts/Project1/Real_State.sol\":12737:12849  require(BuyerMapping[_buyerAddress].isBuyerVerified == false, \"Buyer with provided address is already verified\") */\n      tag_203\n        /* \"#utility.yul\":15144:15555   */\n      jump\n        /* \"contracts/Project1/Real_State.sol\":12737:12849  require(BuyerMapping[_buyerAddress].isBuyerVerified == false, \"Buyer with provided address is already verified\") */\n    tag_245:\n      sub(shl(0xa0, 0x01), 0x01)\n        /* \"contracts/Project1/Real_State.sol\":12860:12887  BuyerMapping[_buyerAddress] */\n      dup2\n      and\n      0x00\n      swap1\n      dup2\n      mstore\n        /* \"contracts/Project1/Real_State.sol\":12860:12872  BuyerMapping */\n      0x08\n        /* \"contracts/Project1/Real_State.sol\":12860:12887  BuyerMapping[_buyerAddress] */\n      0x20\n      mstore\n      0x40\n      swap1\n      dup2\n      swap1\n      keccak256\n        /* \"contracts/Project1/Real_State.sol\":12860:12903  BuyerMapping[_buyerAddress].isBuyerVerified */\n      0x05\n      dup2\n      add\n        /* \"contracts/Project1/Real_State.sol\":12860:12910  BuyerMapping[_buyerAddress].isBuyerVerified = true */\n      dup1\n      sload\n      not(0xff)\n      and\n        /* \"contracts/Project1/Real_State.sol\":12906:12910  true */\n      0x01\n        /* \"contracts/Project1/Real_State.sol\":12860:12910  BuyerMapping[_buyerAddress].isBuyerVerified = true */\n      or\n      swap1\n      sstore\n        /* \"contracts/Project1/Real_State.sol\":12928:13036  Users(\"Seller gets Verified by Land Inspector with: \", BuyerMapping[_buyerAddress].buyerName, _buyerAddress) */\n      swap1\n      mload\n      0x00\n      dup1\n      mload\n      0x20\n      data_553849f7da1309eea4f5eb803c5cf6a18f6515247b6f42e35bc1a8e177481422\n      dup4\n      codecopy\n      dup2\n      mload\n      swap2\n      mstore\n      swap2\n      tag_248\n      swap2\n        /* \"contracts/Project1/Real_State.sol\":12873:12886  _buyerAddress */\n      dup5\n      swap1\n        /* \"contracts/Project1/Real_State.sol\":12928:13036  Users(\"Seller gets Verified by Land Inspector with: \", BuyerMapping[_buyerAddress].buyerName, _buyerAddress) */\n      tag_249\n      jump\t// in\n    tag_248:\n      mload(0x40)\n      dup1\n      swap2\n      sub\n      swap1\n      log1\n        /* \"contracts/Project1/Real_State.sol\":12311:13046  function verifyBuyer... */\n      pop\n      jump\t// out\n        /* \"contracts/Project1/Real_State.sol\":10830:11475  function getLandById... */\n    tag_97:\n        /* \"contracts/Project1/Real_State.sol\":10938:10942  uint */\n      0x00\n        /* \"contracts/Project1/Real_State.sol\":11105:11118  Lands[landId] */\n      dup2\n      dup2\n      mstore\n        /* \"contracts/Project1/Real_State.sol\":11105:11110  Lands */\n      0x05\n        /* \"contracts/Project1/Real_State.sol\":11105:11118  Lands[landId] */\n      0x20\n      mstore\n      0x40\n      dup2\n      keccak256\n        /* \"contracts/Project1/Real_State.sol\":11105:11125  Lands[landId].landId */\n      sload\n        /* \"contracts/Project1/Real_State.sol\":10953:10966  string memory */\n      0x60\n      swap1\n      dup2\n      swap1\n      dup2\n      swap1\n        /* \"contracts/Project1/Real_State.sol\":10938:10942  uint */\n      dup5\n      swap1\n      dup2\n      swap1\n        /* \"contracts/Project1/Real_State.sol\":10953:10966  string memory */\n      dup4\n      swap1\n        /* \"contracts/Project1/Real_State.sol\":11105:11130  Lands[landId].landId != 0 */\n      dup3\n      sub\n        /* \"contracts/Project1/Real_State.sol\":11097:11168  require(Lands[landId].landId != 0, \"Land with given ID does not exist\") */\n      tag_251\n      jumpi\n      mload(0x40)\n      shl(0xe5, 0x461bcd)\n      dup2\n      mstore\n        /* \"#utility.yul\":17174:17176   */\n      0x20\n        /* \"contracts/Project1/Real_State.sol\":11097:11168  require(Lands[landId].landId != 0, \"Land with given ID does not exist\") */\n      0x04\n      dup3\n      add\n        /* \"#utility.yul\":17156:17177   */\n      mstore\n        /* \"#utility.yul\":17213:17215   */\n      0x21\n        /* \"#utility.yul\":17193:17211   */\n      0x24\n      dup3\n      add\n        /* \"#utility.yul\":17186:17216   */\n      mstore\n        /* \"#utility.yul\":17252:17286   */\n      0x4c616e64207769746820676976656e20494420646f6573206e6f742065786973\n        /* \"#utility.yul\":17232:17250   */\n      0x44\n      dup3\n      add\n        /* \"#utility.yul\":17225:17287   */\n      mstore\n      shl(0xfa, 0x1d)\n        /* \"#utility.yul\":17303:17321   */\n      0x64\n      dup3\n      add\n        /* \"#utility.yul\":17296:17327   */\n      mstore\n        /* \"#utility.yul\":17344:17363   */\n      0x84\n      add\n        /* \"contracts/Project1/Real_State.sol\":11097:11168  require(Lands[landId].landId != 0, \"Land with given ID does not exist\") */\n      tag_203\n        /* \"#utility.yul\":16972:17369   */\n      jump\n        /* \"contracts/Project1/Real_State.sol\":11097:11168  require(Lands[landId].landId != 0, \"Land with given ID does not exist\") */\n    tag_251:\n        /* \"contracts/Project1/Real_State.sol\":11210:11223  Lands[landId] */\n      0x00\n      dup9\n      dup2\n      mstore\n        /* \"contracts/Project1/Real_State.sol\":11210:11215  Lands */\n      0x05\n        /* \"contracts/Project1/Real_State.sol\":11210:11223  Lands[landId] */\n      0x20\n      dup2\n      swap1\n      mstore\n      0x40\n      swap1\n      swap2\n      keccak256\n        /* \"contracts/Project1/Real_State.sol\":11210:11230  Lands[landId].landId */\n      dup1\n      sload\n        /* \"contracts/Project1/Real_State.sol\":11345:11368  Lands[landId].landPrice */\n      0x04\n      dup3\n      add\n      sload\n        /* \"contracts/Project1/Real_State.sol\":11383:11410  Lands[landId].propertyOwner */\n      swap3\n      dup3\n      add\n      sload\n        /* \"contracts/Project1/Real_State.sol\":11245:11263  Lands[landId].area */\n      0x01\n      dup4\n      add\n        /* \"contracts/Project1/Real_State.sol\":11179:11467  return... */\n      dup1\n      sload\n        /* \"contracts/Project1/Real_State.sol\":11210:11230  Lands[landId].landId */\n      swap3\n      swap5\n        /* \"contracts/Project1/Real_State.sol\":11245:11263  Lands[landId].area */\n      swap1\n      swap4\n        /* \"contracts/Project1/Real_State.sol\":11278:11296  Lands[landId].city */\n      0x02\n      dup2\n      add\n      swap4\n        /* \"contracts/Project1/Real_State.sol\":11311:11330  Lands[landId].state */\n      0x03\n      dup3\n      add\n      swap4\n        /* \"contracts/Project1/Real_State.sol\":11383:11410  Lands[landId].propertyOwner */\n      0x010000\n      swap1\n      div\n      sub(shl(0xa0, 0x01), 0x01)\n      and\n      swap2\n        /* \"contracts/Project1/Real_State.sol\":11425:11456  Lands[landId].propertyOwnerName */\n      0x06\n      add\n      swap1\n        /* \"contracts/Project1/Real_State.sol\":11245:11263  Lands[landId].area */\n      dup7\n      swap1\n        /* \"contracts/Project1/Real_State.sol\":11179:11467  return... */\n      tag_254\n      swap1\n      tag_181\n      jump\t// in\n    tag_254:\n      dup1\n      0x1f\n      add\n      0x20\n      dup1\n      swap2\n      div\n      mul\n      0x20\n      add\n      mload(0x40)\n      swap1\n      dup2\n      add\n      0x40\n      mstore\n      dup1\n      swap3\n      swap2\n      swap1\n      dup2\n      dup2\n      mstore\n      0x20\n      add\n      dup3\n      dup1\n      sload\n      tag_255\n      swap1\n      tag_181\n      jump\t// in\n    tag_255:\n      dup1\n      iszero\n      tag_256\n      jumpi\n      dup1\n      0x1f\n      lt\n      tag_257\n      jumpi\n      0x0100\n      dup1\n      dup4\n      sload\n      div\n      mul\n      dup4\n      mstore\n      swap2\n      0x20\n      add\n      swap2\n      jump(tag_256)\n    tag_257:\n      dup3\n      add\n      swap2\n      swap1\n      0x00\n      mstore\n      keccak256(0x00, 0x20)\n      swap1\n    tag_258:\n      dup2\n      sload\n      dup2\n      mstore\n      swap1\n      0x01\n      add\n      swap1\n      0x20\n      add\n      dup1\n      dup4\n      gt\n      tag_258\n      jumpi\n      dup3\n      swap1\n      sub\n      0x1f\n      and\n      dup3\n      add\n      swap2\n    tag_256:\n      pop\n      pop\n      pop\n      pop\n      pop\n      swap6\n      pop\n      dup5\n      dup1\n      sload\n      tag_259\n      swap1\n      tag_181\n      jump\t// in\n    tag_259:\n      dup1\n      0x1f\n      add\n      0x20\n      dup1\n      swap2\n      div\n      mul\n      0x20\n      add\n      mload(0x40)\n      swap1\n      dup2\n      add\n      0x40\n      mstore\n      dup1\n      swap3\n      swap2\n      swap1\n      dup2\n      dup2\n      mstore\n      0x20\n      add\n      dup3\n      dup1\n      sload\n      tag_260\n      swap1\n      tag_181\n      jump\t// in\n    tag_260:\n      dup1\n      iszero\n      tag_261\n      jumpi\n      dup1\n      0x1f\n      lt\n      tag_262\n      jumpi\n      0x0100\n      dup1\n      dup4\n      sload\n      div\n      mul\n      dup4\n      mstore\n      swap2\n      0x20\n      add\n      swap2\n      jump(tag_261)\n    tag_262:\n      dup3\n      add\n      swap2\n      swap1\n      0x00\n      mstore\n      keccak256(0x00, 0x20)\n      swap1\n    tag_263:\n      dup2\n      sload\n      dup2\n      mstore\n      swap1\n      0x01\n      add\n      swap1\n      0x20\n      add\n      dup1\n      dup4\n      gt\n      tag_263\n      jumpi\n      dup3\n      swap1\n      sub\n      0x1f\n      and\n      dup3\n      add\n      swap2\n    tag_261:\n      pop\n      pop\n      pop\n      pop\n      pop\n      swap5\n      pop\n      dup4\n      dup1\n      sload\n      tag_264\n      swap1\n      tag_181\n      jump\t// in\n    tag_264:\n      dup1\n      0x1f\n      add\n      0x20\n      dup1\n      swap2\n      div\n      mul\n      0x20\n      add\n      mload(0x40)\n      swap1\n      dup2\n      add\n      0x40\n      mstore\n      dup1\n      swap3\n      swap2\n      swap1\n      dup2\n      dup2\n      mstore\n      0x20\n      add\n      dup3\n      dup1\n      sload\n      tag_265\n      swap1\n      tag_181\n      jump\t// in\n    tag_265:\n      dup1\n      iszero\n      tag_266\n      jumpi\n      dup1\n      0x1f\n      lt\n      tag_267\n      jumpi\n      0x0100\n      dup1\n      dup4\n      sload\n      div\n      mul\n      dup4\n      mstore\n      swap2\n      0x20\n      add\n      swap2\n      jump(tag_266)\n    tag_267:\n      dup3\n      add\n      swap2\n      swap1\n      0x00\n      mstore\n      keccak256(0x00, 0x20)\n      swap1\n    tag_268:\n      dup2\n      sload\n      dup2\n      mstore\n      swap1\n      0x01\n      add\n      swap1\n      0x20\n      add\n      dup1\n      dup4\n      gt\n      tag_268\n      jumpi\n      dup3\n      swap1\n      sub\n      0x1f\n      and\n      dup3\n      add\n      swap2\n    tag_266:\n      pop\n      pop\n      pop\n      pop\n      pop\n      swap4\n      pop\n      dup1\n      dup1\n      sload\n      tag_269\n      swap1\n      tag_181\n      jump\t// in\n    tag_269:\n      dup1\n      0x1f\n      add\n      0x20\n      dup1\n      swap2\n      div\n      mul\n      0x20\n      add\n      mload(0x40)\n      swap1\n      dup2\n      add\n      0x40\n      mstore\n      dup1\n      swap3\n      swap2\n      swap1\n      dup2\n      dup2\n      mstore\n      0x20\n      add\n      dup3\n      dup1\n      sload\n      tag_270\n      swap1\n      tag_181\n      jump\t// in\n    tag_270:\n      dup1\n      iszero\n      tag_271\n      jumpi\n      dup1\n      0x1f\n      lt\n      tag_272\n      jumpi\n      0x0100\n      dup1\n      dup4\n      sload\n      div\n      mul\n      dup4\n      mstore\n      swap2\n      0x20\n      add\n      swap2\n      jump(tag_271)\n    tag_272:\n      dup3\n      add\n      swap2\n      swap1\n      0x00\n      mstore\n      keccak256(0x00, 0x20)\n      swap1\n    tag_273:\n      dup2\n      sload\n      dup2\n      mstore\n      swap1\n      0x01\n      add\n      swap1\n      0x20\n      add\n      dup1\n      dup4\n      gt\n      tag_273\n      jumpi\n      dup3\n      swap1\n      sub\n      0x1f\n      and\n      dup3\n      add\n      swap2\n    tag_271:\n      pop\n      pop\n      pop\n      pop\n      pop\n      swap1\n      pop\n      swap7\n      pop\n      swap7\n      pop\n      swap7\n      pop\n      swap7\n      pop\n      swap7\n      pop\n      swap7\n      pop\n      swap7\n      pop\n        /* \"contracts/Project1/Real_State.sol\":10830:11475  function getLandById... */\n      swap2\n      swap4\n      swap6\n      swap8\n      swap1\n      swap3\n      swap5\n      swap7\n      pop\n      jump\t// out\n        /* \"contracts/Project1/Real_State.sol\":3397:4671  function registerSeller... */\n    tag_109:\n        /* \"contracts/Project1/Real_State.sol\":3738:3754  inspectorAddress */\n      sload(0x00)\n      sub(shl(0xa0, 0x01), 0x01)\n      swap1\n      dup2\n      and\n        /* \"contracts/Project1/Real_State.sol\":3726:3754  sellerId != inspectorAddress */\n      swap1\n      dup8\n      and\n      sub\n        /* \"contracts/Project1/Real_State.sol\":3718:3800  require(sellerId != inspectorAddress, \"Inspector is registered with this Address\") */\n      tag_275\n      jumpi\n      mload(0x40)\n      shl(0xe5, 0x461bcd)\n      dup2\n      mstore\n      0x04\n      add\n      tag_203\n      swap1\n      tag_277\n      jump\t// in\n    tag_275:\n      sub(shl(0xa0, 0x01), 0x01)\n        /* \"contracts/Project1/Real_State.sol\":3819:3852  CheckSellerRegistration[sellerId] */\n      dup7\n      and\n      0x00\n      swap1\n      dup2\n      mstore\n        /* \"contracts/Project1/Real_State.sol\":3819:3842  CheckSellerRegistration */\n      0x09\n        /* \"contracts/Project1/Real_State.sol\":3819:3852  CheckSellerRegistration[sellerId] */\n      0x20\n      mstore\n      0x40\n      swap1\n      keccak256\n      sload\n      0xff\n      and\n        /* \"contracts/Project1/Real_State.sol\":3819:3861  CheckSellerRegistration[sellerId] == false */\n      iszero\n        /* \"contracts/Project1/Real_State.sol\":3811:3908  require(CheckSellerRegistration[sellerId] == false,\"Seller already Exists with the same address\") */\n      tag_278\n      jumpi\n      mload(0x40)\n      shl(0xe5, 0x461bcd)\n      dup2\n      mstore\n      0x04\n      add\n      tag_203\n      swap1\n      tag_280\n      jump\t// in\n    tag_278:\n      sub(shl(0xa0, 0x01), 0x01)\n        /* \"contracts/Project1/Real_State.sol\":3927:3959  CheckBuyerRegistration[sellerId] */\n      dup7\n      and\n      0x00\n      swap1\n      dup2\n      mstore\n        /* \"contracts/Project1/Real_State.sol\":3927:3949  CheckBuyerRegistration */\n      0x0a\n        /* \"contracts/Project1/Real_State.sol\":3927:3959  CheckBuyerRegistration[sellerId] */\n      0x20\n      mstore\n      0x40\n      swap1\n      keccak256\n      sload\n      0xff\n      and\n        /* \"contracts/Project1/Real_State.sol\":3927:3968  CheckBuyerRegistration[sellerId] == false */\n      iszero\n        /* \"contracts/Project1/Real_State.sol\":3919:4014  require(CheckBuyerRegistration[sellerId] == false,\"Buyer already Exists with the same address\") */\n      tag_281\n      jumpi\n      mload(0x40)\n      shl(0xe5, 0x461bcd)\n      dup2\n      mstore\n        /* \"#utility.yul\":18398:18400   */\n      0x20\n        /* \"contracts/Project1/Real_State.sol\":3919:4014  require(CheckBuyerRegistration[sellerId] == false,\"Buyer already Exists with the same address\") */\n      0x04\n      dup3\n      add\n        /* \"#utility.yul\":18380:18401   */\n      mstore\n        /* \"#utility.yul\":18437:18439   */\n      0x2a\n        /* \"#utility.yul\":18417:18435   */\n      0x24\n      dup3\n      add\n        /* \"#utility.yul\":18410:18440   */\n      mstore\n        /* \"#utility.yul\":18476:18510   */\n      0x427579657220616c726561647920457869737473207769746820746865207361\n        /* \"#utility.yul\":18456:18474   */\n      0x44\n      dup3\n      add\n        /* \"#utility.yul\":18449:18511   */\n      mstore\n      shl(0xb0, 0x6d652061646472657373)\n        /* \"#utility.yul\":18527:18545   */\n      0x64\n      dup3\n      add\n        /* \"#utility.yul\":18520:18560   */\n      mstore\n        /* \"#utility.yul\":18577:18596   */\n      0x84\n      add\n        /* \"contracts/Project1/Real_State.sol\":3919:4014  require(CheckBuyerRegistration[sellerId] == false,\"Buyer already Exists with the same address\") */\n      tag_203\n        /* \"#utility.yul\":18196:18602   */\n      jump\n        /* \"contracts/Project1/Real_State.sol\":3919:4014  require(CheckBuyerRegistration[sellerId] == false,\"Buyer already Exists with the same address\") */\n    tag_281:\n      sub(shl(0xa0, 0x01), 0x01)\n        /* \"contracts/Project1/Real_State.sol\":4064:4087  SellerMapping[sellerId] */\n      dup7\n      and\n      0x00\n      swap1\n      dup2\n      mstore\n        /* \"contracts/Project1/Real_State.sol\":4064:4077  SellerMapping */\n      0x07\n        /* \"contracts/Project1/Real_State.sol\":4064:4087  SellerMapping[sellerId] */\n      0x20\n      swap1\n      dup2\n      mstore\n      0x40\n      dup1\n      dup4\n      keccak256\n        /* \"contracts/Project1/Real_State.sol\":4064:4098  SellerMapping[sellerId].sellerCNIC */\n      0x03\n      swap1\n      dup2\n      add\n      sload\n        /* \"contracts/Project1/Real_State.sol\":4033:4045  BuyerMapping */\n      0x08\n        /* \"contracts/Project1/Real_State.sol\":4033:4055  BuyerMapping[sellerId] */\n      swap1\n      swap4\n      mstore\n      swap3\n      keccak256\n        /* \"contracts/Project1/Real_State.sol\":4033:4060  BuyerMapping[sellerId].cnic */\n      swap1\n      swap2\n      add\n      sload\n        /* \"contracts/Project1/Real_State.sol\":4033:4098  BuyerMapping[sellerId].cnic != SellerMapping[sellerId].sellerCNIC */\n      sub\n        /* \"contracts/Project1/Real_State.sol\":4025:4130  require(BuyerMapping[sellerId].cnic != SellerMapping[sellerId].sellerCNIC, \"Buyer with same CNIC exists\") */\n      tag_284\n      jumpi\n      mload(0x40)\n      shl(0xe5, 0x461bcd)\n      dup2\n      mstore\n        /* \"#utility.yul\":18809:18811   */\n      0x20\n        /* \"contracts/Project1/Real_State.sol\":4025:4130  require(BuyerMapping[sellerId].cnic != SellerMapping[sellerId].sellerCNIC, \"Buyer with same CNIC exists\") */\n      0x04\n      dup3\n      add\n        /* \"#utility.yul\":18791:18812   */\n      mstore\n        /* \"#utility.yul\":18848:18850   */\n      0x1b\n        /* \"#utility.yul\":18828:18846   */\n      0x24\n      dup3\n      add\n        /* \"#utility.yul\":18821:18851   */\n      mstore\n        /* \"#utility.yul\":18887:18916   */\n      0x427579657220776974682073616d6520434e4943206578697374730000000000\n        /* \"#utility.yul\":18867:18885   */\n      0x44\n      dup3\n      add\n        /* \"#utility.yul\":18860:18917   */\n      mstore\n        /* \"#utility.yul\":18934:18952   */\n      0x64\n      add\n        /* \"contracts/Project1/Real_State.sol\":4025:4130  require(BuyerMapping[sellerId].cnic != SellerMapping[sellerId].sellerCNIC, \"Buyer with same CNIC exists\") */\n      tag_203\n        /* \"#utility.yul\":18607:18958   */\n      jump\n        /* \"contracts/Project1/Real_State.sol\":4025:4130  require(BuyerMapping[sellerId].cnic != SellerMapping[sellerId].sellerCNIC, \"Buyer with same CNIC exists\") */\n    tag_284:\n      sub(shl(0xa0, 0x01), 0x01)\n        /* \"contracts/Project1/Real_State.sol\":4149:4172  SellerMapping[sellerId] */\n      dup7\n      and\n      0x00\n      swap1\n      dup2\n      mstore\n        /* \"contracts/Project1/Real_State.sol\":4149:4162  SellerMapping */\n      0x07\n        /* \"contracts/Project1/Real_State.sol\":4149:4172  SellerMapping[sellerId] */\n      0x20\n      mstore\n      0x40\n      swap1\n      keccak256\n        /* \"contracts/Project1/Real_State.sol\":4149:4183  SellerMapping[sellerId].sellerCNIC */\n      0x03\n      add\n      sload\n        /* \"contracts/Project1/Real_State.sol\":4149:4198  SellerMapping[sellerId].sellerCNIC != _sellerCnic */\n      dup3\n      swap1\n      sub\n        /* \"contracts/Project1/Real_State.sol\":4141:4231  require(SellerMapping[sellerId].sellerCNIC != _sellerCnic, \"Seller with same CNIC exists\") */\n      tag_287\n      jumpi\n      mload(0x40)\n      shl(0xe5, 0x461bcd)\n      dup2\n      mstore\n        /* \"#utility.yul\":19165:19167   */\n      0x20\n        /* \"contracts/Project1/Real_State.sol\":4141:4231  require(SellerMapping[sellerId].sellerCNIC != _sellerCnic, \"Seller with same CNIC exists\") */\n      0x04\n      dup3\n      add\n        /* \"#utility.yul\":19147:19168   */\n      mstore\n        /* \"#utility.yul\":19204:19206   */\n      0x1c\n        /* \"#utility.yul\":19184:19202   */\n      0x24\n      dup3\n      add\n        /* \"#utility.yul\":19177:19207   */\n      mstore\n        /* \"#utility.yul\":19243:19273   */\n      0x53656c6c657220776974682073616d6520434e49432065786973747300000000\n        /* \"#utility.yul\":19223:19241   */\n      0x44\n      dup3\n      add\n        /* \"#utility.yul\":19216:19274   */\n      mstore\n        /* \"#utility.yul\":19291:19309   */\n      0x64\n      add\n        /* \"contracts/Project1/Real_State.sol\":4141:4231  require(SellerMapping[sellerId].sellerCNIC != _sellerCnic, \"Seller with same CNIC exists\") */\n      tag_203\n        /* \"#utility.yul\":18963:19315   */\n      jump\n        /* \"contracts/Project1/Real_State.sol\":4141:4231  require(SellerMapping[sellerId].sellerCNIC != _sellerCnic, \"Seller with same CNIC exists\") */\n    tag_287:\n      sub(shl(0xa0, 0x01), 0x01)\n        /* \"contracts/Project1/Real_State.sol\":4254:4277  SellerMapping[sellerId] */\n      dup7\n      and\n      0x00\n      swap1\n      dup2\n      mstore\n        /* \"contracts/Project1/Real_State.sol\":4254:4267  SellerMapping */\n      0x07\n        /* \"contracts/Project1/Real_State.sol\":4254:4277  SellerMapping[sellerId] */\n      0x20\n      mstore\n      0x40\n      swap1\n      keccak256\n        /* \"contracts/Project1/Real_State.sol\":4254:4302  SellerMapping[sellerId].sellerName = _sellerName */\n      tag_290\n        /* \"contracts/Project1/Real_State.sol\":4291:4302  _sellerName */\n      dup7\n        /* \"contracts/Project1/Real_State.sol\":4254:4277  SellerMapping[sellerId] */\n      dup3\n        /* \"contracts/Project1/Real_State.sol\":4254:4302  SellerMapping[sellerId].sellerName = _sellerName */\n      tag_291\n      jump\t// in\n    tag_290:\n      pop\n      sub(shl(0xa0, 0x01), 0x01)\n        /* \"contracts/Project1/Real_State.sol\":4313:4336  SellerMapping[sellerId] */\n      dup7\n      and\n      0x00\n      swap1\n      dup2\n      mstore\n        /* \"contracts/Project1/Real_State.sol\":4313:4326  SellerMapping */\n      0x07\n        /* \"contracts/Project1/Real_State.sol\":4313:4336  SellerMapping[sellerId] */\n      0x20\n      mstore\n      0x40\n      swap1\n      keccak256\n        /* \"contracts/Project1/Real_State.sol\":4313:4346  SellerMapping[sellerId].sellerAge */\n      0x01\n      dup2\n      add\n        /* \"contracts/Project1/Real_State.sol\":4313:4359  SellerMapping[sellerId].sellerAge = _sellerAge */\n      dup6\n      swap1\n      sstore\n        /* \"contracts/Project1/Real_State.sol\":4370:4398  SellerMapping[sellerId].city */\n      0x02\n      add\n        /* \"contracts/Project1/Real_State.sol\":4370:4406  SellerMapping[sellerId].city = _city */\n      tag_292\n        /* \"contracts/Project1/Real_State.sol\":4401:4406  _city */\n      dup5\n        /* \"contracts/Project1/Real_State.sol\":4370:4398  SellerMapping[sellerId].city */\n      dup3\n        /* \"contracts/Project1/Real_State.sol\":4370:4406  SellerMapping[sellerId].city = _city */\n      tag_291\n      jump\t// in\n    tag_292:\n      pop\n      sub(shl(0xa0, 0x01), 0x01)\n        /* \"contracts/Project1/Real_State.sol\":4417:4440  SellerMapping[sellerId] */\n      dup7\n      and\n      0x00\n      swap1\n      dup2\n      mstore\n        /* \"contracts/Project1/Real_State.sol\":4417:4430  SellerMapping */\n      0x07\n        /* \"contracts/Project1/Real_State.sol\":4417:4440  SellerMapping[sellerId] */\n      0x20\n      mstore\n      0x40\n      swap1\n      keccak256\n        /* \"contracts/Project1/Real_State.sol\":4417:4451  SellerMapping[sellerId].sellerCNIC */\n      0x03\n      dup2\n      add\n        /* \"contracts/Project1/Real_State.sol\":4417:4465  SellerMapping[sellerId].sellerCNIC = _sellerCnic */\n      dup4\n      swap1\n      sstore\n        /* \"contracts/Project1/Real_State.sol\":4476:4505  SellerMapping[sellerId].email */\n      0x04\n      add\n        /* \"contracts/Project1/Real_State.sol\":4476:4514  SellerMapping[sellerId].email = _email */\n      tag_293\n        /* \"contracts/Project1/Real_State.sol\":4508:4514  _email */\n      dup3\n        /* \"contracts/Project1/Real_State.sol\":4476:4505  SellerMapping[sellerId].email */\n      dup3\n        /* \"contracts/Project1/Real_State.sol\":4476:4514  SellerMapping[sellerId].email = _email */\n      tag_291\n      jump\t// in\n    tag_293:\n      pop\n      sub(shl(0xa0, 0x01), 0x01)\n        /* \"contracts/Project1/Real_State.sol\":4525:4558  CheckSellerRegistration[sellerId] */\n      dup7\n      and\n      0x00\n      swap1\n      dup2\n      mstore\n        /* \"contracts/Project1/Real_State.sol\":4525:4548  CheckSellerRegistration */\n      0x09\n        /* \"contracts/Project1/Real_State.sol\":4525:4558  CheckSellerRegistration[sellerId] */\n      0x20\n      mstore\n      0x40\n      dup2\n      keccak256\n        /* \"contracts/Project1/Real_State.sol\":4525:4565  CheckSellerRegistration[sellerId] = true */\n      dup1\n      sload\n      not(0xff)\n      and\n        /* \"contracts/Project1/Real_State.sol\":4561:4565  true */\n      0x01\n        /* \"contracts/Project1/Real_State.sol\":4525:4565  CheckSellerRegistration[sellerId] = true */\n      swap1\n      dup2\n      or\n      swap1\n      swap2\n      sstore\n        /* \"contracts/Project1/Real_State.sol\":4578:4590  totalSellers */\n      0x03\n        /* \"contracts/Project1/Real_State.sol\":4578:4595  totalSellers += 1 */\n      dup1\n      sload\n        /* \"contracts/Project1/Real_State.sol\":4561:4565  true */\n      swap2\n      swap3\n        /* \"contracts/Project1/Real_State.sol\":4578:4590  totalSellers */\n      swap1\n      swap2\n        /* \"contracts/Project1/Real_State.sol\":4578:4595  totalSellers += 1 */\n      tag_294\n      swap1\n        /* \"contracts/Project1/Real_State.sol\":4561:4565  true */\n      dup5\n      swap1\n        /* \"contracts/Project1/Real_State.sol\":4578:4595  totalSellers += 1 */\n      tag_219\n      jump\t// in\n    tag_294:\n      swap1\n      swap2\n      sstore\n      pop\n      pop\n        /* \"contracts/Project1/Real_State.sol\":4611:4661  Users(\"Seller Registered: \",_sellerName, sellerId) */\n      mload(0x40)\n      0x00\n      dup1\n      mload\n      0x20\n      data_553849f7da1309eea4f5eb803c5cf6a18f6515247b6f42e35bc1a8e177481422\n      dup4\n      codecopy\n      dup2\n      mload\n      swap2\n      mstore\n      swap1\n      tag_295\n      swap1\n        /* \"contracts/Project1/Real_State.sol\":4639:4650  _sellerName */\n      dup8\n      swap1\n        /* \"contracts/Project1/Real_State.sol\":4652:4660  sellerId */\n      dup10\n      swap1\n        /* \"contracts/Project1/Real_State.sol\":4611:4661  Users(\"Seller Registered: \",_sellerName, sellerId) */\n      tag_296\n      jump\t// in\n    tag_295:\n      mload(0x40)\n      dup1\n      swap2\n      sub\n      swap1\n      log1\n        /* \"contracts/Project1/Real_State.sol\":3397:4671  function registerSeller... */\n      pop\n      pop\n      pop\n      pop\n      pop\n      pop\n      jump\t// out\n        /* \"contracts/Project1/Real_State.sol\":15260:16201  function buyLand... */\n    tag_113:\n        /* \"contracts/Project1/Real_State.sol\":15406:15416  msg.sender */\n      caller\n        /* \"contracts/Project1/Real_State.sol\":15393:15417  BuyerMapping[msg.sender] */\n      0x00\n      swap1\n      dup2\n      mstore\n        /* \"contracts/Project1/Real_State.sol\":15393:15405  BuyerMapping */\n      0x08\n        /* \"contracts/Project1/Real_State.sol\":15393:15417  BuyerMapping[msg.sender] */\n      0x20\n      mstore\n      0x40\n      swap1\n      keccak256\n        /* \"contracts/Project1/Real_State.sol\":15393:15433  BuyerMapping[msg.sender].isBuyerVerified */\n      0x05\n      add\n      sload\n      0xff\n      and\n        /* \"contracts/Project1/Real_State.sol\":15393:15441  BuyerMapping[msg.sender].isBuyerVerified == true */\n      iszero\n      iszero\n        /* \"contracts/Project1/Real_State.sol\":15393:15433  BuyerMapping[msg.sender].isBuyerVerified */\n      0x01\n        /* \"contracts/Project1/Real_State.sol\":15393:15441  BuyerMapping[msg.sender].isBuyerVerified == true */\n      eq\n        /* \"contracts/Project1/Real_State.sol\":15385:15482  require(BuyerMapping[msg.sender].isBuyerVerified == true, \"Buyer not verified by land inspector\") */\n      tag_298\n      jumpi\n      mload(0x40)\n      shl(0xe5, 0x461bcd)\n      dup2\n      mstore\n        /* \"#utility.yul\":21443:21445   */\n      0x20\n        /* \"contracts/Project1/Real_State.sol\":15385:15482  require(BuyerMapping[msg.sender].isBuyerVerified == true, \"Buyer not verified by land inspector\") */\n      0x04\n      dup3\n      add\n        /* \"#utility.yul\":21425:21446   */\n      mstore\n        /* \"#utility.yul\":21482:21484   */\n      0x24\n        /* \"#utility.yul\":21462:21480   */\n      dup1\n      dup3\n      add\n        /* \"#utility.yul\":21455:21485   */\n      mstore\n        /* \"#utility.yul\":21521:21555   */\n      0x4275796572206e6f74207665726966696564206279206c616e6420696e737065\n        /* \"#utility.yul\":21501:21519   */\n      0x44\n      dup3\n      add\n        /* \"#utility.yul\":21494:21556   */\n      mstore\n      shl(0xe1, 0x31ba37b9)\n        /* \"#utility.yul\":21572:21590   */\n      0x64\n      dup3\n      add\n        /* \"#utility.yul\":21565:21599   */\n      mstore\n        /* \"#utility.yul\":21616:21635   */\n      0x84\n      add\n        /* \"contracts/Project1/Real_State.sol\":15385:15482  require(BuyerMapping[msg.sender].isBuyerVerified == true, \"Buyer not verified by land inspector\") */\n      tag_203\n        /* \"#utility.yul\":21241:21641   */\n      jump\n        /* \"contracts/Project1/Real_State.sol\":15385:15482  require(BuyerMapping[msg.sender].isBuyerVerified == true, \"Buyer not verified by land inspector\") */\n    tag_298:\n        /* \"contracts/Project1/Real_State.sol\":15501:15515  Lands[_landId] */\n      0x00\n      dup3\n      dup2\n      mstore\n        /* \"contracts/Project1/Real_State.sol\":15501:15506  Lands */\n      0x05\n        /* \"contracts/Project1/Real_State.sol\":15501:15515  Lands[_landId] */\n      0x20\n      dup2\n      swap1\n      mstore\n      0x40\n      swap1\n      swap2\n      keccak256\n        /* \"contracts/Project1/Real_State.sol\":15501:15526  Lands[_landId].isLandSold */\n      add\n      sload\n      0xff\n      and\n        /* \"contracts/Project1/Real_State.sol\":15501:15535  Lands[_landId].isLandSold == false */\n      iszero\n        /* \"contracts/Project1/Real_State.sol\":15493:15557  require(Lands[_landId].isLandSold == false, \"Land already sold\") */\n      tag_301\n      jumpi\n      mload(0x40)\n      shl(0xe5, 0x461bcd)\n      dup2\n      mstore\n        /* \"#utility.yul\":21848:21850   */\n      0x20\n        /* \"contracts/Project1/Real_State.sol\":15493:15557  require(Lands[_landId].isLandSold == false, \"Land already sold\") */\n      0x04\n      dup3\n      add\n        /* \"#utility.yul\":21830:21851   */\n      mstore\n        /* \"#utility.yul\":21887:21889   */\n      0x11\n        /* \"#utility.yul\":21867:21885   */\n      0x24\n      dup3\n      add\n        /* \"#utility.yul\":21860:21890   */\n      mstore\n      shl(0x7a, 0x13185b9908185b1c9958591e481cdbdb19)\n        /* \"#utility.yul\":21906:21924   */\n      0x44\n      dup3\n      add\n        /* \"#utility.yul\":21899:21946   */\n      mstore\n        /* \"#utility.yul\":21963:21981   */\n      0x64\n      add\n        /* \"contracts/Project1/Real_State.sol\":15493:15557  require(Lands[_landId].isLandSold == false, \"Land already sold\") */\n      tag_203\n        /* \"#utility.yul\":21646:21987   */\n      jump\n        /* \"contracts/Project1/Real_State.sol\":15493:15557  require(Lands[_landId].isLandSold == false, \"Land already sold\") */\n    tag_301:\n        /* \"contracts/Project1/Real_State.sol\":15576:15619  SellerMapping[Lands[_landId].propertyOwner] */\n      0x00\n        /* \"contracts/Project1/Real_State.sol\":15590:15604  Lands[_landId] */\n      dup3\n      dup2\n      mstore\n        /* \"contracts/Project1/Real_State.sol\":15590:15595  Lands */\n      0x05\n        /* \"contracts/Project1/Real_State.sol\":15590:15604  Lands[_landId] */\n      0x20\n      dup2\n      dup2\n      mstore\n      0x40\n      dup1\n      dup5\n      keccak256\n        /* \"contracts/Project1/Real_State.sol\":15590:15618  Lands[_landId].propertyOwner */\n      dup4\n      add\n      sload\n      sub(shl(0xa0, 0x01), 0x01)\n      0x010000\n      swap1\n      swap2\n      div\n      and\n        /* \"contracts/Project1/Real_State.sol\":15576:15619  SellerMapping[Lands[_landId].propertyOwner] */\n      dup5\n      mstore\n        /* \"contracts/Project1/Real_State.sol\":15576:15589  SellerMapping */\n      0x07\n        /* \"contracts/Project1/Real_State.sol\":15576:15619  SellerMapping[Lands[_landId].propertyOwner] */\n      swap1\n      swap2\n      mstore\n      swap1\n      swap2\n      keccak256\n        /* \"contracts/Project1/Real_State.sol\":15576:15636  SellerMapping[Lands[_landId].propertyOwner].isSellerVerified */\n      add\n      sload\n      0xff\n      and\n        /* \"contracts/Project1/Real_State.sol\":15576:15644  SellerMapping[Lands[_landId].propertyOwner].isSellerVerified == true */\n      iszero\n      iszero\n        /* \"contracts/Project1/Real_State.sol\":15576:15636  SellerMapping[Lands[_landId].propertyOwner].isSellerVerified */\n      0x01\n        /* \"contracts/Project1/Real_State.sol\":15576:15644  SellerMapping[Lands[_landId].propertyOwner].isSellerVerified == true */\n      eq\n        /* \"contracts/Project1/Real_State.sol\":15568:15686  require(SellerMapping[Lands[_landId].propertyOwner].isSellerVerified == true, \"Seller not verified by land inspector\") */\n      tag_304\n      jumpi\n      mload(0x40)\n      shl(0xe5, 0x461bcd)\n      dup2\n      mstore\n      0x04\n      add\n      tag_203\n      swap1\n      tag_306\n      jump\t// in\n    tag_304:\n        /* \"contracts/Project1/Real_State.sol\":15705:15719  Lands[_landId] */\n      0x00\n      dup3\n      dup2\n      mstore\n        /* \"contracts/Project1/Real_State.sol\":15705:15710  Lands */\n      0x05\n        /* \"contracts/Project1/Real_State.sol\":15705:15719  Lands[_landId] */\n      0x20\n      dup2\n      swap1\n      mstore\n      0x40\n      swap1\n      swap2\n      keccak256\n        /* \"contracts/Project1/Real_State.sol\":15705:15734  Lands[_landId].isLandVerified */\n      add\n      sload\n      0xff\n      0x0100\n      swap1\n      swap2\n      div\n      and\n        /* \"contracts/Project1/Real_State.sol\":15705:15742  Lands[_landId].isLandVerified == true */\n      iszero\n      iszero\n        /* \"contracts/Project1/Real_State.sol\":15705:15734  Lands[_landId].isLandVerified */\n      0x01\n        /* \"contracts/Project1/Real_State.sol\":15705:15742  Lands[_landId].isLandVerified == true */\n      eq\n        /* \"contracts/Project1/Real_State.sol\":15697:15768  require(Lands[_landId].isLandVerified == true, \"Land is not Verified.\") */\n      tag_307\n      jumpi\n      mload(0x40)\n      shl(0xe5, 0x461bcd)\n      dup2\n      mstore\n        /* \"#utility.yul\":22600:22602   */\n      0x20\n        /* \"contracts/Project1/Real_State.sol\":15697:15768  require(Lands[_landId].isLandVerified == true, \"Land is not Verified.\") */\n      0x04\n      dup3\n      add\n        /* \"#utility.yul\":22582:22603   */\n      mstore\n        /* \"#utility.yul\":22639:22641   */\n      0x15\n        /* \"#utility.yul\":22619:22637   */\n      0x24\n      dup3\n      add\n        /* \"#utility.yul\":22612:22642   */\n      mstore\n      shl(0x59, 0x2630b7321034b9903737ba102b32b934b334b2b217)\n        /* \"#utility.yul\":22658:22676   */\n      0x44\n      dup3\n      add\n        /* \"#utility.yul\":22651:22702   */\n      mstore\n        /* \"#utility.yul\":22719:22737   */\n      0x64\n      add\n        /* \"contracts/Project1/Real_State.sol\":15697:15768  require(Lands[_landId].isLandVerified == true, \"Land is not Verified.\") */\n      tag_203\n        /* \"#utility.yul\":22398:22743   */\n      jump\n        /* \"contracts/Project1/Real_State.sol\":15697:15768  require(Lands[_landId].isLandVerified == true, \"Land is not Verified.\") */\n    tag_307:\n        /* \"contracts/Project1/Real_State.sol\":15800:15814  Lands[_landId] */\n      0x00\n      dup3\n      dup2\n      mstore\n        /* \"contracts/Project1/Real_State.sol\":15800:15805  Lands */\n      0x05\n        /* \"contracts/Project1/Real_State.sol\":15800:15814  Lands[_landId] */\n      0x20\n      mstore\n      0x40\n      swap1\n      keccak256\n        /* \"contracts/Project1/Real_State.sol\":15800:15824  Lands[_landId].landPrice */\n      0x04\n      add\n      sload\n        /* \"contracts/Project1/Real_State.sol\":15787:15796  msg.value */\n      callvalue\n        /* \"contracts/Project1/Real_State.sol\":15787:15824  msg.value == Lands[_landId].landPrice */\n      eq\n        /* \"contracts/Project1/Real_State.sol\":15779:15876  require(msg.value == Lands[_landId].landPrice, \"Land Price is not matching with the sent amount\") */\n      tag_310\n      jumpi\n      mload(0x40)\n      shl(0xe5, 0x461bcd)\n      dup2\n      mstore\n        /* \"#utility.yul\":22950:22952   */\n      0x20\n        /* \"contracts/Project1/Real_State.sol\":15779:15876  require(msg.value == Lands[_landId].landPrice, \"Land Price is not matching with the sent amount\") */\n      0x04\n      dup3\n      add\n        /* \"#utility.yul\":22932:22953   */\n      mstore\n        /* \"#utility.yul\":22989:22991   */\n      0x2f\n        /* \"#utility.yul\":22969:22987   */\n      0x24\n      dup3\n      add\n        /* \"#utility.yul\":22962:22992   */\n      mstore\n        /* \"#utility.yul\":23028:23062   */\n      0x4c616e64205072696365206973206e6f74206d61746368696e67207769746820\n        /* \"#utility.yul\":23008:23026   */\n      0x44\n      dup3\n      add\n        /* \"#utility.yul\":23001:23063   */\n      mstore\n      shl(0x8a, 0x1d1a19481cd95b9d08185b5bdd5b9d)\n        /* \"#utility.yul\":23079:23097   */\n      0x64\n      dup3\n      add\n        /* \"#utility.yul\":23072:23117   */\n      mstore\n        /* \"#utility.yul\":23134:23153   */\n      0x84\n      add\n        /* \"contracts/Project1/Real_State.sol\":15779:15876  require(msg.value == Lands[_landId].landPrice, \"Land Price is not matching with the sent amount\") */\n      tag_203\n        /* \"#utility.yul\":22748:23159   */\n      jump\n        /* \"contracts/Project1/Real_State.sol\":15779:15876  require(msg.value == Lands[_landId].landPrice, \"Land Price is not matching with the sent amount\") */\n    tag_310:\n        /* \"contracts/Project1/Real_State.sol\":15887:15910  _to.transfer(msg.value) */\n      mload(0x40)\n      sub(shl(0xa0, 0x01), 0x01)\n        /* \"contracts/Project1/Real_State.sol\":15887:15899  _to.transfer */\n      dup3\n      and\n      swap1\n        /* \"contracts/Project1/Real_State.sol\":15900:15909  msg.value */\n      callvalue\n        /* \"contracts/Project1/Real_State.sol\":15887:15910  _to.transfer(msg.value) */\n      dup1\n      iszero\n      0x08fc\n      mul\n      swap2\n      0x00\n      dup2\n      dup2\n      dup2\n        /* \"contracts/Project1/Real_State.sol\":15900:15909  msg.value */\n      dup6\n        /* \"contracts/Project1/Real_State.sol\":15887:15899  _to.transfer */\n      dup9\n        /* \"contracts/Project1/Real_State.sol\":15887:15910  _to.transfer(msg.value) */\n      dup9\n      call\n      swap4\n      pop\n      pop\n      pop\n      pop\n      iszero\n      dup1\n      iszero\n      tag_314\n      jumpi\n      returndatasize\n      0x00\n      dup1\n      returndatacopy\n      revert(0x00, returndatasize)\n    tag_314:\n      pop\n        /* \"contracts/Project1/Real_State.sol\":15923:15937  Lands[_landId] */\n      0x00\n      dup3\n      dup2\n      mstore\n        /* \"contracts/Project1/Real_State.sol\":15923:15928  Lands */\n      0x05\n        /* \"contracts/Project1/Real_State.sol\":15923:15937  Lands[_landId] */\n      0x20\n      dup2\n      dup2\n      mstore\n      0x40\n      dup1\n      dup5\n      keccak256\n        /* \"contracts/Project1/Real_State.sol\":15923:15948  Lands[_landId].isLandSold */\n      dup1\n      dup5\n      add\n        /* \"contracts/Project1/Real_State.sol\":15923:15955  Lands[_landId].isLandSold = true */\n      dup1\n      sload\n        /* \"contracts/Project1/Real_State.sol\":15966:16007  Lands[_landId].propertyOwner = msg.sender */\n      0x010000\n        /* \"contracts/Project1/Real_State.sol\":15997:16007  msg.sender */\n      caller\n        /* \"contracts/Project1/Real_State.sol\":15966:16007  Lands[_landId].propertyOwner = msg.sender */\n      swap1\n      dup2\n      mul\n      not(sub(shl(0xb0, 0x01), 0xff01))\n      swap1\n      swap3\n      and\n      swap2\n      swap1\n      swap2\n      or\n        /* \"contracts/Project1/Real_State.sol\":15951:15955  true */\n      0x01\n        /* \"contracts/Project1/Real_State.sol\":15966:16007  Lands[_landId].propertyOwner = msg.sender */\n      or\n      swap1\n      swap2\n      sstore\n        /* \"contracts/Project1/Real_State.sol\":16053:16077  BuyerMapping[msg.sender] */\n      dup6\n      mstore\n        /* \"contracts/Project1/Real_State.sol\":16053:16065  BuyerMapping */\n      0x08\n        /* \"contracts/Project1/Real_State.sol\":16053:16077  BuyerMapping[msg.sender] */\n      dup4\n      mstore\n      swap1\n      dup5\n      keccak256\n        /* \"contracts/Project1/Real_State.sol\":16018:16032  Lands[_landId] */\n      swap4\n      dup7\n      swap1\n      mstore\n      swap2\n      swap1\n      mstore\n        /* \"contracts/Project1/Real_State.sol\":16018:16050  Lands[_landId].propertyOwnerName */\n      0x06\n      add\n      swap1\n        /* \"contracts/Project1/Real_State.sol\":16018:16087  Lands[_landId].propertyOwnerName = BuyerMapping[msg.sender].buyerName */\n      tag_315\n      swap1\n        /* \"contracts/Project1/Real_State.sol\":16018:16050  Lands[_landId].propertyOwnerName */\n      dup3\n        /* \"contracts/Project1/Real_State.sol\":16018:16087  Lands[_landId].propertyOwnerName = BuyerMapping[msg.sender].buyerName */\n      tag_213\n      jump\t// in\n    tag_315:\n      pop\n        /* \"contracts/Project1/Real_State.sol\":16155:16165  msg.sender */\n      caller\n        /* \"contracts/Project1/Real_State.sol\":16142:16166  BuyerMapping[msg.sender] */\n      0x00\n      dup2\n      dup2\n      mstore\n        /* \"contracts/Project1/Real_State.sol\":16142:16154  BuyerMapping */\n      0x08\n        /* \"contracts/Project1/Real_State.sol\":16142:16166  BuyerMapping[msg.sender] */\n      0x20\n      mstore\n      0x40\n      swap1\n      dup2\n      swap1\n      keccak256\n        /* \"contracts/Project1/Real_State.sol\":16105:16189  Users(\"Ownership is transferred to\", BuyerMapping[msg.sender].buyerName, msg.sender) */\n      swap1\n      mload\n      0x00\n      dup1\n      mload\n      0x20\n      data_553849f7da1309eea4f5eb803c5cf6a18f6515247b6f42e35bc1a8e177481422\n      dup4\n      codecopy\n      dup2\n      mload\n      swap2\n      mstore\n      swap3\n      tag_316\n      swap3\n        /* \"contracts/Project1/Real_State.sol\":16142:16166  BuyerMapping[msg.sender] */\n      swap2\n        /* \"contracts/Project1/Real_State.sol\":16105:16189  Users(\"Ownership is transferred to\", BuyerMapping[msg.sender].buyerName, msg.sender) */\n      tag_317\n      jump\t// in\n    tag_316:\n      mload(0x40)\n      dup1\n      swap2\n      sub\n      swap1\n      log1\n        /* \"contracts/Project1/Real_State.sol\":15260:16201  function buyLand... */\n      pop\n      pop\n      jump\t// out\n        /* \"contracts/Project1/Real_State.sol\":4749:5322  function updateSeller... */\n    tag_123:\n        /* \"contracts/Project1/Real_State.sol\":4992:5002  msg.sender */\n      caller\n        /* \"contracts/Project1/Real_State.sol\":4968:5003  CheckSellerRegistration[msg.sender] */\n      0x00\n      swap1\n      dup2\n      mstore\n        /* \"contracts/Project1/Real_State.sol\":4968:4991  CheckSellerRegistration */\n      0x09\n        /* \"contracts/Project1/Real_State.sol\":4968:5003  CheckSellerRegistration[msg.sender] */\n      0x20\n      mstore\n      0x40\n      swap1\n      keccak256\n      sload\n      0xff\n      and\n        /* \"contracts/Project1/Real_State.sol\":4968:5011  CheckSellerRegistration[msg.sender] == true */\n      iszero\n      iszero\n        /* \"contracts/Project1/Real_State.sol\":4968:5003  CheckSellerRegistration[msg.sender] */\n      0x01\n        /* \"contracts/Project1/Real_State.sol\":4968:5011  CheckSellerRegistration[msg.sender] == true */\n      eq\n        /* \"contracts/Project1/Real_State.sol\":4960:5040  require(CheckSellerRegistration[msg.sender] == true,\"Seller is not Registered.\") */\n      tag_319\n      jumpi\n      mload(0x40)\n      shl(0xe5, 0x461bcd)\n      dup2\n      mstore\n        /* \"#utility.yul\":23943:23945   */\n      0x20\n        /* \"contracts/Project1/Real_State.sol\":4960:5040  require(CheckSellerRegistration[msg.sender] == true,\"Seller is not Registered.\") */\n      0x04\n      dup3\n      add\n        /* \"#utility.yul\":23925:23946   */\n      mstore\n        /* \"#utility.yul\":23982:23984   */\n      0x19\n        /* \"#utility.yul\":23962:23980   */\n      0x24\n      dup3\n      add\n        /* \"#utility.yul\":23955:23985   */\n      mstore\n        /* \"#utility.yul\":24021:24048   */\n      0x53656c6c6572206973206e6f7420526567697374657265642e00000000000000\n        /* \"#utility.yul\":24001:24019   */\n      0x44\n      dup3\n      add\n        /* \"#utility.yul\":23994:24049   */\n      mstore\n        /* \"#utility.yul\":24066:24084   */\n      0x64\n      add\n        /* \"contracts/Project1/Real_State.sol\":4960:5040  require(CheckSellerRegistration[msg.sender] == true,\"Seller is not Registered.\") */\n      tag_203\n        /* \"#utility.yul\":23741:24090   */\n      jump\n        /* \"contracts/Project1/Real_State.sol\":4960:5040  require(CheckSellerRegistration[msg.sender] == true,\"Seller is not Registered.\") */\n    tag_319:\n        /* \"contracts/Project1/Real_State.sol\":5073:5083  msg.sender */\n      caller\n        /* \"contracts/Project1/Real_State.sol\":5059:5084  SellerMapping[msg.sender] */\n      0x00\n      swap1\n      dup2\n      mstore\n        /* \"contracts/Project1/Real_State.sol\":5059:5072  SellerMapping */\n      0x07\n        /* \"contracts/Project1/Real_State.sol\":5059:5084  SellerMapping[msg.sender] */\n      0x20\n      mstore\n      0x40\n      dup2\n      keccak256\n        /* \"contracts/Project1/Real_State.sol\":5059:5095  SellerMapping[msg.sender].sellerCNIC */\n      0x03\n      add\n      sload\n        /* \"contracts/Project1/Real_State.sol\":5059:5100  SellerMapping[msg.sender].sellerCNIC != 0 */\n      swap1\n      sub\n        /* \"contracts/Project1/Real_State.sol\":5051:5129  require(SellerMapping[msg.sender].sellerCNIC != 0, \"Seller is not registered\") */\n      tag_322\n      jumpi\n      mload(0x40)\n      shl(0xe5, 0x461bcd)\n      dup2\n      mstore\n        /* \"#utility.yul\":24297:24299   */\n      0x20\n        /* \"contracts/Project1/Real_State.sol\":5051:5129  require(SellerMapping[msg.sender].sellerCNIC != 0, \"Seller is not registered\") */\n      0x04\n      dup3\n      add\n        /* \"#utility.yul\":24279:24300   */\n      mstore\n        /* \"#utility.yul\":24336:24338   */\n      0x18\n        /* \"#utility.yul\":24316:24334   */\n      0x24\n      dup3\n      add\n        /* \"#utility.yul\":24309:24339   */\n      mstore\n        /* \"#utility.yul\":24375:24401   */\n      0x53656c6c6572206973206e6f7420726567697374657265640000000000000000\n        /* \"#utility.yul\":24355:24373   */\n      0x44\n      dup3\n      add\n        /* \"#utility.yul\":24348:24402   */\n      mstore\n        /* \"#utility.yul\":24419:24437   */\n      0x64\n      add\n        /* \"contracts/Project1/Real_State.sol\":5051:5129  require(SellerMapping[msg.sender].sellerCNIC != 0, \"Seller is not registered\") */\n      tag_203\n        /* \"#utility.yul\":24095:24443   */\n      jump\n        /* \"contracts/Project1/Real_State.sol\":5051:5129  require(SellerMapping[msg.sender].sellerCNIC != 0, \"Seller is not registered\") */\n    tag_322:\n        /* \"contracts/Project1/Real_State.sol\":5168:5236  SellerInfo(_sellerName, _sellerAge, city, _sellerCNIC, email, false) */\n      0x40\n      dup1\n      mload\n      0xc0\n      dup2\n      add\n      dup3\n      mstore\n      dup7\n      dup2\n      mstore\n      0x20\n      dup1\n      dup3\n      add\n      dup8\n      swap1\n      mstore\n      dup2\n      dup4\n      add\n      dup7\n      swap1\n      mstore\n      0x60\n      dup3\n      add\n      dup6\n      swap1\n      mstore\n      0x80\n      dup3\n      add\n      dup5\n      swap1\n      mstore\n      0x00\n      0xa0\n      dup4\n      add\n      dup2\n      swap1\n      mstore\n        /* \"contracts/Project1/Real_State.sol\":5154:5164  msg.sender */\n      caller\n        /* \"contracts/Project1/Real_State.sol\":5140:5165  SellerMapping[msg.sender] */\n      dup2\n      mstore\n        /* \"contracts/Project1/Real_State.sol\":5140:5153  SellerMapping */\n      0x07\n        /* \"contracts/Project1/Real_State.sol\":5140:5165  SellerMapping[msg.sender] */\n      swap1\n      swap2\n      mstore\n      swap2\n      swap1\n      swap2\n      keccak256\n        /* \"contracts/Project1/Real_State.sol\":5140:5236  SellerMapping[msg.sender] = SellerInfo(_sellerName, _sellerAge, city, _sellerCNIC, email, false) */\n      dup2\n      mload\n        /* \"contracts/Project1/Real_State.sol\":5140:5165  SellerMapping[msg.sender] */\n      dup2\n      swap1\n        /* \"contracts/Project1/Real_State.sol\":5140:5236  SellerMapping[msg.sender] = SellerInfo(_sellerName, _sellerAge, city, _sellerCNIC, email, false) */\n      tag_325\n      swap1\n        /* \"contracts/Project1/Real_State.sol\":5140:5165  SellerMapping[msg.sender] */\n      dup3\n        /* \"contracts/Project1/Real_State.sol\":5140:5236  SellerMapping[msg.sender] = SellerInfo(_sellerName, _sellerAge, city, _sellerCNIC, email, false) */\n      tag_291\n      jump\t// in\n    tag_325:\n      pop\n      0x20\n      dup3\n      add\n      mload\n      0x01\n      dup3\n      add\n      sstore\n      0x40\n      dup3\n      add\n      mload\n      0x02\n      dup3\n      add\n      swap1\n      tag_326\n      swap1\n      dup3\n      tag_291\n      jump\t// in\n    tag_326:\n      pop\n      0x60\n      dup3\n      add\n      mload\n      0x03\n      dup3\n      add\n      sstore\n      0x80\n      dup3\n      add\n      mload\n      0x04\n      dup3\n      add\n      swap1\n      tag_327\n      swap1\n      dup3\n      tag_291\n      jump\t// in\n    tag_327:\n      pop\n      0xa0\n      swap2\n      swap1\n      swap2\n      add\n      mload\n      0x05\n      swap1\n      swap2\n      add\n      dup1\n      sload\n      not(0xff)\n      and\n      swap2\n      iszero\n      iszero\n      swap2\n      swap1\n      swap2\n      or\n      swap1\n      sstore\n        /* \"contracts/Project1/Real_State.sol\":5254:5304  Users(\"Seller Updated: \", _sellerName, msg.sender) */\n      mload(0x40)\n      0x00\n      dup1\n      mload\n      0x20\n      data_553849f7da1309eea4f5eb803c5cf6a18f6515247b6f42e35bc1a8e177481422\n      dup4\n      codecopy\n      dup2\n      mload\n      swap2\n      mstore\n      swap1\n      tag_328\n      swap1\n        /* \"contracts/Project1/Real_State.sol\":5280:5291  _sellerName */\n      dup8\n      swap1\n        /* \"contracts/Project1/Real_State.sol\":5293:5303  msg.sender */\n      caller\n      swap1\n        /* \"contracts/Project1/Real_State.sol\":5254:5304  Users(\"Seller Updated: \", _sellerName, msg.sender) */\n      tag_329\n      jump\t// in\n    tag_328:\n      mload(0x40)\n      dup1\n      swap2\n      sub\n      swap1\n      log1\n        /* \"contracts/Project1/Real_State.sol\":4749:5322  function updateSeller... */\n      pop\n      pop\n      pop\n      pop\n      pop\n      jump\t// out\n        /* \"contracts/Project1/Real_State.sol\":5392:6619  function registerBuyer... */\n    tag_127:\n        /* \"contracts/Project1/Real_State.sol\":5726:5742  inspectorAddress */\n      sload(0x00)\n      sub(shl(0xa0, 0x01), 0x01)\n      swap1\n      dup2\n      and\n        /* \"contracts/Project1/Real_State.sol\":5715:5742  buyerId != inspectorAddress */\n      swap1\n      dup8\n      and\n      sub\n        /* \"contracts/Project1/Real_State.sol\":5707:5788  require(buyerId != inspectorAddress, \"Inspector is registered with this Address\") */\n      tag_331\n      jumpi\n      mload(0x40)\n      shl(0xe5, 0x461bcd)\n      dup2\n      mstore\n      0x04\n      add\n      tag_203\n      swap1\n      tag_277\n      jump\t// in\n    tag_331:\n      sub(shl(0xa0, 0x01), 0x01)\n        /* \"contracts/Project1/Real_State.sol\":5807:5838  CheckBuyerRegistration[buyerId] */\n      dup7\n      and\n      0x00\n      swap1\n      dup2\n      mstore\n        /* \"contracts/Project1/Real_State.sol\":5807:5829  CheckBuyerRegistration */\n      0x0a\n        /* \"contracts/Project1/Real_State.sol\":5807:5838  CheckBuyerRegistration[buyerId] */\n      0x20\n      mstore\n      0x40\n      swap1\n      keccak256\n      sload\n      0xff\n      and\n        /* \"contracts/Project1/Real_State.sol\":5807:5847  CheckBuyerRegistration[buyerId] == false */\n      iszero\n        /* \"contracts/Project1/Real_State.sol\":5799:5901  require(CheckBuyerRegistration[buyerId] == false, \"Buyer is already registered with the same address\") */\n      tag_333\n      jumpi\n      mload(0x40)\n      shl(0xe5, 0x461bcd)\n      dup2\n      mstore\n        /* \"#utility.yul\":25211:25213   */\n      0x20\n        /* \"contracts/Project1/Real_State.sol\":5799:5901  require(CheckBuyerRegistration[buyerId] == false, \"Buyer is already registered with the same address\") */\n      0x04\n      dup3\n      add\n        /* \"#utility.yul\":25193:25214   */\n      mstore\n        /* \"#utility.yul\":25250:25252   */\n      0x31\n        /* \"#utility.yul\":25230:25248   */\n      0x24\n      dup3\n      add\n        /* \"#utility.yul\":25223:25253   */\n      mstore\n        /* \"#utility.yul\":25289:25323   */\n      0x427579657220697320616c726561647920726567697374657265642077697468\n        /* \"#utility.yul\":25269:25287   */\n      0x44\n      dup3\n      add\n        /* \"#utility.yul\":25262:25324   */\n      mstore\n      shl(0x78, 0x207468652073616d652061646472657373)\n        /* \"#utility.yul\":25340:25358   */\n      0x64\n      dup3\n      add\n        /* \"#utility.yul\":25333:25380   */\n      mstore\n        /* \"#utility.yul\":25397:25416   */\n      0x84\n      add\n        /* \"contracts/Project1/Real_State.sol\":5799:5901  require(CheckBuyerRegistration[buyerId] == false, \"Buyer is already registered with the same address\") */\n      tag_203\n        /* \"#utility.yul\":25009:25422   */\n      jump\n        /* \"contracts/Project1/Real_State.sol\":5799:5901  require(CheckBuyerRegistration[buyerId] == false, \"Buyer is already registered with the same address\") */\n    tag_333:\n      sub(shl(0xa0, 0x01), 0x01)\n        /* \"contracts/Project1/Real_State.sol\":5920:5952  CheckSellerRegistration[buyerId] */\n      dup7\n      and\n      0x00\n      swap1\n      dup2\n      mstore\n        /* \"contracts/Project1/Real_State.sol\":5920:5943  CheckSellerRegistration */\n      0x09\n        /* \"contracts/Project1/Real_State.sol\":5920:5952  CheckSellerRegistration[buyerId] */\n      0x20\n      mstore\n      0x40\n      swap1\n      keccak256\n      sload\n      0xff\n      and\n        /* \"contracts/Project1/Real_State.sol\":5920:5961  CheckSellerRegistration[buyerId] == false */\n      iszero\n        /* \"contracts/Project1/Real_State.sol\":5912:6008  require(CheckSellerRegistration[buyerId] == false,\"Seller already Exists with the same address\") */\n      tag_336\n      jumpi\n      mload(0x40)\n      shl(0xe5, 0x461bcd)\n      dup2\n      mstore\n      0x04\n      add\n      tag_203\n      swap1\n      tag_280\n      jump\t// in\n    tag_336:\n      sub(shl(0xa0, 0x01), 0x01)\n        /* \"contracts/Project1/Real_State.sol\":6057:6079  SellerMapping[buyerId] */\n      dup7\n      and\n      0x00\n      swap1\n      dup2\n      mstore\n        /* \"contracts/Project1/Real_State.sol\":6057:6070  SellerMapping */\n      0x07\n        /* \"contracts/Project1/Real_State.sol\":6057:6079  SellerMapping[buyerId] */\n      0x20\n      swap1\n      dup2\n      mstore\n      0x40\n      dup1\n      dup4\n      keccak256\n        /* \"contracts/Project1/Real_State.sol\":6057:6090  SellerMapping[buyerId].sellerCNIC */\n      0x03\n      swap1\n      dup2\n      add\n      sload\n        /* \"contracts/Project1/Real_State.sol\":6027:6039  BuyerMapping */\n      0x08\n        /* \"contracts/Project1/Real_State.sol\":6027:6048  BuyerMapping[buyerId] */\n      swap1\n      swap4\n      mstore\n      swap3\n      keccak256\n        /* \"contracts/Project1/Real_State.sol\":6027:6053  BuyerMapping[buyerId].cnic */\n      swap1\n      swap2\n      add\n      sload\n        /* \"contracts/Project1/Real_State.sol\":6027:6090  BuyerMapping[buyerId].cnic != SellerMapping[buyerId].sellerCNIC */\n      sub\n        /* \"contracts/Project1/Real_State.sol\":6019:6123  require(BuyerMapping[buyerId].cnic != SellerMapping[buyerId].sellerCNIC, \"Seller with same CNIC exists\") */\n      tag_338\n      jumpi\n      mload(0x40)\n      shl(0xe5, 0x461bcd)\n      dup2\n      mstore\n        /* \"#utility.yul\":19165:19167   */\n      0x20\n        /* \"contracts/Project1/Real_State.sol\":6019:6123  require(BuyerMapping[buyerId].cnic != SellerMapping[buyerId].sellerCNIC, \"Seller with same CNIC exists\") */\n      0x04\n      dup3\n      add\n        /* \"#utility.yul\":19147:19168   */\n      mstore\n        /* \"#utility.yul\":19204:19206   */\n      0x1c\n        /* \"#utility.yul\":19184:19202   */\n      0x24\n      dup3\n      add\n        /* \"#utility.yul\":19177:19207   */\n      mstore\n        /* \"#utility.yul\":19243:19273   */\n      0x53656c6c657220776974682073616d6520434e49432065786973747300000000\n        /* \"#utility.yul\":19223:19241   */\n      0x44\n      dup3\n      add\n        /* \"#utility.yul\":19216:19274   */\n      mstore\n        /* \"#utility.yul\":19291:19309   */\n      0x64\n      add\n        /* \"contracts/Project1/Real_State.sol\":6019:6123  require(BuyerMapping[buyerId].cnic != SellerMapping[buyerId].sellerCNIC, \"Seller with same CNIC exists\") */\n      tag_203\n        /* \"#utility.yul\":18963:19315   */\n      jump\n        /* \"contracts/Project1/Real_State.sol\":6019:6123  require(BuyerMapping[buyerId].cnic != SellerMapping[buyerId].sellerCNIC, \"Seller with same CNIC exists\") */\n    tag_338:\n      sub(shl(0xa0, 0x01), 0x01)\n        /* \"contracts/Project1/Real_State.sol\":6142:6163  BuyerMapping[buyerId] */\n      dup7\n      and\n      0x00\n      swap1\n      dup2\n      mstore\n        /* \"contracts/Project1/Real_State.sol\":6142:6154  BuyerMapping */\n      0x08\n        /* \"contracts/Project1/Real_State.sol\":6142:6163  BuyerMapping[buyerId] */\n      0x20\n      mstore\n      0x40\n      swap1\n      keccak256\n        /* \"contracts/Project1/Real_State.sol\":6142:6168  BuyerMapping[buyerId].cnic */\n      0x03\n      add\n      sload\n        /* \"contracts/Project1/Real_State.sol\":6142:6182  BuyerMapping[buyerId].cnic != _buyerCnic */\n      dup3\n      swap1\n      sub\n        /* \"contracts/Project1/Real_State.sol\":6134:6214  require(BuyerMapping[buyerId].cnic != _buyerCnic, \"Buyer with same CNIC exists\") */\n      tag_340\n      jumpi\n      mload(0x40)\n      shl(0xe5, 0x461bcd)\n      dup2\n      mstore\n        /* \"#utility.yul\":18809:18811   */\n      0x20\n        /* \"contracts/Project1/Real_State.sol\":6134:6214  require(BuyerMapping[buyerId].cnic != _buyerCnic, \"Buyer with same CNIC exists\") */\n      0x04\n      dup3\n      add\n        /* \"#utility.yul\":18791:18812   */\n      mstore\n        /* \"#utility.yul\":18848:18850   */\n      0x1b\n        /* \"#utility.yul\":18828:18846   */\n      0x24\n      dup3\n      add\n        /* \"#utility.yul\":18821:18851   */\n      mstore\n        /* \"#utility.yul\":18887:18916   */\n      0x427579657220776974682073616d6520434e4943206578697374730000000000\n        /* \"#utility.yul\":18867:18885   */\n      0x44\n      dup3\n      add\n        /* \"#utility.yul\":18860:18917   */\n      mstore\n        /* \"#utility.yul\":18934:18952   */\n      0x64\n      add\n        /* \"contracts/Project1/Real_State.sol\":6134:6214  require(BuyerMapping[buyerId].cnic != _buyerCnic, \"Buyer with same CNIC exists\") */\n      tag_203\n        /* \"#utility.yul\":18607:18958   */\n      jump\n        /* \"contracts/Project1/Real_State.sol\":6134:6214  require(BuyerMapping[buyerId].cnic != _buyerCnic, \"Buyer with same CNIC exists\") */\n    tag_340:\n      sub(shl(0xa0, 0x01), 0x01)\n        /* \"contracts/Project1/Real_State.sol\":6229:6250  BuyerMapping[buyerId] */\n      dup7\n      and\n      0x00\n      swap1\n      dup2\n      mstore\n        /* \"contracts/Project1/Real_State.sol\":6229:6241  BuyerMapping */\n      0x08\n        /* \"contracts/Project1/Real_State.sol\":6229:6250  BuyerMapping[buyerId] */\n      0x20\n      mstore\n      0x40\n      swap1\n      keccak256\n        /* \"contracts/Project1/Real_State.sol\":6229:6273  BuyerMapping[buyerId].buyerName = _buyerName */\n      tag_342\n        /* \"contracts/Project1/Real_State.sol\":6263:6273  _buyerName */\n      dup7\n        /* \"contracts/Project1/Real_State.sol\":6229:6250  BuyerMapping[buyerId] */\n      dup3\n        /* \"contracts/Project1/Real_State.sol\":6229:6273  BuyerMapping[buyerId].buyerName = _buyerName */\n      tag_291\n      jump\t// in\n    tag_342:\n      pop\n      sub(shl(0xa0, 0x01), 0x01)\n        /* \"contracts/Project1/Real_State.sol\":6284:6305  BuyerMapping[buyerId] */\n      dup7\n      and\n      0x00\n      swap1\n      dup2\n      mstore\n        /* \"contracts/Project1/Real_State.sol\":6284:6296  BuyerMapping */\n      0x08\n        /* \"contracts/Project1/Real_State.sol\":6284:6305  BuyerMapping[buyerId] */\n      0x20\n      mstore\n      0x40\n      swap1\n      keccak256\n        /* \"contracts/Project1/Real_State.sol\":6284:6314  BuyerMapping[buyerId].buyerAge */\n      0x01\n      dup2\n      add\n        /* \"contracts/Project1/Real_State.sol\":6284:6326  BuyerMapping[buyerId].buyerAge = _buyerAge */\n      dup6\n      swap1\n      sstore\n        /* \"contracts/Project1/Real_State.sol\":6337:6363  BuyerMapping[buyerId].city */\n      0x02\n      add\n        /* \"contracts/Project1/Real_State.sol\":6337:6371  BuyerMapping[buyerId].city = _city */\n      tag_343\n        /* \"contracts/Project1/Real_State.sol\":6366:6371  _city */\n      dup5\n        /* \"contracts/Project1/Real_State.sol\":6337:6363  BuyerMapping[buyerId].city */\n      dup3\n        /* \"contracts/Project1/Real_State.sol\":6337:6371  BuyerMapping[buyerId].city = _city */\n      tag_291\n      jump\t// in\n    tag_343:\n      pop\n      sub(shl(0xa0, 0x01), 0x01)\n        /* \"contracts/Project1/Real_State.sol\":6382:6403  BuyerMapping[buyerId] */\n      dup7\n      and\n      0x00\n      swap1\n      dup2\n      mstore\n        /* \"contracts/Project1/Real_State.sol\":6382:6394  BuyerMapping */\n      0x08\n        /* \"contracts/Project1/Real_State.sol\":6382:6403  BuyerMapping[buyerId] */\n      0x20\n      mstore\n      0x40\n      swap1\n      keccak256\n        /* \"contracts/Project1/Real_State.sol\":6382:6408  BuyerMapping[buyerId].cnic */\n      0x03\n      dup2\n      add\n        /* \"contracts/Project1/Real_State.sol\":6382:6421  BuyerMapping[buyerId].cnic = _buyerCnic */\n      dup4\n      swap1\n      sstore\n        /* \"contracts/Project1/Real_State.sol\":6432:6459  BuyerMapping[buyerId].email */\n      0x04\n      add\n        /* \"contracts/Project1/Real_State.sol\":6432:6468  BuyerMapping[buyerId].email = _email */\n      tag_344\n        /* \"contracts/Project1/Real_State.sol\":6462:6468  _email */\n      dup3\n        /* \"contracts/Project1/Real_State.sol\":6432:6459  BuyerMapping[buyerId].email */\n      dup3\n        /* \"contracts/Project1/Real_State.sol\":6432:6468  BuyerMapping[buyerId].email = _email */\n      tag_291\n      jump\t// in\n    tag_344:\n      pop\n      sub(shl(0xa0, 0x01), 0x01)\n        /* \"contracts/Project1/Real_State.sol\":6479:6510  CheckBuyerRegistration[buyerId] */\n      dup7\n      and\n      0x00\n      swap1\n      dup2\n      mstore\n        /* \"contracts/Project1/Real_State.sol\":6479:6501  CheckBuyerRegistration */\n      0x0a\n        /* \"contracts/Project1/Real_State.sol\":6479:6510  CheckBuyerRegistration[buyerId] */\n      0x20\n      mstore\n      0x40\n      dup2\n      keccak256\n        /* \"contracts/Project1/Real_State.sol\":6479:6517  CheckBuyerRegistration[buyerId] = true */\n      dup1\n      sload\n      not(0xff)\n      and\n        /* \"contracts/Project1/Real_State.sol\":6513:6517  true */\n      0x01\n        /* \"contracts/Project1/Real_State.sol\":6479:6517  CheckBuyerRegistration[buyerId] = true */\n      swap1\n      dup2\n      or\n      swap1\n      swap2\n      sstore\n        /* \"contracts/Project1/Real_State.sol\":6530:6541  totalBuyers */\n      0x04\n        /* \"contracts/Project1/Real_State.sol\":6530:6546  totalBuyers += 1 */\n      dup1\n      sload\n        /* \"contracts/Project1/Real_State.sol\":6513:6517  true */\n      swap2\n      swap3\n        /* \"contracts/Project1/Real_State.sol\":6530:6541  totalBuyers */\n      swap1\n      swap2\n        /* \"contracts/Project1/Real_State.sol\":6530:6546  totalBuyers += 1 */\n      tag_345\n      swap1\n        /* \"contracts/Project1/Real_State.sol\":6513:6517  true */\n      dup5\n      swap1\n        /* \"contracts/Project1/Real_State.sol\":6530:6546  totalBuyers += 1 */\n      tag_219\n      jump\t// in\n    tag_345:\n      swap1\n      swap2\n      sstore\n      pop\n      pop\n        /* \"contracts/Project1/Real_State.sol\":6562:6609  Users(\"Buyer Registered: \",_buyerName, buyerId) */\n      mload(0x40)\n      0x00\n      dup1\n      mload\n      0x20\n      data_553849f7da1309eea4f5eb803c5cf6a18f6515247b6f42e35bc1a8e177481422\n      dup4\n      codecopy\n      dup2\n      mload\n      swap2\n      mstore\n      swap1\n      tag_295\n      swap1\n        /* \"contracts/Project1/Real_State.sol\":6589:6599  _buyerName */\n      dup8\n      swap1\n        /* \"contracts/Project1/Real_State.sol\":6601:6608  buyerId */\n      dup10\n      swap1\n        /* \"contracts/Project1/Real_State.sol\":6562:6609  Users(\"Buyer Registered: \",_buyerName, buyerId) */\n      tag_347\n      jump\t// in\n        /* \"contracts/Project1/Real_State.sol\":1939:1988  mapping(address => BuyerInfo) public BuyerMapping */\n    tag_131:\n      mstore(0x20, 0x08)\n      0x00\n      swap1\n      dup2\n      mstore\n      0x40\n      swap1\n      keccak256\n      dup1\n      sload\n      dup2\n      swap1\n      tag_348\n      swap1\n      tag_181\n      jump\t// in\n    tag_348:\n      dup1\n      0x1f\n      add\n      0x20\n      dup1\n      swap2\n      div\n      mul\n      0x20\n      add\n      mload(0x40)\n      swap1\n      dup2\n      add\n      0x40\n      mstore\n      dup1\n      swap3\n      swap2\n      swap1\n      dup2\n      dup2\n      mstore\n      0x20\n      add\n      dup3\n      dup1\n      sload\n      tag_349\n      swap1\n      tag_181\n      jump\t// in\n    tag_349:\n      dup1\n      iszero\n      tag_350\n      jumpi\n      dup1\n      0x1f\n      lt\n      tag_351\n      jumpi\n      0x0100\n      dup1\n      dup4\n      sload\n      div\n      mul\n      dup4\n      mstore\n      swap2\n      0x20\n      add\n      swap2\n      jump(tag_350)\n    tag_351:\n      dup3\n      add\n      swap2\n      swap1\n      0x00\n      mstore\n      keccak256(0x00, 0x20)\n      swap1\n    tag_352:\n      dup2\n      sload\n      dup2\n      mstore\n      swap1\n      0x01\n      add\n      swap1\n      0x20\n      add\n      dup1\n      dup4\n      gt\n      tag_352\n      jumpi\n      dup3\n      swap1\n      sub\n      0x1f\n      and\n      dup3\n      add\n      swap2\n    tag_350:\n      pop\n      pop\n      pop\n      pop\n      pop\n      swap1\n      dup1\n      0x01\n      add\n      sload\n      swap1\n      dup1\n      0x02\n      add\n      dup1\n      sload\n      tag_353\n      swap1\n      tag_181\n      jump\t// in\n    tag_353:\n      dup1\n      0x1f\n      add\n      0x20\n      dup1\n      swap2\n      div\n      mul\n      0x20\n      add\n      mload(0x40)\n      swap1\n      dup2\n      add\n      0x40\n      mstore\n      dup1\n      swap3\n      swap2\n      swap1\n      dup2\n      dup2\n      mstore\n      0x20\n      add\n      dup3\n      dup1\n      sload\n      tag_354\n      swap1\n      tag_181\n      jump\t// in\n    tag_354:\n      dup1\n      iszero\n      tag_355\n      jumpi\n      dup1\n      0x1f\n      lt\n      tag_356\n      jumpi\n      0x0100\n      dup1\n      dup4\n      sload\n      div\n      mul\n      dup4\n      mstore\n      swap2\n      0x20\n      add\n      swap2\n      jump(tag_355)\n    tag_356:\n      dup3\n      add\n      swap2\n      swap1\n      0x00\n      mstore\n      keccak256(0x00, 0x20)\n      swap1\n    tag_357:\n      dup2\n      sload\n      dup2\n      mstore\n      swap1\n      0x01\n      add\n      swap1\n      0x20\n      add\n      dup1\n      dup4\n      gt\n      tag_357\n      jumpi\n      dup3\n      swap1\n      sub\n      0x1f\n      and\n      dup3\n      add\n      swap2\n    tag_355:\n      pop\n      pop\n      pop\n      pop\n      pop\n      swap1\n      dup1\n      0x03\n      add\n      sload\n      swap1\n      dup1\n      0x04\n      add\n      dup1\n      sload\n      tag_358\n      swap1\n      tag_181\n      jump\t// in\n    tag_358:\n      dup1\n      0x1f\n      add\n      0x20\n      dup1\n      swap2\n      div\n      mul\n      0x20\n      add\n      mload(0x40)\n      swap1\n      dup2\n      add\n      0x40\n      mstore\n      dup1\n      swap3\n      swap2\n      swap1\n      dup2\n      dup2\n      mstore\n      0x20\n      add\n      dup3\n      dup1\n      sload\n      tag_359\n      swap1\n      tag_181\n      jump\t// in\n    tag_359:\n      dup1\n      iszero\n      tag_360\n      jumpi\n      dup1\n      0x1f\n      lt\n      tag_361\n      jumpi\n      0x0100\n      dup1\n      dup4\n      sload\n      div\n      mul\n      dup4\n      mstore\n      swap2\n      0x20\n      add\n      swap2\n      jump(tag_360)\n    tag_361:\n      dup3\n      add\n      swap2\n      swap1\n      0x00\n      mstore\n      keccak256(0x00, 0x20)\n      swap1\n    tag_362:\n      dup2\n      sload\n      dup2\n      mstore\n      swap1\n      0x01\n      add\n      swap1\n      0x20\n      add\n      dup1\n      dup4\n      gt\n      tag_362\n      jumpi\n      dup3\n      swap1\n      sub\n      0x1f\n      and\n      dup3\n      add\n      swap2\n    tag_360:\n      pop\n      pop\n      pop\n      0x05\n      swap1\n      swap4\n      add\n      sload\n      swap2\n      swap3\n      pop\n      pop\n      0xff\n      and\n      dup7\n      jump\t// out\n        /* \"contracts/Project1/Real_State.sol\":16301:16985  function transferLand... */\n    tag_143:\n        /* \"contracts/Project1/Real_State.sol\":16421:16463  SellerMapping[Lands[landId].propertyOwner] */\n      0x00\n        /* \"contracts/Project1/Real_State.sol\":16435:16448  Lands[landId] */\n      dup3\n      dup2\n      mstore\n        /* \"contracts/Project1/Real_State.sol\":16435:16440  Lands */\n      0x05\n        /* \"contracts/Project1/Real_State.sol\":16435:16448  Lands[landId] */\n      0x20\n      dup2\n      dup2\n      mstore\n      0x40\n      dup1\n      dup5\n      keccak256\n        /* \"contracts/Project1/Real_State.sol\":16435:16462  Lands[landId].propertyOwner */\n      dup4\n      add\n      sload\n      sub(shl(0xa0, 0x01), 0x01)\n      0x010000\n      swap1\n      swap2\n      div\n      and\n        /* \"contracts/Project1/Real_State.sol\":16421:16463  SellerMapping[Lands[landId].propertyOwner] */\n      dup5\n      mstore\n        /* \"contracts/Project1/Real_State.sol\":16421:16434  SellerMapping */\n      0x07\n        /* \"contracts/Project1/Real_State.sol\":16421:16463  SellerMapping[Lands[landId].propertyOwner] */\n      swap1\n      swap2\n      mstore\n      swap1\n      swap2\n      keccak256\n        /* \"contracts/Project1/Real_State.sol\":16421:16480  SellerMapping[Lands[landId].propertyOwner].isSellerVerified */\n      add\n      sload\n      0xff\n      and\n        /* \"contracts/Project1/Real_State.sol\":16421:16488  SellerMapping[Lands[landId].propertyOwner].isSellerVerified == true */\n      iszero\n      iszero\n        /* \"contracts/Project1/Real_State.sol\":16421:16480  SellerMapping[Lands[landId].propertyOwner].isSellerVerified */\n      0x01\n        /* \"contracts/Project1/Real_State.sol\":16421:16488  SellerMapping[Lands[landId].propertyOwner].isSellerVerified == true */\n      eq\n        /* \"contracts/Project1/Real_State.sol\":16413:16530  require(SellerMapping[Lands[landId].propertyOwner].isSellerVerified == true, \"Seller not verified by land inspector\") */\n      tag_365\n      jumpi\n      mload(0x40)\n      shl(0xe5, 0x461bcd)\n      dup2\n      mstore\n      0x04\n      add\n      tag_203\n      swap1\n      tag_306\n      jump\t// in\n    tag_365:\n        /* \"contracts/Project1/Real_State.sol\":16549:16562  Lands[landId] */\n      0x00\n      dup3\n      dup2\n      mstore\n        /* \"contracts/Project1/Real_State.sol\":16549:16554  Lands */\n      0x05\n        /* \"contracts/Project1/Real_State.sol\":16549:16562  Lands[landId] */\n      0x20\n      dup2\n      swap1\n      mstore\n      0x40\n      swap1\n      swap2\n      keccak256\n        /* \"contracts/Project1/Real_State.sol\":16549:16573  Lands[landId].isLandSold */\n      add\n      sload\n      0xff\n      and\n        /* \"contracts/Project1/Real_State.sol\":16549:16582  Lands[landId].isLandSold == false */\n      iszero\n        /* \"contracts/Project1/Real_State.sol\":16541:16636  require(Lands[landId].isLandSold == false, \"Land is sold, so can't transfer to another seller\") */\n      tag_367\n      jumpi\n      mload(0x40)\n      shl(0xe5, 0x461bcd)\n      dup2\n      mstore\n        /* \"#utility.yul\":26192:26194   */\n      0x20\n        /* \"contracts/Project1/Real_State.sol\":16541:16636  require(Lands[landId].isLandSold == false, \"Land is sold, so can't transfer to another seller\") */\n      0x04\n      dup3\n      add\n        /* \"#utility.yul\":26174:26195   */\n      mstore\n        /* \"#utility.yul\":26231:26233   */\n      0x31\n        /* \"#utility.yul\":26211:26229   */\n      0x24\n      dup3\n      add\n        /* \"#utility.yul\":26204:26234   */\n      mstore\n        /* \"#utility.yul\":26270:26304   */\n      0x4c616e6420697320736f6c642c20736f2063616e2774207472616e7366657220\n        /* \"#utility.yul\":26250:26268   */\n      0x44\n      dup3\n      add\n        /* \"#utility.yul\":26243:26305   */\n      mstore\n      shl(0x79, 0x3a379030b737ba3432b91039b2b63632b9)\n        /* \"#utility.yul\":26321:26339   */\n      0x64\n      dup3\n      add\n        /* \"#utility.yul\":26314:26361   */\n      mstore\n        /* \"#utility.yul\":26378:26397   */\n      0x84\n      add\n        /* \"contracts/Project1/Real_State.sol\":16541:16636  require(Lands[landId].isLandSold == false, \"Land is sold, so can't transfer to another seller\") */\n      tag_203\n        /* \"#utility.yul\":25990:26403   */\n      jump\n        /* \"contracts/Project1/Real_State.sol\":16541:16636  require(Lands[landId].isLandSold == false, \"Land is sold, so can't transfer to another seller\") */\n    tag_367:\n        /* \"contracts/Project1/Real_State.sol\":16655:16668  Lands[landId] */\n      0x00\n      dup3\n      dup2\n      mstore\n        /* \"contracts/Project1/Real_State.sol\":16655:16660  Lands */\n      0x05\n        /* \"contracts/Project1/Real_State.sol\":16655:16668  Lands[landId] */\n      0x20\n      dup2\n      swap1\n      mstore\n      0x40\n      swap1\n      swap2\n      keccak256\n        /* \"contracts/Project1/Real_State.sol\":16655:16682  Lands[landId].propertyOwner */\n      add\n      sload\n      0x010000\n      swap1\n      div\n      sub(shl(0xa0, 0x01), 0x01)\n      and\n        /* \"contracts/Project1/Real_State.sol\":16686:16696  msg.sender */\n      caller\n        /* \"contracts/Project1/Real_State.sol\":16655:16696  Lands[landId].propertyOwner == msg.sender */\n      eq\n        /* \"contracts/Project1/Real_State.sol\":16647:16749  require(Lands[landId].propertyOwner == msg.sender, \"Only Land Owner is allowed to transfer Ownership\") */\n      tag_370\n      jumpi\n      mload(0x40)\n      shl(0xe5, 0x461bcd)\n      dup2\n      mstore\n        /* \"#utility.yul\":26610:26612   */\n      0x20\n        /* \"contracts/Project1/Real_State.sol\":16647:16749  require(Lands[landId].propertyOwner == msg.sender, \"Only Land Owner is allowed to transfer Ownership\") */\n      0x04\n      dup3\n      add\n        /* \"#utility.yul\":26592:26613   */\n      mstore\n        /* \"#utility.yul\":26649:26651   */\n      0x30\n        /* \"#utility.yul\":26629:26647   */\n      0x24\n      dup3\n      add\n        /* \"#utility.yul\":26622:26652   */\n      mstore\n        /* \"#utility.yul\":26688:26722   */\n      0x4f6e6c79204c616e64204f776e657220697320616c6c6f77656420746f207472\n        /* \"#utility.yul\":26668:26686   */\n      0x44\n      dup3\n      add\n        /* \"#utility.yul\":26661:26723   */\n      mstore\n      shl(0x84, 0x0616e73666572204f776e65727368697)\n        /* \"#utility.yul\":26739:26757   */\n      0x64\n      dup3\n      add\n        /* \"#utility.yul\":26732:26778   */\n      mstore\n        /* \"#utility.yul\":26795:26814   */\n      0x84\n      add\n        /* \"contracts/Project1/Real_State.sol\":16647:16749  require(Lands[landId].propertyOwner == msg.sender, \"Only Land Owner is allowed to transfer Ownership\") */\n      tag_203\n        /* \"#utility.yul\":26408:26820   */\n      jump\n        /* \"contracts/Project1/Real_State.sol\":16647:16749  require(Lands[landId].propertyOwner == msg.sender, \"Only Land Owner is allowed to transfer Ownership\") */\n    tag_370:\n        /* \"contracts/Project1/Real_State.sol\":16760:16773  Lands[landId] */\n      0x00\n      dup3\n      dup2\n      mstore\n        /* \"contracts/Project1/Real_State.sol\":16760:16765  Lands */\n      0x05\n        /* \"contracts/Project1/Real_State.sol\":16760:16773  Lands[landId] */\n      0x20\n      dup2\n      dup2\n      mstore\n      0x40\n      dup1\n      dup5\n      keccak256\n        /* \"contracts/Project1/Real_State.sol\":16760:16787  Lands[landId].propertyOwner */\n      dup1\n      dup5\n      add\n        /* \"contracts/Project1/Real_State.sol\":16760:16798  Lands[landId].propertyOwner = _address */\n      dup1\n      sload\n      not(sub(shl(0xb0, 0x01), 0x010000))\n      and\n      0x010000\n      sub(shl(0xa0, 0x01), 0x01)\n      dup10\n      and\n      swap1\n      dup2\n      mul\n      swap2\n      swap1\n      swap2\n      or\n      swap1\n      swap2\n      sstore\n        /* \"contracts/Project1/Real_State.sol\":16843:16866  SellerMapping[_address] */\n      dup6\n      mstore\n        /* \"contracts/Project1/Real_State.sol\":16843:16856  SellerMapping */\n      0x07\n        /* \"contracts/Project1/Real_State.sol\":16843:16866  SellerMapping[_address] */\n      dup4\n      mstore\n      swap1\n      dup5\n      keccak256\n        /* \"contracts/Project1/Real_State.sol\":16809:16822  Lands[landId] */\n      swap4\n      dup7\n      swap1\n      mstore\n      swap2\n      swap1\n      mstore\n        /* \"contracts/Project1/Real_State.sol\":16809:16840  Lands[landId].propertyOwnerName */\n      0x06\n      add\n      swap1\n        /* \"contracts/Project1/Real_State.sol\":16809:16877  Lands[landId].propertyOwnerName = SellerMapping[_address].sellerName */\n      tag_373\n      swap1\n        /* \"contracts/Project1/Real_State.sol\":16809:16840  Lands[landId].propertyOwnerName */\n      dup3\n        /* \"contracts/Project1/Real_State.sol\":16809:16877  Lands[landId].propertyOwnerName = SellerMapping[_address].sellerName */\n      tag_213\n      jump\t// in\n    tag_373:\n      pop\n      sub(shl(0xa0, 0x01), 0x01)\n        /* \"contracts/Project1/Real_State.sol\":16932:16955  SellerMapping[_address] */\n      dup2\n      and\n      0x00\n      swap1\n      dup2\n      mstore\n        /* \"contracts/Project1/Real_State.sol\":16932:16945  SellerMapping */\n      0x07\n        /* \"contracts/Project1/Real_State.sol\":16932:16955  SellerMapping[_address] */\n      0x20\n      mstore\n      0x40\n      swap1\n      dup2\n      swap1\n      keccak256\n        /* \"contracts/Project1/Real_State.sol\":16895:16977  Users(\"Ownership is transferred to\", SellerMapping[_address].sellerName, _address) */\n      swap1\n      mload\n      0x00\n      dup1\n      mload\n      0x20\n      data_553849f7da1309eea4f5eb803c5cf6a18f6515247b6f42e35bc1a8e177481422\n      dup4\n      codecopy\n      dup2\n      mload\n      swap2\n      mstore\n      swap2\n      tag_316\n      swap2\n        /* \"contracts/Project1/Real_State.sol\":16946:16954  _address */\n      dup5\n      swap1\n        /* \"contracts/Project1/Real_State.sol\":16895:16977  Users(\"Ownership is transferred to\", SellerMapping[_address].sellerName, _address) */\n      tag_317\n      jump\t// in\n        /* \"contracts/Project1/Real_State.sol\":11560:12227  function verifySeller... */\n    tag_147:\n        /* \"contracts/Project1/Real_State.sol\":3223:3239  inspectorAddress */\n      and(sub(shl(0xa0, 0x01), 0x01), sload(0x00))\n        /* \"contracts/Project1/Real_State.sol\":3243:3253  msg.sender */\n      caller\n        /* \"contracts/Project1/Real_State.sol\":3223:3253  inspectorAddress == msg.sender */\n      eq\n        /* \"contracts/Project1/Real_State.sol\":3215:3308  require(inspectorAddress == msg.sender, \"You are not authorized to execute this transaction\") */\n      tag_376\n      jumpi\n      mload(0x40)\n      shl(0xe5, 0x461bcd)\n      dup2\n      mstore\n      0x04\n      add\n      tag_203\n      swap1\n      tag_204\n      jump\t// in\n    tag_376:\n      sub(shl(0xa0, 0x01), 0x01)\n        /* \"contracts/Project1/Real_State.sol\":11683:11722  CheckSellerRegistration[_sellerAddress] */\n      dup2\n      and\n      0x00\n      swap1\n      dup2\n      mstore\n        /* \"contracts/Project1/Real_State.sol\":11683:11706  CheckSellerRegistration */\n      0x09\n        /* \"contracts/Project1/Real_State.sol\":11683:11722  CheckSellerRegistration[_sellerAddress] */\n      0x20\n      mstore\n      0x40\n      swap1\n      keccak256\n      sload\n      0xff\n      and\n        /* \"contracts/Project1/Real_State.sol\":11683:11730  CheckSellerRegistration[_sellerAddress] == true */\n      iszero\n      iszero\n        /* \"contracts/Project1/Real_State.sol\":11683:11722  CheckSellerRegistration[_sellerAddress] */\n      0x01\n        /* \"contracts/Project1/Real_State.sol\":11683:11730  CheckSellerRegistration[_sellerAddress] == true */\n      eq\n        /* \"contracts/Project1/Real_State.sol\":11675:11782  require(CheckSellerRegistration[_sellerAddress] == true, \"Seller with the provided Address does not Exist\") */\n      tag_379\n      jumpi\n      mload(0x40)\n      shl(0xe5, 0x461bcd)\n      dup2\n      mstore\n        /* \"#utility.yul\":27027:27029   */\n      0x20\n        /* \"contracts/Project1/Real_State.sol\":11675:11782  require(CheckSellerRegistration[_sellerAddress] == true, \"Seller with the provided Address does not Exist\") */\n      0x04\n      dup3\n      add\n        /* \"#utility.yul\":27009:27030   */\n      mstore\n        /* \"#utility.yul\":27066:27068   */\n      0x2f\n        /* \"#utility.yul\":27046:27064   */\n      0x24\n      dup3\n      add\n        /* \"#utility.yul\":27039:27069   */\n      mstore\n        /* \"#utility.yul\":27105:27139   */\n      0x53656c6c65722077697468207468652070726f76696465642041646472657373\n        /* \"#utility.yul\":27085:27103   */\n      0x44\n      dup3\n      add\n        /* \"#utility.yul\":27078:27140   */\n      mstore\n      shl(0x8a, 0x08191bd95cc81b9bdd08115e1a5cdd)\n        /* \"#utility.yul\":27156:27174   */\n      0x64\n      dup3\n      add\n        /* \"#utility.yul\":27149:27194   */\n      mstore\n        /* \"#utility.yul\":27211:27230   */\n      0x84\n      add\n        /* \"contracts/Project1/Real_State.sol\":11675:11782  require(CheckSellerRegistration[_sellerAddress] == true, \"Seller with the provided Address does not Exist\") */\n      tag_203\n        /* \"#utility.yul\":26825:27236   */\n      jump\n        /* \"contracts/Project1/Real_State.sol\":11675:11782  require(CheckSellerRegistration[_sellerAddress] == true, \"Seller with the provided Address does not Exist\") */\n    tag_379:\n      sub(shl(0xa0, 0x01), 0x01)\n        /* \"contracts/Project1/Real_State.sol\":11801:11830  SellerMapping[_sellerAddress] */\n      dup2\n      and\n      0x00\n      swap1\n      dup2\n      mstore\n        /* \"contracts/Project1/Real_State.sol\":11801:11814  SellerMapping */\n      0x07\n        /* \"contracts/Project1/Real_State.sol\":11801:11830  SellerMapping[_sellerAddress] */\n      0x20\n      mstore\n      0x40\n      swap1\n      keccak256\n        /* \"contracts/Project1/Real_State.sol\":11801:11847  SellerMapping[_sellerAddress].isSellerVerified */\n      0x05\n      add\n      sload\n      0xff\n      and\n        /* \"contracts/Project1/Real_State.sol\":11801:11856  SellerMapping[_sellerAddress].isSellerVerified == false */\n      iszero\n        /* \"contracts/Project1/Real_State.sol\":11793:11910  require(SellerMapping[_sellerAddress].isSellerVerified == false, \"Seller swith provided address is already verified\") */\n      tag_382\n      jumpi\n      mload(0x40)\n      shl(0xe5, 0x461bcd)\n      dup2\n      mstore\n        /* \"#utility.yul\":27443:27445   */\n      0x20\n        /* \"contracts/Project1/Real_State.sol\":11793:11910  require(SellerMapping[_sellerAddress].isSellerVerified == false, \"Seller swith provided address is already verified\") */\n      0x04\n      dup3\n      add\n        /* \"#utility.yul\":27425:27446   */\n      mstore\n        /* \"#utility.yul\":27482:27484   */\n      0x31\n        /* \"#utility.yul\":27462:27480   */\n      0x24\n      dup3\n      add\n        /* \"#utility.yul\":27455:27485   */\n      mstore\n        /* \"#utility.yul\":27521:27555   */\n      0x53656c6c65722073776974682070726f76696465642061646472657373206973\n        /* \"#utility.yul\":27501:27519   */\n      0x44\n      dup3\n      add\n        /* \"#utility.yul\":27494:27556   */\n      mstore\n      shl(0x7a, 0x08185b1c9958591e481d995c9a599a5959)\n        /* \"#utility.yul\":27572:27590   */\n      0x64\n      dup3\n      add\n        /* \"#utility.yul\":27565:27612   */\n      mstore\n        /* \"#utility.yul\":27629:27648   */\n      0x84\n      add\n        /* \"contracts/Project1/Real_State.sol\":11793:11910  require(SellerMapping[_sellerAddress].isSellerVerified == false, \"Seller swith provided address is already verified\") */\n      tag_203\n        /* \"#utility.yul\":27241:27654   */\n      jump\n        /* \"contracts/Project1/Real_State.sol\":11793:11910  require(SellerMapping[_sellerAddress].isSellerVerified == false, \"Seller swith provided address is already verified\") */\n    tag_382:\n      sub(shl(0xa0, 0x01), 0x01)\n        /* \"contracts/Project1/Real_State.sol\":11929:11967  CheckBuyerRegistration[_sellerAddress] */\n      dup2\n      and\n      0x00\n      swap1\n      dup2\n      mstore\n        /* \"contracts/Project1/Real_State.sol\":11929:11951  CheckBuyerRegistration */\n      0x0a\n        /* \"contracts/Project1/Real_State.sol\":11929:11967  CheckBuyerRegistration[_sellerAddress] */\n      0x20\n      mstore\n      0x40\n      swap1\n      keccak256\n      sload\n      0xff\n      and\n        /* \"contracts/Project1/Real_State.sol\":11929:11976  CheckBuyerRegistration[_sellerAddress] == false */\n      iszero\n        /* \"contracts/Project1/Real_State.sol\":11921:12023  require(CheckBuyerRegistration[_sellerAddress] == false, \"Buyer with provided address already exist.\") */\n      tag_385\n      jumpi\n      mload(0x40)\n      shl(0xe5, 0x461bcd)\n      dup2\n      mstore\n        /* \"#utility.yul\":27861:27863   */\n      0x20\n        /* \"contracts/Project1/Real_State.sol\":11921:12023  require(CheckBuyerRegistration[_sellerAddress] == false, \"Buyer with provided address already exist.\") */\n      0x04\n      dup3\n      add\n        /* \"#utility.yul\":27843:27864   */\n      mstore\n        /* \"#utility.yul\":27900:27902   */\n      0x2a\n        /* \"#utility.yul\":27880:27898   */\n      0x24\n      dup3\n      add\n        /* \"#utility.yul\":27873:27903   */\n      mstore\n        /* \"#utility.yul\":27939:27973   */\n      0x427579657220776974682070726f7669646564206164647265737320616c7265\n        /* \"#utility.yul\":27919:27937   */\n      0x44\n      dup3\n      add\n        /* \"#utility.yul\":27912:27974   */\n      mstore\n      shl(0xb1, 0x30b23c9032bc34b9ba17)\n        /* \"#utility.yul\":27990:28008   */\n      0x64\n      dup3\n      add\n        /* \"#utility.yul\":27983:28023   */\n      mstore\n        /* \"#utility.yul\":28040:28059   */\n      0x84\n      add\n        /* \"contracts/Project1/Real_State.sol\":11921:12023  require(CheckBuyerRegistration[_sellerAddress] == false, \"Buyer with provided address already exist.\") */\n      tag_203\n        /* \"#utility.yul\":27659:28065   */\n      jump\n        /* \"contracts/Project1/Real_State.sol\":11921:12023  require(CheckBuyerRegistration[_sellerAddress] == false, \"Buyer with provided address already exist.\") */\n    tag_385:\n      sub(shl(0xa0, 0x01), 0x01)\n        /* \"contracts/Project1/Real_State.sol\":12034:12063  SellerMapping[_sellerAddress] */\n      dup2\n      and\n      0x00\n      swap1\n      dup2\n      mstore\n        /* \"contracts/Project1/Real_State.sol\":12034:12047  SellerMapping */\n      0x07\n        /* \"contracts/Project1/Real_State.sol\":12034:12063  SellerMapping[_sellerAddress] */\n      0x20\n      mstore\n      0x40\n      swap1\n      dup2\n      swap1\n      keccak256\n        /* \"contracts/Project1/Real_State.sol\":12034:12080  SellerMapping[_sellerAddress].isSellerVerified */\n      0x05\n      dup2\n      add\n        /* \"contracts/Project1/Real_State.sol\":12034:12087  SellerMapping[_sellerAddress].isSellerVerified = true */\n      dup1\n      sload\n      not(0xff)\n      and\n        /* \"contracts/Project1/Real_State.sol\":12083:12087  true */\n      0x01\n        /* \"contracts/Project1/Real_State.sol\":12034:12087  SellerMapping[_sellerAddress].isSellerVerified = true */\n      or\n      swap1\n      sstore\n        /* \"contracts/Project1/Real_State.sol\":12105:12217  Users(\"Seller gets Verified by Land Inspector with: \", SellerMapping[_sellerAddress].sellerName, _sellerAddress) */\n      swap1\n      mload\n      0x00\n      dup1\n      mload\n      0x20\n      data_553849f7da1309eea4f5eb803c5cf6a18f6515247b6f42e35bc1a8e177481422\n      dup4\n      codecopy\n      dup2\n      mload\n      swap2\n      mstore\n      swap2\n      tag_248\n      swap2\n        /* \"contracts/Project1/Real_State.sol\":12048:12062  _sellerAddress */\n      dup5\n      swap1\n        /* \"contracts/Project1/Real_State.sol\":12105:12217  Users(\"Seller gets Verified by Land Inspector with: \", SellerMapping[_sellerAddress].sellerName, _sellerAddress) */\n      tag_249\n      jump\t// in\n        /* \"contracts/Project1/Real_State.sol\":9695:10752  function changeBuyertoSeller... */\n    tag_151:\n        /* \"contracts/Project1/Real_State.sol\":3223:3239  inspectorAddress */\n      and(sub(shl(0xa0, 0x01), 0x01), sload(0x00))\n        /* \"contracts/Project1/Real_State.sol\":3243:3253  msg.sender */\n      caller\n        /* \"contracts/Project1/Real_State.sol\":3223:3253  inspectorAddress == msg.sender */\n      eq\n        /* \"contracts/Project1/Real_State.sol\":3215:3308  require(inspectorAddress == msg.sender, \"You are not authorized to execute this transaction\") */\n      tag_390\n      jumpi\n      mload(0x40)\n      shl(0xe5, 0x461bcd)\n      dup2\n      mstore\n      0x04\n      add\n      tag_203\n      swap1\n      tag_204\n      jump\t// in\n    tag_390:\n      sub(shl(0xa0, 0x01), 0x01)\n        /* \"contracts/Project1/Real_State.sol\":9824:9861  CheckBuyerRegistration[_buyerAddress] */\n      dup2\n      and\n      0x00\n      swap1\n      dup2\n      mstore\n        /* \"contracts/Project1/Real_State.sol\":9824:9846  CheckBuyerRegistration */\n      0x0a\n        /* \"contracts/Project1/Real_State.sol\":9824:9861  CheckBuyerRegistration[_buyerAddress] */\n      0x20\n      mstore\n      0x40\n      swap1\n      keccak256\n      sload\n      0xff\n      and\n        /* \"contracts/Project1/Real_State.sol\":9824:9869  CheckBuyerRegistration[_buyerAddress] == true */\n      iszero\n      iszero\n        /* \"contracts/Project1/Real_State.sol\":9824:9861  CheckBuyerRegistration[_buyerAddress] */\n      0x01\n        /* \"contracts/Project1/Real_State.sol\":9824:9869  CheckBuyerRegistration[_buyerAddress] == true */\n      eq\n        /* \"contracts/Project1/Real_State.sol\":9816:9923  require(CheckBuyerRegistration[_buyerAddress] == true, \"Buyer is not registered with the provided Address\") */\n      tag_393\n      jumpi\n      mload(0x40)\n      shl(0xe5, 0x461bcd)\n      dup2\n      mstore\n        /* \"#utility.yul\":28272:28274   */\n      0x20\n        /* \"contracts/Project1/Real_State.sol\":9816:9923  require(CheckBuyerRegistration[_buyerAddress] == true, \"Buyer is not registered with the provided Address\") */\n      0x04\n      dup3\n      add\n        /* \"#utility.yul\":28254:28275   */\n      mstore\n        /* \"#utility.yul\":28311:28313   */\n      0x31\n        /* \"#utility.yul\":28291:28309   */\n      0x24\n      dup3\n      add\n        /* \"#utility.yul\":28284:28314   */\n      mstore\n        /* \"#utility.yul\":28350:28384   */\n      0x4275796572206973206e6f742072656769737465726564207769746820746865\n        /* \"#utility.yul\":28330:28348   */\n      0x44\n      dup3\n      add\n        /* \"#utility.yul\":28323:28385   */\n      mstore\n      shl(0x78, 0x2070726f76696465642041646472657373)\n        /* \"#utility.yul\":28401:28419   */\n      0x64\n      dup3\n      add\n        /* \"#utility.yul\":28394:28441   */\n      mstore\n        /* \"#utility.yul\":28458:28477   */\n      0x84\n      add\n        /* \"contracts/Project1/Real_State.sol\":9816:9923  require(CheckBuyerRegistration[_buyerAddress] == true, \"Buyer is not registered with the provided Address\") */\n      tag_203\n        /* \"#utility.yul\":28070:28483   */\n      jump\n        /* \"contracts/Project1/Real_State.sol\":9816:9923  require(CheckBuyerRegistration[_buyerAddress] == true, \"Buyer is not registered with the provided Address\") */\n    tag_393:\n      sub(shl(0xa0, 0x01), 0x01)\n        /* \"contracts/Project1/Real_State.sol\":9942:9969  BuyerMapping[_buyerAddress] */\n      dup2\n      and\n      0x00\n      swap1\n      dup2\n      mstore\n        /* \"contracts/Project1/Real_State.sol\":9942:9954  BuyerMapping */\n      0x08\n        /* \"contracts/Project1/Real_State.sol\":9942:9969  BuyerMapping[_buyerAddress] */\n      0x20\n      mstore\n      0x40\n      swap1\n      keccak256\n        /* \"contracts/Project1/Real_State.sol\":9942:9985  BuyerMapping[_buyerAddress].isBuyerVerified */\n      0x05\n      add\n      sload\n      0xff\n      and\n        /* \"contracts/Project1/Real_State.sol\":9942:9993  BuyerMapping[_buyerAddress].isBuyerVerified == true */\n      iszero\n      iszero\n        /* \"contracts/Project1/Real_State.sol\":9942:9985  BuyerMapping[_buyerAddress].isBuyerVerified */\n      0x01\n        /* \"contracts/Project1/Real_State.sol\":9942:9993  BuyerMapping[_buyerAddress].isBuyerVerified == true */\n      eq\n        /* \"contracts/Project1/Real_State.sol\":9934:10041  require(BuyerMapping[_buyerAddress].isBuyerVerified == true, \"Buyer is not verified by the Land Inspector\") */\n      tag_396\n      jumpi\n      mload(0x40)\n      shl(0xe5, 0x461bcd)\n      dup2\n      mstore\n        /* \"#utility.yul\":28690:28692   */\n      0x20\n        /* \"contracts/Project1/Real_State.sol\":9934:10041  require(BuyerMapping[_buyerAddress].isBuyerVerified == true, \"Buyer is not verified by the Land Inspector\") */\n      0x04\n      dup3\n      add\n        /* \"#utility.yul\":28672:28693   */\n      mstore\n        /* \"#utility.yul\":28729:28731   */\n      0x2b\n        /* \"#utility.yul\":28709:28727   */\n      0x24\n      dup3\n      add\n        /* \"#utility.yul\":28702:28732   */\n      mstore\n        /* \"#utility.yul\":28768:28802   */\n      0x4275796572206973206e6f7420766572696669656420627920746865204c616e\n        /* \"#utility.yul\":28748:28766   */\n      0x44\n      dup3\n      add\n        /* \"#utility.yul\":28741:28803   */\n      mstore\n      shl(0xa9, 0x321024b739b832b1ba37b9)\n        /* \"#utility.yul\":28819:28837   */\n      0x64\n      dup3\n      add\n        /* \"#utility.yul\":28812:28853   */\n      mstore\n        /* \"#utility.yul\":28870:28889   */\n      0x84\n      add\n        /* \"contracts/Project1/Real_State.sol\":9934:10041  require(BuyerMapping[_buyerAddress].isBuyerVerified == true, \"Buyer is not verified by the Land Inspector\") */\n      tag_203\n        /* \"#utility.yul\":28488:28895   */\n      jump\n        /* \"contracts/Project1/Real_State.sol\":9934:10041  require(BuyerMapping[_buyerAddress].isBuyerVerified == true, \"Buyer is not verified by the Land Inspector\") */\n    tag_396:\n      sub(shl(0xa0, 0x01), 0x01)\n        /* \"contracts/Project1/Real_State.sol\":10096:10123  BuyerMapping[_buyerAddress] */\n      dup2\n      and\n      0x00\n      swap1\n      dup2\n      mstore\n        /* \"contracts/Project1/Real_State.sol\":10096:10108  BuyerMapping */\n      0x08\n        /* \"contracts/Project1/Real_State.sol\":10096:10123  BuyerMapping[_buyerAddress] */\n      0x20\n      swap1\n      dup2\n      mstore\n      0x40\n      dup1\n      dup4\n      keccak256\n        /* \"contracts/Project1/Real_State.sol\":10054:10067  SellerMapping */\n      0x07\n        /* \"contracts/Project1/Real_State.sol\":10054:10082  SellerMapping[_buyerAddress] */\n      swap1\n      swap3\n      mstore\n      swap1\n      swap2\n      keccak256\n      swap1\n        /* \"contracts/Project1/Real_State.sol\":10054:10133  SellerMapping[_buyerAddress].sellerName = BuyerMapping[_buyerAddress].buyerName */\n      tag_399\n      swap1\n        /* \"contracts/Project1/Real_State.sol\":10054:10082  SellerMapping[_buyerAddress] */\n      dup3\n        /* \"contracts/Project1/Real_State.sol\":10054:10133  SellerMapping[_buyerAddress].sellerName = BuyerMapping[_buyerAddress].buyerName */\n      tag_213\n      jump\t// in\n    tag_399:\n      pop\n      sub(shl(0xa0, 0x01), 0x01)\n        /* \"contracts/Project1/Real_State.sol\":10185:10212  BuyerMapping[_buyerAddress] */\n      dup2\n      and\n      0x00\n      swap1\n      dup2\n      mstore\n        /* \"contracts/Project1/Real_State.sol\":10185:10197  BuyerMapping */\n      0x08\n        /* \"contracts/Project1/Real_State.sol\":10185:10212  BuyerMapping[_buyerAddress] */\n      0x20\n      swap1\n      dup2\n      mstore\n      0x40\n      dup1\n      dup4\n      keccak256\n        /* \"contracts/Project1/Real_State.sol\":10185:10221  BuyerMapping[_buyerAddress].buyerAge */\n      0x01\n      dup1\n      dup3\n      add\n      sload\n        /* \"contracts/Project1/Real_State.sol\":10144:10157  SellerMapping */\n      0x07\n        /* \"contracts/Project1/Real_State.sol\":10144:10172  SellerMapping[_buyerAddress] */\n      swap1\n      swap5\n      mstore\n      swap2\n      swap1\n      swap4\n      keccak256\n        /* \"contracts/Project1/Real_State.sol\":10144:10182  SellerMapping[_buyerAddress].sellerAge */\n      swap1\n      dup2\n      add\n        /* \"contracts/Project1/Real_State.sol\":10144:10221  SellerMapping[_buyerAddress].sellerAge = BuyerMapping[_buyerAddress].buyerAge */\n      swap2\n      swap1\n      swap2\n      sstore\n        /* \"contracts/Project1/Real_State.sol\":10268:10300  BuyerMapping[_buyerAddress].city */\n      0x02\n        /* \"contracts/Project1/Real_State.sol\":10232:10265  SellerMapping[_buyerAddress].city */\n      swap1\n      dup2\n      add\n      swap2\n        /* \"contracts/Project1/Real_State.sol\":10232:10300  SellerMapping[_buyerAddress].city = BuyerMapping[_buyerAddress].city */\n      tag_400\n      swap2\n        /* \"contracts/Project1/Real_State.sol\":10268:10300  BuyerMapping[_buyerAddress].city */\n      add\n        /* \"contracts/Project1/Real_State.sol\":10232:10265  SellerMapping[_buyerAddress].city */\n      dup3\n        /* \"contracts/Project1/Real_State.sol\":10232:10300  SellerMapping[_buyerAddress].city = BuyerMapping[_buyerAddress].city */\n      tag_213\n      jump\t// in\n    tag_400:\n      pop\n      sub(shl(0xa0, 0x01), 0x01)\n        /* \"contracts/Project1/Real_State.sol\":10353:10380  BuyerMapping[_buyerAddress] */\n      dup2\n      and\n      0x00\n      swap1\n      dup2\n      mstore\n        /* \"contracts/Project1/Real_State.sol\":10353:10365  BuyerMapping */\n      0x08\n        /* \"contracts/Project1/Real_State.sol\":10353:10380  BuyerMapping[_buyerAddress] */\n      0x20\n      swap1\n      dup2\n      mstore\n      0x40\n      dup1\n      dup4\n      keccak256\n        /* \"contracts/Project1/Real_State.sol\":10353:10385  BuyerMapping[_buyerAddress].cnic */\n      0x03\n      dup1\n      dup3\n      add\n      sload\n        /* \"contracts/Project1/Real_State.sol\":10311:10324  SellerMapping */\n      0x07\n        /* \"contracts/Project1/Real_State.sol\":10311:10339  SellerMapping[_buyerAddress] */\n      swap1\n      swap5\n      mstore\n      swap2\n      swap1\n      swap4\n      keccak256\n        /* \"contracts/Project1/Real_State.sol\":10311:10350  SellerMapping[_buyerAddress].sellerCNIC */\n      swap1\n      dup2\n      add\n        /* \"contracts/Project1/Real_State.sol\":10311:10385  SellerMapping[_buyerAddress].sellerCNIC = BuyerMapping[_buyerAddress].cnic */\n      swap2\n      swap1\n      swap2\n      sstore\n        /* \"contracts/Project1/Real_State.sol\":10433:10466  BuyerMapping[_buyerAddress].email */\n      0x04\n        /* \"contracts/Project1/Real_State.sol\":10396:10430  SellerMapping[_buyerAddress].email */\n      swap1\n      dup2\n      add\n      swap2\n        /* \"contracts/Project1/Real_State.sol\":10396:10466  SellerMapping[_buyerAddress].email = BuyerMapping[_buyerAddress].email */\n      tag_401\n      swap2\n        /* \"contracts/Project1/Real_State.sol\":10433:10466  BuyerMapping[_buyerAddress].email */\n      add\n        /* \"contracts/Project1/Real_State.sol\":10396:10430  SellerMapping[_buyerAddress].email */\n      dup3\n        /* \"contracts/Project1/Real_State.sol\":10396:10466  SellerMapping[_buyerAddress].email = BuyerMapping[_buyerAddress].email */\n      tag_213\n      jump\t// in\n    tag_401:\n      pop\n      sub(shl(0xa0, 0x01), 0x01)\n        /* \"contracts/Project1/Real_State.sol\":10477:10505  SellerMapping[_buyerAddress] */\n      dup2\n      and\n        /* \"contracts/Project1/Real_State.sol\":10525:10530  false */\n      0x00\n        /* \"contracts/Project1/Real_State.sol\":10477:10505  SellerMapping[_buyerAddress] */\n      swap1\n      dup2\n      mstore\n        /* \"contracts/Project1/Real_State.sol\":10477:10490  SellerMapping */\n      0x07\n        /* \"contracts/Project1/Real_State.sol\":10477:10505  SellerMapping[_buyerAddress] */\n      0x20\n      swap1\n      dup2\n      mstore\n      0x40\n      dup1\n      dup4\n      keccak256\n        /* \"contracts/Project1/Real_State.sol\":10477:10522  SellerMapping[_buyerAddress].isSellerVerified */\n      0x05\n      add\n        /* \"contracts/Project1/Real_State.sol\":10477:10530  SellerMapping[_buyerAddress].isSellerVerified = false */\n      dup1\n      sload\n      not(0xff)\n      swap1\n      dup2\n      and\n      swap1\n      swap2\n      sstore\n        /* \"contracts/Project1/Real_State.sol\":10541:10563  CheckBuyerRegistration */\n      0x0a\n        /* \"contracts/Project1/Real_State.sol\":10541:10578  CheckBuyerRegistration[_buyerAddress] */\n      dup4\n      mstore\n      dup2\n      dup5\n      keccak256\n        /* \"contracts/Project1/Real_State.sol\":10541:10586  CheckBuyerRegistration[_buyerAddress] = false */\n      dup1\n      sload\n      dup3\n      and\n      swap1\n      sstore\n        /* \"contracts/Project1/Real_State.sol\":10597:10620  CheckSellerRegistration */\n      0x09\n        /* \"contracts/Project1/Real_State.sol\":10597:10635  CheckSellerRegistration[_buyerAddress] */\n      swap1\n      swap3\n      mstore\n      dup3\n      keccak256\n        /* \"contracts/Project1/Real_State.sol\":10597:10642  CheckSellerRegistration[_buyerAddress] = true */\n      dup1\n      sload\n      swap1\n      swap2\n      and\n        /* \"contracts/Project1/Real_State.sol\":10477:10530  SellerMapping[_buyerAddress].isSellerVerified = false */\n      0x01\n        /* \"contracts/Project1/Real_State.sol\":10597:10642  CheckSellerRegistration[_buyerAddress] = true */\n      swap1\n      dup2\n      or\n      swap1\n      swap2\n      sstore\n        /* \"contracts/Project1/Real_State.sol\":10653:10665  totalSellers */\n      0x03\n        /* \"contracts/Project1/Real_State.sol\":10653:10670  totalSellers += 1 */\n      dup1\n      sload\n        /* \"contracts/Project1/Real_State.sol\":10477:10530  SellerMapping[_buyerAddress].isSellerVerified = false */\n      swap2\n      swap3\n        /* \"contracts/Project1/Real_State.sol\":10653:10665  totalSellers */\n      swap1\n      swap2\n        /* \"contracts/Project1/Real_State.sol\":10653:10670  totalSellers += 1 */\n      tag_402\n      swap1\n        /* \"contracts/Project1/Real_State.sol\":10477:10530  SellerMapping[_buyerAddress].isSellerVerified = false */\n      dup5\n      swap1\n        /* \"contracts/Project1/Real_State.sol\":10653:10670  totalSellers += 1 */\n      tag_219\n      jump\t// in\n    tag_402:\n      swap3\n      pop\n      pop\n      dup2\n      swap1\n      sstore\n      pop\n        /* \"contracts/Project1/Real_State.sol\":10696:10697  1 */\n      0x01\n        /* \"contracts/Project1/Real_State.sol\":10681:10692  totalBuyers */\n      0x04\n      0x00\n        /* \"contracts/Project1/Real_State.sol\":10681:10697  totalBuyers -= 1 */\n      dup3\n      dup3\n      sload\n      tag_403\n      swap2\n      swap1\n      tag_217\n      jump\t// in\n    tag_403:\n      swap1\n      swap2\n      sstore\n      pop\n      pop\n      sub(shl(0xa0, 0x01), 0x01)\n        /* \"contracts/Project1/Real_State.sol\":10717:10744  BuyerMapping[_buyerAddress] */\n      dup2\n      and\n      0x00\n      swap1\n      dup2\n      mstore\n        /* \"contracts/Project1/Real_State.sol\":10717:10729  BuyerMapping */\n      0x08\n        /* \"contracts/Project1/Real_State.sol\":10717:10744  BuyerMapping[_buyerAddress] */\n      0x20\n      mstore\n      0x40\n      dup2\n      keccak256\n      swap1\n        /* \"contracts/Project1/Real_State.sol\":10710:10744  delete BuyerMapping[_buyerAddress] */\n      tag_220\n        /* \"contracts/Project1/Real_State.sol\":10717:10744  BuyerMapping[_buyerAddress] */\n      dup3\n      dup3\n        /* \"contracts/Project1/Real_State.sol\":10710:10744  delete BuyerMapping[_buyerAddress] */\n      tag_221\n      jump\t// in\n        /* \"contracts/Project1/Real_State.sol\":1806:1857  mapping(address => SellerInfo) public SellerMapping */\n    tag_155:\n      mstore(0x20, 0x07)\n      0x00\n      swap1\n      dup2\n      mstore\n      0x40\n      swap1\n      keccak256\n      dup1\n      sload\n      dup2\n      swap1\n      tag_348\n      swap1\n      tag_181\n      jump\t// in\n        /* \"contracts/Project1/Real_State.sol\":1667:1721  mapping(uint => LandInspector) public InspectorMapping */\n    tag_160:\n      mstore(0x20, 0x06)\n      0x00\n      swap1\n      dup2\n      mstore\n      0x40\n      swap1\n      keccak256\n      dup1\n      sload\n      0x01\n      dup3\n      add\n      dup1\n      sload\n      sub(shl(0xa0, 0x01), 0x01)\n      swap1\n      swap3\n      and\n      swap3\n      swap2\n      tag_422\n      swap1\n      tag_181\n      jump\t// in\n    tag_422:\n      dup1\n      0x1f\n      add\n      0x20\n      dup1\n      swap2\n      div\n      mul\n      0x20\n      add\n      mload(0x40)\n      swap1\n      dup2\n      add\n      0x40\n      mstore\n      dup1\n      swap3\n      swap2\n      swap1\n      dup2\n      dup2\n      mstore\n      0x20\n      add\n      dup3\n      dup1\n      sload\n      tag_423\n      swap1\n      tag_181\n      jump\t// in\n    tag_423:\n      dup1\n      iszero\n      tag_424\n      jumpi\n      dup1\n      0x1f\n      lt\n      tag_425\n      jumpi\n      0x0100\n      dup1\n      dup4\n      sload\n      div\n      mul\n      dup4\n      mstore\n      swap2\n      0x20\n      add\n      swap2\n      jump(tag_424)\n    tag_425:\n      dup3\n      add\n      swap2\n      swap1\n      0x00\n      mstore\n      keccak256(0x00, 0x20)\n      swap1\n    tag_426:\n      dup2\n      sload\n      dup2\n      mstore\n      swap1\n      0x01\n      add\n      swap1\n      0x20\n      add\n      dup1\n      dup4\n      gt\n      tag_426\n      jumpi\n      dup3\n      swap1\n      sub\n      0x1f\n      and\n      dup3\n      add\n      swap2\n    tag_424:\n      pop\n      pop\n      pop\n      pop\n      pop\n      swap1\n      dup1\n      0x02\n      add\n      sload\n      swap1\n      dup1\n      0x03\n      add\n      dup1\n      sload\n      tag_427\n      swap1\n      tag_181\n      jump\t// in\n    tag_427:\n      dup1\n      0x1f\n      add\n      0x20\n      dup1\n      swap2\n      div\n      mul\n      0x20\n      add\n      mload(0x40)\n      swap1\n      dup2\n      add\n      0x40\n      mstore\n      dup1\n      swap3\n      swap2\n      swap1\n      dup2\n      dup2\n      mstore\n      0x20\n      add\n      dup3\n      dup1\n      sload\n      tag_428\n      swap1\n      tag_181\n      jump\t// in\n    tag_428:\n      dup1\n      iszero\n      tag_429\n      jumpi\n      dup1\n      0x1f\n      lt\n      tag_430\n      jumpi\n      0x0100\n      dup1\n      dup4\n      sload\n      div\n      mul\n      dup4\n      mstore\n      swap2\n      0x20\n      add\n      swap2\n      jump(tag_429)\n    tag_430:\n      dup3\n      add\n      swap2\n      swap1\n      0x00\n      mstore\n      keccak256(0x00, 0x20)\n      swap1\n    tag_431:\n      dup2\n      sload\n      dup2\n      mstore\n      swap1\n      0x01\n      add\n      swap1\n      0x20\n      add\n      dup1\n      dup4\n      gt\n      tag_431\n      jumpi\n      dup3\n      swap1\n      sub\n      0x1f\n      and\n      dup3\n      add\n      swap2\n    tag_429:\n      pop\n      pop\n      pop\n      pop\n      pop\n      swap1\n      pop\n      dup5\n      jump\t// out\n        /* \"contracts/Project1/Real_State.sol\":6698:7238  function updateBuyer... */\n    tag_166:\n        /* \"contracts/Project1/Real_State.sol\":6936:6946  msg.sender */\n      caller\n        /* \"contracts/Project1/Real_State.sol\":6913:6947  CheckBuyerRegistration[msg.sender] */\n      0x00\n      swap1\n      dup2\n      mstore\n        /* \"contracts/Project1/Real_State.sol\":6913:6935  CheckBuyerRegistration */\n      0x0a\n        /* \"contracts/Project1/Real_State.sol\":6913:6947  CheckBuyerRegistration[msg.sender] */\n      0x20\n      mstore\n      0x40\n      swap1\n      keccak256\n      sload\n      0xff\n      and\n        /* \"contracts/Project1/Real_State.sol\":6913:6955  CheckBuyerRegistration[msg.sender] == true */\n      iszero\n      iszero\n        /* \"contracts/Project1/Real_State.sol\":6913:6947  CheckBuyerRegistration[msg.sender] */\n      0x01\n        /* \"contracts/Project1/Real_State.sol\":6913:6955  CheckBuyerRegistration[msg.sender] == true */\n      eq\n        /* \"contracts/Project1/Real_State.sol\":6905:6983  require(CheckBuyerRegistration[msg.sender] == true,\"Buyer is not Registered.\") */\n      tag_433\n      jumpi\n      mload(0x40)\n      shl(0xe5, 0x461bcd)\n      dup2\n      mstore\n        /* \"#utility.yul\":29102:29104   */\n      0x20\n        /* \"contracts/Project1/Real_State.sol\":6905:6983  require(CheckBuyerRegistration[msg.sender] == true,\"Buyer is not Registered.\") */\n      0x04\n      dup3\n      add\n        /* \"#utility.yul\":29084:29105   */\n      mstore\n        /* \"#utility.yul\":29141:29143   */\n      0x18\n        /* \"#utility.yul\":29121:29139   */\n      0x24\n      dup3\n      add\n        /* \"#utility.yul\":29114:29144   */\n      mstore\n        /* \"#utility.yul\":29180:29206   */\n      0x4275796572206973206e6f7420526567697374657265642e0000000000000000\n        /* \"#utility.yul\":29160:29178   */\n      0x44\n      dup3\n      add\n        /* \"#utility.yul\":29153:29207   */\n      mstore\n        /* \"#utility.yul\":29224:29242   */\n      0x64\n      add\n        /* \"contracts/Project1/Real_State.sol\":6905:6983  require(CheckBuyerRegistration[msg.sender] == true,\"Buyer is not Registered.\") */\n      tag_203\n        /* \"#utility.yul\":28900:29248   */\n      jump\n        /* \"contracts/Project1/Real_State.sol\":6905:6983  require(CheckBuyerRegistration[msg.sender] == true,\"Buyer is not Registered.\") */\n    tag_433:\n        /* \"contracts/Project1/Real_State.sol\":7015:7025  msg.sender */\n      caller\n        /* \"contracts/Project1/Real_State.sol\":7002:7026  BuyerMapping[msg.sender] */\n      0x00\n      swap1\n      dup2\n      mstore\n        /* \"contracts/Project1/Real_State.sol\":7002:7014  BuyerMapping */\n      0x08\n        /* \"contracts/Project1/Real_State.sol\":7002:7026  BuyerMapping[msg.sender] */\n      0x20\n      mstore\n      0x40\n      dup2\n      keccak256\n        /* \"contracts/Project1/Real_State.sol\":7002:7031  BuyerMapping[msg.sender].cnic */\n      0x03\n      add\n      sload\n        /* \"contracts/Project1/Real_State.sol\":7002:7036  BuyerMapping[msg.sender].cnic != 0 */\n      swap1\n      sub\n        /* \"contracts/Project1/Real_State.sol\":6994:7064  require(BuyerMapping[msg.sender].cnic != 0, \"Buyer is not registered\") */\n      tag_436\n      jumpi\n      mload(0x40)\n      shl(0xe5, 0x461bcd)\n      dup2\n      mstore\n        /* \"#utility.yul\":29455:29457   */\n      0x20\n        /* \"contracts/Project1/Real_State.sol\":6994:7064  require(BuyerMapping[msg.sender].cnic != 0, \"Buyer is not registered\") */\n      0x04\n      dup3\n      add\n        /* \"#utility.yul\":29437:29458   */\n      mstore\n        /* \"#utility.yul\":29494:29496   */\n      0x17\n        /* \"#utility.yul\":29474:29492   */\n      0x24\n      dup3\n      add\n        /* \"#utility.yul\":29467:29497   */\n      mstore\n        /* \"#utility.yul\":29533:29558   */\n      0x4275796572206973206e6f742072656769737465726564000000000000000000\n        /* \"#utility.yul\":29513:29531   */\n      0x44\n      dup3\n      add\n        /* \"#utility.yul\":29506:29559   */\n      mstore\n        /* \"#utility.yul\":29576:29594   */\n      0x64\n      add\n        /* \"contracts/Project1/Real_State.sol\":6994:7064  require(BuyerMapping[msg.sender].cnic != 0, \"Buyer is not registered\") */\n      tag_203\n        /* \"#utility.yul\":29253:29600   */\n      jump\n        /* \"contracts/Project1/Real_State.sol\":6994:7064  require(BuyerMapping[msg.sender].cnic != 0, \"Buyer is not registered\") */\n    tag_436:\n        /* \"contracts/Project1/Real_State.sol\":7102:7166  BuyerInfo(_buyerName, _buyerAge, city, _buyerCNIC, email, false) */\n      0x40\n      dup1\n      mload\n      0xc0\n      dup2\n      add\n      dup3\n      mstore\n      dup7\n      dup2\n      mstore\n      0x20\n      dup1\n      dup3\n      add\n      dup8\n      swap1\n      mstore\n      dup2\n      dup4\n      add\n      dup7\n      swap1\n      mstore\n      0x60\n      dup3\n      add\n      dup6\n      swap1\n      mstore\n      0x80\n      dup3\n      add\n      dup5\n      swap1\n      mstore\n      0x00\n      0xa0\n      dup4\n      add\n      dup2\n      swap1\n      mstore\n        /* \"contracts/Project1/Real_State.sol\":7088:7098  msg.sender */\n      caller\n        /* \"contracts/Project1/Real_State.sol\":7075:7099  BuyerMapping[msg.sender] */\n      dup2\n      mstore\n        /* \"contracts/Project1/Real_State.sol\":7075:7087  BuyerMapping */\n      0x08\n        /* \"contracts/Project1/Real_State.sol\":7075:7099  BuyerMapping[msg.sender] */\n      swap1\n      swap2\n      mstore\n      swap2\n      swap1\n      swap2\n      keccak256\n        /* \"contracts/Project1/Real_State.sol\":7075:7166  BuyerMapping[msg.sender] = BuyerInfo(_buyerName, _buyerAge, city, _buyerCNIC, email, false) */\n      dup2\n      mload\n        /* \"contracts/Project1/Real_State.sol\":7075:7099  BuyerMapping[msg.sender] */\n      dup2\n      swap1\n        /* \"contracts/Project1/Real_State.sol\":7075:7166  BuyerMapping[msg.sender] = BuyerInfo(_buyerName, _buyerAge, city, _buyerCNIC, email, false) */\n      tag_439\n      swap1\n        /* \"contracts/Project1/Real_State.sol\":7075:7099  BuyerMapping[msg.sender] */\n      dup3\n        /* \"contracts/Project1/Real_State.sol\":7075:7166  BuyerMapping[msg.sender] = BuyerInfo(_buyerName, _buyerAge, city, _buyerCNIC, email, false) */\n      tag_291\n      jump\t// in\n    tag_439:\n      pop\n      0x20\n      dup3\n      add\n      mload\n      0x01\n      dup3\n      add\n      sstore\n      0x40\n      dup3\n      add\n      mload\n      0x02\n      dup3\n      add\n      swap1\n      tag_440\n      swap1\n      dup3\n      tag_291\n      jump\t// in\n    tag_440:\n      pop\n      0x60\n      dup3\n      add\n      mload\n      0x03\n      dup3\n      add\n      sstore\n      0x80\n      dup3\n      add\n      mload\n      0x04\n      dup3\n      add\n      swap1\n      tag_441\n      swap1\n      dup3\n      tag_291\n      jump\t// in\n    tag_441:\n      pop\n      0xa0\n      swap2\n      swap1\n      swap2\n      add\n      mload\n      0x05\n      swap1\n      swap2\n      add\n      dup1\n      sload\n      not(0xff)\n      and\n      swap2\n      iszero\n      iszero\n      swap2\n      swap1\n      swap2\n      or\n      swap1\n      sstore\n        /* \"contracts/Project1/Real_State.sol\":7182:7230  Users(\"Buyer Updated: \", _buyerName, msg.sender) */\n      mload(0x40)\n      0x00\n      dup1\n      mload\n      0x20\n      data_553849f7da1309eea4f5eb803c5cf6a18f6515247b6f42e35bc1a8e177481422\n      dup4\n      codecopy\n      dup2\n      mload\n      swap2\n      mstore\n      swap1\n      tag_328\n      swap1\n        /* \"contracts/Project1/Real_State.sol\":7207:7217  _buyerName */\n      dup8\n      swap1\n        /* \"contracts/Project1/Real_State.sol\":7219:7229  msg.sender */\n      caller\n      swap1\n        /* \"contracts/Project1/Real_State.sol\":7182:7230  Users(\"Buyer Updated: \", _buyerName, msg.sender) */\n      tag_443\n      jump\t// in\n        /* \"contracts/Project1/Real_State.sol\":7306:8457  function registerLand... */\n    tag_171:\n        /* \"contracts/Project1/Real_State.sol\":7540:7550  msg.sender */\n      caller\n        /* \"contracts/Project1/Real_State.sol\":7516:7551  CheckSellerRegistration[msg.sender] */\n      0x00\n      swap1\n      dup2\n      mstore\n        /* \"contracts/Project1/Real_State.sol\":7516:7539  CheckSellerRegistration */\n      0x09\n        /* \"contracts/Project1/Real_State.sol\":7516:7551  CheckSellerRegistration[msg.sender] */\n      0x20\n      mstore\n      0x40\n      swap1\n      keccak256\n      sload\n      0xff\n      and\n        /* \"contracts/Project1/Real_State.sol\":7516:7559  CheckSellerRegistration[msg.sender] == true */\n      iszero\n      iszero\n        /* \"contracts/Project1/Real_State.sol\":7516:7551  CheckSellerRegistration[msg.sender] */\n      0x01\n        /* \"contracts/Project1/Real_State.sol\":7516:7559  CheckSellerRegistration[msg.sender] == true */\n      eq\n        /* \"contracts/Project1/Real_State.sol\":7508:7612  require(CheckSellerRegistration[msg.sender] == true, \"Seller is not registered, so can't register land\") */\n      tag_445\n      jumpi\n      mload(0x40)\n      shl(0xe5, 0x461bcd)\n      dup2\n      mstore\n        /* \"#utility.yul\":30367:30369   */\n      0x20\n        /* \"contracts/Project1/Real_State.sol\":7508:7612  require(CheckSellerRegistration[msg.sender] == true, \"Seller is not registered, so can't register land\") */\n      0x04\n      dup3\n      add\n        /* \"#utility.yul\":30349:30370   */\n      mstore\n        /* \"#utility.yul\":30406:30408   */\n      0x30\n        /* \"#utility.yul\":30386:30404   */\n      0x24\n      dup3\n      add\n        /* \"#utility.yul\":30379:30409   */\n      mstore\n        /* \"#utility.yul\":30445:30479   */\n      0x53656c6c6572206973206e6f7420726567697374657265642c20736f2063616e\n        /* \"#utility.yul\":30425:30443   */\n      0x44\n      dup3\n      add\n        /* \"#utility.yul\":30418:30480   */\n      mstore\n      shl(0x82, 0x09dd081c9959da5cdd195c881b185b99)\n        /* \"#utility.yul\":30496:30514   */\n      0x64\n      dup3\n      add\n        /* \"#utility.yul\":30489:30535   */\n      mstore\n        /* \"#utility.yul\":30552:30571   */\n      0x84\n      add\n        /* \"contracts/Project1/Real_State.sol\":7508:7612  require(CheckSellerRegistration[msg.sender] == true, \"Seller is not registered, so can't register land\") */\n      tag_203\n        /* \"#utility.yul\":30165:30577   */\n      jump\n        /* \"contracts/Project1/Real_State.sol\":7508:7612  require(CheckSellerRegistration[msg.sender] == true, \"Seller is not registered, so can't register land\") */\n    tag_445:\n        /* \"contracts/Project1/Real_State.sol\":7645:7655  msg.sender */\n      caller\n        /* \"contracts/Project1/Real_State.sol\":7631:7656  SellerMapping[msg.sender] */\n      0x00\n      swap1\n      dup2\n      mstore\n        /* \"contracts/Project1/Real_State.sol\":7631:7644  SellerMapping */\n      0x07\n        /* \"contracts/Project1/Real_State.sol\":7631:7656  SellerMapping[msg.sender] */\n      0x20\n      mstore\n      0x40\n      swap1\n      keccak256\n        /* \"contracts/Project1/Real_State.sol\":7631:7673  SellerMapping[msg.sender].isSellerVerified */\n      0x05\n      add\n      sload\n      0xff\n      and\n        /* \"contracts/Project1/Real_State.sol\":7631:7681  SellerMapping[msg.sender].isSellerVerified == true */\n      iszero\n      iszero\n        /* \"contracts/Project1/Real_State.sol\":7631:7673  SellerMapping[msg.sender].isSellerVerified */\n      0x01\n        /* \"contracts/Project1/Real_State.sol\":7631:7681  SellerMapping[msg.sender].isSellerVerified == true */\n      eq\n        /* \"contracts/Project1/Real_State.sol\":7623:7730  require(SellerMapping[msg.sender].isSellerVerified == true, \"Seller is not verified by the land inspector\") */\n      tag_448\n      jumpi\n      mload(0x40)\n      shl(0xe5, 0x461bcd)\n      dup2\n      mstore\n        /* \"#utility.yul\":30784:30786   */\n      0x20\n        /* \"contracts/Project1/Real_State.sol\":7623:7730  require(SellerMapping[msg.sender].isSellerVerified == true, \"Seller is not verified by the land inspector\") */\n      0x04\n      dup3\n      add\n        /* \"#utility.yul\":30766:30787   */\n      mstore\n        /* \"#utility.yul\":30823:30825   */\n      0x2c\n        /* \"#utility.yul\":30803:30821   */\n      0x24\n      dup3\n      add\n        /* \"#utility.yul\":30796:30826   */\n      mstore\n        /* \"#utility.yul\":30862:30896   */\n      0x53656c6c6572206973206e6f7420766572696669656420627920746865206c61\n        /* \"#utility.yul\":30842:30860   */\n      0x44\n      dup3\n      add\n        /* \"#utility.yul\":30835:30897   */\n      mstore\n      shl(0xa1, 0x37321034b739b832b1ba37b9)\n        /* \"#utility.yul\":30913:30931   */\n      0x64\n      dup3\n      add\n        /* \"#utility.yul\":30906:30948   */\n      mstore\n        /* \"#utility.yul\":30965:30984   */\n      0x84\n      add\n        /* \"contracts/Project1/Real_State.sol\":7623:7730  require(SellerMapping[msg.sender].isSellerVerified == true, \"Seller is not verified by the land inspector\") */\n      tag_203\n        /* \"#utility.yul\":30582:30990   */\n      jump\n        /* \"contracts/Project1/Real_State.sol\":7623:7730  require(SellerMapping[msg.sender].isSellerVerified == true, \"Seller is not verified by the land inspector\") */\n    tag_448:\n        /* \"contracts/Project1/Real_State.sol\":7749:7778  CheckLandRegistration[landId] */\n      0x00\n      dup6\n      dup2\n      mstore\n        /* \"contracts/Project1/Real_State.sol\":7749:7770  CheckLandRegistration */\n      0x0b\n        /* \"contracts/Project1/Real_State.sol\":7749:7778  CheckLandRegistration[landId] */\n      0x20\n      mstore\n      0x40\n      swap1\n      keccak256\n      sload\n      0xff\n      and\n        /* \"contracts/Project1/Real_State.sol\":7749:7787  CheckLandRegistration[landId] == false */\n      iszero\n        /* \"contracts/Project1/Real_State.sol\":7741:7835  require(CheckLandRegistration[landId] == false, \"Land is already Registered with the same id\") */\n      tag_451\n      jumpi\n      mload(0x40)\n      shl(0xe5, 0x461bcd)\n      dup2\n      mstore\n        /* \"#utility.yul\":31197:31199   */\n      0x20\n        /* \"contracts/Project1/Real_State.sol\":7741:7835  require(CheckLandRegistration[landId] == false, \"Land is already Registered with the same id\") */\n      0x04\n      dup3\n      add\n        /* \"#utility.yul\":31179:31200   */\n      mstore\n        /* \"#utility.yul\":31236:31238   */\n      0x2b\n        /* \"#utility.yul\":31216:31234   */\n      0x24\n      dup3\n      add\n        /* \"#utility.yul\":31209:31239   */\n      mstore\n        /* \"#utility.yul\":31275:31309   */\n      0x4c616e6420697320616c72656164792052656769737465726564207769746820\n        /* \"#utility.yul\":31255:31273   */\n      0x44\n      dup3\n      add\n        /* \"#utility.yul\":31248:31310   */\n      mstore\n      shl(0xaa, 0x1d1a19481cd85b59481a59)\n        /* \"#utility.yul\":31326:31344   */\n      0x64\n      dup3\n      add\n        /* \"#utility.yul\":31319:31360   */\n      mstore\n        /* \"#utility.yul\":31377:31396   */\n      0x84\n      add\n        /* \"contracts/Project1/Real_State.sol\":7741:7835  require(CheckLandRegistration[landId] == false, \"Land is already Registered with the same id\") */\n      tag_203\n        /* \"#utility.yul\":30995:31402   */\n      jump\n        /* \"contracts/Project1/Real_State.sol\":7741:7835  require(CheckLandRegistration[landId] == false, \"Land is already Registered with the same id\") */\n    tag_451:\n        /* \"contracts/Project1/Real_State.sol\":7868:7884  inspectorAddress */\n      and(sub(shl(0xa0, 0x01), 0x01), sload(0x00))\n        /* \"contracts/Project1/Real_State.sol\":7854:7864  msg.sender */\n      caller\n        /* \"contracts/Project1/Real_State.sol\":7854:7884  msg.sender != inspectorAddress */\n      sub\n        /* \"contracts/Project1/Real_State.sol\":7846:7926  require(msg.sender != inspectorAddress, \"Land can only be registered by seller\") */\n      tag_454\n      jumpi\n      mload(0x40)\n      shl(0xe5, 0x461bcd)\n      dup2\n      mstore\n        /* \"#utility.yul\":31609:31611   */\n      0x20\n        /* \"contracts/Project1/Real_State.sol\":7846:7926  require(msg.sender != inspectorAddress, \"Land can only be registered by seller\") */\n      0x04\n      dup3\n      add\n        /* \"#utility.yul\":31591:31612   */\n      mstore\n        /* \"#utility.yul\":31648:31650   */\n      0x25\n        /* \"#utility.yul\":31628:31646   */\n      0x24\n      dup3\n      add\n        /* \"#utility.yul\":31621:31651   */\n      mstore\n        /* \"#utility.yul\":31687:31721   */\n      0x4c616e642063616e206f6e6c7920626520726567697374657265642062792073\n        /* \"#utility.yul\":31667:31685   */\n      0x44\n      dup3\n      add\n        /* \"#utility.yul\":31660:31722   */\n      mstore\n      shl(0xd9, 0x32b63632b9)\n        /* \"#utility.yul\":31738:31756   */\n      0x64\n      dup3\n      add\n        /* \"#utility.yul\":31731:31766   */\n      mstore\n        /* \"#utility.yul\":31783:31802   */\n      0x84\n      add\n        /* \"contracts/Project1/Real_State.sol\":7846:7926  require(msg.sender != inspectorAddress, \"Land can only be registered by seller\") */\n      tag_203\n        /* \"#utility.yul\":31407:31808   */\n      jump\n        /* \"contracts/Project1/Real_State.sol\":7846:7926  require(msg.sender != inspectorAddress, \"Land can only be registered by seller\") */\n    tag_454:\n        /* \"contracts/Project1/Real_State.sol\":7949:7962  Lands[landId] */\n      0x00\n      dup6\n      dup2\n      mstore\n        /* \"contracts/Project1/Real_State.sol\":7949:7954  Lands */\n      0x05\n        /* \"contracts/Project1/Real_State.sol\":7949:7962  Lands[landId] */\n      0x20\n      mstore\n      0x40\n      swap1\n      keccak256\n        /* \"contracts/Project1/Real_State.sol\":7949:7978  Lands[landId].landId = landId */\n      dup6\n      dup2\n      sstore\n        /* \"contracts/Project1/Real_State.sol\":7989:8007  Lands[landId].area */\n      0x01\n      add\n        /* \"contracts/Project1/Real_State.sol\":7989:8015  Lands[landId].area = _area */\n      tag_457\n        /* \"contracts/Project1/Real_State.sol\":8010:8015  _area */\n      dup6\n        /* \"contracts/Project1/Real_State.sol\":7989:8007  Lands[landId].area */\n      dup3\n        /* \"contracts/Project1/Real_State.sol\":7989:8015  Lands[landId].area = _area */\n      tag_291\n      jump\t// in\n    tag_457:\n      pop\n        /* \"contracts/Project1/Real_State.sol\":8026:8039  Lands[landId] */\n      0x00\n      dup6\n      dup2\n      mstore\n        /* \"contracts/Project1/Real_State.sol\":8026:8031  Lands */\n      0x05\n        /* \"contracts/Project1/Real_State.sol\":8026:8039  Lands[landId] */\n      0x20\n      mstore\n      0x40\n      swap1\n      keccak256\n        /* \"contracts/Project1/Real_State.sol\":8026:8044  Lands[landId].city */\n      0x02\n      add\n        /* \"contracts/Project1/Real_State.sol\":8026:8052  Lands[landId].city = _city */\n      tag_458\n        /* \"contracts/Project1/Real_State.sol\":8047:8052  _city */\n      dup5\n        /* \"contracts/Project1/Real_State.sol\":8026:8044  Lands[landId].city */\n      dup3\n        /* \"contracts/Project1/Real_State.sol\":8026:8052  Lands[landId].city = _city */\n      tag_291\n      jump\t// in\n    tag_458:\n      pop\n        /* \"contracts/Project1/Real_State.sol\":8063:8076  Lands[landId] */\n      0x00\n      dup6\n      dup2\n      mstore\n        /* \"contracts/Project1/Real_State.sol\":8063:8068  Lands */\n      0x05\n        /* \"contracts/Project1/Real_State.sol\":8063:8076  Lands[landId] */\n      0x20\n      mstore\n      0x40\n      swap1\n      keccak256\n        /* \"contracts/Project1/Real_State.sol\":8063:8082  Lands[landId].state */\n      0x03\n      add\n        /* \"contracts/Project1/Real_State.sol\":8063:8090  Lands[landId].state= _state */\n      tag_459\n        /* \"contracts/Project1/Real_State.sol\":8084:8090  _state */\n      dup4\n        /* \"contracts/Project1/Real_State.sol\":8063:8082  Lands[landId].state */\n      dup3\n        /* \"contracts/Project1/Real_State.sol\":8063:8090  Lands[landId].state= _state */\n      tag_291\n      jump\t// in\n    tag_459:\n      pop\n        /* \"contracts/Project1/Real_State.sol\":8101:8114  Lands[landId] */\n      0x00\n      dup6\n      dup2\n      mstore\n        /* \"contracts/Project1/Real_State.sol\":8101:8106  Lands */\n      0x05\n        /* \"contracts/Project1/Real_State.sol\":8101:8114  Lands[landId] */\n      0x20\n      dup2\n      dup2\n      mstore\n      0x40\n      dup1\n      dup5\n      keccak256\n        /* \"contracts/Project1/Real_State.sol\":8101:8124  Lands[landId].landPrice */\n      0x04\n      dup2\n      add\n        /* \"contracts/Project1/Real_State.sol\":8101:8137  Lands[landId].landPrice = _landPrice */\n      dup7\n      swap1\n      sstore\n        /* \"contracts/Project1/Real_State.sol\":8202:8229  Lands[landId].propertyOwner */\n      dup1\n      dup5\n      add\n        /* \"contracts/Project1/Real_State.sol\":8202:8242  Lands[landId].propertyOwner = msg.sender */\n      dup1\n      sload\n      not(sub(shl(0xb0, 0x01), 0x010000))\n      and\n        /* \"contracts/Project1/Real_State.sol\":8232:8242  msg.sender */\n      caller\n        /* \"contracts/Project1/Real_State.sol\":8202:8242  Lands[landId].propertyOwner = msg.sender */\n      0x010000\n      dup2\n      mul\n      swap2\n      swap1\n      swap2\n      or\n      swap1\n      swap2\n      sstore\n        /* \"contracts/Project1/Real_State.sol\":8287:8312  SellerMapping[msg.sender] */\n      dup6\n      mstore\n        /* \"contracts/Project1/Real_State.sol\":8287:8300  SellerMapping */\n      0x07\n        /* \"contracts/Project1/Real_State.sol\":8287:8312  SellerMapping[msg.sender] */\n      dup4\n      mstore\n      swap1\n      dup5\n      keccak256\n        /* \"contracts/Project1/Real_State.sol\":8253:8266  Lands[landId] */\n      swap4\n      dup10\n      swap1\n      mstore\n      swap2\n      swap1\n      mstore\n        /* \"contracts/Project1/Real_State.sol\":8253:8284  Lands[landId].propertyOwnerName */\n      0x06\n      add\n      swap1\n        /* \"contracts/Project1/Real_State.sol\":8253:8323  Lands[landId].propertyOwnerName = SellerMapping[msg.sender].sellerName */\n      tag_460\n      swap1\n        /* \"contracts/Project1/Real_State.sol\":8253:8284  Lands[landId].propertyOwnerName */\n      dup3\n        /* \"contracts/Project1/Real_State.sol\":8253:8323  Lands[landId].propertyOwnerName = SellerMapping[msg.sender].sellerName */\n      tag_213\n      jump\t// in\n    tag_460:\n      pop\n        /* \"contracts/Project1/Real_State.sol\":8334:8363  CheckLandRegistration[landId] */\n      0x00\n      dup6\n      dup2\n      mstore\n        /* \"contracts/Project1/Real_State.sol\":8334:8355  CheckLandRegistration */\n      0x0b\n        /* \"contracts/Project1/Real_State.sol\":8334:8363  CheckLandRegistration[landId] */\n      0x20\n      mstore\n      0x40\n      dup2\n      keccak256\n        /* \"contracts/Project1/Real_State.sol\":8334:8370  CheckLandRegistration[landId] = true */\n      dup1\n      sload\n      not(0xff)\n      and\n        /* \"contracts/Project1/Real_State.sol\":8366:8370  true */\n      0x01\n        /* \"contracts/Project1/Real_State.sol\":8334:8370  CheckLandRegistration[landId] = true */\n      swap1\n      dup2\n      or\n      swap1\n      swap2\n      sstore\n        /* \"contracts/Project1/Real_State.sol\":8383:8393  totalLands */\n      0x02\n        /* \"contracts/Project1/Real_State.sol\":8383:8398  totalLands += 1 */\n      dup1\n      sload\n        /* \"contracts/Project1/Real_State.sol\":8366:8370  true */\n      swap2\n      swap3\n        /* \"contracts/Project1/Real_State.sol\":8383:8393  totalLands */\n      swap1\n      swap2\n        /* \"contracts/Project1/Real_State.sol\":8383:8398  totalLands += 1 */\n      tag_461\n      swap1\n        /* \"contracts/Project1/Real_State.sol\":8366:8370  true */\n      dup5\n      swap1\n        /* \"contracts/Project1/Real_State.sol\":8383:8398  totalLands += 1 */\n      tag_219\n      jump\t// in\n    tag_461:\n      swap1\n      swap2\n      sstore\n      pop\n      pop\n        /* \"contracts/Project1/Real_State.sol\":8414:8447  Land(\"Land Registered: \", landId) */\n      0x40\n      dup1\n      mload\n        /* \"#utility.yul\":32025:32046   */\n      dup2\n      dup2\n      mstore\n        /* \"#utility.yul\":32082:32084   */\n      0x11\n        /* \"#utility.yul\":32062:32080   */\n      swap2\n      dup2\n      add\n        /* \"#utility.yul\":32055:32085   */\n      swap2\n      swap1\n      swap2\n      mstore\n      shl(0x7d, 0x02630b732102932b3b4b9ba32b932b21d1)\n        /* \"#utility.yul\":32116:32118   */\n      0x60\n        /* \"#utility.yul\":32101:32119   */\n      dup3\n      add\n        /* \"#utility.yul\":32094:32141   */\n      mstore\n        /* \"#utility.yul\":32208:32212   */\n      0x20\n        /* \"#utility.yul\":32193:32213   */\n      dup2\n      add\n        /* \"#utility.yul\":32186:32222   */\n      dup7\n      swap1\n      mstore\n        /* \"contracts/Project1/Real_State.sol\":8414:8447  Land(\"Land Registered: \", landId) */\n      0xe5f0e14de14b66d6262ef8ac911c347dc802a85ecec178cd931841b9db32bd91\n      swap1\n        /* \"#utility.yul\":32173:32176   */\n      0x80\n        /* \"#utility.yul\":32158:32177   */\n      add\n        /* \"contracts/Project1/Real_State.sol\":8414:8447  Land(\"Land Registered: \", landId) */\n      tag_328\n        /* \"#utility.yul\":31813:32228   */\n      jump\n        /* \"contracts/Project1/Real_State.sol\":14836:15060  function inspector()... */\n    tag_174:\n        /* \"contracts/Project1/Real_State.sol\":14988:14999  inspectorId */\n      0x01\n      dup1\n      sload\n        /* \"contracts/Project1/Real_State.sol\":14908:14915  address */\n      0x00\n        /* \"contracts/Project1/Real_State.sol\":14971:15000  InspectorMapping[inspectorId] */\n      swap1\n      dup2\n      mstore\n        /* \"contracts/Project1/Real_State.sol\":14971:14987  InspectorMapping */\n      0x06\n        /* \"contracts/Project1/Real_State.sol\":14971:15000  InspectorMapping[inspectorId] */\n      0x20\n      mstore\n      0x40\n      dup2\n      keccak256\n        /* \"contracts/Project1/Real_State.sol\":14971:15016  InspectorMapping[inspectorId].landInspectorId */\n      sload\n        /* \"contracts/Project1/Real_State.sol\":15018:15037  InspectorMapping[1] */\n      swap2\n      dup2\n      mstore\n        /* \"contracts/Project1/Real_State.sol\":15018:15051  InspectorMapping[1].inspectorName */\n      0x3e5fec24aa4dc4e5aee2e025e51e1392c72a2500577559fae9665c6d52bd6a32\n        /* \"contracts/Project1/Real_State.sol\":14963:15052  return (InspectorMapping[inspectorId].landInspectorId, InspectorMapping[1].inspectorName) */\n      dup1\n      sload\n        /* \"contracts/Project1/Real_State.sol\":14908:14915  address */\n      swap2\n      swap3\n        /* \"contracts/Project1/Real_State.sol\":14926:14939  string memory */\n      0x60\n      swap3\n      sub(shl(0xa0, 0x01), 0x01)\n        /* \"contracts/Project1/Real_State.sol\":14971:15016  InspectorMapping[inspectorId].landInspectorId */\n      swap1\n      swap2\n      and\n      swap2\n        /* \"contracts/Project1/Real_State.sol\":15018:15051  InspectorMapping[1].inspectorName */\n      swap1\n      dup2\n      swap1\n        /* \"contracts/Project1/Real_State.sol\":14963:15052  return (InspectorMapping[inspectorId].landInspectorId, InspectorMapping[1].inspectorName) */\n      tag_465\n      swap1\n      tag_181\n      jump\t// in\n    tag_465:\n      dup1\n      0x1f\n      add\n      0x20\n      dup1\n      swap2\n      div\n      mul\n      0x20\n      add\n      mload(0x40)\n      swap1\n      dup2\n      add\n      0x40\n      mstore\n      dup1\n      swap3\n      swap2\n      swap1\n      dup2\n      dup2\n      mstore\n      0x20\n      add\n      dup3\n      dup1\n      sload\n      tag_466\n      swap1\n      tag_181\n      jump\t// in\n    tag_466:\n      dup1\n      iszero\n      tag_467\n      jumpi\n      dup1\n      0x1f\n      lt\n      tag_468\n      jumpi\n      0x0100\n      dup1\n      dup4\n      sload\n      div\n      mul\n      dup4\n      mstore\n      swap2\n      0x20\n      add\n      swap2\n      jump(tag_467)\n    tag_468:\n      dup3\n      add\n      swap2\n      swap1\n      0x00\n      mstore\n      keccak256(0x00, 0x20)\n      swap1\n    tag_469:\n      dup2\n      sload\n      dup2\n      mstore\n      swap1\n      0x01\n      add\n      swap1\n      0x20\n      add\n      dup1\n      dup4\n      gt\n      tag_469\n      jumpi\n      dup3\n      swap1\n      sub\n      0x1f\n      and\n      dup3\n      add\n      swap2\n    tag_467:\n      pop\n      pop\n      pop\n      pop\n      pop\n      swap1\n      pop\n      swap2\n      pop\n      swap2\n      pop\n        /* \"contracts/Project1/Real_State.sol\":14836:15060  function inspector()... */\n      swap1\n      swap2\n      jump\t// out\n        /* \"contracts/Project1/Real_State.sol\":13129:13544  function verifyLand... */\n    tag_179:\n        /* \"contracts/Project1/Real_State.sol\":3223:3239  inspectorAddress */\n      and(sub(shl(0xa0, 0x01), 0x01), sload(0x00))\n        /* \"contracts/Project1/Real_State.sol\":3243:3253  msg.sender */\n      caller\n        /* \"contracts/Project1/Real_State.sol\":3223:3253  inspectorAddress == msg.sender */\n      eq\n        /* \"contracts/Project1/Real_State.sol\":3215:3308  require(inspectorAddress == msg.sender, \"You are not authorized to execute this transaction\") */\n      tag_471\n      jumpi\n      mload(0x40)\n      shl(0xe5, 0x461bcd)\n      dup2\n      mstore\n      0x04\n      add\n      tag_203\n      swap1\n      tag_204\n      jump\t// in\n    tag_471:\n        /* \"contracts/Project1/Real_State.sol\":13240:13270  CheckLandRegistration[_landId] */\n      0x00\n      dup2\n      dup2\n      mstore\n        /* \"contracts/Project1/Real_State.sol\":13240:13261  CheckLandRegistration */\n      0x0b\n        /* \"contracts/Project1/Real_State.sol\":13240:13270  CheckLandRegistration[_landId] */\n      0x20\n      mstore\n      0x40\n      swap1\n      keccak256\n      sload\n      0xff\n      and\n        /* \"contracts/Project1/Real_State.sol\":13240:13278  CheckLandRegistration[_landId] == true */\n      iszero\n      iszero\n        /* \"contracts/Project1/Real_State.sol\":13240:13270  CheckLandRegistration[_landId] */\n      0x01\n        /* \"contracts/Project1/Real_State.sol\":13240:13278  CheckLandRegistration[_landId] == true */\n      eq\n        /* \"contracts/Project1/Real_State.sol\":13232:13323  require(CheckLandRegistration[_landId] == true, \"Land does not exits with the provided id\") */\n      tag_474\n      jumpi\n      mload(0x40)\n      shl(0xe5, 0x461bcd)\n      dup2\n      mstore\n        /* \"#utility.yul\":32435:32437   */\n      0x20\n        /* \"contracts/Project1/Real_State.sol\":13232:13323  require(CheckLandRegistration[_landId] == true, \"Land does not exits with the provided id\") */\n      0x04\n      dup3\n      add\n        /* \"#utility.yul\":32417:32438   */\n      mstore\n        /* \"#utility.yul\":32474:32476   */\n      0x28\n        /* \"#utility.yul\":32454:32472   */\n      0x24\n      dup3\n      add\n        /* \"#utility.yul\":32447:32477   */\n      mstore\n        /* \"#utility.yul\":32513:32547   */\n      0x4c616e6420646f6573206e6f742065786974732077697468207468652070726f\n        /* \"#utility.yul\":32493:32511   */\n      0x44\n      dup3\n      add\n        /* \"#utility.yul\":32486:32548   */\n      mstore\n      shl(0xc2, 0x1d9a591959081a59)\n        /* \"#utility.yul\":32564:32582   */\n      0x64\n      dup3\n      add\n        /* \"#utility.yul\":32557:32595   */\n      mstore\n        /* \"#utility.yul\":32612:32631   */\n      0x84\n      add\n        /* \"contracts/Project1/Real_State.sol\":13232:13323  require(CheckLandRegistration[_landId] == true, \"Land does not exits with the provided id\") */\n      tag_203\n        /* \"#utility.yul\":32233:32637   */\n      jump\n        /* \"contracts/Project1/Real_State.sol\":13232:13323  require(CheckLandRegistration[_landId] == true, \"Land does not exits with the provided id\") */\n    tag_474:\n        /* \"contracts/Project1/Real_State.sol\":13342:13356  Lands[_landId] */\n      0x00\n      dup2\n      dup2\n      mstore\n        /* \"contracts/Project1/Real_State.sol\":13342:13347  Lands */\n      0x05\n        /* \"contracts/Project1/Real_State.sol\":13342:13356  Lands[_landId] */\n      0x20\n      dup2\n      swap1\n      mstore\n      0x40\n      swap1\n      swap2\n      keccak256\n        /* \"contracts/Project1/Real_State.sol\":13342:13371  Lands[_landId].isLandVerified */\n      add\n      sload\n      0x0100\n      swap1\n      div\n      0xff\n      and\n        /* \"contracts/Project1/Real_State.sol\":13342:13380  Lands[_landId].isLandVerified == false */\n      iszero\n        /* \"contracts/Project1/Real_State.sol\":13334:13409  require(Lands[_landId].isLandVerified == false, \"Land is already verified\") */\n      tag_477\n      jumpi\n      mload(0x40)\n      shl(0xe5, 0x461bcd)\n      dup2\n      mstore\n        /* \"#utility.yul\":32844:32846   */\n      0x20\n        /* \"contracts/Project1/Real_State.sol\":13334:13409  require(Lands[_landId].isLandVerified == false, \"Land is already verified\") */\n      0x04\n      dup3\n      add\n        /* \"#utility.yul\":32826:32847   */\n      mstore\n        /* \"#utility.yul\":32883:32885   */\n      0x18\n        /* \"#utility.yul\":32863:32881   */\n      0x24\n      dup3\n      add\n        /* \"#utility.yul\":32856:32886   */\n      mstore\n        /* \"#utility.yul\":32922:32948   */\n      0x4c616e6420697320616c72656164792076657269666965640000000000000000\n        /* \"#utility.yul\":32902:32920   */\n      0x44\n      dup3\n      add\n        /* \"#utility.yul\":32895:32949   */\n      mstore\n        /* \"#utility.yul\":32966:32984   */\n      0x64\n      add\n        /* \"contracts/Project1/Real_State.sol\":13334:13409  require(Lands[_landId].isLandVerified == false, \"Land is already verified\") */\n      tag_203\n        /* \"#utility.yul\":32642:32990   */\n      jump\n        /* \"contracts/Project1/Real_State.sol\":13334:13409  require(Lands[_landId].isLandVerified == false, \"Land is already verified\") */\n    tag_477:\n        /* \"contracts/Project1/Real_State.sol\":13420:13434  Lands[_landId] */\n      0x00\n      dup2\n      dup2\n      mstore\n        /* \"contracts/Project1/Real_State.sol\":13420:13425  Lands */\n      0x05\n        /* \"contracts/Project1/Real_State.sol\":13420:13434  Lands[_landId] */\n      0x20\n      dup2\n      swap1\n      mstore\n      0x40\n      swap2\n      dup3\n      swap1\n      keccak256\n        /* \"contracts/Project1/Real_State.sol\":13420:13449  Lands[_landId].isLandVerified */\n      add\n        /* \"contracts/Project1/Real_State.sol\":13420:13456  Lands[_landId].isLandVerified = true */\n      dup1\n      sload\n      not(0xff00)\n      and\n      0x0100\n      or\n      swap1\n      sstore\n        /* \"contracts/Project1/Real_State.sol\":13474:13534  Land(\"Land is verified by landInspector with id: \", _landId) */\n      mload\n      0xe5f0e14de14b66d6262ef8ac911c347dc802a85ecec178cd931841b9db32bd91\n      swap1\n      tag_248\n      swap1\n        /* \"contracts/Project1/Real_State.sol\":13426:13433  _landId */\n      dup4\n      swap1\n        /* \"#utility.yul\":33225:33227   */\n      0x40\n        /* \"#utility.yul\":33207:33228   */\n      dup1\n      dup3\n      mstore\n        /* \"#utility.yul\":33264:33266   */\n      0x2b\n        /* \"#utility.yul\":33244:33262   */\n      swap1\n      dup3\n      add\n        /* \"#utility.yul\":33237:33267   */\n      mstore\n        /* \"#utility.yul\":33303:33337   */\n      0x4c616e64206973207665726966696564206279206c616e64496e73706563746f\n        /* \"#utility.yul\":33298:33300   */\n      0x60\n        /* \"#utility.yul\":33283:33301   */\n      dup3\n      add\n        /* \"#utility.yul\":33276:33338   */\n      mstore\n      shl(0xad, 0x039103bb4ba341034b21d1)\n        /* \"#utility.yul\":33369:33372   */\n      0x80\n        /* \"#utility.yul\":33354:33373   */\n      dup3\n      add\n        /* \"#utility.yul\":33347:33389   */\n      mstore\n        /* \"#utility.yul\":33456:33460   */\n      0x20\n        /* \"#utility.yul\":33441:33461   */\n      dup2\n      add\n        /* \"#utility.yul\":33434:33470   */\n      swap2\n      swap1\n      swap2\n      mstore\n        /* \"#utility.yul\":33421:33424   */\n      0xa0\n        /* \"#utility.yul\":33406:33425   */\n      add\n      swap1\n        /* \"#utility.yul\":32995:33476   */\n      jump\n    tag_221:\n      pop\n      dup1\n      sload\n      tag_482\n      swap1\n      tag_181\n      jump\t// in\n    tag_482:\n      0x00\n      dup3\n      sstore\n      dup1\n      0x1f\n      lt\n      tag_484\n      jumpi\n      pop\n      pop\n      jump\t// out\n    tag_484:\n      0x1f\n      add\n      0x20\n      swap1\n      div\n      swap1\n      0x00\n      mstore\n      keccak256(0x00, 0x20)\n      swap1\n      dup2\n      add\n      swap1\n      tag_485\n      swap2\n      swap1\n      tag_486\n      jump\t// in\n    tag_485:\n      pop\n      jump\t// out\n    tag_486:\n    tag_487:\n      dup1\n      dup3\n      gt\n      iszero\n      tag_488\n      jumpi\n      0x00\n      dup2\n      sstore\n      0x01\n      add\n      jump(tag_487)\n    tag_488:\n      pop\n      swap1\n      jump\t// out\n        /* \"#utility.yul\":196:376   */\n    tag_46:\n        /* \"#utility.yul\":255:261   */\n      0x00\n        /* \"#utility.yul\":308:310   */\n      0x20\n        /* \"#utility.yul\":296:305   */\n      dup3\n        /* \"#utility.yul\":287:294   */\n      dup5\n        /* \"#utility.yul\":283:306   */\n      sub\n        /* \"#utility.yul\":279:311   */\n      slt\n        /* \"#utility.yul\":276:328   */\n      iszero\n      tag_501\n      jumpi\n        /* \"#utility.yul\":324:325   */\n      0x00\n        /* \"#utility.yul\":321:322   */\n      dup1\n        /* \"#utility.yul\":314:326   */\n      revert\n        /* \"#utility.yul\":276:328   */\n    tag_501:\n      pop\n        /* \"#utility.yul\":347:370   */\n      calldataload\n      swap2\n        /* \"#utility.yul\":196:376   */\n      swap1\n      pop\n      jump\t// out\n        /* \"#utility.yul\":381:804   */\n    tag_489:\n        /* \"#utility.yul\":423:426   */\n      0x00\n        /* \"#utility.yul\":461:466   */\n      dup2\n        /* \"#utility.yul\":455:467   */\n      mload\n        /* \"#utility.yul\":488:494   */\n      dup1\n        /* \"#utility.yul\":483:486   */\n      dup5\n        /* \"#utility.yul\":476:495   */\n      mstore\n        /* \"#utility.yul\":513:514   */\n      0x00\n        /* \"#utility.yul\":523:685   */\n    tag_503:\n        /* \"#utility.yul\":537:543   */\n      dup2\n        /* \"#utility.yul\":534:535   */\n      dup2\n        /* \"#utility.yul\":531:544   */\n      lt\n        /* \"#utility.yul\":523:685   */\n      iszero\n      tag_505\n      jumpi\n        /* \"#utility.yul\":599:603   */\n      0x20\n        /* \"#utility.yul\":655:668   */\n      dup2\n      dup6\n      add\n        /* \"#utility.yul\":651:673   */\n      dup2\n      add\n        /* \"#utility.yul\":645:674   */\n      mload\n        /* \"#utility.yul\":627:638   */\n      dup7\n      dup4\n      add\n        /* \"#utility.yul\":623:643   */\n      dup3\n      add\n        /* \"#utility.yul\":616:675   */\n      mstore\n        /* \"#utility.yul\":552:564   */\n      add\n        /* \"#utility.yul\":523:685   */\n      jump(tag_503)\n    tag_505:\n        /* \"#utility.yul\":527:530   */\n      pop\n        /* \"#utility.yul\":730:731   */\n      0x00\n        /* \"#utility.yul\":723:727   */\n      0x20\n        /* \"#utility.yul\":714:720   */\n      dup3\n        /* \"#utility.yul\":709:712   */\n      dup7\n        /* \"#utility.yul\":705:721   */\n      add\n        /* \"#utility.yul\":701:728   */\n      add\n        /* \"#utility.yul\":694:732   */\n      mstore\n        /* \"#utility.yul\":793:797   */\n      0x20\n        /* \"#utility.yul\":786:788   */\n      0x1f\n        /* \"#utility.yul\":782:789   */\n      not\n        /* \"#utility.yul\":777:779   */\n      0x1f\n        /* \"#utility.yul\":769:775   */\n      dup4\n        /* \"#utility.yul\":765:780   */\n      add\n        /* \"#utility.yul\":761:790   */\n      and\n        /* \"#utility.yul\":756:759   */\n      dup6\n        /* \"#utility.yul\":752:791   */\n      add\n        /* \"#utility.yul\":748:798   */\n      add\n        /* \"#utility.yul\":741:798   */\n      swap2\n      pop\n      pop\n        /* \"#utility.yul\":381:804   */\n      swap3\n      swap2\n      pop\n      pop\n      jump\t// out\n        /* \"#utility.yul\":809:1946   */\n    tag_49:\n        /* \"#utility.yul\":1193:1197   */\n      0x00\n        /* \"#utility.yul\":1222:1225   */\n      0x0120\n        /* \"#utility.yul\":1252:1258   */\n      dup12\n        /* \"#utility.yul\":1241:1250   */\n      dup4\n        /* \"#utility.yul\":1234:1259   */\n      mstore\n        /* \"#utility.yul\":1295:1297   */\n      dup1\n        /* \"#utility.yul\":1290:1292   */\n      0x20\n        /* \"#utility.yul\":1279:1288   */\n      dup5\n        /* \"#utility.yul\":1275:1293   */\n      add\n        /* \"#utility.yul\":1268:1298   */\n      mstore\n        /* \"#utility.yul\":1321:1366   */\n      tag_507\n        /* \"#utility.yul\":1362:1364   */\n      dup2\n        /* \"#utility.yul\":1351:1360   */\n      dup5\n        /* \"#utility.yul\":1347:1365   */\n      add\n        /* \"#utility.yul\":1339:1345   */\n      dup13\n        /* \"#utility.yul\":1321:1366   */\n      tag_489\n      jump\t// in\n    tag_507:\n        /* \"#utility.yul\":1307:1366   */\n      swap1\n      pop\n        /* \"#utility.yul\":1414:1423   */\n      dup3\n        /* \"#utility.yul\":1406:1412   */\n      dup2\n        /* \"#utility.yul\":1402:1424   */\n      sub\n        /* \"#utility.yul\":1397:1399   */\n      0x40\n        /* \"#utility.yul\":1386:1395   */\n      dup5\n        /* \"#utility.yul\":1382:1400   */\n      add\n        /* \"#utility.yul\":1375:1425   */\n      mstore\n        /* \"#utility.yul\":1448:1481   */\n      tag_508\n        /* \"#utility.yul\":1474:1480   */\n      dup2\n        /* \"#utility.yul\":1466:1472   */\n      dup12\n        /* \"#utility.yul\":1448:1481   */\n      tag_489\n      jump\t// in\n    tag_508:\n        /* \"#utility.yul\":1434:1481   */\n      swap1\n      pop\n        /* \"#utility.yul\":1529:1538   */\n      dup3\n        /* \"#utility.yul\":1521:1527   */\n      dup2\n        /* \"#utility.yul\":1517:1539   */\n      sub\n        /* \"#utility.yul\":1512:1514   */\n      0x60\n        /* \"#utility.yul\":1501:1510   */\n      dup5\n        /* \"#utility.yul\":1497:1515   */\n      add\n        /* \"#utility.yul\":1490:1540   */\n      mstore\n        /* \"#utility.yul\":1563:1596   */\n      tag_509\n        /* \"#utility.yul\":1589:1595   */\n      dup2\n        /* \"#utility.yul\":1581:1587   */\n      dup11\n        /* \"#utility.yul\":1563:1596   */\n      tag_489\n      jump\t// in\n    tag_509:\n        /* \"#utility.yul\":1627:1630   */\n      0x80\n        /* \"#utility.yul\":1612:1631   */\n      dup5\n      add\n        /* \"#utility.yul\":1605:1640   */\n      dup10\n      swap1\n      mstore\n        /* \"#utility.yul\":1684:1698   */\n      dup8\n      iszero\n        /* \"#utility.yul\":1677:1699   */\n      iszero\n        /* \"#utility.yul\":1671:1674   */\n      0xa0\n        /* \"#utility.yul\":1656:1675   */\n      dup6\n      add\n        /* \"#utility.yul\":1649:1700   */\n      mstore\n        /* \"#utility.yul\":1744:1758   */\n      dup7\n      iszero\n        /* \"#utility.yul\":1737:1759   */\n      iszero\n        /* \"#utility.yul\":1731:1734   */\n      0xc0\n        /* \"#utility.yul\":1716:1735   */\n      dup6\n      add\n        /* \"#utility.yul\":1709:1760   */\n      mstore\n      sub(shl(0xa0, 0x01), 0x01)\n        /* \"#utility.yul\":1797:1829   */\n      dup7\n      and\n        /* \"#utility.yul\":1791:1794   */\n      0xe0\n        /* \"#utility.yul\":1776:1795   */\n      dup6\n      add\n        /* \"#utility.yul\":1769:1830   */\n      mstore\n        /* \"#utility.yul\":1867:1889   */\n      dup4\n      dup2\n      sub\n        /* \"#utility.yul\":1861:1864   */\n      0x0100\n        /* \"#utility.yul\":1846:1865   */\n      dup6\n      add\n        /* \"#utility.yul\":1839:1890   */\n      mstore\n        /* \"#utility.yul\":1549:1596   */\n      swap1\n      pop\n        /* \"#utility.yul\":1907:1940   */\n      tag_510\n        /* \"#utility.yul\":1549:1596   */\n      dup2\n        /* \"#utility.yul\":1925:1931   */\n      dup6\n        /* \"#utility.yul\":1907:1940   */\n      tag_489\n      jump\t// in\n    tag_510:\n        /* \"#utility.yul\":1899:1940   */\n      swap13\n        /* \"#utility.yul\":809:1946   */\n      swap12\n      pop\n      pop\n      pop\n      pop\n      pop\n      pop\n      pop\n      pop\n      pop\n      pop\n      pop\n      pop\n      jump\t// out\n        /* \"#utility.yul\":1951:2082   */\n    tag_490:\n      sub(shl(0xa0, 0x01), 0x01)\n        /* \"#utility.yul\":2026:2057   */\n      dup2\n      and\n        /* \"#utility.yul\":2016:2058   */\n      dup2\n      eq\n        /* \"#utility.yul\":2006:2076   */\n      tag_485\n      jumpi\n        /* \"#utility.yul\":2072:2073   */\n      0x00\n        /* \"#utility.yul\":2069:2070   */\n      dup1\n        /* \"#utility.yul\":2062:2074   */\n      revert\n        /* \"#utility.yul\":2087:2334   */\n    tag_53:\n        /* \"#utility.yul\":2146:2152   */\n      0x00\n        /* \"#utility.yul\":2199:2201   */\n      0x20\n        /* \"#utility.yul\":2187:2196   */\n      dup3\n        /* \"#utility.yul\":2178:2185   */\n      dup5\n        /* \"#utility.yul\":2174:2197   */\n      sub\n        /* \"#utility.yul\":2170:2202   */\n      slt\n        /* \"#utility.yul\":2167:2219   */\n      iszero\n      tag_514\n      jumpi\n        /* \"#utility.yul\":2215:2216   */\n      0x00\n        /* \"#utility.yul\":2212:2213   */\n      dup1\n        /* \"#utility.yul\":2205:2217   */\n      revert\n        /* \"#utility.yul\":2167:2219   */\n    tag_514:\n        /* \"#utility.yul\":2254:2263   */\n      dup2\n        /* \"#utility.yul\":2241:2264   */\n      calldataload\n        /* \"#utility.yul\":2273:2304   */\n      tag_515\n        /* \"#utility.yul\":2298:2303   */\n      dup2\n        /* \"#utility.yul\":2273:2304   */\n      tag_490\n      jump\t// in\n    tag_515:\n        /* \"#utility.yul\":2323:2328   */\n      swap4\n        /* \"#utility.yul\":2087:2334   */\n      swap3\n      pop\n      pop\n      pop\n      jump\t// out\n        /* \"#utility.yul\":2531:2848   */\n    tag_75:\n      sub(shl(0xa0, 0x01), 0x01)\n        /* \"#utility.yul\":2708:2740   */\n      dup4\n      and\n        /* \"#utility.yul\":2690:2741   */\n      dup2\n      mstore\n        /* \"#utility.yul\":2777:2779   */\n      0x40\n        /* \"#utility.yul\":2772:2774   */\n      0x20\n        /* \"#utility.yul\":2757:2775   */\n      dup3\n      add\n        /* \"#utility.yul\":2750:2780   */\n      dup2\n      swap1\n      mstore\n      0x00\n      swap1\n        /* \"#utility.yul\":2797:2842   */\n      tag_518\n      swap1\n        /* \"#utility.yul\":2823:2841   */\n      dup4\n      add\n        /* \"#utility.yul\":2815:2821   */\n      dup5\n        /* \"#utility.yul\":2797:2842   */\n      tag_489\n      jump\t// in\n    tag_518:\n        /* \"#utility.yul\":2789:2842   */\n      swap5\n        /* \"#utility.yul\":2531:2848   */\n      swap4\n      pop\n      pop\n      pop\n      pop\n      jump\t// out\n        /* \"#utility.yul\":3061:4014   */\n    tag_99:\n        /* \"#utility.yul\":3438:3444   */\n      dup8\n        /* \"#utility.yul\":3427:3436   */\n      dup2\n        /* \"#utility.yul\":3420:3445   */\n      mstore\n        /* \"#utility.yul\":3481:3484   */\n      0xe0\n        /* \"#utility.yul\":3476:3478   */\n      0x20\n        /* \"#utility.yul\":3465:3474   */\n      dup3\n        /* \"#utility.yul\":3461:3479   */\n      add\n        /* \"#utility.yul\":3454:3485   */\n      mstore\n        /* \"#utility.yul\":3401:3405   */\n      0x00\n        /* \"#utility.yul\":3508:3554   */\n      tag_521\n        /* \"#utility.yul\":3549:3552   */\n      0xe0\n        /* \"#utility.yul\":3538:3547   */\n      dup4\n        /* \"#utility.yul\":3534:3553   */\n      add\n        /* \"#utility.yul\":3526:3532   */\n      dup10\n        /* \"#utility.yul\":3508:3554   */\n      tag_489\n      jump\t// in\n    tag_521:\n        /* \"#utility.yul\":3602:3611   */\n      dup3\n        /* \"#utility.yul\":3594:3600   */\n      dup2\n        /* \"#utility.yul\":3590:3612   */\n      sub\n        /* \"#utility.yul\":3585:3587   */\n      0x40\n        /* \"#utility.yul\":3574:3583   */\n      dup5\n        /* \"#utility.yul\":3570:3588   */\n      add\n        /* \"#utility.yul\":3563:3613   */\n      mstore\n        /* \"#utility.yul\":3636:3669   */\n      tag_522\n        /* \"#utility.yul\":3662:3668   */\n      dup2\n        /* \"#utility.yul\":3654:3660   */\n      dup10\n        /* \"#utility.yul\":3636:3669   */\n      tag_489\n      jump\t// in\n    tag_522:\n        /* \"#utility.yul\":3622:3669   */\n      swap1\n      pop\n        /* \"#utility.yul\":3717:3726   */\n      dup3\n        /* \"#utility.yul\":3709:3715   */\n      dup2\n        /* \"#utility.yul\":3705:3727   */\n      sub\n        /* \"#utility.yul\":3700:3702   */\n      0x60\n        /* \"#utility.yul\":3689:3698   */\n      dup5\n        /* \"#utility.yul\":3685:3703   */\n      add\n        /* \"#utility.yul\":3678:3728   */\n      mstore\n        /* \"#utility.yul\":3751:3784   */\n      tag_523\n        /* \"#utility.yul\":3777:3783   */\n      dup2\n        /* \"#utility.yul\":3769:3775   */\n      dup9\n        /* \"#utility.yul\":3751:3784   */\n      tag_489\n      jump\t// in\n    tag_523:\n        /* \"#utility.yul\":3815:3818   */\n      0x80\n        /* \"#utility.yul\":3800:3819   */\n      dup5\n      add\n        /* \"#utility.yul\":3793:3828   */\n      dup8\n      swap1\n      mstore\n      sub(shl(0xa0, 0x01), 0x01)\n        /* \"#utility.yul\":3865:3897   */\n      dup7\n      and\n        /* \"#utility.yul\":3885:3888   */\n      0xa0\n        /* \"#utility.yul\":3844:3863   */\n      dup6\n      add\n        /* \"#utility.yul\":3837:3898   */\n      mstore\n        /* \"#utility.yul\":3935:3957   */\n      dup4\n      dup2\n      sub\n        /* \"#utility.yul\":3929:3932   */\n      0xc0\n        /* \"#utility.yul\":3914:3933   */\n      dup6\n      add\n        /* \"#utility.yul\":3907:3958   */\n      mstore\n        /* \"#utility.yul\":3737:3784   */\n      swap1\n      pop\n        /* \"#utility.yul\":3975:4008   */\n      tag_524\n        /* \"#utility.yul\":3737:3784   */\n      dup2\n        /* \"#utility.yul\":3993:3999   */\n      dup6\n        /* \"#utility.yul\":3975:4008   */\n      tag_489\n      jump\t// in\n    tag_524:\n        /* \"#utility.yul\":3967:4008   */\n      swap11\n        /* \"#utility.yul\":3061:4014   */\n      swap10\n      pop\n      pop\n      pop\n      pop\n      pop\n      pop\n      pop\n      pop\n      pop\n      pop\n      jump\t// out\n        /* \"#utility.yul\":4019:4146   */\n    tag_491:\n        /* \"#utility.yul\":4080:4090   */\n      0x4e487b71\n        /* \"#utility.yul\":4075:4078   */\n      0xe0\n        /* \"#utility.yul\":4071:4091   */\n      shl\n        /* \"#utility.yul\":4068:4069   */\n      0x00\n        /* \"#utility.yul\":4061:4092   */\n      mstore\n        /* \"#utility.yul\":4111:4115   */\n      0x41\n        /* \"#utility.yul\":4108:4109   */\n      0x04\n        /* \"#utility.yul\":4101:4116   */\n      mstore\n        /* \"#utility.yul\":4135:4139   */\n      0x24\n        /* \"#utility.yul\":4132:4133   */\n      0x00\n        /* \"#utility.yul\":4125:4140   */\n      revert\n        /* \"#utility.yul\":4151:4870   */\n    tag_492:\n        /* \"#utility.yul\":4194:4199   */\n      0x00\n        /* \"#utility.yul\":4247:4250   */\n      dup3\n        /* \"#utility.yul\":4240:4244   */\n      0x1f\n        /* \"#utility.yul\":4232:4238   */\n      dup4\n        /* \"#utility.yul\":4228:4245   */\n      add\n        /* \"#utility.yul\":4224:4251   */\n      slt\n        /* \"#utility.yul\":4214:4269   */\n      tag_527\n      jumpi\n        /* \"#utility.yul\":4265:4266   */\n      0x00\n        /* \"#utility.yul\":4262:4263   */\n      dup1\n        /* \"#utility.yul\":4255:4267   */\n      revert\n        /* \"#utility.yul\":4214:4269   */\n    tag_527:\n        /* \"#utility.yul\":4301:4307   */\n      dup2\n        /* \"#utility.yul\":4288:4308   */\n      calldataload\n        /* \"#utility.yul\":4327:4345   */\n      0xffffffffffffffff\n        /* \"#utility.yul\":4364:4366   */\n      dup1\n        /* \"#utility.yul\":4360:4362   */\n      dup3\n        /* \"#utility.yul\":4357:4367   */\n      gt\n        /* \"#utility.yul\":4354:4390   */\n      iszero\n      tag_529\n      jumpi\n        /* \"#utility.yul\":4370:4388   */\n      tag_529\n      tag_491\n      jump\t// in\n    tag_529:\n        /* \"#utility.yul\":4445:4447   */\n      0x40\n        /* \"#utility.yul\":4439:4448   */\n      mload\n        /* \"#utility.yul\":4413:4415   */\n      0x1f\n        /* \"#utility.yul\":4499:4512   */\n      dup4\n      add\n      not(0x1f)\n        /* \"#utility.yul\":4495:4517   */\n      swap1\n      dup2\n      and\n        /* \"#utility.yul\":4519:4521   */\n      0x3f\n        /* \"#utility.yul\":4491:4522   */\n      add\n        /* \"#utility.yul\":4487:4527   */\n      and\n        /* \"#utility.yul\":4475:4528   */\n      dup2\n      add\n      swap1\n        /* \"#utility.yul\":4543:4561   */\n      dup3\n      dup3\n      gt\n        /* \"#utility.yul\":4563:4585   */\n      dup2\n      dup4\n      lt\n        /* \"#utility.yul\":4540:4586   */\n      or\n        /* \"#utility.yul\":4537:4609   */\n      iszero\n      tag_531\n      jumpi\n        /* \"#utility.yul\":4589:4607   */\n      tag_531\n      tag_491\n      jump\t// in\n    tag_531:\n        /* \"#utility.yul\":4629:4639   */\n      dup2\n        /* \"#utility.yul\":4625:4627   */\n      0x40\n        /* \"#utility.yul\":4618:4640   */\n      mstore\n        /* \"#utility.yul\":4664:4666   */\n      dup4\n        /* \"#utility.yul\":4656:4662   */\n      dup2\n        /* \"#utility.yul\":4649:4667   */\n      mstore\n        /* \"#utility.yul\":4710:4713   */\n      dup7\n        /* \"#utility.yul\":4703:4707   */\n      0x20\n        /* \"#utility.yul\":4698:4700   */\n      dup6\n        /* \"#utility.yul\":4690:4696   */\n      dup9\n        /* \"#utility.yul\":4686:4701   */\n      add\n        /* \"#utility.yul\":4682:4708   */\n      add\n        /* \"#utility.yul\":4679:4714   */\n      gt\n        /* \"#utility.yul\":4676:4731   */\n      iszero\n      tag_532\n      jumpi\n        /* \"#utility.yul\":4727:4728   */\n      0x00\n        /* \"#utility.yul\":4724:4725   */\n      dup1\n        /* \"#utility.yul\":4717:4729   */\n      revert\n        /* \"#utility.yul\":4676:4731   */\n    tag_532:\n        /* \"#utility.yul\":4791:4793   */\n      dup4\n        /* \"#utility.yul\":4784:4788   */\n      0x20\n        /* \"#utility.yul\":4776:4782   */\n      dup8\n        /* \"#utility.yul\":4772:4789   */\n      add\n        /* \"#utility.yul\":4765:4769   */\n      0x20\n        /* \"#utility.yul\":4757:4763   */\n      dup4\n        /* \"#utility.yul\":4753:4770   */\n      add\n        /* \"#utility.yul\":4740:4794   */\n      calldatacopy\n        /* \"#utility.yul\":4838:4839   */\n      0x00\n        /* \"#utility.yul\":4831:4835   */\n      0x20\n        /* \"#utility.yul\":4826:4828   */\n      dup6\n        /* \"#utility.yul\":4818:4824   */\n      dup4\n        /* \"#utility.yul\":4814:4829   */\n      add\n        /* \"#utility.yul\":4810:4836   */\n      add\n        /* \"#utility.yul\":4803:4840   */\n      mstore\n        /* \"#utility.yul\":4858:4864   */\n      dup1\n        /* \"#utility.yul\":4849:4864   */\n      swap5\n      pop\n      pop\n      pop\n      pop\n      pop\n        /* \"#utility.yul\":4151:4870   */\n      swap3\n      swap2\n      pop\n      pop\n      jump\t// out\n        /* \"#utility.yul\":4875:5892   */\n    tag_108:\n        /* \"#utility.yul\":5009:5015   */\n      0x00\n        /* \"#utility.yul\":5017:5023   */\n      dup1\n        /* \"#utility.yul\":5025:5031   */\n      0x00\n        /* \"#utility.yul\":5033:5039   */\n      dup1\n        /* \"#utility.yul\":5041:5047   */\n      0x00\n        /* \"#utility.yul\":5049:5055   */\n      dup1\n        /* \"#utility.yul\":5102:5105   */\n      0xc0\n        /* \"#utility.yul\":5090:5099   */\n      dup8\n        /* \"#utility.yul\":5081:5088   */\n      dup10\n        /* \"#utility.yul\":5077:5100   */\n      sub\n        /* \"#utility.yul\":5073:5106   */\n      slt\n        /* \"#utility.yul\":5070:5123   */\n      iszero\n      tag_534\n      jumpi\n        /* \"#utility.yul\":5119:5120   */\n      0x00\n        /* \"#utility.yul\":5116:5117   */\n      dup1\n        /* \"#utility.yul\":5109:5121   */\n      revert\n        /* \"#utility.yul\":5070:5123   */\n    tag_534:\n        /* \"#utility.yul\":5158:5167   */\n      dup7\n        /* \"#utility.yul\":5145:5168   */\n      calldataload\n        /* \"#utility.yul\":5177:5208   */\n      tag_535\n        /* \"#utility.yul\":5202:5207   */\n      dup2\n        /* \"#utility.yul\":5177:5208   */\n      tag_490\n      jump\t// in\n    tag_535:\n        /* \"#utility.yul\":5227:5232   */\n      swap6\n      pop\n        /* \"#utility.yul\":5283:5285   */\n      0x20\n        /* \"#utility.yul\":5268:5286   */\n      dup8\n      add\n        /* \"#utility.yul\":5255:5287   */\n      calldataload\n        /* \"#utility.yul\":5306:5324   */\n      0xffffffffffffffff\n        /* \"#utility.yul\":5336:5350   */\n      dup1\n      dup3\n      gt\n        /* \"#utility.yul\":5333:5367   */\n      iszero\n      tag_536\n      jumpi\n        /* \"#utility.yul\":5363:5364   */\n      0x00\n        /* \"#utility.yul\":5360:5361   */\n      dup1\n        /* \"#utility.yul\":5353:5365   */\n      revert\n        /* \"#utility.yul\":5333:5367   */\n    tag_536:\n        /* \"#utility.yul\":5386:5436   */\n      tag_537\n        /* \"#utility.yul\":5428:5435   */\n      dup11\n        /* \"#utility.yul\":5419:5425   */\n      dup4\n        /* \"#utility.yul\":5408:5417   */\n      dup12\n        /* \"#utility.yul\":5404:5426   */\n      add\n        /* \"#utility.yul\":5386:5436   */\n      tag_492\n      jump\t// in\n    tag_537:\n        /* \"#utility.yul\":5376:5436   */\n      swap7\n      pop\n        /* \"#utility.yul\":5483:5485   */\n      0x40\n        /* \"#utility.yul\":5472:5481   */\n      dup10\n        /* \"#utility.yul\":5468:5486   */\n      add\n        /* \"#utility.yul\":5455:5487   */\n      calldataload\n        /* \"#utility.yul\":5445:5487   */\n      swap6\n      pop\n        /* \"#utility.yul\":5540:5542   */\n      0x60\n        /* \"#utility.yul\":5529:5538   */\n      dup10\n        /* \"#utility.yul\":5525:5543   */\n      add\n        /* \"#utility.yul\":5512:5544   */\n      calldataload\n        /* \"#utility.yul\":5496:5544   */\n      swap2\n      pop\n        /* \"#utility.yul\":5569:5571   */\n      dup1\n        /* \"#utility.yul\":5559:5567   */\n      dup3\n        /* \"#utility.yul\":5556:5572   */\n      gt\n        /* \"#utility.yul\":5553:5589   */\n      iszero\n      tag_538\n      jumpi\n        /* \"#utility.yul\":5585:5586   */\n      0x00\n        /* \"#utility.yul\":5582:5583   */\n      dup1\n        /* \"#utility.yul\":5575:5587   */\n      revert\n        /* \"#utility.yul\":5553:5589   */\n    tag_538:\n        /* \"#utility.yul\":5608:5660   */\n      tag_539\n        /* \"#utility.yul\":5652:5659   */\n      dup11\n        /* \"#utility.yul\":5641:5649   */\n      dup4\n        /* \"#utility.yul\":5630:5639   */\n      dup12\n        /* \"#utility.yul\":5626:5650   */\n      add\n        /* \"#utility.yul\":5608:5660   */\n      tag_492\n      jump\t// in\n    tag_539:\n        /* \"#utility.yul\":5598:5660   */\n      swap5\n      pop\n        /* \"#utility.yul\":5707:5710   */\n      0x80\n        /* \"#utility.yul\":5696:5705   */\n      dup10\n        /* \"#utility.yul\":5692:5711   */\n      add\n        /* \"#utility.yul\":5679:5712   */\n      calldataload\n        /* \"#utility.yul\":5669:5712   */\n      swap4\n      pop\n        /* \"#utility.yul\":5765:5768   */\n      0xa0\n        /* \"#utility.yul\":5754:5763   */\n      dup10\n        /* \"#utility.yul\":5750:5769   */\n      add\n        /* \"#utility.yul\":5737:5770   */\n      calldataload\n        /* \"#utility.yul\":5721:5770   */\n      swap2\n      pop\n        /* \"#utility.yul\":5795:5797   */\n      dup1\n        /* \"#utility.yul\":5785:5793   */\n      dup3\n        /* \"#utility.yul\":5782:5798   */\n      gt\n        /* \"#utility.yul\":5779:5815   */\n      iszero\n      tag_540\n      jumpi\n        /* \"#utility.yul\":5811:5812   */\n      0x00\n        /* \"#utility.yul\":5808:5809   */\n      dup1\n        /* \"#utility.yul\":5801:5813   */\n      revert\n        /* \"#utility.yul\":5779:5815   */\n    tag_540:\n      pop\n        /* \"#utility.yul\":5834:5886   */\n      tag_541\n        /* \"#utility.yul\":5878:5885   */\n      dup10\n        /* \"#utility.yul\":5867:5875   */\n      dup3\n        /* \"#utility.yul\":5856:5865   */\n      dup11\n        /* \"#utility.yul\":5852:5876   */\n      add\n        /* \"#utility.yul\":5834:5886   */\n      tag_492\n      jump\t// in\n    tag_541:\n        /* \"#utility.yul\":5824:5886   */\n      swap2\n      pop\n      pop\n        /* \"#utility.yul\":4875:5892   */\n      swap3\n      swap6\n      pop\n      swap3\n      swap6\n      pop\n      swap3\n      swap6\n      jump\t// out\n        /* \"#utility.yul\":5897:6220   */\n    tag_112:\n        /* \"#utility.yul\":5973:5979   */\n      0x00\n        /* \"#utility.yul\":5981:5987   */\n      dup1\n        /* \"#utility.yul\":6034:6036   */\n      0x40\n        /* \"#utility.yul\":6022:6031   */\n      dup4\n        /* \"#utility.yul\":6013:6020   */\n      dup6\n        /* \"#utility.yul\":6009:6032   */\n      sub\n        /* \"#utility.yul\":6005:6037   */\n      slt\n        /* \"#utility.yul\":6002:6054   */\n      iszero\n      tag_543\n      jumpi\n        /* \"#utility.yul\":6050:6051   */\n      0x00\n        /* \"#utility.yul\":6047:6048   */\n      dup1\n        /* \"#utility.yul\":6040:6052   */\n      revert\n        /* \"#utility.yul\":6002:6054   */\n    tag_543:\n        /* \"#utility.yul\":6086:6095   */\n      dup3\n        /* \"#utility.yul\":6073:6096   */\n      calldataload\n        /* \"#utility.yul\":6063:6096   */\n      swap2\n      pop\n        /* \"#utility.yul\":6146:6148   */\n      0x20\n        /* \"#utility.yul\":6135:6144   */\n      dup4\n        /* \"#utility.yul\":6131:6149   */\n      add\n        /* \"#utility.yul\":6118:6150   */\n      calldataload\n        /* \"#utility.yul\":6159:6190   */\n      tag_544\n        /* \"#utility.yul\":6184:6189   */\n      dup2\n        /* \"#utility.yul\":6159:6190   */\n      tag_490\n      jump\t// in\n    tag_544:\n        /* \"#utility.yul\":6209:6214   */\n      dup1\n        /* \"#utility.yul\":6199:6214   */\n      swap2\n      pop\n      pop\n        /* \"#utility.yul\":5897:6220   */\n      swap3\n      pop\n      swap3\n      swap1\n      pop\n      jump\t// out\n        /* \"#utility.yul\":6225:7106   */\n    tag_122:\n        /* \"#utility.yul\":6350:6356   */\n      0x00\n        /* \"#utility.yul\":6358:6364   */\n      dup1\n        /* \"#utility.yul\":6366:6372   */\n      0x00\n        /* \"#utility.yul\":6374:6380   */\n      dup1\n        /* \"#utility.yul\":6382:6388   */\n      0x00\n        /* \"#utility.yul\":6435:6438   */\n      0xa0\n        /* \"#utility.yul\":6423:6432   */\n      dup7\n        /* \"#utility.yul\":6414:6421   */\n      dup9\n        /* \"#utility.yul\":6410:6433   */\n      sub\n        /* \"#utility.yul\":6406:6439   */\n      slt\n        /* \"#utility.yul\":6403:6456   */\n      iszero\n      tag_546\n      jumpi\n        /* \"#utility.yul\":6452:6453   */\n      0x00\n        /* \"#utility.yul\":6449:6450   */\n      dup1\n        /* \"#utility.yul\":6442:6454   */\n      revert\n        /* \"#utility.yul\":6403:6456   */\n    tag_546:\n        /* \"#utility.yul\":6492:6501   */\n      dup6\n        /* \"#utility.yul\":6479:6502   */\n      calldataload\n        /* \"#utility.yul\":6521:6539   */\n      0xffffffffffffffff\n        /* \"#utility.yul\":6562:6564   */\n      dup1\n        /* \"#utility.yul\":6554:6560   */\n      dup3\n        /* \"#utility.yul\":6551:6565   */\n      gt\n        /* \"#utility.yul\":6548:6582   */\n      iszero\n      tag_547\n      jumpi\n        /* \"#utility.yul\":6578:6579   */\n      0x00\n        /* \"#utility.yul\":6575:6576   */\n      dup1\n        /* \"#utility.yul\":6568:6580   */\n      revert\n        /* \"#utility.yul\":6548:6582   */\n    tag_547:\n        /* \"#utility.yul\":6601:6651   */\n      tag_548\n        /* \"#utility.yul\":6643:6650   */\n      dup10\n        /* \"#utility.yul\":6634:6640   */\n      dup4\n        /* \"#utility.yul\":6623:6632   */\n      dup11\n        /* \"#utility.yul\":6619:6641   */\n      add\n        /* \"#utility.yul\":6601:6651   */\n      tag_492\n      jump\t// in\n    tag_548:\n        /* \"#utility.yul\":6591:6651   */\n      swap7\n      pop\n        /* \"#utility.yul\":6698:6700   */\n      0x20\n        /* \"#utility.yul\":6687:6696   */\n      dup9\n        /* \"#utility.yul\":6683:6701   */\n      add\n        /* \"#utility.yul\":6670:6702   */\n      calldataload\n        /* \"#utility.yul\":6660:6702   */\n      swap6\n      pop\n        /* \"#utility.yul\":6755:6757   */\n      0x40\n        /* \"#utility.yul\":6744:6753   */\n      dup9\n        /* \"#utility.yul\":6740:6758   */\n      add\n        /* \"#utility.yul\":6727:6759   */\n      calldataload\n        /* \"#utility.yul\":6711:6759   */\n      swap2\n      pop\n        /* \"#utility.yul\":6784:6786   */\n      dup1\n        /* \"#utility.yul\":6774:6782   */\n      dup3\n        /* \"#utility.yul\":6771:6787   */\n      gt\n        /* \"#utility.yul\":6768:6804   */\n      iszero\n      tag_549\n      jumpi\n        /* \"#utility.yul\":6800:6801   */\n      0x00\n        /* \"#utility.yul\":6797:6798   */\n      dup1\n        /* \"#utility.yul\":6790:6802   */\n      revert\n        /* \"#utility.yul\":6768:6804   */\n    tag_549:\n        /* \"#utility.yul\":6823:6875   */\n      tag_550\n        /* \"#utility.yul\":6867:6874   */\n      dup10\n        /* \"#utility.yul\":6856:6864   */\n      dup4\n        /* \"#utility.yul\":6845:6854   */\n      dup11\n        /* \"#utility.yul\":6841:6865   */\n      add\n        /* \"#utility.yul\":6823:6875   */\n      tag_492\n      jump\t// in\n    tag_550:\n        /* \"#utility.yul\":6813:6875   */\n      swap5\n      pop\n        /* \"#utility.yul\":6922:6924   */\n      0x60\n        /* \"#utility.yul\":6911:6920   */\n      dup9\n        /* \"#utility.yul\":6907:6925   */\n      add\n        /* \"#utility.yul\":6894:6926   */\n      calldataload\n        /* \"#utility.yul\":6884:6926   */\n      swap4\n      pop\n        /* \"#utility.yul\":6979:6982   */\n      0x80\n        /* \"#utility.yul\":6968:6977   */\n      dup9\n        /* \"#utility.yul\":6964:6983   */\n      add\n        /* \"#utility.yul\":6951:6984   */\n      calldataload\n        /* \"#utility.yul\":6935:6984   */\n      swap2\n      pop\n        /* \"#utility.yul\":7009:7011   */\n      dup1\n        /* \"#utility.yul\":6999:7007   */\n      dup3\n        /* \"#utility.yul\":6996:7012   */\n      gt\n        /* \"#utility.yul\":6993:7029   */\n      iszero\n      tag_551\n      jumpi\n        /* \"#utility.yul\":7025:7026   */\n      0x00\n        /* \"#utility.yul\":7022:7023   */\n      dup1\n        /* \"#utility.yul\":7015:7027   */\n      revert\n        /* \"#utility.yul\":6993:7029   */\n    tag_551:\n      pop\n        /* \"#utility.yul\":7048:7100   */\n      tag_552\n        /* \"#utility.yul\":7092:7099   */\n      dup9\n        /* \"#utility.yul\":7081:7089   */\n      dup3\n        /* \"#utility.yul\":7070:7079   */\n      dup10\n        /* \"#utility.yul\":7066:7090   */\n      add\n        /* \"#utility.yul\":7048:7100   */\n      tag_492\n      jump\t// in\n    tag_552:\n        /* \"#utility.yul\":7038:7100   */\n      swap2\n      pop\n      pop\n        /* \"#utility.yul\":6225:7106   */\n      swap3\n      swap6\n      pop\n      swap3\n      swap6\n      swap1\n      swap4\n      pop\n      jump\t// out\n        /* \"#utility.yul\":7111:7884   */\n    tag_133:\n        /* \"#utility.yul\":7434:7437   */\n      0xc0\n        /* \"#utility.yul\":7423:7432   */\n      dup2\n        /* \"#utility.yul\":7416:7438   */\n      mstore\n        /* \"#utility.yul\":7397:7401   */\n      0x00\n        /* \"#utility.yul\":7461:7507   */\n      tag_554\n        /* \"#utility.yul\":7502:7505   */\n      0xc0\n        /* \"#utility.yul\":7491:7500   */\n      dup4\n        /* \"#utility.yul\":7487:7506   */\n      add\n        /* \"#utility.yul\":7479:7485   */\n      dup10\n        /* \"#utility.yul\":7461:7507   */\n      tag_489\n      jump\t// in\n    tag_554:\n        /* \"#utility.yul\":7543:7549   */\n      dup8\n        /* \"#utility.yul\":7538:7540   */\n      0x20\n        /* \"#utility.yul\":7527:7536   */\n      dup5\n        /* \"#utility.yul\":7523:7541   */\n      add\n        /* \"#utility.yul\":7516:7550   */\n      mstore\n        /* \"#utility.yul\":7598:7607   */\n      dup3\n        /* \"#utility.yul\":7590:7596   */\n      dup2\n        /* \"#utility.yul\":7586:7608   */\n      sub\n        /* \"#utility.yul\":7581:7583   */\n      0x40\n        /* \"#utility.yul\":7570:7579   */\n      dup5\n        /* \"#utility.yul\":7566:7584   */\n      add\n        /* \"#utility.yul\":7559:7609   */\n      mstore\n        /* \"#utility.yul\":7632:7665   */\n      tag_555\n        /* \"#utility.yul\":7658:7664   */\n      dup2\n        /* \"#utility.yul\":7650:7656   */\n      dup9\n        /* \"#utility.yul\":7632:7665   */\n      tag_489\n      jump\t// in\n    tag_555:\n        /* \"#utility.yul\":7618:7665   */\n      swap1\n      pop\n        /* \"#utility.yul\":7701:7707   */\n      dup6\n        /* \"#utility.yul\":7696:7698   */\n      0x60\n        /* \"#utility.yul\":7685:7694   */\n      dup5\n        /* \"#utility.yul\":7681:7699   */\n      add\n        /* \"#utility.yul\":7674:7708   */\n      mstore\n        /* \"#utility.yul\":7757:7766   */\n      dup3\n        /* \"#utility.yul\":7749:7755   */\n      dup2\n        /* \"#utility.yul\":7745:7767   */\n      sub\n        /* \"#utility.yul\":7739:7742   */\n      0x80\n        /* \"#utility.yul\":7728:7737   */\n      dup5\n        /* \"#utility.yul\":7724:7743   */\n      add\n        /* \"#utility.yul\":7717:7768   */\n      mstore\n        /* \"#utility.yul\":7785:7818   */\n      tag_556\n        /* \"#utility.yul\":7811:7817   */\n      dup2\n        /* \"#utility.yul\":7803:7809   */\n      dup7\n        /* \"#utility.yul\":7785:7818   */\n      tag_489\n      jump\t// in\n    tag_556:\n        /* \"#utility.yul\":7777:7818   */\n      swap2\n      pop\n      pop\n        /* \"#utility.yul\":7869:7875   */\n      dup3\n        /* \"#utility.yul\":7862:7876   */\n      iszero\n        /* \"#utility.yul\":7855:7877   */\n      iszero\n        /* \"#utility.yul\":7849:7852   */\n      0xa0\n        /* \"#utility.yul\":7838:7847   */\n      dup4\n        /* \"#utility.yul\":7834:7853   */\n      add\n        /* \"#utility.yul\":7827:7878   */\n      mstore\n        /* \"#utility.yul\":7111:7884   */\n      swap8\n      swap7\n      pop\n      pop\n      pop\n      pop\n      pop\n      pop\n      pop\n      jump\t// out\n        /* \"#utility.yul\":8209:8762   */\n    tag_162:\n      sub(shl(0xa0, 0x01), 0x01)\n        /* \"#utility.yul\":8462:8494   */\n      dup6\n      and\n        /* \"#utility.yul\":8444:8495   */\n      dup2\n      mstore\n        /* \"#utility.yul\":8531:8534   */\n      0x80\n        /* \"#utility.yul\":8526:8528   */\n      0x20\n        /* \"#utility.yul\":8511:8529   */\n      dup3\n      add\n        /* \"#utility.yul\":8504:8535   */\n      dup2\n      swap1\n      mstore\n      0x00\n      swap1\n        /* \"#utility.yul\":8558:8604   */\n      tag_561\n      swap1\n        /* \"#utility.yul\":8584:8603   */\n      dup4\n      add\n        /* \"#utility.yul\":8576:8582   */\n      dup7\n        /* \"#utility.yul\":8558:8604   */\n      tag_489\n      jump\t// in\n    tag_561:\n        /* \"#utility.yul\":8640:8646   */\n      dup5\n        /* \"#utility.yul\":8635:8637   */\n      0x40\n        /* \"#utility.yul\":8624:8633   */\n      dup5\n        /* \"#utility.yul\":8620:8638   */\n      add\n        /* \"#utility.yul\":8613:8647   */\n      mstore\n        /* \"#utility.yul\":8695:8704   */\n      dup3\n        /* \"#utility.yul\":8687:8693   */\n      dup2\n        /* \"#utility.yul\":8683:8705   */\n      sub\n        /* \"#utility.yul\":8678:8680   */\n      0x60\n        /* \"#utility.yul\":8667:8676   */\n      dup5\n        /* \"#utility.yul\":8663:8681   */\n      add\n        /* \"#utility.yul\":8656:8706   */\n      mstore\n        /* \"#utility.yul\":8723:8756   */\n      tag_562\n        /* \"#utility.yul\":8749:8755   */\n      dup2\n        /* \"#utility.yul\":8741:8747   */\n      dup6\n        /* \"#utility.yul\":8723:8756   */\n      tag_489\n      jump\t// in\n    tag_562:\n        /* \"#utility.yul\":8715:8756   */\n      swap8\n        /* \"#utility.yul\":8209:8762   */\n      swap7\n      pop\n      pop\n      pop\n      pop\n      pop\n      pop\n      pop\n      jump\t// out\n        /* \"#utility.yul\":8767:9648   */\n    tag_170:\n        /* \"#utility.yul\":8892:8898   */\n      0x00\n        /* \"#utility.yul\":8900:8906   */\n      dup1\n        /* \"#utility.yul\":8908:8914   */\n      0x00\n        /* \"#utility.yul\":8916:8922   */\n      dup1\n        /* \"#utility.yul\":8924:8930   */\n      0x00\n        /* \"#utility.yul\":8977:8980   */\n      0xa0\n        /* \"#utility.yul\":8965:8974   */\n      dup7\n        /* \"#utility.yul\":8956:8963   */\n      dup9\n        /* \"#utility.yul\":8952:8975   */\n      sub\n        /* \"#utility.yul\":8948:8981   */\n      slt\n        /* \"#utility.yul\":8945:8998   */\n      iszero\n      tag_564\n      jumpi\n        /* \"#utility.yul\":8994:8995   */\n      0x00\n        /* \"#utility.yul\":8991:8992   */\n      dup1\n        /* \"#utility.yul\":8984:8996   */\n      revert\n        /* \"#utility.yul\":8945:8998   */\n    tag_564:\n        /* \"#utility.yul\":9030:9039   */\n      dup6\n        /* \"#utility.yul\":9017:9040   */\n      calldataload\n        /* \"#utility.yul\":9007:9040   */\n      swap5\n      pop\n        /* \"#utility.yul\":9091:9093   */\n      0x20\n        /* \"#utility.yul\":9080:9089   */\n      dup7\n        /* \"#utility.yul\":9076:9094   */\n      add\n        /* \"#utility.yul\":9063:9095   */\n      calldataload\n        /* \"#utility.yul\":9114:9132   */\n      0xffffffffffffffff\n        /* \"#utility.yul\":9155:9157   */\n      dup1\n        /* \"#utility.yul\":9147:9153   */\n      dup3\n        /* \"#utility.yul\":9144:9158   */\n      gt\n        /* \"#utility.yul\":9141:9175   */\n      iszero\n      tag_565\n      jumpi\n        /* \"#utility.yul\":9171:9172   */\n      0x00\n        /* \"#utility.yul\":9168:9169   */\n      dup1\n        /* \"#utility.yul\":9161:9173   */\n      revert\n        /* \"#utility.yul\":9141:9175   */\n    tag_565:\n        /* \"#utility.yul\":9194:9244   */\n      tag_566\n        /* \"#utility.yul\":9236:9243   */\n      dup10\n        /* \"#utility.yul\":9227:9233   */\n      dup4\n        /* \"#utility.yul\":9216:9225   */\n      dup11\n        /* \"#utility.yul\":9212:9234   */\n      add\n        /* \"#utility.yul\":9194:9244   */\n      tag_492\n      jump\t// in\n    tag_566:\n        /* \"#utility.yul\":9184:9244   */\n      swap6\n      pop\n        /* \"#utility.yul\":9297:9299   */\n      0x40\n        /* \"#utility.yul\":9286:9295   */\n      dup9\n        /* \"#utility.yul\":9282:9300   */\n      add\n        /* \"#utility.yul\":9269:9301   */\n      calldataload\n        /* \"#utility.yul\":9253:9301   */\n      swap2\n      pop\n        /* \"#utility.yul\":9326:9328   */\n      dup1\n        /* \"#utility.yul\":9316:9324   */\n      dup3\n        /* \"#utility.yul\":9313:9329   */\n      gt\n        /* \"#utility.yul\":9310:9346   */\n      iszero\n      tag_567\n      jumpi\n        /* \"#utility.yul\":9342:9343   */\n      0x00\n        /* \"#utility.yul\":9339:9340   */\n      dup1\n        /* \"#utility.yul\":9332:9344   */\n      revert\n        /* \"#utility.yul\":9310:9346   */\n    tag_567:\n        /* \"#utility.yul\":9365:9417   */\n      tag_568\n        /* \"#utility.yul\":9409:9416   */\n      dup10\n        /* \"#utility.yul\":9398:9406   */\n      dup4\n        /* \"#utility.yul\":9387:9396   */\n      dup11\n        /* \"#utility.yul\":9383:9407   */\n      add\n        /* \"#utility.yul\":9365:9417   */\n      tag_492\n      jump\t// in\n    tag_568:\n        /* \"#utility.yul\":9355:9417   */\n      swap5\n      pop\n        /* \"#utility.yul\":9470:9472   */\n      0x60\n        /* \"#utility.yul\":9459:9468   */\n      dup9\n        /* \"#utility.yul\":9455:9473   */\n      add\n        /* \"#utility.yul\":9442:9474   */\n      calldataload\n        /* \"#utility.yul\":9426:9474   */\n      swap2\n      pop\n        /* \"#utility.yul\":9499:9501   */\n      dup1\n        /* \"#utility.yul\":9489:9497   */\n      dup3\n        /* \"#utility.yul\":9486:9502   */\n      gt\n        /* \"#utility.yul\":9483:9519   */\n      iszero\n      tag_569\n      jumpi\n        /* \"#utility.yul\":9515:9516   */\n      0x00\n        /* \"#utility.yul\":9512:9513   */\n      dup1\n        /* \"#utility.yul\":9505:9517   */\n      revert\n        /* \"#utility.yul\":9483:9519   */\n    tag_569:\n      pop\n        /* \"#utility.yul\":9538:9590   */\n      tag_570\n        /* \"#utility.yul\":9582:9589   */\n      dup9\n        /* \"#utility.yul\":9571:9579   */\n      dup3\n        /* \"#utility.yul\":9560:9569   */\n      dup10\n        /* \"#utility.yul\":9556:9580   */\n      add\n        /* \"#utility.yul\":9538:9590   */\n      tag_492\n      jump\t// in\n    tag_570:\n        /* \"#utility.yul\":8767:9648   */\n      swap6\n      swap9\n      swap5\n      swap8\n      pop\n      swap3\n      swap6\n        /* \"#utility.yul\":9637:9640   */\n      0x80\n        /* \"#utility.yul\":9622:9641   */\n      add\n        /* \"#utility.yul\":9609:9642   */\n      calldataload\n      swap4\n        /* \"#utility.yul\":8767:9648   */\n      swap3\n      pop\n      pop\n      pop\n      jump\t// out\n        /* \"#utility.yul\":9653:10033   */\n    tag_181:\n        /* \"#utility.yul\":9732:9733   */\n      0x01\n        /* \"#utility.yul\":9728:9740   */\n      dup2\n      dup2\n      shr\n      swap1\n        /* \"#utility.yul\":9775:9787   */\n      dup3\n      and\n      dup1\n        /* \"#utility.yul\":9796:9857   */\n      tag_572\n      jumpi\n        /* \"#utility.yul\":9850:9854   */\n      0x7f\n        /* \"#utility.yul\":9842:9848   */\n      dup3\n        /* \"#utility.yul\":9838:9855   */\n      and\n        /* \"#utility.yul\":9828:9855   */\n      swap2\n      pop\n        /* \"#utility.yul\":9796:9857   */\n    tag_572:\n        /* \"#utility.yul\":9903:9905   */\n      0x20\n        /* \"#utility.yul\":9895:9901   */\n      dup3\n        /* \"#utility.yul\":9892:9906   */\n      lt\n        /* \"#utility.yul\":9872:9890   */\n      dup2\n        /* \"#utility.yul\":9869:9907   */\n      sub\n        /* \"#utility.yul\":9866:10027   */\n      tag_573\n      jumpi\n        /* \"#utility.yul\":9949:9959   */\n      0x4e487b71\n        /* \"#utility.yul\":9944:9947   */\n      0xe0\n        /* \"#utility.yul\":9940:9960   */\n      shl\n        /* \"#utility.yul\":9937:9938   */\n      0x00\n        /* \"#utility.yul\":9930:9961   */\n      mstore\n        /* \"#utility.yul\":9984:9988   */\n      0x22\n        /* \"#utility.yul\":9981:9982   */\n      0x04\n        /* \"#utility.yul\":9974:9989   */\n      mstore\n        /* \"#utility.yul\":10012:10016   */\n      0x24\n        /* \"#utility.yul\":10009:10010   */\n      0x00\n        /* \"#utility.yul\":10002:10017   */\n      revert\n        /* \"#utility.yul\":9866:10027   */\n    tag_573:\n      pop\n        /* \"#utility.yul\":9653:10033   */\n      swap2\n      swap1\n      pop\n      jump\t// out\n        /* \"#utility.yul\":10038:10452   */\n    tag_204:\n        /* \"#utility.yul\":10240:10242   */\n      0x20\n        /* \"#utility.yul\":10222:10243   */\n      dup1\n      dup3\n      mstore\n        /* \"#utility.yul\":10279:10281   */\n      0x32\n        /* \"#utility.yul\":10259:10277   */\n      swap1\n      dup3\n      add\n        /* \"#utility.yul\":10252:10282   */\n      mstore\n        /* \"#utility.yul\":10318:10352   */\n      0x596f7520617265206e6f7420617574686f72697a656420746f20657865637574\n        /* \"#utility.yul\":10313:10315   */\n      0x40\n        /* \"#utility.yul\":10298:10316   */\n      dup3\n      add\n        /* \"#utility.yul\":10291:10353   */\n      mstore\n      shl(0x71, 0x32903a3434b9903a3930b739b0b1ba34b7b7)\n        /* \"#utility.yul\":10384:10386   */\n      0x60\n        /* \"#utility.yul\":10369:10387   */\n      dup3\n      add\n        /* \"#utility.yul\":10362:10410   */\n      mstore\n        /* \"#utility.yul\":10442:10445   */\n      0x80\n        /* \"#utility.yul\":10427:10446   */\n      add\n      swap1\n        /* \"#utility.yul\":10038:10452   */\n      jump\t// out\n        /* \"#utility.yul\":11415:11960   */\n    tag_494:\n        /* \"#utility.yul\":11517:11519   */\n      0x1f\n        /* \"#utility.yul\":11512:11515   */\n      dup3\n        /* \"#utility.yul\":11509:11520   */\n      gt\n        /* \"#utility.yul\":11506:11954   */\n      iszero\n      tag_579\n      jumpi\n        /* \"#utility.yul\":11553:11554   */\n      0x00\n        /* \"#utility.yul\":11578:11583   */\n      dup2\n        /* \"#utility.yul\":11574:11576   */\n      dup2\n        /* \"#utility.yul\":11567:11584   */\n      mstore\n        /* \"#utility.yul\":11623:11627   */\n      0x20\n        /* \"#utility.yul\":11619:11621   */\n      dup2\n        /* \"#utility.yul\":11609:11628   */\n      keccak256\n        /* \"#utility.yul\":11693:11695   */\n      0x1f\n        /* \"#utility.yul\":11681:11691   */\n      dup6\n        /* \"#utility.yul\":11677:11696   */\n      add\n        /* \"#utility.yul\":11674:11675   */\n      0x05\n        /* \"#utility.yul\":11670:11697   */\n      shr\n        /* \"#utility.yul\":11664:11668   */\n      dup2\n        /* \"#utility.yul\":11660:11698   */\n      add\n        /* \"#utility.yul\":11729:11733   */\n      0x20\n        /* \"#utility.yul\":11717:11727   */\n      dup7\n        /* \"#utility.yul\":11714:11734   */\n      lt\n        /* \"#utility.yul\":11711:11758   */\n      iszero\n      tag_580\n      jumpi\n      pop\n        /* \"#utility.yul\":11752:11756   */\n      dup1\n        /* \"#utility.yul\":11711:11758   */\n    tag_580:\n        /* \"#utility.yul\":11807:11809   */\n      0x1f\n        /* \"#utility.yul\":11802:11805   */\n      dup6\n        /* \"#utility.yul\":11798:11810   */\n      add\n        /* \"#utility.yul\":11795:11796   */\n      0x05\n        /* \"#utility.yul\":11791:11811   */\n      shr\n        /* \"#utility.yul\":11785:11789   */\n      dup3\n        /* \"#utility.yul\":11781:11812   */\n      add\n        /* \"#utility.yul\":11771:11812   */\n      swap2\n      pop\n        /* \"#utility.yul\":11862:11944   */\n    tag_581:\n        /* \"#utility.yul\":11880:11882   */\n      dup2\n        /* \"#utility.yul\":11873:11878   */\n      dup2\n        /* \"#utility.yul\":11870:11883   */\n      lt\n        /* \"#utility.yul\":11862:11944   */\n      iszero\n      tag_583\n      jumpi\n        /* \"#utility.yul\":11925:11942   */\n      dup3\n      dup2\n      sstore\n        /* \"#utility.yul\":11906:11907   */\n      0x01\n        /* \"#utility.yul\":11895:11908   */\n      add\n        /* \"#utility.yul\":11862:11944   */\n      jump(tag_581)\n    tag_583:\n        /* \"#utility.yul\":11866:11869   */\n      pop\n      pop\n      pop\n        /* \"#utility.yul\":11506:11954   */\n    tag_579:\n        /* \"#utility.yul\":11415:11960   */\n      pop\n      pop\n      pop\n      jump\t// out\n        /* \"#utility.yul\":12136:13571   */\n    tag_213:\n        /* \"#utility.yul\":12255:12258   */\n      dup2\n        /* \"#utility.yul\":12249:12253   */\n      dup2\n        /* \"#utility.yul\":12246:12259   */\n      sub\n        /* \"#utility.yul\":12243:12269   */\n      tag_586\n      jumpi\n        /* \"#utility.yul\":12262:12267   */\n      pop\n      pop\n        /* \"#utility.yul\":12136:13571   */\n      jump\t// out\n        /* \"#utility.yul\":12243:12269   */\n    tag_586:\n        /* \"#utility.yul\":12292:12329   */\n      tag_587\n        /* \"#utility.yul\":12324:12327   */\n      dup3\n        /* \"#utility.yul\":12318:12328   */\n      sload\n        /* \"#utility.yul\":12292:12329   */\n      tag_181\n      jump\t// in\n    tag_587:\n        /* \"#utility.yul\":12352:12370   */\n      0xffffffffffffffff\n        /* \"#utility.yul\":12344:12350   */\n      dup2\n        /* \"#utility.yul\":12341:12371   */\n      gt\n        /* \"#utility.yul\":12338:12394   */\n      iszero\n      tag_589\n      jumpi\n        /* \"#utility.yul\":12374:12392   */\n      tag_589\n      tag_491\n      jump\t// in\n    tag_589:\n        /* \"#utility.yul\":12403:12500   */\n      tag_590\n        /* \"#utility.yul\":12493:12499   */\n      dup2\n        /* \"#utility.yul\":12453:12491   */\n      tag_591\n        /* \"#utility.yul\":12485:12489   */\n      dup5\n        /* \"#utility.yul\":12479:12490   */\n      sload\n        /* \"#utility.yul\":12453:12491   */\n      tag_181\n      jump\t// in\n    tag_591:\n        /* \"#utility.yul\":12447:12451   */\n      dup5\n        /* \"#utility.yul\":12403:12500   */\n      tag_494\n      jump\t// in\n    tag_590:\n        /* \"#utility.yul\":12526:12527   */\n      0x00\n        /* \"#utility.yul\":12554:12556   */\n      0x1f\n        /* \"#utility.yul\":12546:12552   */\n      dup3\n        /* \"#utility.yul\":12543:12557   */\n      gt\n        /* \"#utility.yul\":12571:12572   */\n      0x01\n        /* \"#utility.yul\":12566:13314   */\n      dup2\n      eq\n      tag_593\n      jumpi\n        /* \"#utility.yul\":13358:13359   */\n      0x00\n        /* \"#utility.yul\":13375:13381   */\n      dup4\n        /* \"#utility.yul\":13372:13461   */\n      iszero\n      tag_594\n      jumpi\n      pop\n        /* \"#utility.yul\":13427:13446   */\n      dup5\n      dup3\n      add\n        /* \"#utility.yul\":13421:13447   */\n      sload\n        /* \"#utility.yul\":13372:13461   */\n    tag_594:\n      not(0x00)\n        /* \"#utility.yul\":12093:12094   */\n      0x03\n        /* \"#utility.yul\":12089:12100   */\n      dup6\n      swap1\n      shl\n        /* \"#utility.yul\":12085:12109   */\n      shr\n        /* \"#utility.yul\":12081:12110   */\n      not\n        /* \"#utility.yul\":12071:12111   */\n      and\n        /* \"#utility.yul\":12117:12118   */\n      0x01\n        /* \"#utility.yul\":12113:12124   */\n      dup5\n      swap1\n      shl\n        /* \"#utility.yul\":12068:12125   */\n      or\n        /* \"#utility.yul\":13474:13555   */\n      dup5\n      sstore\n        /* \"#utility.yul\":12536:13565   */\n      jump(tag_592)\n        /* \"#utility.yul\":12566:13314   */\n    tag_593:\n        /* \"#utility.yul\":11362:11363   */\n      0x00\n        /* \"#utility.yul\":11355:11369   */\n      dup6\n      dup2\n      mstore\n        /* \"#utility.yul\":11399:11403   */\n      0x20\n        /* \"#utility.yul\":11386:11404   */\n      swap1\n      keccak256\n      not(0x1f)\n        /* \"#utility.yul\":12602:12622   */\n      dup5\n      and\n      swap1\n        /* \"#utility.yul\":11362:11363   */\n      0x00\n        /* \"#utility.yul\":11355:11369   */\n      dup7\n      dup2\n      mstore\n        /* \"#utility.yul\":11399:11403   */\n      0x20\n        /* \"#utility.yul\":11386:11404   */\n      swap1\n      keccak256\n        /* \"#utility.yul\":12766:12775   */\n      dup5\n        /* \"#utility.yul\":12788:13039   */\n    tag_598:\n        /* \"#utility.yul\":12802:12809   */\n      dup4\n        /* \"#utility.yul\":12799:12800   */\n      dup2\n        /* \"#utility.yul\":12796:12810   */\n      lt\n        /* \"#utility.yul\":12788:13039   */\n      iszero\n      tag_600\n      jumpi\n        /* \"#utility.yul\":12884:12905   */\n      dup3\n      dup7\n      add\n        /* \"#utility.yul\":12878:12906   */\n      sload\n        /* \"#utility.yul\":12863:12907   */\n      dup3\n      sstore\n        /* \"#utility.yul\":12934:12935   */\n      0x01\n        /* \"#utility.yul\":13007:13025   */\n      swap6\n      dup7\n      add\n      swap6\n        /* \"#utility.yul\":12962:12977   */\n      swap1\n      swap2\n      add\n      swap1\n        /* \"#utility.yul\":12825:12829   */\n      0x20\n        /* \"#utility.yul\":12818:12830   */\n      add\n        /* \"#utility.yul\":12788:13039   */\n      jump(tag_598)\n    tag_600:\n        /* \"#utility.yul\":12792:12795   */\n      pop\n        /* \"#utility.yul\":13067:13073   */\n      dup6\n        /* \"#utility.yul\":13058:13065   */\n      dup4\n        /* \"#utility.yul\":13055:13074   */\n      lt\n        /* \"#utility.yul\":13052:13255   */\n      iszero\n      tag_601\n      jumpi\n        /* \"#utility.yul\":13128:13149   */\n      dup2\n      dup6\n      add\n        /* \"#utility.yul\":13122:13150   */\n      sload\n      not(0x00)\n        /* \"#utility.yul\":13213:13214   */\n      0x03\n        /* \"#utility.yul\":13209:13223   */\n      dup9\n      swap1\n      shl\n        /* \"#utility.yul\":13225:13228   */\n      0xf8\n        /* \"#utility.yul\":13205:13229   */\n      and\n        /* \"#utility.yul\":13201:13238   */\n      shr\n        /* \"#utility.yul\":13197:13239   */\n      not\n        /* \"#utility.yul\":13182:13240   */\n      and\n        /* \"#utility.yul\":13167:13241   */\n      dup2\n      sstore\n        /* \"#utility.yul\":13052:13255   */\n    tag_601:\n      pop\n      pop\n      pop\n        /* \"#utility.yul\":13301:13302   */\n      0x01\n        /* \"#utility.yul\":13292:13298   */\n      dup4\n        /* \"#utility.yul\":13289:13290   */\n      0x01\n        /* \"#utility.yul\":13285:13299   */\n      shl\n        /* \"#utility.yul\":13281:13303   */\n      add\n        /* \"#utility.yul\":13275:13279   */\n      dup5\n        /* \"#utility.yul\":13268:13304   */\n      sstore\n        /* \"#utility.yul\":12536:13565   */\n    tag_592:\n      pop\n      pop\n      pop\n        /* \"#utility.yul\":12136:13571   */\n      pop\n      pop\n      jump\t// out\n        /* \"#utility.yul\":13576:13703   */\n    tag_496:\n        /* \"#utility.yul\":13637:13647   */\n      0x4e487b71\n        /* \"#utility.yul\":13632:13635   */\n      0xe0\n        /* \"#utility.yul\":13628:13648   */\n      shl\n        /* \"#utility.yul\":13625:13626   */\n      0x00\n        /* \"#utility.yul\":13618:13649   */\n      mstore\n        /* \"#utility.yul\":13668:13672   */\n      0x11\n        /* \"#utility.yul\":13665:13666   */\n      0x04\n        /* \"#utility.yul\":13658:13673   */\n      mstore\n        /* \"#utility.yul\":13692:13696   */\n      0x24\n        /* \"#utility.yul\":13689:13690   */\n      0x00\n        /* \"#utility.yul\":13682:13697   */\n      revert\n        /* \"#utility.yul\":13708:13836   */\n    tag_217:\n        /* \"#utility.yul\":13775:13784   */\n      dup2\n      dup2\n      sub\n        /* \"#utility.yul\":13796:13807   */\n      dup2\n      dup2\n      gt\n        /* \"#utility.yul\":13793:13830   */\n      iszero\n      tag_605\n      jumpi\n        /* \"#utility.yul\":13810:13828   */\n      tag_605\n      tag_496\n      jump\t// in\n    tag_605:\n        /* \"#utility.yul\":13708:13836   */\n      swap3\n      swap2\n      pop\n      pop\n      jump\t// out\n        /* \"#utility.yul\":13841:13966   */\n    tag_219:\n        /* \"#utility.yul\":13906:13915   */\n      dup1\n      dup3\n      add\n        /* \"#utility.yul\":13927:13937   */\n      dup1\n      dup3\n      gt\n        /* \"#utility.yul\":13924:13960   */\n      iszero\n      tag_605\n      jumpi\n        /* \"#utility.yul\":13940:13958   */\n      tag_605\n      tag_496\n      jump\t// in\n        /* \"#utility.yul\":15560:16332   */\n    tag_497:\n        /* \"#utility.yul\":15610:15613   */\n      0x00\n        /* \"#utility.yul\":15651:15656   */\n      dup2\n        /* \"#utility.yul\":15645:15657   */\n      sload\n        /* \"#utility.yul\":15680:15716   */\n      tag_614\n        /* \"#utility.yul\":15706:15715   */\n      dup2\n        /* \"#utility.yul\":15680:15716   */\n      tag_181\n      jump\t// in\n    tag_614:\n        /* \"#utility.yul\":15725:15744   */\n      dup1\n      dup6\n      mstore\n        /* \"#utility.yul\":15763:15767   */\n      0x20\n        /* \"#utility.yul\":15786:15787   */\n      0x01\n        /* \"#utility.yul\":15803:15821   */\n      dup4\n      dup2\n      and\n        /* \"#utility.yul\":15830:15976   */\n      dup1\n      iszero\n      tag_616\n      jumpi\n        /* \"#utility.yul\":15990:15991   */\n      0x01\n        /* \"#utility.yul\":15985:16326   */\n      dup2\n      eq\n      tag_617\n      jumpi\n        /* \"#utility.yul\":15796:16326   */\n      jump(tag_615)\n        /* \"#utility.yul\":15830:15976   */\n    tag_616:\n      not(0xff)\n        /* \"#utility.yul\":15872:15896   */\n      dup6\n      and\n        /* \"#utility.yul\":15858:15870   */\n      dup9\n      dup5\n      add\n        /* \"#utility.yul\":15851:15897   */\n      mstore\n        /* \"#utility.yul\":15944:15958   */\n      dup4\n      iszero\n        /* \"#utility.yul\":15937:15959   */\n      iszero\n        /* \"#utility.yul\":15934:15935   */\n      0x05\n        /* \"#utility.yul\":15930:15960   */\n      shl\n        /* \"#utility.yul\":15921:15961   */\n      dup9\n      add\n        /* \"#utility.yul\":15917:15966   */\n      dup4\n      add\n      swap6\n      pop\n        /* \"#utility.yul\":15830:15976   */\n      jump(tag_615)\n        /* \"#utility.yul\":15985:16326   */\n    tag_617:\n        /* \"#utility.yul\":16016:16021   */\n      dup7\n        /* \"#utility.yul\":16013:16014   */\n      0x00\n        /* \"#utility.yul\":16006:16022   */\n      mstore\n        /* \"#utility.yul\":16063:16065   */\n      dup3\n        /* \"#utility.yul\":16060:16061   */\n      0x00\n        /* \"#utility.yul\":16050:16066   */\n      keccak256\n        /* \"#utility.yul\":16088:16089   */\n      0x00\n        /* \"#utility.yul\":16102:16276   */\n    tag_618:\n        /* \"#utility.yul\":16116:16122   */\n      dup6\n        /* \"#utility.yul\":16113:16114   */\n      dup2\n        /* \"#utility.yul\":16110:16123   */\n      lt\n        /* \"#utility.yul\":16102:16276   */\n      iszero\n      tag_620\n      jumpi\n        /* \"#utility.yul\":16203:16217   */\n      dup2\n      sload\n        /* \"#utility.yul\":16185:16196   */\n      dup11\n      dup3\n      add\n        /* \"#utility.yul\":16181:16201   */\n      dup7\n      add\n        /* \"#utility.yul\":16174:16218   */\n      mstore\n        /* \"#utility.yul\":16246:16262   */\n      swap1\n      dup4\n      add\n      swap1\n        /* \"#utility.yul\":16131:16141   */\n      dup5\n      add\n        /* \"#utility.yul\":16102:16276   */\n      jump(tag_618)\n    tag_620:\n        /* \"#utility.yul\":16300:16311   */\n      dup10\n      add\n        /* \"#utility.yul\":16296:16316   */\n      dup5\n      add\n      swap7\n      pop\n      pop\n        /* \"#utility.yul\":15796:16326   */\n    tag_615:\n      pop\n      pop\n      pop\n      pop\n      pop\n        /* \"#utility.yul\":15560:16332   */\n      swap3\n      swap2\n      pop\n      pop\n      jump\t// out\n        /* \"#utility.yul\":16337:16967   */\n    tag_249:\n        /* \"#utility.yul\":16612:16614   */\n      0x60\n        /* \"#utility.yul\":16601:16610   */\n      dup2\n        /* \"#utility.yul\":16594:16615   */\n      mstore\n        /* \"#utility.yul\":16651:16653   */\n      0x2d\n        /* \"#utility.yul\":16646:16648   */\n      0x60\n        /* \"#utility.yul\":16635:16644   */\n      dup3\n        /* \"#utility.yul\":16631:16649   */\n      add\n        /* \"#utility.yul\":16624:16654   */\n      mstore\n        /* \"#utility.yul\":16691:16725   */\n      0x53656c6c65722067657473205665726966696564206279204c616e6420496e73\n        /* \"#utility.yul\":16685:16688   */\n      0x80\n        /* \"#utility.yul\":16674:16683   */\n      dup3\n        /* \"#utility.yul\":16670:16689   */\n      add\n        /* \"#utility.yul\":16663:16726   */\n      mstore\n      shl(0x9d, 0x03832b1ba37b9103bb4ba341d1)\n        /* \"#utility.yul\":16757:16760   */\n      0xa0\n        /* \"#utility.yul\":16746:16755   */\n      dup3\n        /* \"#utility.yul\":16742:16761   */\n      add\n        /* \"#utility.yul\":16735:16779   */\n      mstore\n        /* \"#utility.yul\":16817:16820   */\n      0xc0\n        /* \"#utility.yul\":16810:16814   */\n      0x20\n        /* \"#utility.yul\":16799:16808   */\n      dup3\n        /* \"#utility.yul\":16795:16815   */\n      add\n        /* \"#utility.yul\":16788:16821   */\n      mstore\n        /* \"#utility.yul\":16575:16579   */\n      0x00\n        /* \"#utility.yul\":16838:16892   */\n      tag_622\n        /* \"#utility.yul\":16887:16890   */\n      0xc0\n        /* \"#utility.yul\":16876:16885   */\n      dup4\n        /* \"#utility.yul\":16872:16891   */\n      add\n        /* \"#utility.yul\":16864:16870   */\n      dup6\n        /* \"#utility.yul\":16838:16892   */\n      tag_497\n      jump\t// in\n    tag_622:\n        /* \"#utility.yul\":16830:16892   */\n      swap1\n      pop\n        /* \"#utility.yul\":16957:16958   */\n      0x01\n        /* \"#utility.yul\":16953:16954   */\n      dup1\n        /* \"#utility.yul\":16948:16951   */\n      0xa0\n        /* \"#utility.yul\":16944:16955   */\n      shl\n        /* \"#utility.yul\":16940:16959   */\n      sub\n        /* \"#utility.yul\":16932:16938   */\n      dup4\n        /* \"#utility.yul\":16928:16960   */\n      and\n        /* \"#utility.yul\":16923:16925   */\n      0x40\n        /* \"#utility.yul\":16912:16921   */\n      dup4\n        /* \"#utility.yul\":16908:16926   */\n      add\n        /* \"#utility.yul\":16901:16961   */\n      mstore\n        /* \"#utility.yul\":16337:16967   */\n      swap4\n      swap3\n      pop\n      pop\n      pop\n      jump\t// out\n        /* \"#utility.yul\":17374:17779   */\n    tag_277:\n        /* \"#utility.yul\":17576:17578   */\n      0x20\n        /* \"#utility.yul\":17558:17579   */\n      dup1\n      dup3\n      mstore\n        /* \"#utility.yul\":17615:17617   */\n      0x29\n        /* \"#utility.yul\":17595:17613   */\n      swap1\n      dup3\n      add\n        /* \"#utility.yul\":17588:17618   */\n      mstore\n        /* \"#utility.yul\":17654:17688   */\n      0x496e73706563746f722069732072656769737465726564207769746820746869\n        /* \"#utility.yul\":17649:17651   */\n      0x40\n        /* \"#utility.yul\":17634:17652   */\n      dup3\n      add\n        /* \"#utility.yul\":17627:17689   */\n      mstore\n      shl(0xb8, 0x732041646472657373)\n        /* \"#utility.yul\":17720:17722   */\n      0x60\n        /* \"#utility.yul\":17705:17723   */\n      dup3\n      add\n        /* \"#utility.yul\":17698:17737   */\n      mstore\n        /* \"#utility.yul\":17769:17772   */\n      0x80\n        /* \"#utility.yul\":17754:17773   */\n      add\n      swap1\n        /* \"#utility.yul\":17374:17779   */\n      jump\t// out\n        /* \"#utility.yul\":17784:18191   */\n    tag_280:\n        /* \"#utility.yul\":17986:17988   */\n      0x20\n        /* \"#utility.yul\":17968:17989   */\n      dup1\n      dup3\n      mstore\n        /* \"#utility.yul\":18025:18027   */\n      0x2b\n        /* \"#utility.yul\":18005:18023   */\n      swap1\n      dup3\n      add\n        /* \"#utility.yul\":17998:18028   */\n      mstore\n        /* \"#utility.yul\":18064:18098   */\n      0x53656c6c657220616c7265616479204578697374732077697468207468652073\n        /* \"#utility.yul\":18059:18061   */\n      0x40\n        /* \"#utility.yul\":18044:18062   */\n      dup3\n      add\n        /* \"#utility.yul\":18037:18099   */\n      mstore\n      shl(0xa8, 0x616d652061646472657373)\n        /* \"#utility.yul\":18130:18132   */\n      0x60\n        /* \"#utility.yul\":18115:18133   */\n      dup3\n      add\n        /* \"#utility.yul\":18108:18149   */\n      mstore\n        /* \"#utility.yul\":18181:18184   */\n      0x80\n        /* \"#utility.yul\":18166:18185   */\n      add\n      swap1\n        /* \"#utility.yul\":17784:18191   */\n      jump\t// out\n        /* \"#utility.yul\":19320:20672   */\n    tag_291:\n        /* \"#utility.yul\":19446:19449   */\n      dup2\n        /* \"#utility.yul\":19440:19450   */\n      mload\n        /* \"#utility.yul\":19473:19491   */\n      0xffffffffffffffff\n        /* \"#utility.yul\":19465:19471   */\n      dup2\n        /* \"#utility.yul\":19462:19492   */\n      gt\n        /* \"#utility.yul\":19459:19515   */\n      iszero\n      tag_631\n      jumpi\n        /* \"#utility.yul\":19495:19513   */\n      tag_631\n      tag_491\n      jump\t// in\n    tag_631:\n        /* \"#utility.yul\":19524:19621   */\n      tag_632\n        /* \"#utility.yul\":19614:19620   */\n      dup2\n        /* \"#utility.yul\":19574:19612   */\n      tag_591\n        /* \"#utility.yul\":19606:19610   */\n      dup5\n        /* \"#utility.yul\":19600:19611   */\n      sload\n        /* \"#utility.yul\":19574:19612   */\n      tag_181\n      jump\t// in\n        /* \"#utility.yul\":19524:19621   */\n    tag_632:\n        /* \"#utility.yul\":19676:19680   */\n      0x20\n      dup1\n        /* \"#utility.yul\":19740:19742   */\n      0x1f\n        /* \"#utility.yul\":19729:19743   */\n      dup4\n      gt\n        /* \"#utility.yul\":19757:19758   */\n      0x01\n        /* \"#utility.yul\":19752:20415   */\n      dup2\n      eq\n      tag_635\n      jumpi\n        /* \"#utility.yul\":20459:20460   */\n      0x00\n        /* \"#utility.yul\":20476:20482   */\n      dup5\n        /* \"#utility.yul\":20473:20562   */\n      iszero\n      tag_636\n      jumpi\n      pop\n        /* \"#utility.yul\":20528:20547   */\n      dup6\n      dup4\n      add\n        /* \"#utility.yul\":20522:20548   */\n      mload\n        /* \"#utility.yul\":20473:20562   */\n    tag_636:\n      not(0x00)\n        /* \"#utility.yul\":12093:12094   */\n      0x03\n        /* \"#utility.yul\":12089:12100   */\n      dup7\n      swap1\n      shl\n        /* \"#utility.yul\":12085:12109   */\n      shr\n        /* \"#utility.yul\":12081:12110   */\n      not\n        /* \"#utility.yul\":12071:12111   */\n      and\n        /* \"#utility.yul\":12117:12118   */\n      0x01\n        /* \"#utility.yul\":12113:12124   */\n      dup6\n      swap1\n      shl\n        /* \"#utility.yul\":12068:12125   */\n      or\n        /* \"#utility.yul\":20575:20656   */\n      dup6\n      sstore\n        /* \"#utility.yul\":19722:20666   */\n      jump(tag_583)\n        /* \"#utility.yul\":19752:20415   */\n    tag_635:\n        /* \"#utility.yul\":11362:11363   */\n      0x00\n        /* \"#utility.yul\":11355:11369   */\n      dup6\n      dup2\n      mstore\n        /* \"#utility.yul\":11399:11403   */\n      0x20\n        /* \"#utility.yul\":11386:11404   */\n      dup2\n      keccak256\n      not(0x1f)\n        /* \"#utility.yul\":19788:19808   */\n      dup7\n      and\n      swap2\n        /* \"#utility.yul\":19906:20142   */\n    tag_639:\n        /* \"#utility.yul\":19920:19927   */\n      dup3\n        /* \"#utility.yul\":19917:19918   */\n      dup2\n        /* \"#utility.yul\":19914:19928   */\n      lt\n        /* \"#utility.yul\":19906:20142   */\n      iszero\n      tag_641\n      jumpi\n        /* \"#utility.yul\":20009:20028   */\n      dup9\n      dup7\n      add\n        /* \"#utility.yul\":20003:20029   */\n      mload\n        /* \"#utility.yul\":19988:20030   */\n      dup3\n      sstore\n        /* \"#utility.yul\":20101:20128   */\n      swap5\n      dup5\n      add\n      swap5\n        /* \"#utility.yul\":20069:20070   */\n      0x01\n        /* \"#utility.yul\":20057:20071   */\n      swap1\n      swap2\n      add\n      swap1\n        /* \"#utility.yul\":19936:19955   */\n      dup5\n      add\n        /* \"#utility.yul\":19906:20142   */\n      jump(tag_639)\n    tag_641:\n        /* \"#utility.yul\":19910:19913   */\n      pop\n        /* \"#utility.yul\":20170:20176   */\n      dup6\n        /* \"#utility.yul\":20161:20168   */\n      dup3\n        /* \"#utility.yul\":20158:20177   */\n      lt\n        /* \"#utility.yul\":20155:20356   */\n      iszero\n      tag_642\n      jumpi\n        /* \"#utility.yul\":20231:20250   */\n      dup8\n      dup6\n      add\n        /* \"#utility.yul\":20225:20251   */\n      mload\n      not(0x00)\n        /* \"#utility.yul\":20314:20315   */\n      0x03\n        /* \"#utility.yul\":20310:20324   */\n      dup9\n      swap1\n      shl\n        /* \"#utility.yul\":20326:20329   */\n      0xf8\n        /* \"#utility.yul\":20306:20330   */\n      and\n        /* \"#utility.yul\":20302:20339   */\n      shr\n        /* \"#utility.yul\":20298:20340   */\n      not\n        /* \"#utility.yul\":20283:20341   */\n      and\n        /* \"#utility.yul\":20268:20342   */\n      dup2\n      sstore\n        /* \"#utility.yul\":20155:20356   */\n    tag_642:\n      pop\n      pop\n      pop\n      pop\n      pop\n        /* \"#utility.yul\":20402:20403   */\n      0x01\n        /* \"#utility.yul\":20386:20400   */\n      swap1\n      dup2\n      shl\n        /* \"#utility.yul\":20382:20404   */\n      add\n        /* \"#utility.yul\":20369:20405   */\n      swap1\n      sstore\n      pop\n        /* \"#utility.yul\":19320:20672   */\n      jump\t// out\n        /* \"#utility.yul\":20677:21236   */\n    tag_296:\n        /* \"#utility.yul\":20955:20957   */\n      0x60\n        /* \"#utility.yul\":20944:20953   */\n      dup2\n        /* \"#utility.yul\":20937:20958   */\n      mstore\n        /* \"#utility.yul\":20994:20996   */\n      0x13\n        /* \"#utility.yul\":20989:20991   */\n      0x60\n        /* \"#utility.yul\":20978:20987   */\n      dup3\n        /* \"#utility.yul\":20974:20992   */\n      add\n        /* \"#utility.yul\":20967:20997   */\n      mstore\n      shl(0x6d, 0x029b2b63632b9102932b3b4b9ba32b932b21d1)\n        /* \"#utility.yul\":21028:21031   */\n      0x80\n        /* \"#utility.yul\":21017:21026   */\n      dup3\n        /* \"#utility.yul\":21013:21032   */\n      add\n        /* \"#utility.yul\":21006:21056   */\n      mstore\n        /* \"#utility.yul\":21094:21097   */\n      0xa0\n        /* \"#utility.yul\":21087:21091   */\n      0x20\n        /* \"#utility.yul\":21076:21085   */\n      dup3\n        /* \"#utility.yul\":21072:21092   */\n      add\n        /* \"#utility.yul\":21065:21098   */\n      mstore\n        /* \"#utility.yul\":20918:20922   */\n      0x00\n        /* \"#utility.yul\":21115:21161   */\n      tag_622\n        /* \"#utility.yul\":21156:21159   */\n      0xa0\n        /* \"#utility.yul\":21145:21154   */\n      dup4\n        /* \"#utility.yul\":21141:21160   */\n      add\n        /* \"#utility.yul\":21133:21139   */\n      dup6\n        /* \"#utility.yul\":21115:21161   */\n      tag_489\n      jump\t// in\n        /* \"#utility.yul\":21992:22393   */\n    tag_306:\n        /* \"#utility.yul\":22194:22196   */\n      0x20\n        /* \"#utility.yul\":22176:22197   */\n      dup1\n      dup3\n      mstore\n        /* \"#utility.yul\":22233:22235   */\n      0x25\n        /* \"#utility.yul\":22213:22231   */\n      swap1\n      dup3\n      add\n        /* \"#utility.yul\":22206:22236   */\n      mstore\n        /* \"#utility.yul\":22272:22306   */\n      0x53656c6c6572206e6f74207665726966696564206279206c616e6420696e7370\n        /* \"#utility.yul\":22267:22269   */\n      0x40\n        /* \"#utility.yul\":22252:22270   */\n      dup3\n      add\n        /* \"#utility.yul\":22245:22307   */\n      mstore\n      shl(0xd9, 0x32b1ba37b9)\n        /* \"#utility.yul\":22338:22340   */\n      0x60\n        /* \"#utility.yul\":22323:22341   */\n      dup3\n      add\n        /* \"#utility.yul\":22316:22351   */\n      mstore\n        /* \"#utility.yul\":22383:22386   */\n      0x80\n        /* \"#utility.yul\":22368:22387   */\n      add\n      swap1\n        /* \"#utility.yul\":21992:22393   */\n      jump\t// out\n        /* \"#utility.yul\":23164:23736   */\n    tag_317:\n        /* \"#utility.yul\":23439:23441   */\n      0x60\n        /* \"#utility.yul\":23428:23437   */\n      dup2\n        /* \"#utility.yul\":23421:23442   */\n      mstore\n        /* \"#utility.yul\":23478:23480   */\n      0x1b\n        /* \"#utility.yul\":23473:23475   */\n      0x60\n        /* \"#utility.yul\":23462:23471   */\n      dup3\n        /* \"#utility.yul\":23458:23476   */\n      add\n        /* \"#utility.yul\":23451:23481   */\n      mstore\n        /* \"#utility.yul\":23518:23547   */\n      0x4f776e657273686970206973207472616e7366657272656420746f0000000000\n        /* \"#utility.yul\":23512:23515   */\n      0x80\n        /* \"#utility.yul\":23501:23510   */\n      dup3\n        /* \"#utility.yul\":23497:23516   */\n      add\n        /* \"#utility.yul\":23490:23548   */\n      mstore\n        /* \"#utility.yul\":23586:23589   */\n      0xa0\n        /* \"#utility.yul\":23579:23583   */\n      0x20\n        /* \"#utility.yul\":23568:23577   */\n      dup3\n        /* \"#utility.yul\":23564:23584   */\n      add\n        /* \"#utility.yul\":23557:23590   */\n      mstore\n        /* \"#utility.yul\":23402:23406   */\n      0x00\n        /* \"#utility.yul\":23607:23661   */\n      tag_622\n        /* \"#utility.yul\":23656:23659   */\n      0xa0\n        /* \"#utility.yul\":23645:23654   */\n      dup4\n        /* \"#utility.yul\":23641:23660   */\n      add\n        /* \"#utility.yul\":23633:23639   */\n      dup6\n        /* \"#utility.yul\":23607:23661   */\n      tag_497\n      jump\t// in\n        /* \"#utility.yul\":24448:25004   */\n    tag_329:\n        /* \"#utility.yul\":24726:24728   */\n      0x60\n        /* \"#utility.yul\":24715:24724   */\n      dup2\n        /* \"#utility.yul\":24708:24729   */\n      mstore\n        /* \"#utility.yul\":24765:24767   */\n      0x10\n        /* \"#utility.yul\":24760:24762   */\n      0x60\n        /* \"#utility.yul\":24749:24758   */\n      dup3\n        /* \"#utility.yul\":24745:24763   */\n      add\n        /* \"#utility.yul\":24738:24768   */\n      mstore\n      shl(0x85, 0x029b2b63632b9102ab83230ba32b21d1)\n        /* \"#utility.yul\":24799:24802   */\n      0x80\n        /* \"#utility.yul\":24788:24797   */\n      dup3\n        /* \"#utility.yul\":24784:24803   */\n      add\n        /* \"#utility.yul\":24777:24824   */\n      mstore\n        /* \"#utility.yul\":24862:24865   */\n      0xa0\n        /* \"#utility.yul\":24855:24859   */\n      0x20\n        /* \"#utility.yul\":24844:24853   */\n      dup3\n        /* \"#utility.yul\":24840:24860   */\n      add\n        /* \"#utility.yul\":24833:24866   */\n      mstore\n        /* \"#utility.yul\":24689:24693   */\n      0x00\n        /* \"#utility.yul\":24883:24929   */\n      tag_622\n        /* \"#utility.yul\":24924:24927   */\n      0xa0\n        /* \"#utility.yul\":24913:24922   */\n      dup4\n        /* \"#utility.yul\":24909:24928   */\n      add\n        /* \"#utility.yul\":24901:24907   */\n      dup6\n        /* \"#utility.yul\":24883:24929   */\n      tag_489\n      jump\t// in\n        /* \"#utility.yul\":25427:25985   */\n    tag_347:\n        /* \"#utility.yul\":25705:25707   */\n      0x60\n        /* \"#utility.yul\":25694:25703   */\n      dup2\n        /* \"#utility.yul\":25687:25708   */\n      mstore\n        /* \"#utility.yul\":25744:25746   */\n      0x12\n        /* \"#utility.yul\":25739:25741   */\n      0x60\n        /* \"#utility.yul\":25728:25737   */\n      dup3\n        /* \"#utility.yul\":25724:25742   */\n      add\n        /* \"#utility.yul\":25717:25747   */\n      mstore\n      shl(0x75, 0x0213abcb2b9102932b3b4b9ba32b932b21d1)\n        /* \"#utility.yul\":25778:25781   */\n      0x80\n        /* \"#utility.yul\":25767:25776   */\n      dup3\n        /* \"#utility.yul\":25763:25782   */\n      add\n        /* \"#utility.yul\":25756:25805   */\n      mstore\n        /* \"#utility.yul\":25843:25846   */\n      0xa0\n        /* \"#utility.yul\":25836:25840   */\n      0x20\n        /* \"#utility.yul\":25825:25834   */\n      dup3\n        /* \"#utility.yul\":25821:25841   */\n      add\n        /* \"#utility.yul\":25814:25847   */\n      mstore\n        /* \"#utility.yul\":25668:25672   */\n      0x00\n        /* \"#utility.yul\":25864:25910   */\n      tag_622\n        /* \"#utility.yul\":25905:25908   */\n      0xa0\n        /* \"#utility.yul\":25894:25903   */\n      dup4\n        /* \"#utility.yul\":25890:25909   */\n      add\n        /* \"#utility.yul\":25882:25888   */\n      dup6\n        /* \"#utility.yul\":25864:25910   */\n      tag_489\n      jump\t// in\n        /* \"#utility.yul\":29605:30160   */\n    tag_443:\n        /* \"#utility.yul\":29883:29885   */\n      0x60\n        /* \"#utility.yul\":29872:29881   */\n      dup2\n        /* \"#utility.yul\":29865:29886   */\n      mstore\n        /* \"#utility.yul\":29922:29924   */\n      0x0f\n        /* \"#utility.yul\":29917:29919   */\n      0x60\n        /* \"#utility.yul\":29906:29915   */\n      dup3\n        /* \"#utility.yul\":29902:29920   */\n      add\n        /* \"#utility.yul\":29895:29925   */\n      mstore\n      shl(0x8d, 0x0213abcb2b9102ab83230ba32b21d1)\n        /* \"#utility.yul\":29956:29959   */\n      0x80\n        /* \"#utility.yul\":29945:29954   */\n      dup3\n        /* \"#utility.yul\":29941:29960   */\n      add\n        /* \"#utility.yul\":29934:29980   */\n      mstore\n        /* \"#utility.yul\":30018:30021   */\n      0xa0\n        /* \"#utility.yul\":30011:30015   */\n      0x20\n        /* \"#utility.yul\":30000:30009   */\n      dup3\n        /* \"#utility.yul\":29996:30016   */\n      add\n        /* \"#utility.yul\":29989:30022   */\n      mstore\n        /* \"#utility.yul\":29846:29850   */\n      0x00\n        /* \"#utility.yul\":30039:30085   */\n      tag_622\n        /* \"#utility.yul\":30080:30083   */\n      0xa0\n        /* \"#utility.yul\":30069:30078   */\n      dup4\n        /* \"#utility.yul\":30065:30084   */\n      add\n        /* \"#utility.yul\":30057:30063   */\n      dup6\n        /* \"#utility.yul\":30039:30085   */\n      tag_489\n      jump\t// in\n    stop\n    data_553849f7da1309eea4f5eb803c5cf6a18f6515247b6f42e35bc1a8e177481422 e682a073cb99a4f3efc2d12900fbc67d6fbdf6a8e7279087bd717f0a2621e148\n\n    auxdata: 0xa264697066735822122092999acfc149f3d8a6920b60cfcfd4fca04b31e6a1759e497c5100d3d845f84164736f6c63430008130033\n}\n",
				"bytecode": {
					"linkReferences": {},
					"object": "60806040523480156200001157600080fd5b5060405162003be938038062003be98339810160408190526200003491620001e9565b60008054336001600160a01b0319918216811783556001878155604080516080810182529283526020808401898152848301899052606085018890528a875260069091529420825181549094166001600160a01b0390941693909317835592519092820190620000a59082620002f6565b506040820151600282015560608201516003820190620000c69082620002f6565b50506000546040517fe682a073cb99a4f3efc2d12900fbc67d6fbdf6a8e7279087bd717f0a2621e14892506200010a9186916001600160a01b0390911690620003c2565b60405180910390a1505050506200043c565b634e487b7160e01b600052604160045260246000fd5b60005b838110156200014f57818101518382015260200162000135565b50506000910152565b600082601f8301126200016a57600080fd5b81516001600160401b03808211156200018757620001876200011c565b604051601f8301601f19908116603f01168101908282118183101715620001b257620001b26200011c565b81604052838152866020858801011115620001cc57600080fd5b620001df84602083016020890162000132565b9695505050505050565b600080600080608085870312156200020057600080fd5b845160208601519094506001600160401b03808211156200022057600080fd5b6200022e8883890162000158565b94506040870151935060608701519150808211156200024c57600080fd5b506200025b8782880162000158565b91505092959194509250565b600181811c908216806200027c57607f821691505b6020821081036200029d57634e487b7160e01b600052602260045260246000fd5b50919050565b601f821115620002f157600081815260208120601f850160051c81016020861015620002cc5750805b601f850160051c820191505b81811015620002ed57828155600101620002d8565b5050505b505050565b81516001600160401b038111156200031257620003126200011c565b6200032a8162000323845462000267565b84620002a3565b602080601f831160018114620003625760008415620003495750858301515b600019600386901b1c1916600185901b178555620002ed565b600085815260208120601f198616915b82811015620003935788860151825594840194600190910190840162000372565b5085821015620003b25787850151600019600388901b60f8161c191681555b5050505050600190811b01905550565b60608152601660608201527f496e73706563746f7220526567697374657265643a2000000000000000000000608082015260a06020820152600083518060a0840152620004178160c085016020880162000132565b6001600160a01b0393909316604083015250601f91909101601f19160160c001919050565b61379d806200044c6000396000f3fe6080604052600436106101c25760003560e01c80637ed11e62116100f7578063d1760e6011610095578063e43bf1f411610064578063e43bf1f4146105d2578063e9db0fcc146105f2578063ed2cee9e14610612578063f9c43bdf1461062757600080fd5b8063d1760e6014610542578063dd4d181f14610562578063dec091ad14610582578063def936c3146105a257600080fd5b8063985e2b57116100d1578063985e2b5714610497578063ab517074146104b7578063bf68808d146104e9578063c798ff7d1461052257600080fd5b80637ed11e62146104345780638a733aa71461044757806396c331bb1461047757600080fd5b806352959ea2116101645780636d3f4b7a1161013e5780636d3f4b7a1461039b578063727c04c8146103b157806376aa67e3146103e45780637c46e8511461041457600080fd5b806352959ea2146103075780636814800b14610343578063696f8c571461036357600080fd5b806332be894b116101a057806332be894b146102475780633923a853146102875780633abd0136146102c35780634dcb280e146102d957600080fd5b80631d8de063146101c7578063226897b5146101f05780632658d9ac14610225575b600080fd5b3480156101d357600080fd5b506101dd60025481565b6040519081526020015b60405180910390f35b3480156101fc57600080fd5b5061021061020b366004612c72565b610647565b6040516101e799989796959493929190612cd1565b34801561023157600080fd5b50610245610240366004612d73565b6108c3565b005b34801561025357600080fd5b50610277610262366004612c72565b600b6020526000908152604090205460ff1681565b60405190151581526020016101e7565b34801561029357600080fd5b506102776102a2366004612d73565b6001600160a01b031660009081526007602052604090206005015460ff1690565b3480156102cf57600080fd5b506101dd60045481565b3480156102e557600080fd5b506102f96102f4366004612c72565b610b97565b6040516101e7929190612d97565b34801561031357600080fd5b50610277610322366004612d73565b6001600160a01b031660009081526008602052604090206005015460ff1690565b34801561034f57600080fd5b5061024561035e366004612d73565b610c5a565b34801561036f57600080fd5b50600054610383906001600160a01b031681565b6040516001600160a01b0390911681526020016101e7565b3480156103a757600080fd5b506101dd60035481565b3480156103bd57600080fd5b506103d16103cc366004612c72565b610eb7565b6040516101e79796959493929190612dc3565b3480156103f057600080fd5b506102776103ff366004612d73565b600a6020526000908152604090205460ff1681565b34801561042057600080fd5b5061024561042f366004612edd565b6111b7565b610245610442366004612f8a565b611469565b34801561045357600080fd5b50610277610462366004612d73565b60096020526000908152604090205460ff1681565b34801561048357600080fd5b50610245610492366004612fba565b611727565b3480156104a357600080fd5b506102456104b2366004612edd565b6118c1565b3480156104c357600080fd5b506104d76104d2366004612d73565b611b6a565b6040516101e796959493929190613056565b3480156104f557600080fd5b50610277610504366004612c72565b60009081526005602081905260409091200154610100900460ff1690565b34801561052e57600080fd5b5061024561053d366004612f8a565b611d39565b34801561054e57600080fd5b5061024561055d366004612d73565b611f23565b34801561056e57600080fd5b5061024561057d366004612d73565b61211a565b34801561058e57600080fd5b506104d761059d366004612d73565b6123a3565b3480156105ae57600080fd5b506105c26105bd366004612c72565b6123be565b6040516101e794939291906130b1565b3480156105de57600080fd5b506102456105ed366004612fba565b612501565b3480156105fe57600080fd5b5061024561060d3660046130f8565b61268c565b34801561061e57600080fd5b506102f961299c565b34801561063357600080fd5b50610245610642366004612c72565b612a7a565b6005602052600090815260409020805460018201805491929161066990613192565b80601f016020809104026020016040519081016040528092919081815260200182805461069590613192565b80156106e25780601f106106b7576101008083540402835291602001916106e2565b820191906000526020600020905b8154815290600101906020018083116106c557829003601f168201915b5050505050908060020180546106f790613192565b80601f016020809104026020016040519081016040528092919081815260200182805461072390613192565b80156107705780601f1061074557610100808354040283529160200191610770565b820191906000526020600020905b81548152906001019060200180831161075357829003601f168201915b50505050509080600301805461078590613192565b80601f01602080910402602001604051908101604052809291908181526020018280546107b190613192565b80156107fe5780601f106107d3576101008083540402835291602001916107fe565b820191906000526020600020905b8154815290600101906020018083116107e157829003601f168201915b50505050600483015460058401546006850180549495929460ff808416955061010084041693620100009093046001600160a01b031692919061084090613192565b80601f016020809104026020016040519081016040528092919081815260200182805461086c90613192565b80156108b95780601f1061088e576101008083540402835291602001916108b9565b820191906000526020600020905b81548152906001019060200180831161089c57829003601f168201915b5050505050905089565b6000546001600160a01b031633146108f65760405162461bcd60e51b81526004016108ed906131cc565b60405180910390fd5b6001600160a01b03811660009081526009602052604090205460ff16151560011461097e5760405162461bcd60e51b815260206004820152603260248201527f53656c6c6572206973206e6f7420726567697374657265642077697468207468604482015271652070726f7669646564204164647265737360701b60648201526084016108ed565b6001600160a01b03811660009081526007602052604090206005015460ff161515600114610a035760405162461bcd60e51b815260206004820152602c60248201527f53656c6c6572206973206e6f7420766572696669656420627920746865204c6160448201526b37321024b739b832b1ba37b960a11b60648201526084016108ed565b6001600160a01b0381166000908152600760209081526040808320600890925290912090610a31908261326d565b506001600160a01b038116600090815260076020908152604080832060018082015460089094529190932090810191909155600290810191610a7491018261326d565b506001600160a01b038116600090815260076020908152604080832060038082015460089094529190932090810191909155600490810191610ab791018261326d565b506001600160a01b0381166000908152600860209081526040808320600501805460ff19908116909155600a83528184208054821660019081179091556009909352908320805490911690556003805491929091610b16908490613364565b92505081905550600160046000828254610b30919061337d565b90915550506001600160a01b038116600090815260076020526040812090610b588282612c1c565b6001820160009055600282016000610b709190612c1c565b6003820160009055600482016000610b889190612c1c565b50600501805460ff1916905550565b6000818152600560208190526040822090810154600690910180546060926201000090046001600160a01b031691908190610bd190613192565b80601f0160208091040260200160405190810160405280929190818152602001828054610bfd90613192565b8015610c4a5780601f10610c1f57610100808354040283529160200191610c4a565b820191906000526020600020905b815481529060010190602001808311610c2d57829003601f168201915b5050505050905091509150915091565b6000546001600160a01b03163314610c845760405162461bcd60e51b81526004016108ed906131cc565b6001600160a01b0381166000908152600a602052604090205460ff161515600114610d085760405162461bcd60e51b815260206004820152602e60248201527f42757965722077697468207468652070726f766964656420416464726573732060448201526d191bd95cc81b9bdd08115e1a5cdd60921b60648201526084016108ed565b6001600160a01b03811660009081526009602052604090205460ff1615610d805760405162461bcd60e51b815260206004820152602660248201527f53656c6c6572206973207265676973746572656420776974682074686973204160448201526564647265737360d01b60648201526084016108ed565b6001600160a01b03811660009081526007602052604090206003015415610de25760405162461bcd60e51b8152602060048201526016602482015275546869732069732053656c6c6572204164647265737360501b60448201526064016108ed565b6001600160a01b03811660009081526008602052604090206005015460ff1615610e665760405162461bcd60e51b815260206004820152602f60248201527f427579657220776974682070726f76696465642061646472657373206973206160448201526e1b1c9958591e481d995c9a599a5959608a1b60648201526084016108ed565b6001600160a01b0381166000908152600860205260409081902060058101805460ff19166001179055905160008051602061374883398151915291610eac91849061340d565b60405180910390a150565b600081815260056020526040812054606090819081908490819083908203610f2b5760405162461bcd60e51b815260206004820152602160248201527f4c616e64207769746820676976656e20494420646f6573206e6f7420657869736044820152601d60fa1b60648201526084016108ed565b6000888152600560208190526040909120805460048201549282015460018301805492949093600281019360038201936201000090046001600160a01b031691600601908690610f7a90613192565b80601f0160208091040260200160405190810160405280929190818152602001828054610fa690613192565b8015610ff35780601f10610fc857610100808354040283529160200191610ff3565b820191906000526020600020905b815481529060010190602001808311610fd657829003601f168201915b5050505050955084805461100690613192565b80601f016020809104026020016040519081016040528092919081815260200182805461103290613192565b801561107f5780601f106110545761010080835404028352916020019161107f565b820191906000526020600020905b81548152906001019060200180831161106257829003601f168201915b5050505050945083805461109290613192565b80601f01602080910402602001604051908101604052809291908181526020018280546110be90613192565b801561110b5780601f106110e05761010080835404028352916020019161110b565b820191906000526020600020905b8154815290600101906020018083116110ee57829003601f168201915b5050505050935080805461111e90613192565b80601f016020809104026020016040519081016040528092919081815260200182805461114a90613192565b80156111975780601f1061116c57610100808354040283529160200191611197565b820191906000526020600020905b81548152906001019060200180831161117a57829003601f168201915b505050505090509650965096509650965096509650919395979092949650565b6000546001600160a01b03908116908716036111e55760405162461bcd60e51b81526004016108ed90613481565b6001600160a01b03861660009081526009602052604090205460ff161561121e5760405162461bcd60e51b81526004016108ed906134ca565b6001600160a01b0386166000908152600a602052604090205460ff161561129a5760405162461bcd60e51b815260206004820152602a60248201527f427579657220616c7265616479204578697374732077697468207468652073616044820152696d65206164647265737360b01b60648201526084016108ed565b6001600160a01b03861660009081526007602090815260408083206003908101546008909352922090910154036113135760405162461bcd60e51b815260206004820152601b60248201527f427579657220776974682073616d6520434e494320657869737473000000000060448201526064016108ed565b6001600160a01b03861660009081526007602052604090206003015482900361137e5760405162461bcd60e51b815260206004820152601c60248201527f53656c6c657220776974682073616d6520434e4943206578697374730000000060448201526064016108ed565b6001600160a01b03861660009081526007602052604090206113a08682613515565b506001600160a01b0386166000908152600760205260409020600181018590556002016113cd8482613515565b506001600160a01b0386166000908152600760205260409020600381018390556004016113fa8282613515565b506001600160a01b0386166000908152600960205260408120805460ff19166001908117909155600380549192909161143490849061337d565b90915550506040516000805160206137488339815191529061145990879089906135cf565b60405180910390a1505050505050565b3360009081526008602052604090206005015460ff1615156001146114dc5760405162461bcd60e51b8152602060048201526024808201527f4275796572206e6f74207665726966696564206279206c616e6420696e73706560448201526331ba37b960e11b60648201526084016108ed565b6000828152600560208190526040909120015460ff16156115335760405162461bcd60e51b815260206004820152601160248201527013185b9908185b1c9958591e481cdbdb19607a1b60448201526064016108ed565b60008281526005602081815260408084208301546001600160a01b03620100009091041684526007909152909120015460ff1615156001146115875760405162461bcd60e51b81526004016108ed9061360c565b6000828152600560208190526040909120015460ff6101009091041615156001146115ec5760405162461bcd60e51b81526020600482015260156024820152742630b7321034b9903737ba102b32b934b334b2b21760591b60448201526064016108ed565b60008281526005602052604090206004015434146116645760405162461bcd60e51b815260206004820152602f60248201527f4c616e64205072696365206973206e6f74206d61746368696e6720776974682060448201526e1d1a19481cd95b9d08185b5bdd5b9d608a1b60648201526084016108ed565b6040516001600160a01b038216903480156108fc02916000818181858888f19350505050158015611699573d6000803e3d6000fd5b5060008281526005602081815260408084208084018054620100003390810261ff01600160b01b03199092169190911760011790915585526008835290842093869052919052600601906116ed908261326d565b50336000818152600860205260409081902090516000805160206137488339815191529261171b9291613651565b60405180910390a15050565b3360009081526009602052604090205460ff16151560011461178b5760405162461bcd60e51b815260206004820152601960248201527f53656c6c6572206973206e6f7420526567697374657265642e0000000000000060448201526064016108ed565b3360009081526007602052604081206003015490036117ec5760405162461bcd60e51b815260206004820152601860248201527f53656c6c6572206973206e6f742072656769737465726564000000000000000060448201526064016108ed565b6040805160c08101825286815260208082018790528183018690526060820185905260808201849052600060a08301819052338152600790915291909120815181906118389082613515565b5060208201516001820155604082015160028201906118579082613515565b5060608201516003820155608082015160048201906118769082613515565b5060a091909101516005909101805460ff1916911515919091179055604051600080516020613748833981519152906118b29087903390613698565b60405180910390a15050505050565b6000546001600160a01b03908116908716036118ef5760405162461bcd60e51b81526004016108ed90613481565b6001600160a01b0386166000908152600a602052604090205460ff16156119725760405162461bcd60e51b815260206004820152603160248201527f427579657220697320616c726561647920726567697374657265642077697468604482015270207468652073616d65206164647265737360781b60648201526084016108ed565b6001600160a01b03861660009081526009602052604090205460ff16156119ab5760405162461bcd60e51b81526004016108ed906134ca565b6001600160a01b0386166000908152600760209081526040808320600390810154600890935292209091015403611a245760405162461bcd60e51b815260206004820152601c60248201527f53656c6c657220776974682073616d6520434e4943206578697374730000000060448201526064016108ed565b6001600160a01b038616600090815260086020526040902060030154829003611a8f5760405162461bcd60e51b815260206004820152601b60248201527f427579657220776974682073616d6520434e494320657869737473000000000060448201526064016108ed565b6001600160a01b0386166000908152600860205260409020611ab18682613515565b506001600160a01b038616600090815260086020526040902060018101859055600201611ade8482613515565b506001600160a01b038616600090815260086020526040902060038101839055600401611b0b8282613515565b506001600160a01b0386166000908152600a60205260408120805460ff191660019081179091556004805491929091611b4590849061337d565b90915550506040516000805160206137488339815191529061145990879089906136d2565b600860205260009081526040902080548190611b8590613192565b80601f0160208091040260200160405190810160405280929190818152602001828054611bb190613192565b8015611bfe5780601f10611bd357610100808354040283529160200191611bfe565b820191906000526020600020905b815481529060010190602001808311611be157829003601f168201915b505050505090806001015490806002018054611c1990613192565b80601f0160208091040260200160405190810160405280929190818152602001828054611c4590613192565b8015611c925780601f10611c6757610100808354040283529160200191611c92565b820191906000526020600020905b815481529060010190602001808311611c7557829003601f168201915b505050505090806003015490806004018054611cad90613192565b80601f0160208091040260200160405190810160405280929190818152602001828054611cd990613192565b8015611d265780601f10611cfb57610100808354040283529160200191611d26565b820191906000526020600020905b815481529060010190602001808311611d0957829003601f168201915b5050506005909301549192505060ff1686565b60008281526005602081815260408084208301546001600160a01b03620100009091041684526007909152909120015460ff161515600114611d8d5760405162461bcd60e51b81526004016108ed9061360c565b6000828152600560208190526040909120015460ff1615611e0a5760405162461bcd60e51b815260206004820152603160248201527f4c616e6420697320736f6c642c20736f2063616e2774207472616e73666572206044820152703a379030b737ba3432b91039b2b63632b960791b60648201526084016108ed565b600082815260056020819052604090912001546201000090046001600160a01b03163314611e935760405162461bcd60e51b815260206004820152603060248201527f4f6e6c79204c616e64204f776e657220697320616c6c6f77656420746f20747260448201526f0616e73666572204f776e6572736869760841b60648201526084016108ed565b6000828152600560208181526040808420808401805462010000600160b01b031916620100006001600160a01b038916908102919091179091558552600783529084209386905291905260060190611eeb908261326d565b506001600160a01b0381166000908152600760205260409081902090516000805160206137488339815191529161171b918490613651565b6000546001600160a01b03163314611f4d5760405162461bcd60e51b81526004016108ed906131cc565b6001600160a01b03811660009081526009602052604090205460ff161515600114611fd25760405162461bcd60e51b815260206004820152602f60248201527f53656c6c65722077697468207468652070726f7669646564204164647265737360448201526e08191bd95cc81b9bdd08115e1a5cdd608a1b60648201526084016108ed565b6001600160a01b03811660009081526007602052604090206005015460ff16156120585760405162461bcd60e51b815260206004820152603160248201527f53656c6c65722073776974682070726f7669646564206164647265737320697360448201527008185b1c9958591e481d995c9a599a5959607a1b60648201526084016108ed565b6001600160a01b0381166000908152600a602052604090205460ff16156120d45760405162461bcd60e51b815260206004820152602a60248201527f427579657220776974682070726f7669646564206164647265737320616c726560448201526930b23c9032bc34b9ba1760b11b60648201526084016108ed565b6001600160a01b0381166000908152600760205260409081902060058101805460ff19166001179055905160008051602061374883398151915291610eac91849061340d565b6000546001600160a01b031633146121445760405162461bcd60e51b81526004016108ed906131cc565b6001600160a01b0381166000908152600a602052604090205460ff1615156001146121cb5760405162461bcd60e51b815260206004820152603160248201527f4275796572206973206e6f7420726567697374657265642077697468207468656044820152702070726f7669646564204164647265737360781b60648201526084016108ed565b6001600160a01b03811660009081526008602052604090206005015460ff16151560011461224f5760405162461bcd60e51b815260206004820152602b60248201527f4275796572206973206e6f7420766572696669656420627920746865204c616e60448201526a321024b739b832b1ba37b960a91b60648201526084016108ed565b6001600160a01b038116600090815260086020908152604080832060079092529091209061227d908261326d565b506001600160a01b0381166000908152600860209081526040808320600180820154600790945291909320908101919091556002908101916122c091018261326d565b506001600160a01b03811660009081526008602090815260408083206003808201546007909452919093209081019190915560049081019161230391018261326d565b506001600160a01b0381166000908152600760209081526040808320600501805460ff19908116909155600a83528184208054821690556009909252822080549091166001908117909155600380549192909161236190849061337d565b9250508190555060016004600082825461237b9190613364565b90915550506001600160a01b038116600090815260086020526040812090610b588282612c1c565b600760205260009081526040902080548190611b8590613192565b600660205260009081526040902080546001820180546001600160a01b0390921692916123ea90613192565b80601f016020809104026020016040519081016040528092919081815260200182805461241690613192565b80156124635780601f1061243857610100808354040283529160200191612463565b820191906000526020600020905b81548152906001019060200180831161244657829003601f168201915b50505050509080600201549080600301805461247e90613192565b80601f01602080910402602001604051908101604052809291908181526020018280546124aa90613192565b80156124f75780601f106124cc576101008083540402835291602001916124f7565b820191906000526020600020905b8154815290600101906020018083116124da57829003601f168201915b5050505050905084565b336000908152600a602052604090205460ff1615156001146125655760405162461bcd60e51b815260206004820152601860248201527f4275796572206973206e6f7420526567697374657265642e000000000000000060448201526064016108ed565b3360009081526008602052604081206003015490036125c65760405162461bcd60e51b815260206004820152601760248201527f4275796572206973206e6f74207265676973746572656400000000000000000060448201526064016108ed565b6040805160c08101825286815260208082018790528183018690526060820185905260808201849052600060a08301819052338152600890915291909120815181906126129082613515565b5060208201516001820155604082015160028201906126319082613515565b5060608201516003820155608082015160048201906126509082613515565b5060a091909101516005909101805460ff1916911515919091179055604051600080516020613748833981519152906118b2908790339061370e565b3360009081526009602052604090205460ff1615156001146127095760405162461bcd60e51b815260206004820152603060248201527f53656c6c6572206973206e6f7420726567697374657265642c20736f2063616e60448201526f09dd081c9959da5cdd195c881b185b9960821b60648201526084016108ed565b3360009081526007602052604090206005015460ff1615156001146127855760405162461bcd60e51b815260206004820152602c60248201527f53656c6c6572206973206e6f7420766572696669656420627920746865206c6160448201526b37321034b739b832b1ba37b960a11b60648201526084016108ed565b6000858152600b602052604090205460ff16156127f85760405162461bcd60e51b815260206004820152602b60248201527f4c616e6420697320616c7265616479205265676973746572656420776974682060448201526a1d1a19481cd85b59481a5960aa1b60648201526084016108ed565b6000546001600160a01b031633036128605760405162461bcd60e51b815260206004820152602560248201527f4c616e642063616e206f6e6c792062652072656769737465726564206279207360448201526432b63632b960d91b60648201526084016108ed565b600085815260056020526040902085815560010161287e8582613515565b50600085815260056020526040902060020161289a8482613515565b5060008581526005602052604090206003016128b68382613515565b50600085815260056020818152604080842060048101869055808401805462010000600160b01b0319163362010000810291909117909155855260078352908420938990529190526006019061290c908261326d565b506000858152600b60205260408120805460ff19166001908117909155600280549192909161293c90849061337d565b9091555050604080518181526011918101919091527002630b732102932b3b4b9ba32b932b21d1607d1b6060820152602081018690527fe5f0e14de14b66d6262ef8ac911c347dc802a85ecec178cd931841b9db32bd91906080016118b2565b600180546000908152600660205260408120549181527f3e5fec24aa4dc4e5aee2e025e51e1392c72a2500577559fae9665c6d52bd6a32805491926060926001600160a01b03909116919081906129f290613192565b80601f0160208091040260200160405190810160405280929190818152602001828054612a1e90613192565b8015612a6b5780601f10612a4057610100808354040283529160200191612a6b565b820191906000526020600020905b815481529060010190602001808311612a4e57829003601f168201915b50505050509050915091509091565b6000546001600160a01b03163314612aa45760405162461bcd60e51b81526004016108ed906131cc565b6000818152600b602052604090205460ff161515600114612b185760405162461bcd60e51b815260206004820152602860248201527f4c616e6420646f6573206e6f742065786974732077697468207468652070726f6044820152671d9a591959081a5960c21b60648201526084016108ed565b60008181526005602081905260409091200154610100900460ff1615612b805760405162461bcd60e51b815260206004820152601860248201527f4c616e6420697320616c7265616479207665726966696564000000000000000060448201526064016108ed565b60008181526005602081905260409182902001805461ff001916610100179055517fe5f0e14de14b66d6262ef8ac911c347dc802a85ecec178cd931841b9db32bd9190610eac9083906040808252602b908201527f4c616e64206973207665726966696564206279206c616e64496e73706563746f60608201526a039103bb4ba341034b21d160ad1b6080820152602081019190915260a00190565b508054612c2890613192565b6000825580601f10612c38575050565b601f016020900490600052602060002090810190612c569190612c59565b50565b5b80821115612c6e5760008155600101612c5a565b5090565b600060208284031215612c8457600080fd5b5035919050565b6000815180845260005b81811015612cb157602081850181015186830182015201612c95565b506000602082860101526020601f19601f83011685010191505092915050565b60006101208b8352806020840152612ceb8184018c612c8b565b90508281036040840152612cff818b612c8b565b90508281036060840152612d13818a612c8b565b6080840189905287151560a085015286151560c08501526001600160a01b03861660e08501528381036101008501529050612d4e8185612c8b565b9c9b505050505050505050505050565b6001600160a01b0381168114612c5657600080fd5b600060208284031215612d8557600080fd5b8135612d9081612d5e565b9392505050565b6001600160a01b0383168152604060208201819052600090612dbb90830184612c8b565b949350505050565b87815260e060208201526000612ddc60e0830189612c8b565b8281036040840152612dee8189612c8b565b90508281036060840152612e028188612c8b565b608084018790526001600160a01b03861660a085015283810360c08501529050612e2c8185612c8b565b9a9950505050505050505050565b634e487b7160e01b600052604160045260246000fd5b600082601f830112612e6157600080fd5b813567ffffffffffffffff80821115612e7c57612e7c612e3a565b604051601f8301601f19908116603f01168101908282118183101715612ea457612ea4612e3a565b81604052838152866020858801011115612ebd57600080fd5b836020870160208301376000602085830101528094505050505092915050565b60008060008060008060c08789031215612ef657600080fd5b8635612f0181612d5e565b9550602087013567ffffffffffffffff80821115612f1e57600080fd5b612f2a8a838b01612e50565b9650604089013595506060890135915080821115612f4757600080fd5b612f538a838b01612e50565b94506080890135935060a0890135915080821115612f7057600080fd5b50612f7d89828a01612e50565b9150509295509295509295565b60008060408385031215612f9d57600080fd5b823591506020830135612faf81612d5e565b809150509250929050565b600080600080600060a08688031215612fd257600080fd5b853567ffffffffffffffff80821115612fea57600080fd5b612ff689838a01612e50565b965060208801359550604088013591508082111561301357600080fd5b61301f89838a01612e50565b945060608801359350608088013591508082111561303c57600080fd5b5061304988828901612e50565b9150509295509295909350565b60c08152600061306960c0830189612c8b565b87602084015282810360408401526130818188612c8b565b9050856060840152828103608084015261309b8186612c8b565b91505082151560a0830152979650505050505050565b6001600160a01b03851681526080602082018190526000906130d590830186612c8b565b84604084015282810360608401526130ed8185612c8b565b979650505050505050565b600080600080600060a0868803121561311057600080fd5b85359450602086013567ffffffffffffffff8082111561312f57600080fd5b61313b89838a01612e50565b9550604088013591508082111561315157600080fd5b61315d89838a01612e50565b9450606088013591508082111561317357600080fd5b5061318088828901612e50565b95989497509295608001359392505050565b600181811c908216806131a657607f821691505b6020821081036131c657634e487b7160e01b600052602260045260246000fd5b50919050565b60208082526032908201527f596f7520617265206e6f7420617574686f72697a656420746f2065786563757460408201527132903a3434b9903a3930b739b0b1ba34b7b760711b606082015260800190565b601f82111561326857600081815260208120601f850160051c810160208610156132455750805b601f850160051c820191505b8181101561326457828155600101613251565b5050505b505050565b818103613278575050565b6132828254613192565b67ffffffffffffffff81111561329a5761329a612e3a565b6132ae816132a88454613192565b8461321e565b6000601f8211600181146132e257600083156132ca5750848201545b600019600385901b1c1916600184901b178455613347565b600085815260209020601f19841690600086815260209020845b8381101561331c57828601548255600195860195909101906020016132fc565b508583101561333a5781850154600019600388901b60f8161c191681555b50505060018360011b0184555b5050505050565b634e487b7160e01b600052601160045260246000fd5b818103818111156133775761337761334e565b92915050565b808201808211156133775761337761334e565b6000815461339d81613192565b8085526020600183811680156133ba57600181146133d457613402565b60ff1985168884015283151560051b880183019550613402565b866000528260002060005b858110156133fa5781548a82018601529083019084016133df565b890184019650505b505050505092915050565b60608152602d60608201527f53656c6c65722067657473205665726966696564206279204c616e6420496e7360808201526c03832b1ba37b9103bb4ba341d1609d1b60a082015260c06020820152600061346a60c0830185613390565b905060018060a01b03831660408301529392505050565b60208082526029908201527f496e73706563746f72206973207265676973746572656420776974682074686960408201526873204164647265737360b81b606082015260800190565b6020808252602b908201527f53656c6c657220616c726561647920457869737473207769746820746865207360408201526a616d65206164647265737360a81b606082015260800190565b815167ffffffffffffffff81111561352f5761352f612e3a565b61353d816132a88454613192565b602080601f831160018114613572576000841561355a5750858301515b600019600386901b1c1916600185901b178555613264565b600085815260208120601f198616915b828110156135a157888601518255948401946001909101908401613582565b50858210156135bf5787850151600019600388901b60f8161c191681555b5050505050600190811b01905550565b606081526013606082015272029b2b63632b9102932b3b4b9ba32b932b21d1606d1b608082015260a06020820152600061346a60a0830185612c8b565b60208082526025908201527f53656c6c6572206e6f74207665726966696564206279206c616e6420696e737060408201526432b1ba37b960d91b606082015260800190565b60608152601b60608201527f4f776e657273686970206973207472616e7366657272656420746f0000000000608082015260a06020820152600061346a60a0830185613390565b60608152601060608201526f029b2b63632b9102ab83230ba32b21d160851b608082015260a06020820152600061346a60a0830185612c8b565b6060815260126060820152710213abcb2b9102932b3b4b9ba32b932b21d160751b608082015260a06020820152600061346a60a0830185612c8b565b60608152600f60608201526e0213abcb2b9102ab83230ba32b21d1608d1b608082015260a06020820152600061346a60a0830185612c8b56fee682a073cb99a4f3efc2d12900fbc67d6fbdf6a8e7279087bd717f0a2621e148a264697066735822122092999acfc149f3d8a6920b60cfcfd4fca04b31e6a1759e497c5100d3d845f84164736f6c63430008130033",
					"opcodes": "PUSH1 0x80 PUSH1 0x40 MSTORE CALLVALUE DUP1 ISZERO PUSH3 0x11 JUMPI PUSH1 0x0 DUP1 REVERT JUMPDEST POP PUSH1 0x40 MLOAD PUSH3 0x3BE9 CODESIZE SUB DUP1 PUSH3 0x3BE9 DUP4 CODECOPY DUP2 ADD PUSH1 0x40 DUP2 SWAP1 MSTORE PUSH3 0x34 SWAP2 PUSH3 0x1E9 JUMP JUMPDEST PUSH1 0x0 DUP1 SLOAD CALLER PUSH1 0x1 PUSH1 0x1 PUSH1 0xA0 SHL SUB NOT SWAP2 DUP3 AND DUP2 OR DUP4 SSTORE PUSH1 0x1 DUP8 DUP2 SSTORE PUSH1 0x40 DUP1 MLOAD PUSH1 0x80 DUP2 ADD DUP3 MSTORE SWAP3 DUP4 MSTORE PUSH1 0x20 DUP1 DUP5 ADD DUP10 DUP2 MSTORE DUP5 DUP4 ADD DUP10 SWAP1 MSTORE PUSH1 0x60 DUP6 ADD DUP9 SWAP1 MSTORE DUP11 DUP8 MSTORE PUSH1 0x6 SWAP1 SWAP2 MSTORE SWAP5 KECCAK256 DUP3 MLOAD DUP2 SLOAD SWAP1 SWAP5 AND PUSH1 0x1 PUSH1 0x1 PUSH1 0xA0 SHL SUB SWAP1 SWAP5 AND SWAP4 SWAP1 SWAP4 OR DUP4 SSTORE SWAP3 MLOAD SWAP1 SWAP3 DUP3 ADD SWAP1 PUSH3 0xA5 SWAP1 DUP3 PUSH3 0x2F6 JUMP JUMPDEST POP PUSH1 0x40 DUP3 ADD MLOAD PUSH1 0x2 DUP3 ADD SSTORE PUSH1 0x60 DUP3 ADD MLOAD PUSH1 0x3 DUP3 ADD SWAP1 PUSH3 0xC6 SWAP1 DUP3 PUSH3 0x2F6 JUMP JUMPDEST POP POP PUSH1 0x0 SLOAD PUSH1 0x40 MLOAD PUSH32 0xE682A073CB99A4F3EFC2D12900FBC67D6FBDF6A8E7279087BD717F0A2621E148 SWAP3 POP PUSH3 0x10A SWAP2 DUP7 SWAP2 PUSH1 0x1 PUSH1 0x1 PUSH1 0xA0 SHL SUB SWAP1 SWAP2 AND SWAP1 PUSH3 0x3C2 JUMP JUMPDEST PUSH1 0x40 MLOAD DUP1 SWAP2 SUB SWAP1 LOG1 POP POP POP POP PUSH3 0x43C JUMP JUMPDEST PUSH4 0x4E487B71 PUSH1 0xE0 SHL PUSH1 0x0 MSTORE PUSH1 0x41 PUSH1 0x4 MSTORE PUSH1 0x24 PUSH1 0x0 REVERT JUMPDEST PUSH1 0x0 JUMPDEST DUP4 DUP2 LT ISZERO PUSH3 0x14F JUMPI DUP2 DUP2 ADD MLOAD DUP4 DUP3 ADD MSTORE PUSH1 0x20 ADD PUSH3 0x135 JUMP JUMPDEST POP POP PUSH1 0x0 SWAP2 ADD MSTORE JUMP JUMPDEST PUSH1 0x0 DUP3 PUSH1 0x1F DUP4 ADD SLT PUSH3 0x16A JUMPI PUSH1 0x0 DUP1 REVERT JUMPDEST DUP2 MLOAD PUSH1 0x1 PUSH1 0x1 PUSH1 0x40 SHL SUB DUP1 DUP3 GT ISZERO PUSH3 0x187 JUMPI PUSH3 0x187 PUSH3 0x11C JUMP JUMPDEST PUSH1 0x40 MLOAD PUSH1 0x1F DUP4 ADD PUSH1 0x1F NOT SWAP1 DUP2 AND PUSH1 0x3F ADD AND DUP2 ADD SWAP1 DUP3 DUP3 GT DUP2 DUP4 LT OR ISZERO PUSH3 0x1B2 JUMPI PUSH3 0x1B2 PUSH3 0x11C JUMP JUMPDEST DUP2 PUSH1 0x40 MSTORE DUP4 DUP2 MSTORE DUP7 PUSH1 0x20 DUP6 DUP9 ADD ADD GT ISZERO PUSH3 0x1CC JUMPI PUSH1 0x0 DUP1 REVERT JUMPDEST PUSH3 0x1DF DUP5 PUSH1 0x20 DUP4 ADD PUSH1 0x20 DUP10 ADD PUSH3 0x132 JUMP JUMPDEST SWAP7 SWAP6 POP POP POP POP POP POP JUMP JUMPDEST PUSH1 0x0 DUP1 PUSH1 0x0 DUP1 PUSH1 0x80 DUP6 DUP8 SUB SLT ISZERO PUSH3 0x200 JUMPI PUSH1 0x0 DUP1 REVERT JUMPDEST DUP5 MLOAD PUSH1 0x20 DUP7 ADD MLOAD SWAP1 SWAP5 POP PUSH1 0x1 PUSH1 0x1 PUSH1 0x40 SHL SUB DUP1 DUP3 GT ISZERO PUSH3 0x220 JUMPI PUSH1 0x0 DUP1 REVERT JUMPDEST PUSH3 0x22E DUP9 DUP4 DUP10 ADD PUSH3 0x158 JUMP JUMPDEST SWAP5 POP PUSH1 0x40 DUP8 ADD MLOAD SWAP4 POP PUSH1 0x60 DUP8 ADD MLOAD SWAP2 POP DUP1 DUP3 GT ISZERO PUSH3 0x24C JUMPI PUSH1 0x0 DUP1 REVERT JUMPDEST POP PUSH3 0x25B DUP8 DUP3 DUP9 ADD PUSH3 0x158 JUMP JUMPDEST SWAP2 POP POP SWAP3 SWAP6 SWAP2 SWAP5 POP SWAP3 POP JUMP JUMPDEST PUSH1 0x1 DUP2 DUP2 SHR SWAP1 DUP3 AND DUP1 PUSH3 0x27C JUMPI PUSH1 0x7F DUP3 AND SWAP2 POP JUMPDEST PUSH1 0x20 DUP3 LT DUP2 SUB PUSH3 0x29D JUMPI PUSH4 0x4E487B71 PUSH1 0xE0 SHL PUSH1 0x0 MSTORE PUSH1 0x22 PUSH1 0x4 MSTORE PUSH1 0x24 PUSH1 0x0 REVERT JUMPDEST POP SWAP2 SWAP1 POP JUMP JUMPDEST PUSH1 0x1F DUP3 GT ISZERO PUSH3 0x2F1 JUMPI PUSH1 0x0 DUP2 DUP2 MSTORE PUSH1 0x20 DUP2 KECCAK256 PUSH1 0x1F DUP6 ADD PUSH1 0x5 SHR DUP2 ADD PUSH1 0x20 DUP7 LT ISZERO PUSH3 0x2CC JUMPI POP DUP1 JUMPDEST PUSH1 0x1F DUP6 ADD PUSH1 0x5 SHR DUP3 ADD SWAP2 POP JUMPDEST DUP2 DUP2 LT ISZERO PUSH3 0x2ED JUMPI DUP3 DUP2 SSTORE PUSH1 0x1 ADD PUSH3 0x2D8 JUMP JUMPDEST POP POP POP JUMPDEST POP POP POP JUMP JUMPDEST DUP2 MLOAD PUSH1 0x1 PUSH1 0x1 PUSH1 0x40 SHL SUB DUP2 GT ISZERO PUSH3 0x312 JUMPI PUSH3 0x312 PUSH3 0x11C JUMP JUMPDEST PUSH3 0x32A DUP2 PUSH3 0x323 DUP5 SLOAD PUSH3 0x267 JUMP JUMPDEST DUP5 PUSH3 0x2A3 JUMP JUMPDEST PUSH1 0x20 DUP1 PUSH1 0x1F DUP4 GT PUSH1 0x1 DUP2 EQ PUSH3 0x362 JUMPI PUSH1 0x0 DUP5 ISZERO PUSH3 0x349 JUMPI POP DUP6 DUP4 ADD MLOAD JUMPDEST PUSH1 0x0 NOT PUSH1 0x3 DUP7 SWAP1 SHL SHR NOT AND PUSH1 0x1 DUP6 SWAP1 SHL OR DUP6 SSTORE PUSH3 0x2ED JUMP JUMPDEST PUSH1 0x0 DUP6 DUP2 MSTORE PUSH1 0x20 DUP2 KECCAK256 PUSH1 0x1F NOT DUP7 AND SWAP2 JUMPDEST DUP3 DUP2 LT ISZERO PUSH3 0x393 JUMPI DUP9 DUP7 ADD MLOAD DUP3 SSTORE SWAP5 DUP5 ADD SWAP5 PUSH1 0x1 SWAP1 SWAP2 ADD SWAP1 DUP5 ADD PUSH3 0x372 JUMP JUMPDEST POP DUP6 DUP3 LT ISZERO PUSH3 0x3B2 JUMPI DUP8 DUP6 ADD MLOAD PUSH1 0x0 NOT PUSH1 0x3 DUP9 SWAP1 SHL PUSH1 0xF8 AND SHR NOT AND DUP2 SSTORE JUMPDEST POP POP POP POP POP PUSH1 0x1 SWAP1 DUP2 SHL ADD SWAP1 SSTORE POP JUMP JUMPDEST PUSH1 0x60 DUP2 MSTORE PUSH1 0x16 PUSH1 0x60 DUP3 ADD MSTORE PUSH32 0x496E73706563746F7220526567697374657265643A2000000000000000000000 PUSH1 0x80 DUP3 ADD MSTORE PUSH1 0xA0 PUSH1 0x20 DUP3 ADD MSTORE PUSH1 0x0 DUP4 MLOAD DUP1 PUSH1 0xA0 DUP5 ADD MSTORE PUSH3 0x417 DUP2 PUSH1 0xC0 DUP6 ADD PUSH1 0x20 DUP9 ADD PUSH3 0x132 JUMP JUMPDEST PUSH1 0x1 PUSH1 0x1 PUSH1 0xA0 SHL SUB SWAP4 SWAP1 SWAP4 AND PUSH1 0x40 DUP4 ADD MSTORE POP PUSH1 0x1F SWAP2 SWAP1 SWAP2 ADD PUSH1 0x1F NOT AND ADD PUSH1 0xC0 ADD SWAP2 SWAP1 POP JUMP JUMPDEST PUSH2 0x379D DUP1 PUSH3 0x44C PUSH1 0x0 CODECOPY PUSH1 0x0 RETURN INVALID PUSH1 0x80 PUSH1 0x40 MSTORE PUSH1 0x4 CALLDATASIZE LT PUSH2 0x1C2 JUMPI PUSH1 0x0 CALLDATALOAD PUSH1 0xE0 SHR DUP1 PUSH4 0x7ED11E62 GT PUSH2 0xF7 JUMPI DUP1 PUSH4 0xD1760E60 GT PUSH2 0x95 JUMPI DUP1 PUSH4 0xE43BF1F4 GT PUSH2 0x64 JUMPI DUP1 PUSH4 0xE43BF1F4 EQ PUSH2 0x5D2 JUMPI DUP1 PUSH4 0xE9DB0FCC EQ PUSH2 0x5F2 JUMPI DUP1 PUSH4 0xED2CEE9E EQ PUSH2 0x612 JUMPI DUP1 PUSH4 0xF9C43BDF EQ PUSH2 0x627 JUMPI PUSH1 0x0 DUP1 REVERT JUMPDEST DUP1 PUSH4 0xD1760E60 EQ PUSH2 0x542 JUMPI DUP1 PUSH4 0xDD4D181F EQ PUSH2 0x562 JUMPI DUP1 PUSH4 0xDEC091AD EQ PUSH2 0x582 JUMPI DUP1 PUSH4 0xDEF936C3 EQ PUSH2 0x5A2 JUMPI PUSH1 0x0 DUP1 REVERT JUMPDEST DUP1 PUSH4 0x985E2B57 GT PUSH2 0xD1 JUMPI DUP1 PUSH4 0x985E2B57 EQ PUSH2 0x497 JUMPI DUP1 PUSH4 0xAB517074 EQ PUSH2 0x4B7 JUMPI DUP1 PUSH4 0xBF68808D EQ PUSH2 0x4E9 JUMPI DUP1 PUSH4 0xC798FF7D EQ PUSH2 0x522 JUMPI PUSH1 0x0 DUP1 REVERT JUMPDEST DUP1 PUSH4 0x7ED11E62 EQ PUSH2 0x434 JUMPI DUP1 PUSH4 0x8A733AA7 EQ PUSH2 0x447 JUMPI DUP1 PUSH4 0x96C331BB EQ PUSH2 0x477 JUMPI PUSH1 0x0 DUP1 REVERT JUMPDEST DUP1 PUSH4 0x52959EA2 GT PUSH2 0x164 JUMPI DUP1 PUSH4 0x6D3F4B7A GT PUSH2 0x13E JUMPI DUP1 PUSH4 0x6D3F4B7A EQ PUSH2 0x39B JUMPI DUP1 PUSH4 0x727C04C8 EQ PUSH2 0x3B1 JUMPI DUP1 PUSH4 0x76AA67E3 EQ PUSH2 0x3E4 JUMPI DUP1 PUSH4 0x7C46E851 EQ PUSH2 0x414 JUMPI PUSH1 0x0 DUP1 REVERT JUMPDEST DUP1 PUSH4 0x52959EA2 EQ PUSH2 0x307 JUMPI DUP1 PUSH4 0x6814800B EQ PUSH2 0x343 JUMPI DUP1 PUSH4 0x696F8C57 EQ PUSH2 0x363 JUMPI PUSH1 0x0 DUP1 REVERT JUMPDEST DUP1 PUSH4 0x32BE894B GT PUSH2 0x1A0 JUMPI DUP1 PUSH4 0x32BE894B EQ PUSH2 0x247 JUMPI DUP1 PUSH4 0x3923A853 EQ PUSH2 0x287 JUMPI DUP1 PUSH4 0x3ABD0136 EQ PUSH2 0x2C3 JUMPI DUP1 PUSH4 0x4DCB280E EQ PUSH2 0x2D9 JUMPI PUSH1 0x0 DUP1 REVERT JUMPDEST DUP1 PUSH4 0x1D8DE063 EQ PUSH2 0x1C7 JUMPI DUP1 PUSH4 0x226897B5 EQ PUSH2 0x1F0 JUMPI DUP1 PUSH4 0x2658D9AC EQ PUSH2 0x225 JUMPI JUMPDEST PUSH1 0x0 DUP1 REVERT JUMPDEST CALLVALUE DUP1 ISZERO PUSH2 0x1D3 JUMPI PUSH1 0x0 DUP1 REVERT JUMPDEST POP PUSH2 0x1DD PUSH1 0x2 SLOAD DUP2 JUMP JUMPDEST PUSH1 0x40 MLOAD SWAP1 DUP2 MSTORE PUSH1 0x20 ADD JUMPDEST PUSH1 0x40 MLOAD DUP1 SWAP2 SUB SWAP1 RETURN JUMPDEST CALLVALUE DUP1 ISZERO PUSH2 0x1FC JUMPI PUSH1 0x0 DUP1 REVERT JUMPDEST POP PUSH2 0x210 PUSH2 0x20B CALLDATASIZE PUSH1 0x4 PUSH2 0x2C72 JUMP JUMPDEST PUSH2 0x647 JUMP JUMPDEST PUSH1 0x40 MLOAD PUSH2 0x1E7 SWAP10 SWAP9 SWAP8 SWAP7 SWAP6 SWAP5 SWAP4 SWAP3 SWAP2 SWAP1 PUSH2 0x2CD1 JUMP JUMPDEST CALLVALUE DUP1 ISZERO PUSH2 0x231 JUMPI PUSH1 0x0 DUP1 REVERT JUMPDEST POP PUSH2 0x245 PUSH2 0x240 CALLDATASIZE PUSH1 0x4 PUSH2 0x2D73 JUMP JUMPDEST PUSH2 0x8C3 JUMP JUMPDEST STOP JUMPDEST CALLVALUE DUP1 ISZERO PUSH2 0x253 JUMPI PUSH1 0x0 DUP1 REVERT JUMPDEST POP PUSH2 0x277 PUSH2 0x262 CALLDATASIZE PUSH1 0x4 PUSH2 0x2C72 JUMP JUMPDEST PUSH1 0xB PUSH1 0x20 MSTORE PUSH1 0x0 SWAP1 DUP2 MSTORE PUSH1 0x40 SWAP1 KECCAK256 SLOAD PUSH1 0xFF AND DUP2 JUMP JUMPDEST PUSH1 0x40 MLOAD SWAP1 ISZERO ISZERO DUP2 MSTORE PUSH1 0x20 ADD PUSH2 0x1E7 JUMP JUMPDEST CALLVALUE DUP1 ISZERO PUSH2 0x293 JUMPI PUSH1 0x0 DUP1 REVERT JUMPDEST POP PUSH2 0x277 PUSH2 0x2A2 CALLDATASIZE PUSH1 0x4 PUSH2 0x2D73 JUMP JUMPDEST PUSH1 0x1 PUSH1 0x1 PUSH1 0xA0 SHL SUB AND PUSH1 0x0 SWAP1 DUP2 MSTORE PUSH1 0x7 PUSH1 0x20 MSTORE PUSH1 0x40 SWAP1 KECCAK256 PUSH1 0x5 ADD SLOAD PUSH1 0xFF AND SWAP1 JUMP JUMPDEST CALLVALUE DUP1 ISZERO PUSH2 0x2CF JUMPI PUSH1 0x0 DUP1 REVERT JUMPDEST POP PUSH2 0x1DD PUSH1 0x4 SLOAD DUP2 JUMP JUMPDEST CALLVALUE DUP1 ISZERO PUSH2 0x2E5 JUMPI PUSH1 0x0 DUP1 REVERT JUMPDEST POP PUSH2 0x2F9 PUSH2 0x2F4 CALLDATASIZE PUSH1 0x4 PUSH2 0x2C72 JUMP JUMPDEST PUSH2 0xB97 JUMP JUMPDEST PUSH1 0x40 MLOAD PUSH2 0x1E7 SWAP3 SWAP2 SWAP1 PUSH2 0x2D97 JUMP JUMPDEST CALLVALUE DUP1 ISZERO PUSH2 0x313 JUMPI PUSH1 0x0 DUP1 REVERT JUMPDEST POP PUSH2 0x277 PUSH2 0x322 CALLDATASIZE PUSH1 0x4 PUSH2 0x2D73 JUMP JUMPDEST PUSH1 0x1 PUSH1 0x1 PUSH1 0xA0 SHL SUB AND PUSH1 0x0 SWAP1 DUP2 MSTORE PUSH1 0x8 PUSH1 0x20 MSTORE PUSH1 0x40 SWAP1 KECCAK256 PUSH1 0x5 ADD SLOAD PUSH1 0xFF AND SWAP1 JUMP JUMPDEST CALLVALUE DUP1 ISZERO PUSH2 0x34F JUMPI PUSH1 0x0 DUP1 REVERT JUMPDEST POP PUSH2 0x245 PUSH2 0x35E CALLDATASIZE PUSH1 0x4 PUSH2 0x2D73 JUMP JUMPDEST PUSH2 0xC5A JUMP JUMPDEST CALLVALUE DUP1 ISZERO PUSH2 0x36F JUMPI PUSH1 0x0 DUP1 REVERT JUMPDEST POP PUSH1 0x0 SLOAD PUSH2 0x383 SWAP1 PUSH1 0x1 PUSH1 0x1 PUSH1 0xA0 SHL SUB AND DUP2 JUMP JUMPDEST PUSH1 0x40 MLOAD PUSH1 0x1 PUSH1 0x1 PUSH1 0xA0 SHL SUB SWAP1 SWAP2 AND DUP2 MSTORE PUSH1 0x20 ADD PUSH2 0x1E7 JUMP JUMPDEST CALLVALUE DUP1 ISZERO PUSH2 0x3A7 JUMPI PUSH1 0x0 DUP1 REVERT JUMPDEST POP PUSH2 0x1DD PUSH1 0x3 SLOAD DUP2 JUMP JUMPDEST CALLVALUE DUP1 ISZERO PUSH2 0x3BD JUMPI PUSH1 0x0 DUP1 REVERT JUMPDEST POP PUSH2 0x3D1 PUSH2 0x3CC CALLDATASIZE PUSH1 0x4 PUSH2 0x2C72 JUMP JUMPDEST PUSH2 0xEB7 JUMP JUMPDEST PUSH1 0x40 MLOAD PUSH2 0x1E7 SWAP8 SWAP7 SWAP6 SWAP5 SWAP4 SWAP3 SWAP2 SWAP1 PUSH2 0x2DC3 JUMP JUMPDEST CALLVALUE DUP1 ISZERO PUSH2 0x3F0 JUMPI PUSH1 0x0 DUP1 REVERT JUMPDEST POP PUSH2 0x277 PUSH2 0x3FF CALLDATASIZE PUSH1 0x4 PUSH2 0x2D73 JUMP JUMPDEST PUSH1 0xA PUSH1 0x20 MSTORE PUSH1 0x0 SWAP1 DUP2 MSTORE PUSH1 0x40 SWAP1 KECCAK256 SLOAD PUSH1 0xFF AND DUP2 JUMP JUMPDEST CALLVALUE DUP1 ISZERO PUSH2 0x420 JUMPI PUSH1 0x0 DUP1 REVERT JUMPDEST POP PUSH2 0x245 PUSH2 0x42F CALLDATASIZE PUSH1 0x4 PUSH2 0x2EDD JUMP JUMPDEST PUSH2 0x11B7 JUMP JUMPDEST PUSH2 0x245 PUSH2 0x442 CALLDATASIZE PUSH1 0x4 PUSH2 0x2F8A JUMP JUMPDEST PUSH2 0x1469 JUMP JUMPDEST CALLVALUE DUP1 ISZERO PUSH2 0x453 JUMPI PUSH1 0x0 DUP1 REVERT JUMPDEST POP PUSH2 0x277 PUSH2 0x462 CALLDATASIZE PUSH1 0x4 PUSH2 0x2D73 JUMP JUMPDEST PUSH1 0x9 PUSH1 0x20 MSTORE PUSH1 0x0 SWAP1 DUP2 MSTORE PUSH1 0x40 SWAP1 KECCAK256 SLOAD PUSH1 0xFF AND DUP2 JUMP JUMPDEST CALLVALUE DUP1 ISZERO PUSH2 0x483 JUMPI PUSH1 0x0 DUP1 REVERT JUMPDEST POP PUSH2 0x245 PUSH2 0x492 CALLDATASIZE PUSH1 0x4 PUSH2 0x2FBA JUMP JUMPDEST PUSH2 0x1727 JUMP JUMPDEST CALLVALUE DUP1 ISZERO PUSH2 0x4A3 JUMPI PUSH1 0x0 DUP1 REVERT JUMPDEST POP PUSH2 0x245 PUSH2 0x4B2 CALLDATASIZE PUSH1 0x4 PUSH2 0x2EDD JUMP JUMPDEST PUSH2 0x18C1 JUMP JUMPDEST CALLVALUE DUP1 ISZERO PUSH2 0x4C3 JUMPI PUSH1 0x0 DUP1 REVERT JUMPDEST POP PUSH2 0x4D7 PUSH2 0x4D2 CALLDATASIZE PUSH1 0x4 PUSH2 0x2D73 JUMP JUMPDEST PUSH2 0x1B6A JUMP JUMPDEST PUSH1 0x40 MLOAD PUSH2 0x1E7 SWAP7 SWAP6 SWAP5 SWAP4 SWAP3 SWAP2 SWAP1 PUSH2 0x3056 JUMP JUMPDEST CALLVALUE DUP1 ISZERO PUSH2 0x4F5 JUMPI PUSH1 0x0 DUP1 REVERT JUMPDEST POP PUSH2 0x277 PUSH2 0x504 CALLDATASIZE PUSH1 0x4 PUSH2 0x2C72 JUMP JUMPDEST PUSH1 0x0 SWAP1 DUP2 MSTORE PUSH1 0x5 PUSH1 0x20 DUP2 SWAP1 MSTORE PUSH1 0x40 SWAP1 SWAP2 KECCAK256 ADD SLOAD PUSH2 0x100 SWAP1 DIV PUSH1 0xFF AND SWAP1 JUMP JUMPDEST CALLVALUE DUP1 ISZERO PUSH2 0x52E JUMPI PUSH1 0x0 DUP1 REVERT JUMPDEST POP PUSH2 0x245 PUSH2 0x53D CALLDATASIZE PUSH1 0x4 PUSH2 0x2F8A JUMP JUMPDEST PUSH2 0x1D39 JUMP JUMPDEST CALLVALUE DUP1 ISZERO PUSH2 0x54E JUMPI PUSH1 0x0 DUP1 REVERT JUMPDEST POP PUSH2 0x245 PUSH2 0x55D CALLDATASIZE PUSH1 0x4 PUSH2 0x2D73 JUMP JUMPDEST PUSH2 0x1F23 JUMP JUMPDEST CALLVALUE DUP1 ISZERO PUSH2 0x56E JUMPI PUSH1 0x0 DUP1 REVERT JUMPDEST POP PUSH2 0x245 PUSH2 0x57D CALLDATASIZE PUSH1 0x4 PUSH2 0x2D73 JUMP JUMPDEST PUSH2 0x211A JUMP JUMPDEST CALLVALUE DUP1 ISZERO PUSH2 0x58E JUMPI PUSH1 0x0 DUP1 REVERT JUMPDEST POP PUSH2 0x4D7 PUSH2 0x59D CALLDATASIZE PUSH1 0x4 PUSH2 0x2D73 JUMP JUMPDEST PUSH2 0x23A3 JUMP JUMPDEST CALLVALUE DUP1 ISZERO PUSH2 0x5AE JUMPI PUSH1 0x0 DUP1 REVERT JUMPDEST POP PUSH2 0x5C2 PUSH2 0x5BD CALLDATASIZE PUSH1 0x4 PUSH2 0x2C72 JUMP JUMPDEST PUSH2 0x23BE JUMP JUMPDEST PUSH1 0x40 MLOAD PUSH2 0x1E7 SWAP5 SWAP4 SWAP3 SWAP2 SWAP1 PUSH2 0x30B1 JUMP JUMPDEST CALLVALUE DUP1 ISZERO PUSH2 0x5DE JUMPI PUSH1 0x0 DUP1 REVERT JUMPDEST POP PUSH2 0x245 PUSH2 0x5ED CALLDATASIZE PUSH1 0x4 PUSH2 0x2FBA JUMP JUMPDEST PUSH2 0x2501 JUMP JUMPDEST CALLVALUE DUP1 ISZERO PUSH2 0x5FE JUMPI PUSH1 0x0 DUP1 REVERT JUMPDEST POP PUSH2 0x245 PUSH2 0x60D CALLDATASIZE PUSH1 0x4 PUSH2 0x30F8 JUMP JUMPDEST PUSH2 0x268C JUMP JUMPDEST CALLVALUE DUP1 ISZERO PUSH2 0x61E JUMPI PUSH1 0x0 DUP1 REVERT JUMPDEST POP PUSH2 0x2F9 PUSH2 0x299C JUMP JUMPDEST CALLVALUE DUP1 ISZERO PUSH2 0x633 JUMPI PUSH1 0x0 DUP1 REVERT JUMPDEST POP PUSH2 0x245 PUSH2 0x642 CALLDATASIZE PUSH1 0x4 PUSH2 0x2C72 JUMP JUMPDEST PUSH2 0x2A7A JUMP JUMPDEST PUSH1 0x5 PUSH1 0x20 MSTORE PUSH1 0x0 SWAP1 DUP2 MSTORE PUSH1 0x40 SWAP1 KECCAK256 DUP1 SLOAD PUSH1 0x1 DUP3 ADD DUP1 SLOAD SWAP2 SWAP3 SWAP2 PUSH2 0x669 SWAP1 PUSH2 0x3192 JUMP JUMPDEST DUP1 PUSH1 0x1F ADD PUSH1 0x20 DUP1 SWAP2 DIV MUL PUSH1 0x20 ADD PUSH1 0x40 MLOAD SWAP1 DUP2 ADD PUSH1 0x40 MSTORE DUP1 SWAP3 SWAP2 SWAP1 DUP2 DUP2 MSTORE PUSH1 0x20 ADD DUP3 DUP1 SLOAD PUSH2 0x695 SWAP1 PUSH2 0x3192 JUMP JUMPDEST DUP1 ISZERO PUSH2 0x6E2 JUMPI DUP1 PUSH1 0x1F LT PUSH2 0x6B7 JUMPI PUSH2 0x100 DUP1 DUP4 SLOAD DIV MUL DUP4 MSTORE SWAP2 PUSH1 0x20 ADD SWAP2 PUSH2 0x6E2 JUMP JUMPDEST DUP3 ADD SWAP2 SWAP1 PUSH1 0x0 MSTORE PUSH1 0x20 PUSH1 0x0 KECCAK256 SWAP1 JUMPDEST DUP2 SLOAD DUP2 MSTORE SWAP1 PUSH1 0x1 ADD SWAP1 PUSH1 0x20 ADD DUP1 DUP4 GT PUSH2 0x6C5 JUMPI DUP3 SWAP1 SUB PUSH1 0x1F AND DUP3 ADD SWAP2 JUMPDEST POP POP POP POP POP SWAP1 DUP1 PUSH1 0x2 ADD DUP1 SLOAD PUSH2 0x6F7 SWAP1 PUSH2 0x3192 JUMP JUMPDEST DUP1 PUSH1 0x1F ADD PUSH1 0x20 DUP1 SWAP2 DIV MUL PUSH1 0x20 ADD PUSH1 0x40 MLOAD SWAP1 DUP2 ADD PUSH1 0x40 MSTORE DUP1 SWAP3 SWAP2 SWAP1 DUP2 DUP2 MSTORE PUSH1 0x20 ADD DUP3 DUP1 SLOAD PUSH2 0x723 SWAP1 PUSH2 0x3192 JUMP JUMPDEST DUP1 ISZERO PUSH2 0x770 JUMPI DUP1 PUSH1 0x1F LT PUSH2 0x745 JUMPI PUSH2 0x100 DUP1 DUP4 SLOAD DIV MUL DUP4 MSTORE SWAP2 PUSH1 0x20 ADD SWAP2 PUSH2 0x770 JUMP JUMPDEST DUP3 ADD SWAP2 SWAP1 PUSH1 0x0 MSTORE PUSH1 0x20 PUSH1 0x0 KECCAK256 SWAP1 JUMPDEST DUP2 SLOAD DUP2 MSTORE SWAP1 PUSH1 0x1 ADD SWAP1 PUSH1 0x20 ADD DUP1 DUP4 GT PUSH2 0x753 JUMPI DUP3 SWAP1 SUB PUSH1 0x1F AND DUP3 ADD SWAP2 JUMPDEST POP POP POP POP POP SWAP1 DUP1 PUSH1 0x3 ADD DUP1 SLOAD PUSH2 0x785 SWAP1 PUSH2 0x3192 JUMP JUMPDEST DUP1 PUSH1 0x1F ADD PUSH1 0x20 DUP1 SWAP2 DIV MUL PUSH1 0x20 ADD PUSH1 0x40 MLOAD SWAP1 DUP2 ADD PUSH1 0x40 MSTORE DUP1 SWAP3 SWAP2 SWAP1 DUP2 DUP2 MSTORE PUSH1 0x20 ADD DUP3 DUP1 SLOAD PUSH2 0x7B1 SWAP1 PUSH2 0x3192 JUMP JUMPDEST DUP1 ISZERO PUSH2 0x7FE JUMPI DUP1 PUSH1 0x1F LT PUSH2 0x7D3 JUMPI PUSH2 0x100 DUP1 DUP4 SLOAD DIV MUL DUP4 MSTORE SWAP2 PUSH1 0x20 ADD SWAP2 PUSH2 0x7FE JUMP JUMPDEST DUP3 ADD SWAP2 SWAP1 PUSH1 0x0 MSTORE PUSH1 0x20 PUSH1 0x0 KECCAK256 SWAP1 JUMPDEST DUP2 SLOAD DUP2 MSTORE SWAP1 PUSH1 0x1 ADD SWAP1 PUSH1 0x20 ADD DUP1 DUP4 GT PUSH2 0x7E1 JUMPI DUP3 SWAP1 SUB PUSH1 0x1F AND DUP3 ADD SWAP2 JUMPDEST POP POP POP POP PUSH1 0x4 DUP4 ADD SLOAD PUSH1 0x5 DUP5 ADD SLOAD PUSH1 0x6 DUP6 ADD DUP1 SLOAD SWAP5 SWAP6 SWAP3 SWAP5 PUSH1 0xFF DUP1 DUP5 AND SWAP6 POP PUSH2 0x100 DUP5 DIV AND SWAP4 PUSH3 0x10000 SWAP1 SWAP4 DIV PUSH1 0x1 PUSH1 0x1 PUSH1 0xA0 SHL SUB AND SWAP3 SWAP2 SWAP1 PUSH2 0x840 SWAP1 PUSH2 0x3192 JUMP JUMPDEST DUP1 PUSH1 0x1F ADD PUSH1 0x20 DUP1 SWAP2 DIV MUL PUSH1 0x20 ADD PUSH1 0x40 MLOAD SWAP1 DUP2 ADD PUSH1 0x40 MSTORE DUP1 SWAP3 SWAP2 SWAP1 DUP2 DUP2 MSTORE PUSH1 0x20 ADD DUP3 DUP1 SLOAD PUSH2 0x86C SWAP1 PUSH2 0x3192 JUMP JUMPDEST DUP1 ISZERO PUSH2 0x8B9 JUMPI DUP1 PUSH1 0x1F LT PUSH2 0x88E JUMPI PUSH2 0x100 DUP1 DUP4 SLOAD DIV MUL DUP4 MSTORE SWAP2 PUSH1 0x20 ADD SWAP2 PUSH2 0x8B9 JUMP JUMPDEST DUP3 ADD SWAP2 SWAP1 PUSH1 0x0 MSTORE PUSH1 0x20 PUSH1 0x0 KECCAK256 SWAP1 JUMPDEST DUP2 SLOAD DUP2 MSTORE SWAP1 PUSH1 0x1 ADD SWAP1 PUSH1 0x20 ADD DUP1 DUP4 GT PUSH2 0x89C JUMPI DUP3 SWAP1 SUB PUSH1 0x1F AND DUP3 ADD SWAP2 JUMPDEST POP POP POP POP POP SWAP1 POP DUP10 JUMP JUMPDEST PUSH1 0x0 SLOAD PUSH1 0x1 PUSH1 0x1 PUSH1 0xA0 SHL SUB AND CALLER EQ PUSH2 0x8F6 JUMPI PUSH1 0x40 MLOAD PUSH3 0x461BCD PUSH1 0xE5 SHL DUP2 MSTORE PUSH1 0x4 ADD PUSH2 0x8ED SWAP1 PUSH2 0x31CC JUMP JUMPDEST PUSH1 0x40 MLOAD DUP1 SWAP2 SUB SWAP1 REVERT JUMPDEST PUSH1 0x1 PUSH1 0x1 PUSH1 0xA0 SHL SUB DUP2 AND PUSH1 0x0 SWAP1 DUP2 MSTORE PUSH1 0x9 PUSH1 0x20 MSTORE PUSH1 0x40 SWAP1 KECCAK256 SLOAD PUSH1 0xFF AND ISZERO ISZERO PUSH1 0x1 EQ PUSH2 0x97E JUMPI PUSH1 0x40 MLOAD PUSH3 0x461BCD PUSH1 0xE5 SHL DUP2 MSTORE PUSH1 0x20 PUSH1 0x4 DUP3 ADD MSTORE PUSH1 0x32 PUSH1 0x24 DUP3 ADD MSTORE PUSH32 0x53656C6C6572206973206E6F7420726567697374657265642077697468207468 PUSH1 0x44 DUP3 ADD MSTORE PUSH18 0x652070726F76696465642041646472657373 PUSH1 0x70 SHL PUSH1 0x64 DUP3 ADD MSTORE PUSH1 0x84 ADD PUSH2 0x8ED JUMP JUMPDEST PUSH1 0x1 PUSH1 0x1 PUSH1 0xA0 SHL SUB DUP2 AND PUSH1 0x0 SWAP1 DUP2 MSTORE PUSH1 0x7 PUSH1 0x20 MSTORE PUSH1 0x40 SWAP1 KECCAK256 PUSH1 0x5 ADD SLOAD PUSH1 0xFF AND ISZERO ISZERO PUSH1 0x1 EQ PUSH2 0xA03 JUMPI PUSH1 0x40 MLOAD PUSH3 0x461BCD PUSH1 0xE5 SHL DUP2 MSTORE PUSH1 0x20 PUSH1 0x4 DUP3 ADD MSTORE PUSH1 0x2C PUSH1 0x24 DUP3 ADD MSTORE PUSH32 0x53656C6C6572206973206E6F7420766572696669656420627920746865204C61 PUSH1 0x44 DUP3 ADD MSTORE PUSH12 0x37321024B739B832B1BA37B9 PUSH1 0xA1 SHL PUSH1 0x64 DUP3 ADD MSTORE PUSH1 0x84 ADD PUSH2 0x8ED JUMP JUMPDEST PUSH1 0x1 PUSH1 0x1 PUSH1 0xA0 SHL SUB DUP2 AND PUSH1 0x0 SWAP1 DUP2 MSTORE PUSH1 0x7 PUSH1 0x20 SWAP1 DUP2 MSTORE PUSH1 0x40 DUP1 DUP4 KECCAK256 PUSH1 0x8 SWAP1 SWAP3 MSTORE SWAP1 SWAP2 KECCAK256 SWAP1 PUSH2 0xA31 SWAP1 DUP3 PUSH2 0x326D JUMP JUMPDEST POP PUSH1 0x1 PUSH1 0x1 PUSH1 0xA0 SHL SUB DUP2 AND PUSH1 0x0 SWAP1 DUP2 MSTORE PUSH1 0x7 PUSH1 0x20 SWAP1 DUP2 MSTORE PUSH1 0x40 DUP1 DUP4 KECCAK256 PUSH1 0x1 DUP1 DUP3 ADD SLOAD PUSH1 0x8 SWAP1 SWAP5 MSTORE SWAP2 SWAP1 SWAP4 KECCAK256 SWAP1 DUP2 ADD SWAP2 SWAP1 SWAP2 SSTORE PUSH1 0x2 SWAP1 DUP2 ADD SWAP2 PUSH2 0xA74 SWAP2 ADD DUP3 PUSH2 0x326D JUMP JUMPDEST POP PUSH1 0x1 PUSH1 0x1 PUSH1 0xA0 SHL SUB DUP2 AND PUSH1 0x0 SWAP1 DUP2 MSTORE PUSH1 0x7 PUSH1 0x20 SWAP1 DUP2 MSTORE PUSH1 0x40 DUP1 DUP4 KECCAK256 PUSH1 0x3 DUP1 DUP3 ADD SLOAD PUSH1 0x8 SWAP1 SWAP5 MSTORE SWAP2 SWAP1 SWAP4 KECCAK256 SWAP1 DUP2 ADD SWAP2 SWAP1 SWAP2 SSTORE PUSH1 0x4 SWAP1 DUP2 ADD SWAP2 PUSH2 0xAB7 SWAP2 ADD DUP3 PUSH2 0x326D JUMP JUMPDEST POP PUSH1 0x1 PUSH1 0x1 PUSH1 0xA0 SHL SUB DUP2 AND PUSH1 0x0 SWAP1 DUP2 MSTORE PUSH1 0x8 PUSH1 0x20 SWAP1 DUP2 MSTORE PUSH1 0x40 DUP1 DUP4 KECCAK256 PUSH1 0x5 ADD DUP1 SLOAD PUSH1 0xFF NOT SWAP1 DUP2 AND SWAP1 SWAP2 SSTORE PUSH1 0xA DUP4 MSTORE DUP2 DUP5 KECCAK256 DUP1 SLOAD DUP3 AND PUSH1 0x1 SWAP1 DUP2 OR SWAP1 SWAP2 SSTORE PUSH1 0x9 SWAP1 SWAP4 MSTORE SWAP1 DUP4 KECCAK256 DUP1 SLOAD SWAP1 SWAP2 AND SWAP1 SSTORE PUSH1 0x3 DUP1 SLOAD SWAP2 SWAP3 SWAP1 SWAP2 PUSH2 0xB16 SWAP1 DUP5 SWAP1 PUSH2 0x3364 JUMP JUMPDEST SWAP3 POP POP DUP2 SWAP1 SSTORE POP PUSH1 0x1 PUSH1 0x4 PUSH1 0x0 DUP3 DUP3 SLOAD PUSH2 0xB30 SWAP2 SWAP1 PUSH2 0x337D JUMP JUMPDEST SWAP1 SWAP2 SSTORE POP POP PUSH1 0x1 PUSH1 0x1 PUSH1 0xA0 SHL SUB DUP2 AND PUSH1 0x0 SWAP1 DUP2 MSTORE PUSH1 0x7 PUSH1 0x20 MSTORE PUSH1 0x40 DUP2 KECCAK256 SWAP1 PUSH2 0xB58 DUP3 DUP3 PUSH2 0x2C1C JUMP JUMPDEST PUSH1 0x1 DUP3 ADD PUSH1 0x0 SWAP1 SSTORE PUSH1 0x2 DUP3 ADD PUSH1 0x0 PUSH2 0xB70 SWAP2 SWAP1 PUSH2 0x2C1C JUMP JUMPDEST PUSH1 0x3 DUP3 ADD PUSH1 0x0 SWAP1 SSTORE PUSH1 0x4 DUP3 ADD PUSH1 0x0 PUSH2 0xB88 SWAP2 SWAP1 PUSH2 0x2C1C JUMP JUMPDEST POP PUSH1 0x5 ADD DUP1 SLOAD PUSH1 0xFF NOT AND SWAP1 SSTORE POP JUMP JUMPDEST PUSH1 0x0 DUP2 DUP2 MSTORE PUSH1 0x5 PUSH1 0x20 DUP2 SWAP1 MSTORE PUSH1 0x40 DUP3 KECCAK256 SWAP1 DUP2 ADD SLOAD PUSH1 0x6 SWAP1 SWAP2 ADD DUP1 SLOAD PUSH1 0x60 SWAP3 PUSH3 0x10000 SWAP1 DIV PUSH1 0x1 PUSH1 0x1 PUSH1 0xA0 SHL SUB AND SWAP2 SWAP1 DUP2 SWAP1 PUSH2 0xBD1 SWAP1 PUSH2 0x3192 JUMP JUMPDEST DUP1 PUSH1 0x1F ADD PUSH1 0x20 DUP1 SWAP2 DIV MUL PUSH1 0x20 ADD PUSH1 0x40 MLOAD SWAP1 DUP2 ADD PUSH1 0x40 MSTORE DUP1 SWAP3 SWAP2 SWAP1 DUP2 DUP2 MSTORE PUSH1 0x20 ADD DUP3 DUP1 SLOAD PUSH2 0xBFD SWAP1 PUSH2 0x3192 JUMP JUMPDEST DUP1 ISZERO PUSH2 0xC4A JUMPI DUP1 PUSH1 0x1F LT PUSH2 0xC1F JUMPI PUSH2 0x100 DUP1 DUP4 SLOAD DIV MUL DUP4 MSTORE SWAP2 PUSH1 0x20 ADD SWAP2 PUSH2 0xC4A JUMP JUMPDEST DUP3 ADD SWAP2 SWAP1 PUSH1 0x0 MSTORE PUSH1 0x20 PUSH1 0x0 KECCAK256 SWAP1 JUMPDEST DUP2 SLOAD DUP2 MSTORE SWAP1 PUSH1 0x1 ADD SWAP1 PUSH1 0x20 ADD DUP1 DUP4 GT PUSH2 0xC2D JUMPI DUP3 SWAP1 SUB PUSH1 0x1F AND DUP3 ADD SWAP2 JUMPDEST POP POP POP POP POP SWAP1 POP SWAP2 POP SWAP2 POP SWAP2 POP SWAP2 JUMP JUMPDEST PUSH1 0x0 SLOAD PUSH1 0x1 PUSH1 0x1 PUSH1 0xA0 SHL SUB AND CALLER EQ PUSH2 0xC84 JUMPI PUSH1 0x40 MLOAD PUSH3 0x461BCD PUSH1 0xE5 SHL DUP2 MSTORE PUSH1 0x4 ADD PUSH2 0x8ED SWAP1 PUSH2 0x31CC JUMP JUMPDEST PUSH1 0x1 PUSH1 0x1 PUSH1 0xA0 SHL SUB DUP2 AND PUSH1 0x0 SWAP1 DUP2 MSTORE PUSH1 0xA PUSH1 0x20 MSTORE PUSH1 0x40 SWAP1 KECCAK256 SLOAD PUSH1 0xFF AND ISZERO ISZERO PUSH1 0x1 EQ PUSH2 0xD08 JUMPI PUSH1 0x40 MLOAD PUSH3 0x461BCD PUSH1 0xE5 SHL DUP2 MSTORE PUSH1 0x20 PUSH1 0x4 DUP3 ADD MSTORE PUSH1 0x2E PUSH1 0x24 DUP3 ADD MSTORE PUSH32 0x42757965722077697468207468652070726F7669646564204164647265737320 PUSH1 0x44 DUP3 ADD MSTORE PUSH14 0x191BD95CC81B9BDD08115E1A5CDD PUSH1 0x92 SHL PUSH1 0x64 DUP3 ADD MSTORE PUSH1 0x84 ADD PUSH2 0x8ED JUMP JUMPDEST PUSH1 0x1 PUSH1 0x1 PUSH1 0xA0 SHL SUB DUP2 AND PUSH1 0x0 SWAP1 DUP2 MSTORE PUSH1 0x9 PUSH1 0x20 MSTORE PUSH1 0x40 SWAP1 KECCAK256 SLOAD PUSH1 0xFF AND ISZERO PUSH2 0xD80 JUMPI PUSH1 0x40 MLOAD PUSH3 0x461BCD PUSH1 0xE5 SHL DUP2 MSTORE PUSH1 0x20 PUSH1 0x4 DUP3 ADD MSTORE PUSH1 0x26 PUSH1 0x24 DUP3 ADD MSTORE PUSH32 0x53656C6C65722069732072656769737465726564207769746820746869732041 PUSH1 0x44 DUP3 ADD MSTORE PUSH6 0x646472657373 PUSH1 0xD0 SHL PUSH1 0x64 DUP3 ADD MSTORE PUSH1 0x84 ADD PUSH2 0x8ED JUMP JUMPDEST PUSH1 0x1 PUSH1 0x1 PUSH1 0xA0 SHL SUB DUP2 AND PUSH1 0x0 SWAP1 DUP2 MSTORE PUSH1 0x7 PUSH1 0x20 MSTORE PUSH1 0x40 SWAP1 KECCAK256 PUSH1 0x3 ADD SLOAD ISZERO PUSH2 0xDE2 JUMPI PUSH1 0x40 MLOAD PUSH3 0x461BCD PUSH1 0xE5 SHL DUP2 MSTORE PUSH1 0x20 PUSH1 0x4 DUP3 ADD MSTORE PUSH1 0x16 PUSH1 0x24 DUP3 ADD MSTORE PUSH22 0x546869732069732053656C6C65722041646472657373 PUSH1 0x50 SHL PUSH1 0x44 DUP3 ADD MSTORE PUSH1 0x64 ADD PUSH2 0x8ED JUMP JUMPDEST PUSH1 0x1 PUSH1 0x1 PUSH1 0xA0 SHL SUB DUP2 AND PUSH1 0x0 SWAP1 DUP2 MSTORE PUSH1 0x8 PUSH1 0x20 MSTORE PUSH1 0x40 SWAP1 KECCAK256 PUSH1 0x5 ADD SLOAD PUSH1 0xFF AND ISZERO PUSH2 0xE66 JUMPI PUSH1 0x40 MLOAD PUSH3 0x461BCD PUSH1 0xE5 SHL DUP2 MSTORE PUSH1 0x20 PUSH1 0x4 DUP3 ADD MSTORE PUSH1 0x2F PUSH1 0x24 DUP3 ADD MSTORE PUSH32 0x427579657220776974682070726F766964656420616464726573732069732061 PUSH1 0x44 DUP3 ADD MSTORE PUSH15 0x1B1C9958591E481D995C9A599A5959 PUSH1 0x8A SHL PUSH1 0x64 DUP3 ADD MSTORE PUSH1 0x84 ADD PUSH2 0x8ED JUMP JUMPDEST PUSH1 0x1 PUSH1 0x1 PUSH1 0xA0 SHL SUB DUP2 AND PUSH1 0x0 SWAP1 DUP2 MSTORE PUSH1 0x8 PUSH1 0x20 MSTORE PUSH1 0x40 SWAP1 DUP2 SWAP1 KECCAK256 PUSH1 0x5 DUP2 ADD DUP1 SLOAD PUSH1 0xFF NOT AND PUSH1 0x1 OR SWAP1 SSTORE SWAP1 MLOAD PUSH1 0x0 DUP1 MLOAD PUSH1 0x20 PUSH2 0x3748 DUP4 CODECOPY DUP2 MLOAD SWAP2 MSTORE SWAP2 PUSH2 0xEAC SWAP2 DUP5 SWAP1 PUSH2 0x340D JUMP JUMPDEST PUSH1 0x40 MLOAD DUP1 SWAP2 SUB SWAP1 LOG1 POP JUMP JUMPDEST PUSH1 0x0 DUP2 DUP2 MSTORE PUSH1 0x5 PUSH1 0x20 MSTORE PUSH1 0x40 DUP2 KECCAK256 SLOAD PUSH1 0x60 SWAP1 DUP2 SWAP1 DUP2 SWAP1 DUP5 SWAP1 DUP2 SWAP1 DUP4 SWAP1 DUP3 SUB PUSH2 0xF2B JUMPI PUSH1 0x40 MLOAD PUSH3 0x461BCD PUSH1 0xE5 SHL DUP2 MSTORE PUSH1 0x20 PUSH1 0x4 DUP3 ADD MSTORE PUSH1 0x21 PUSH1 0x24 DUP3 ADD MSTORE PUSH32 0x4C616E64207769746820676976656E20494420646F6573206E6F742065786973 PUSH1 0x44 DUP3 ADD MSTORE PUSH1 0x1D PUSH1 0xFA SHL PUSH1 0x64 DUP3 ADD MSTORE PUSH1 0x84 ADD PUSH2 0x8ED JUMP JUMPDEST PUSH1 0x0 DUP9 DUP2 MSTORE PUSH1 0x5 PUSH1 0x20 DUP2 SWAP1 MSTORE PUSH1 0x40 SWAP1 SWAP2 KECCAK256 DUP1 SLOAD PUSH1 0x4 DUP3 ADD SLOAD SWAP3 DUP3 ADD SLOAD PUSH1 0x1 DUP4 ADD DUP1 SLOAD SWAP3 SWAP5 SWAP1 SWAP4 PUSH1 0x2 DUP2 ADD SWAP4 PUSH1 0x3 DUP3 ADD SWAP4 PUSH3 0x10000 SWAP1 DIV PUSH1 0x1 PUSH1 0x1 PUSH1 0xA0 SHL SUB AND SWAP2 PUSH1 0x6 ADD SWAP1 DUP7 SWAP1 PUSH2 0xF7A SWAP1 PUSH2 0x3192 JUMP JUMPDEST DUP1 PUSH1 0x1F ADD PUSH1 0x20 DUP1 SWAP2 DIV MUL PUSH1 0x20 ADD PUSH1 0x40 MLOAD SWAP1 DUP2 ADD PUSH1 0x40 MSTORE DUP1 SWAP3 SWAP2 SWAP1 DUP2 DUP2 MSTORE PUSH1 0x20 ADD DUP3 DUP1 SLOAD PUSH2 0xFA6 SWAP1 PUSH2 0x3192 JUMP JUMPDEST DUP1 ISZERO PUSH2 0xFF3 JUMPI DUP1 PUSH1 0x1F LT PUSH2 0xFC8 JUMPI PUSH2 0x100 DUP1 DUP4 SLOAD DIV MUL DUP4 MSTORE SWAP2 PUSH1 0x20 ADD SWAP2 PUSH2 0xFF3 JUMP JUMPDEST DUP3 ADD SWAP2 SWAP1 PUSH1 0x0 MSTORE PUSH1 0x20 PUSH1 0x0 KECCAK256 SWAP1 JUMPDEST DUP2 SLOAD DUP2 MSTORE SWAP1 PUSH1 0x1 ADD SWAP1 PUSH1 0x20 ADD DUP1 DUP4 GT PUSH2 0xFD6 JUMPI DUP3 SWAP1 SUB PUSH1 0x1F AND DUP3 ADD SWAP2 JUMPDEST POP POP POP POP POP SWAP6 POP DUP5 DUP1 SLOAD PUSH2 0x1006 SWAP1 PUSH2 0x3192 JUMP JUMPDEST DUP1 PUSH1 0x1F ADD PUSH1 0x20 DUP1 SWAP2 DIV MUL PUSH1 0x20 ADD PUSH1 0x40 MLOAD SWAP1 DUP2 ADD PUSH1 0x40 MSTORE DUP1 SWAP3 SWAP2 SWAP1 DUP2 DUP2 MSTORE PUSH1 0x20 ADD DUP3 DUP1 SLOAD PUSH2 0x1032 SWAP1 PUSH2 0x3192 JUMP JUMPDEST DUP1 ISZERO PUSH2 0x107F JUMPI DUP1 PUSH1 0x1F LT PUSH2 0x1054 JUMPI PUSH2 0x100 DUP1 DUP4 SLOAD DIV MUL DUP4 MSTORE SWAP2 PUSH1 0x20 ADD SWAP2 PUSH2 0x107F JUMP JUMPDEST DUP3 ADD SWAP2 SWAP1 PUSH1 0x0 MSTORE PUSH1 0x20 PUSH1 0x0 KECCAK256 SWAP1 JUMPDEST DUP2 SLOAD DUP2 MSTORE SWAP1 PUSH1 0x1 ADD SWAP1 PUSH1 0x20 ADD DUP1 DUP4 GT PUSH2 0x1062 JUMPI DUP3 SWAP1 SUB PUSH1 0x1F AND DUP3 ADD SWAP2 JUMPDEST POP POP POP POP POP SWAP5 POP DUP4 DUP1 SLOAD PUSH2 0x1092 SWAP1 PUSH2 0x3192 JUMP JUMPDEST DUP1 PUSH1 0x1F ADD PUSH1 0x20 DUP1 SWAP2 DIV MUL PUSH1 0x20 ADD PUSH1 0x40 MLOAD SWAP1 DUP2 ADD PUSH1 0x40 MSTORE DUP1 SWAP3 SWAP2 SWAP1 DUP2 DUP2 MSTORE PUSH1 0x20 ADD DUP3 DUP1 SLOAD PUSH2 0x10BE SWAP1 PUSH2 0x3192 JUMP JUMPDEST DUP1 ISZERO PUSH2 0x110B JUMPI DUP1 PUSH1 0x1F LT PUSH2 0x10E0 JUMPI PUSH2 0x100 DUP1 DUP4 SLOAD DIV MUL DUP4 MSTORE SWAP2 PUSH1 0x20 ADD SWAP2 PUSH2 0x110B JUMP JUMPDEST DUP3 ADD SWAP2 SWAP1 PUSH1 0x0 MSTORE PUSH1 0x20 PUSH1 0x0 KECCAK256 SWAP1 JUMPDEST DUP2 SLOAD DUP2 MSTORE SWAP1 PUSH1 0x1 ADD SWAP1 PUSH1 0x20 ADD DUP1 DUP4 GT PUSH2 0x10EE JUMPI DUP3 SWAP1 SUB PUSH1 0x1F AND DUP3 ADD SWAP2 JUMPDEST POP POP POP POP POP SWAP4 POP DUP1 DUP1 SLOAD PUSH2 0x111E SWAP1 PUSH2 0x3192 JUMP JUMPDEST DUP1 PUSH1 0x1F ADD PUSH1 0x20 DUP1 SWAP2 DIV MUL PUSH1 0x20 ADD PUSH1 0x40 MLOAD SWAP1 DUP2 ADD PUSH1 0x40 MSTORE DUP1 SWAP3 SWAP2 SWAP1 DUP2 DUP2 MSTORE PUSH1 0x20 ADD DUP3 DUP1 SLOAD PUSH2 0x114A SWAP1 PUSH2 0x3192 JUMP JUMPDEST DUP1 ISZERO PUSH2 0x1197 JUMPI DUP1 PUSH1 0x1F LT PUSH2 0x116C JUMPI PUSH2 0x100 DUP1 DUP4 SLOAD DIV MUL DUP4 MSTORE SWAP2 PUSH1 0x20 ADD SWAP2 PUSH2 0x1197 JUMP JUMPDEST DUP3 ADD SWAP2 SWAP1 PUSH1 0x0 MSTORE PUSH1 0x20 PUSH1 0x0 KECCAK256 SWAP1 JUMPDEST DUP2 SLOAD DUP2 MSTORE SWAP1 PUSH1 0x1 ADD SWAP1 PUSH1 0x20 ADD DUP1 DUP4 GT PUSH2 0x117A JUMPI DUP3 SWAP1 SUB PUSH1 0x1F AND DUP3 ADD SWAP2 JUMPDEST POP POP POP POP POP SWAP1 POP SWAP7 POP SWAP7 POP SWAP7 POP SWAP7 POP SWAP7 POP SWAP7 POP SWAP7 POP SWAP2 SWAP4 SWAP6 SWAP8 SWAP1 SWAP3 SWAP5 SWAP7 POP JUMP JUMPDEST PUSH1 0x0 SLOAD PUSH1 0x1 PUSH1 0x1 PUSH1 0xA0 SHL SUB SWAP1 DUP2 AND SWAP1 DUP8 AND SUB PUSH2 0x11E5 JUMPI PUSH1 0x40 MLOAD PUSH3 0x461BCD PUSH1 0xE5 SHL DUP2 MSTORE PUSH1 0x4 ADD PUSH2 0x8ED SWAP1 PUSH2 0x3481 JUMP JUMPDEST PUSH1 0x1 PUSH1 0x1 PUSH1 0xA0 SHL SUB DUP7 AND PUSH1 0x0 SWAP1 DUP2 MSTORE PUSH1 0x9 PUSH1 0x20 MSTORE PUSH1 0x40 SWAP1 KECCAK256 SLOAD PUSH1 0xFF AND ISZERO PUSH2 0x121E JUMPI PUSH1 0x40 MLOAD PUSH3 0x461BCD PUSH1 0xE5 SHL DUP2 MSTORE PUSH1 0x4 ADD PUSH2 0x8ED SWAP1 PUSH2 0x34CA JUMP JUMPDEST PUSH1 0x1 PUSH1 0x1 PUSH1 0xA0 SHL SUB DUP7 AND PUSH1 0x0 SWAP1 DUP2 MSTORE PUSH1 0xA PUSH1 0x20 MSTORE PUSH1 0x40 SWAP1 KECCAK256 SLOAD PUSH1 0xFF AND ISZERO PUSH2 0x129A JUMPI PUSH1 0x40 MLOAD PUSH3 0x461BCD PUSH1 0xE5 SHL DUP2 MSTORE PUSH1 0x20 PUSH1 0x4 DUP3 ADD MSTORE PUSH1 0x2A PUSH1 0x24 DUP3 ADD MSTORE PUSH32 0x427579657220616C726561647920457869737473207769746820746865207361 PUSH1 0x44 DUP3 ADD MSTORE PUSH10 0x6D652061646472657373 PUSH1 0xB0 SHL PUSH1 0x64 DUP3 ADD MSTORE PUSH1 0x84 ADD PUSH2 0x8ED JUMP JUMPDEST PUSH1 0x1 PUSH1 0x1 PUSH1 0xA0 SHL SUB DUP7 AND PUSH1 0x0 SWAP1 DUP2 MSTORE PUSH1 0x7 PUSH1 0x20 SWAP1 DUP2 MSTORE PUSH1 0x40 DUP1 DUP4 KECCAK256 PUSH1 0x3 SWAP1 DUP2 ADD SLOAD PUSH1 0x8 SWAP1 SWAP4 MSTORE SWAP3 KECCAK256 SWAP1 SWAP2 ADD SLOAD SUB PUSH2 0x1313 JUMPI PUSH1 0x40 MLOAD PUSH3 0x461BCD PUSH1 0xE5 SHL DUP2 MSTORE PUSH1 0x20 PUSH1 0x4 DUP3 ADD MSTORE PUSH1 0x1B PUSH1 0x24 DUP3 ADD MSTORE PUSH32 0x427579657220776974682073616D6520434E4943206578697374730000000000 PUSH1 0x44 DUP3 ADD MSTORE PUSH1 0x64 ADD PUSH2 0x8ED JUMP JUMPDEST PUSH1 0x1 PUSH1 0x1 PUSH1 0xA0 SHL SUB DUP7 AND PUSH1 0x0 SWAP1 DUP2 MSTORE PUSH1 0x7 PUSH1 0x20 MSTORE PUSH1 0x40 SWAP1 KECCAK256 PUSH1 0x3 ADD SLOAD DUP3 SWAP1 SUB PUSH2 0x137E JUMPI PUSH1 0x40 MLOAD PUSH3 0x461BCD PUSH1 0xE5 SHL DUP2 MSTORE PUSH1 0x20 PUSH1 0x4 DUP3 ADD MSTORE PUSH1 0x1C PUSH1 0x24 DUP3 ADD MSTORE PUSH32 0x53656C6C657220776974682073616D6520434E49432065786973747300000000 PUSH1 0x44 DUP3 ADD MSTORE PUSH1 0x64 ADD PUSH2 0x8ED JUMP JUMPDEST PUSH1 0x1 PUSH1 0x1 PUSH1 0xA0 SHL SUB DUP7 AND PUSH1 0x0 SWAP1 DUP2 MSTORE PUSH1 0x7 PUSH1 0x20 MSTORE PUSH1 0x40 SWAP1 KECCAK256 PUSH2 0x13A0 DUP7 DUP3 PUSH2 0x3515 JUMP JUMPDEST POP PUSH1 0x1 PUSH1 0x1 PUSH1 0xA0 SHL SUB DUP7 AND PUSH1 0x0 SWAP1 DUP2 MSTORE PUSH1 0x7 PUSH1 0x20 MSTORE PUSH1 0x40 SWAP1 KECCAK256 PUSH1 0x1 DUP2 ADD DUP6 SWAP1 SSTORE PUSH1 0x2 ADD PUSH2 0x13CD DUP5 DUP3 PUSH2 0x3515 JUMP JUMPDEST POP PUSH1 0x1 PUSH1 0x1 PUSH1 0xA0 SHL SUB DUP7 AND PUSH1 0x0 SWAP1 DUP2 MSTORE PUSH1 0x7 PUSH1 0x20 MSTORE PUSH1 0x40 SWAP1 KECCAK256 PUSH1 0x3 DUP2 ADD DUP4 SWAP1 SSTORE PUSH1 0x4 ADD PUSH2 0x13FA DUP3 DUP3 PUSH2 0x3515 JUMP JUMPDEST POP PUSH1 0x1 PUSH1 0x1 PUSH1 0xA0 SHL SUB DUP7 AND PUSH1 0x0 SWAP1 DUP2 MSTORE PUSH1 0x9 PUSH1 0x20 MSTORE PUSH1 0x40 DUP2 KECCAK256 DUP1 SLOAD PUSH1 0xFF NOT AND PUSH1 0x1 SWAP1 DUP2 OR SWAP1 SWAP2 SSTORE PUSH1 0x3 DUP1 SLOAD SWAP2 SWAP3 SWAP1 SWAP2 PUSH2 0x1434 SWAP1 DUP5 SWAP1 PUSH2 0x337D JUMP JUMPDEST SWAP1 SWAP2 SSTORE POP POP PUSH1 0x40 MLOAD PUSH1 0x0 DUP1 MLOAD PUSH1 0x20 PUSH2 0x3748 DUP4 CODECOPY DUP2 MLOAD SWAP2 MSTORE SWAP1 PUSH2 0x1459 SWAP1 DUP8 SWAP1 DUP10 SWAP1 PUSH2 0x35CF JUMP JUMPDEST PUSH1 0x40 MLOAD DUP1 SWAP2 SUB SWAP1 LOG1 POP POP POP POP POP POP JUMP JUMPDEST CALLER PUSH1 0x0 SWAP1 DUP2 MSTORE PUSH1 0x8 PUSH1 0x20 MSTORE PUSH1 0x40 SWAP1 KECCAK256 PUSH1 0x5 ADD SLOAD PUSH1 0xFF AND ISZERO ISZERO PUSH1 0x1 EQ PUSH2 0x14DC JUMPI PUSH1 0x40 MLOAD PUSH3 0x461BCD PUSH1 0xE5 SHL DUP2 MSTORE PUSH1 0x20 PUSH1 0x4 DUP3 ADD MSTORE PUSH1 0x24 DUP1 DUP3 ADD MSTORE PUSH32 0x4275796572206E6F74207665726966696564206279206C616E6420696E737065 PUSH1 0x44 DUP3 ADD MSTORE PUSH4 0x31BA37B9 PUSH1 0xE1 SHL PUSH1 0x64 DUP3 ADD MSTORE PUSH1 0x84 ADD PUSH2 0x8ED JUMP JUMPDEST PUSH1 0x0 DUP3 DUP2 MSTORE PUSH1 0x5 PUSH1 0x20 DUP2 SWAP1 MSTORE PUSH1 0x40 SWAP1 SWAP2 KECCAK256 ADD SLOAD PUSH1 0xFF AND ISZERO PUSH2 0x1533 JUMPI PUSH1 0x40 MLOAD PUSH3 0x461BCD PUSH1 0xE5 SHL DUP2 MSTORE PUSH1 0x20 PUSH1 0x4 DUP3 ADD MSTORE PUSH1 0x11 PUSH1 0x24 DUP3 ADD MSTORE PUSH17 0x13185B9908185B1C9958591E481CDBDB19 PUSH1 0x7A SHL PUSH1 0x44 DUP3 ADD MSTORE PUSH1 0x64 ADD PUSH2 0x8ED JUMP JUMPDEST PUSH1 0x0 DUP3 DUP2 MSTORE PUSH1 0x5 PUSH1 0x20 DUP2 DUP2 MSTORE PUSH1 0x40 DUP1 DUP5 KECCAK256 DUP4 ADD SLOAD PUSH1 0x1 PUSH1 0x1 PUSH1 0xA0 SHL SUB PUSH3 0x10000 SWAP1 SWAP2 DIV AND DUP5 MSTORE PUSH1 0x7 SWAP1 SWAP2 MSTORE SWAP1 SWAP2 KECCAK256 ADD SLOAD PUSH1 0xFF AND ISZERO ISZERO PUSH1 0x1 EQ PUSH2 0x1587 JUMPI PUSH1 0x40 MLOAD PUSH3 0x461BCD PUSH1 0xE5 SHL DUP2 MSTORE PUSH1 0x4 ADD PUSH2 0x8ED SWAP1 PUSH2 0x360C JUMP JUMPDEST PUSH1 0x0 DUP3 DUP2 MSTORE PUSH1 0x5 PUSH1 0x20 DUP2 SWAP1 MSTORE PUSH1 0x40 SWAP1 SWAP2 KECCAK256 ADD SLOAD PUSH1 0xFF PUSH2 0x100 SWAP1 SWAP2 DIV AND ISZERO ISZERO PUSH1 0x1 EQ PUSH2 0x15EC JUMPI PUSH1 0x40 MLOAD PUSH3 0x461BCD PUSH1 0xE5 SHL DUP2 MSTORE PUSH1 0x20 PUSH1 0x4 DUP3 ADD MSTORE PUSH1 0x15 PUSH1 0x24 DUP3 ADD MSTORE PUSH21 0x2630B7321034B9903737BA102B32B934B334B2B217 PUSH1 0x59 SHL PUSH1 0x44 DUP3 ADD MSTORE PUSH1 0x64 ADD PUSH2 0x8ED JUMP JUMPDEST PUSH1 0x0 DUP3 DUP2 MSTORE PUSH1 0x5 PUSH1 0x20 MSTORE PUSH1 0x40 SWAP1 KECCAK256 PUSH1 0x4 ADD SLOAD CALLVALUE EQ PUSH2 0x1664 JUMPI PUSH1 0x40 MLOAD PUSH3 0x461BCD PUSH1 0xE5 SHL DUP2 MSTORE PUSH1 0x20 PUSH1 0x4 DUP3 ADD MSTORE PUSH1 0x2F PUSH1 0x24 DUP3 ADD MSTORE PUSH32 0x4C616E64205072696365206973206E6F74206D61746368696E67207769746820 PUSH1 0x44 DUP3 ADD MSTORE PUSH15 0x1D1A19481CD95B9D08185B5BDD5B9D PUSH1 0x8A SHL PUSH1 0x64 DUP3 ADD MSTORE PUSH1 0x84 ADD PUSH2 0x8ED JUMP JUMPDEST PUSH1 0x40 MLOAD PUSH1 0x1 PUSH1 0x1 PUSH1 0xA0 SHL SUB DUP3 AND SWAP1 CALLVALUE DUP1 ISZERO PUSH2 0x8FC MUL SWAP2 PUSH1 0x0 DUP2 DUP2 DUP2 DUP6 DUP9 DUP9 CALL SWAP4 POP POP POP POP ISZERO DUP1 ISZERO PUSH2 0x1699 JUMPI RETURNDATASIZE PUSH1 0x0 DUP1 RETURNDATACOPY RETURNDATASIZE PUSH1 0x0 REVERT JUMPDEST POP PUSH1 0x0 DUP3 DUP2 MSTORE PUSH1 0x5 PUSH1 0x20 DUP2 DUP2 MSTORE PUSH1 0x40 DUP1 DUP5 KECCAK256 DUP1 DUP5 ADD DUP1 SLOAD PUSH3 0x10000 CALLER SWAP1 DUP2 MUL PUSH2 0xFF01 PUSH1 0x1 PUSH1 0xB0 SHL SUB NOT SWAP1 SWAP3 AND SWAP2 SWAP1 SWAP2 OR PUSH1 0x1 OR SWAP1 SWAP2 SSTORE DUP6 MSTORE PUSH1 0x8 DUP4 MSTORE SWAP1 DUP5 KECCAK256 SWAP4 DUP7 SWAP1 MSTORE SWAP2 SWAP1 MSTORE PUSH1 0x6 ADD SWAP1 PUSH2 0x16ED SWAP1 DUP3 PUSH2 0x326D JUMP JUMPDEST POP CALLER PUSH1 0x0 DUP2 DUP2 MSTORE PUSH1 0x8 PUSH1 0x20 MSTORE PUSH1 0x40 SWAP1 DUP2 SWAP1 KECCAK256 SWAP1 MLOAD PUSH1 0x0 DUP1 MLOAD PUSH1 0x20 PUSH2 0x3748 DUP4 CODECOPY DUP2 MLOAD SWAP2 MSTORE SWAP3 PUSH2 0x171B SWAP3 SWAP2 PUSH2 0x3651 JUMP JUMPDEST PUSH1 0x40 MLOAD DUP1 SWAP2 SUB SWAP1 LOG1 POP POP JUMP JUMPDEST CALLER PUSH1 0x0 SWAP1 DUP2 MSTORE PUSH1 0x9 PUSH1 0x20 MSTORE PUSH1 0x40 SWAP1 KECCAK256 SLOAD PUSH1 0xFF AND ISZERO ISZERO PUSH1 0x1 EQ PUSH2 0x178B JUMPI PUSH1 0x40 MLOAD PUSH3 0x461BCD PUSH1 0xE5 SHL DUP2 MSTORE PUSH1 0x20 PUSH1 0x4 DUP3 ADD MSTORE PUSH1 0x19 PUSH1 0x24 DUP3 ADD MSTORE PUSH32 0x53656C6C6572206973206E6F7420526567697374657265642E00000000000000 PUSH1 0x44 DUP3 ADD MSTORE PUSH1 0x64 ADD PUSH2 0x8ED JUMP JUMPDEST CALLER PUSH1 0x0 SWAP1 DUP2 MSTORE PUSH1 0x7 PUSH1 0x20 MSTORE PUSH1 0x40 DUP2 KECCAK256 PUSH1 0x3 ADD SLOAD SWAP1 SUB PUSH2 0x17EC JUMPI PUSH1 0x40 MLOAD PUSH3 0x461BCD PUSH1 0xE5 SHL DUP2 MSTORE PUSH1 0x20 PUSH1 0x4 DUP3 ADD MSTORE PUSH1 0x18 PUSH1 0x24 DUP3 ADD MSTORE PUSH32 0x53656C6C6572206973206E6F7420726567697374657265640000000000000000 PUSH1 0x44 DUP3 ADD MSTORE PUSH1 0x64 ADD PUSH2 0x8ED JUMP JUMPDEST PUSH1 0x40 DUP1 MLOAD PUSH1 0xC0 DUP2 ADD DUP3 MSTORE DUP7 DUP2 MSTORE PUSH1 0x20 DUP1 DUP3 ADD DUP8 SWAP1 MSTORE DUP2 DUP4 ADD DUP7 SWAP1 MSTORE PUSH1 0x60 DUP3 ADD DUP6 SWAP1 MSTORE PUSH1 0x80 DUP3 ADD DUP5 SWAP1 MSTORE PUSH1 0x0 PUSH1 0xA0 DUP4 ADD DUP2 SWAP1 MSTORE CALLER DUP2 MSTORE PUSH1 0x7 SWAP1 SWAP2 MSTORE SWAP2 SWAP1 SWAP2 KECCAK256 DUP2 MLOAD DUP2 SWAP1 PUSH2 0x1838 SWAP1 DUP3 PUSH2 0x3515 JUMP JUMPDEST POP PUSH1 0x20 DUP3 ADD MLOAD PUSH1 0x1 DUP3 ADD SSTORE PUSH1 0x40 DUP3 ADD MLOAD PUSH1 0x2 DUP3 ADD SWAP1 PUSH2 0x1857 SWAP1 DUP3 PUSH2 0x3515 JUMP JUMPDEST POP PUSH1 0x60 DUP3 ADD MLOAD PUSH1 0x3 DUP3 ADD SSTORE PUSH1 0x80 DUP3 ADD MLOAD PUSH1 0x4 DUP3 ADD SWAP1 PUSH2 0x1876 SWAP1 DUP3 PUSH2 0x3515 JUMP JUMPDEST POP PUSH1 0xA0 SWAP2 SWAP1 SWAP2 ADD MLOAD PUSH1 0x5 SWAP1 SWAP2 ADD DUP1 SLOAD PUSH1 0xFF NOT AND SWAP2 ISZERO ISZERO SWAP2 SWAP1 SWAP2 OR SWAP1 SSTORE PUSH1 0x40 MLOAD PUSH1 0x0 DUP1 MLOAD PUSH1 0x20 PUSH2 0x3748 DUP4 CODECOPY DUP2 MLOAD SWAP2 MSTORE SWAP1 PUSH2 0x18B2 SWAP1 DUP8 SWAP1 CALLER SWAP1 PUSH2 0x3698 JUMP JUMPDEST PUSH1 0x40 MLOAD DUP1 SWAP2 SUB SWAP1 LOG1 POP POP POP POP POP JUMP JUMPDEST PUSH1 0x0 SLOAD PUSH1 0x1 PUSH1 0x1 PUSH1 0xA0 SHL SUB SWAP1 DUP2 AND SWAP1 DUP8 AND SUB PUSH2 0x18EF JUMPI PUSH1 0x40 MLOAD PUSH3 0x461BCD PUSH1 0xE5 SHL DUP2 MSTORE PUSH1 0x4 ADD PUSH2 0x8ED SWAP1 PUSH2 0x3481 JUMP JUMPDEST PUSH1 0x1 PUSH1 0x1 PUSH1 0xA0 SHL SUB DUP7 AND PUSH1 0x0 SWAP1 DUP2 MSTORE PUSH1 0xA PUSH1 0x20 MSTORE PUSH1 0x40 SWAP1 KECCAK256 SLOAD PUSH1 0xFF AND ISZERO PUSH2 0x1972 JUMPI PUSH1 0x40 MLOAD PUSH3 0x461BCD PUSH1 0xE5 SHL DUP2 MSTORE PUSH1 0x20 PUSH1 0x4 DUP3 ADD MSTORE PUSH1 0x31 PUSH1 0x24 DUP3 ADD MSTORE PUSH32 0x427579657220697320616C726561647920726567697374657265642077697468 PUSH1 0x44 DUP3 ADD MSTORE PUSH17 0x207468652073616D652061646472657373 PUSH1 0x78 SHL PUSH1 0x64 DUP3 ADD MSTORE PUSH1 0x84 ADD PUSH2 0x8ED JUMP JUMPDEST PUSH1 0x1 PUSH1 0x1 PUSH1 0xA0 SHL SUB DUP7 AND PUSH1 0x0 SWAP1 DUP2 MSTORE PUSH1 0x9 PUSH1 0x20 MSTORE PUSH1 0x40 SWAP1 KECCAK256 SLOAD PUSH1 0xFF AND ISZERO PUSH2 0x19AB JUMPI PUSH1 0x40 MLOAD PUSH3 0x461BCD PUSH1 0xE5 SHL DUP2 MSTORE PUSH1 0x4 ADD PUSH2 0x8ED SWAP1 PUSH2 0x34CA JUMP JUMPDEST PUSH1 0x1 PUSH1 0x1 PUSH1 0xA0 SHL SUB DUP7 AND PUSH1 0x0 SWAP1 DUP2 MSTORE PUSH1 0x7 PUSH1 0x20 SWAP1 DUP2 MSTORE PUSH1 0x40 DUP1 DUP4 KECCAK256 PUSH1 0x3 SWAP1 DUP2 ADD SLOAD PUSH1 0x8 SWAP1 SWAP4 MSTORE SWAP3 KECCAK256 SWAP1 SWAP2 ADD SLOAD SUB PUSH2 0x1A24 JUMPI PUSH1 0x40 MLOAD PUSH3 0x461BCD PUSH1 0xE5 SHL DUP2 MSTORE PUSH1 0x20 PUSH1 0x4 DUP3 ADD MSTORE PUSH1 0x1C PUSH1 0x24 DUP3 ADD MSTORE PUSH32 0x53656C6C657220776974682073616D6520434E49432065786973747300000000 PUSH1 0x44 DUP3 ADD MSTORE PUSH1 0x64 ADD PUSH2 0x8ED JUMP JUMPDEST PUSH1 0x1 PUSH1 0x1 PUSH1 0xA0 SHL SUB DUP7 AND PUSH1 0x0 SWAP1 DUP2 MSTORE PUSH1 0x8 PUSH1 0x20 MSTORE PUSH1 0x40 SWAP1 KECCAK256 PUSH1 0x3 ADD SLOAD DUP3 SWAP1 SUB PUSH2 0x1A8F JUMPI PUSH1 0x40 MLOAD PUSH3 0x461BCD PUSH1 0xE5 SHL DUP2 MSTORE PUSH1 0x20 PUSH1 0x4 DUP3 ADD MSTORE PUSH1 0x1B PUSH1 0x24 DUP3 ADD MSTORE PUSH32 0x427579657220776974682073616D6520434E4943206578697374730000000000 PUSH1 0x44 DUP3 ADD MSTORE PUSH1 0x64 ADD PUSH2 0x8ED JUMP JUMPDEST PUSH1 0x1 PUSH1 0x1 PUSH1 0xA0 SHL SUB DUP7 AND PUSH1 0x0 SWAP1 DUP2 MSTORE PUSH1 0x8 PUSH1 0x20 MSTORE PUSH1 0x40 SWAP1 KECCAK256 PUSH2 0x1AB1 DUP7 DUP3 PUSH2 0x3515 JUMP JUMPDEST POP PUSH1 0x1 PUSH1 0x1 PUSH1 0xA0 SHL SUB DUP7 AND PUSH1 0x0 SWAP1 DUP2 MSTORE PUSH1 0x8 PUSH1 0x20 MSTORE PUSH1 0x40 SWAP1 KECCAK256 PUSH1 0x1 DUP2 ADD DUP6 SWAP1 SSTORE PUSH1 0x2 ADD PUSH2 0x1ADE DUP5 DUP3 PUSH2 0x3515 JUMP JUMPDEST POP PUSH1 0x1 PUSH1 0x1 PUSH1 0xA0 SHL SUB DUP7 AND PUSH1 0x0 SWAP1 DUP2 MSTORE PUSH1 0x8 PUSH1 0x20 MSTORE PUSH1 0x40 SWAP1 KECCAK256 PUSH1 0x3 DUP2 ADD DUP4 SWAP1 SSTORE PUSH1 0x4 ADD PUSH2 0x1B0B DUP3 DUP3 PUSH2 0x3515 JUMP JUMPDEST POP PUSH1 0x1 PUSH1 0x1 PUSH1 0xA0 SHL SUB DUP7 AND PUSH1 0x0 SWAP1 DUP2 MSTORE PUSH1 0xA PUSH1 0x20 MSTORE PUSH1 0x40 DUP2 KECCAK256 DUP1 SLOAD PUSH1 0xFF NOT AND PUSH1 0x1 SWAP1 DUP2 OR SWAP1 SWAP2 SSTORE PUSH1 0x4 DUP1 SLOAD SWAP2 SWAP3 SWAP1 SWAP2 PUSH2 0x1B45 SWAP1 DUP5 SWAP1 PUSH2 0x337D JUMP JUMPDEST SWAP1 SWAP2 SSTORE POP POP PUSH1 0x40 MLOAD PUSH1 0x0 DUP1 MLOAD PUSH1 0x20 PUSH2 0x3748 DUP4 CODECOPY DUP2 MLOAD SWAP2 MSTORE SWAP1 PUSH2 0x1459 SWAP1 DUP8 SWAP1 DUP10 SWAP1 PUSH2 0x36D2 JUMP JUMPDEST PUSH1 0x8 PUSH1 0x20 MSTORE PUSH1 0x0 SWAP1 DUP2 MSTORE PUSH1 0x40 SWAP1 KECCAK256 DUP1 SLOAD DUP2 SWAP1 PUSH2 0x1B85 SWAP1 PUSH2 0x3192 JUMP JUMPDEST DUP1 PUSH1 0x1F ADD PUSH1 0x20 DUP1 SWAP2 DIV MUL PUSH1 0x20 ADD PUSH1 0x40 MLOAD SWAP1 DUP2 ADD PUSH1 0x40 MSTORE DUP1 SWAP3 SWAP2 SWAP1 DUP2 DUP2 MSTORE PUSH1 0x20 ADD DUP3 DUP1 SLOAD PUSH2 0x1BB1 SWAP1 PUSH2 0x3192 JUMP JUMPDEST DUP1 ISZERO PUSH2 0x1BFE JUMPI DUP1 PUSH1 0x1F LT PUSH2 0x1BD3 JUMPI PUSH2 0x100 DUP1 DUP4 SLOAD DIV MUL DUP4 MSTORE SWAP2 PUSH1 0x20 ADD SWAP2 PUSH2 0x1BFE JUMP JUMPDEST DUP3 ADD SWAP2 SWAP1 PUSH1 0x0 MSTORE PUSH1 0x20 PUSH1 0x0 KECCAK256 SWAP1 JUMPDEST DUP2 SLOAD DUP2 MSTORE SWAP1 PUSH1 0x1 ADD SWAP1 PUSH1 0x20 ADD DUP1 DUP4 GT PUSH2 0x1BE1 JUMPI DUP3 SWAP1 SUB PUSH1 0x1F AND DUP3 ADD SWAP2 JUMPDEST POP POP POP POP POP SWAP1 DUP1 PUSH1 0x1 ADD SLOAD SWAP1 DUP1 PUSH1 0x2 ADD DUP1 SLOAD PUSH2 0x1C19 SWAP1 PUSH2 0x3192 JUMP JUMPDEST DUP1 PUSH1 0x1F ADD PUSH1 0x20 DUP1 SWAP2 DIV MUL PUSH1 0x20 ADD PUSH1 0x40 MLOAD SWAP1 DUP2 ADD PUSH1 0x40 MSTORE DUP1 SWAP3 SWAP2 SWAP1 DUP2 DUP2 MSTORE PUSH1 0x20 ADD DUP3 DUP1 SLOAD PUSH2 0x1C45 SWAP1 PUSH2 0x3192 JUMP JUMPDEST DUP1 ISZERO PUSH2 0x1C92 JUMPI DUP1 PUSH1 0x1F LT PUSH2 0x1C67 JUMPI PUSH2 0x100 DUP1 DUP4 SLOAD DIV MUL DUP4 MSTORE SWAP2 PUSH1 0x20 ADD SWAP2 PUSH2 0x1C92 JUMP JUMPDEST DUP3 ADD SWAP2 SWAP1 PUSH1 0x0 MSTORE PUSH1 0x20 PUSH1 0x0 KECCAK256 SWAP1 JUMPDEST DUP2 SLOAD DUP2 MSTORE SWAP1 PUSH1 0x1 ADD SWAP1 PUSH1 0x20 ADD DUP1 DUP4 GT PUSH2 0x1C75 JUMPI DUP3 SWAP1 SUB PUSH1 0x1F AND DUP3 ADD SWAP2 JUMPDEST POP POP POP POP POP SWAP1 DUP1 PUSH1 0x3 ADD SLOAD SWAP1 DUP1 PUSH1 0x4 ADD DUP1 SLOAD PUSH2 0x1CAD SWAP1 PUSH2 0x3192 JUMP JUMPDEST DUP1 PUSH1 0x1F ADD PUSH1 0x20 DUP1 SWAP2 DIV MUL PUSH1 0x20 ADD PUSH1 0x40 MLOAD SWAP1 DUP2 ADD PUSH1 0x40 MSTORE DUP1 SWAP3 SWAP2 SWAP1 DUP2 DUP2 MSTORE PUSH1 0x20 ADD DUP3 DUP1 SLOAD PUSH2 0x1CD9 SWAP1 PUSH2 0x3192 JUMP JUMPDEST DUP1 ISZERO PUSH2 0x1D26 JUMPI DUP1 PUSH1 0x1F LT PUSH2 0x1CFB JUMPI PUSH2 0x100 DUP1 DUP4 SLOAD DIV MUL DUP4 MSTORE SWAP2 PUSH1 0x20 ADD SWAP2 PUSH2 0x1D26 JUMP JUMPDEST DUP3 ADD SWAP2 SWAP1 PUSH1 0x0 MSTORE PUSH1 0x20 PUSH1 0x0 KECCAK256 SWAP1 JUMPDEST DUP2 SLOAD DUP2 MSTORE SWAP1 PUSH1 0x1 ADD SWAP1 PUSH1 0x20 ADD DUP1 DUP4 GT PUSH2 0x1D09 JUMPI DUP3 SWAP1 SUB PUSH1 0x1F AND DUP3 ADD SWAP2 JUMPDEST POP POP POP PUSH1 0x5 SWAP1 SWAP4 ADD SLOAD SWAP2 SWAP3 POP POP PUSH1 0xFF AND DUP7 JUMP JUMPDEST PUSH1 0x0 DUP3 DUP2 MSTORE PUSH1 0x5 PUSH1 0x20 DUP2 DUP2 MSTORE PUSH1 0x40 DUP1 DUP5 KECCAK256 DUP4 ADD SLOAD PUSH1 0x1 PUSH1 0x1 PUSH1 0xA0 SHL SUB PUSH3 0x10000 SWAP1 SWAP2 DIV AND DUP5 MSTORE PUSH1 0x7 SWAP1 SWAP2 MSTORE SWAP1 SWAP2 KECCAK256 ADD SLOAD PUSH1 0xFF AND ISZERO ISZERO PUSH1 0x1 EQ PUSH2 0x1D8D JUMPI PUSH1 0x40 MLOAD PUSH3 0x461BCD PUSH1 0xE5 SHL DUP2 MSTORE PUSH1 0x4 ADD PUSH2 0x8ED SWAP1 PUSH2 0x360C JUMP JUMPDEST PUSH1 0x0 DUP3 DUP2 MSTORE PUSH1 0x5 PUSH1 0x20 DUP2 SWAP1 MSTORE PUSH1 0x40 SWAP1 SWAP2 KECCAK256 ADD SLOAD PUSH1 0xFF AND ISZERO PUSH2 0x1E0A JUMPI PUSH1 0x40 MLOAD PUSH3 0x461BCD PUSH1 0xE5 SHL DUP2 MSTORE PUSH1 0x20 PUSH1 0x4 DUP3 ADD MSTORE PUSH1 0x31 PUSH1 0x24 DUP3 ADD MSTORE PUSH32 0x4C616E6420697320736F6C642C20736F2063616E2774207472616E7366657220 PUSH1 0x44 DUP3 ADD MSTORE PUSH17 0x3A379030B737BA3432B91039B2B63632B9 PUSH1 0x79 SHL PUSH1 0x64 DUP3 ADD MSTORE PUSH1 0x84 ADD PUSH2 0x8ED JUMP JUMPDEST PUSH1 0x0 DUP3 DUP2 MSTORE PUSH1 0x5 PUSH1 0x20 DUP2 SWAP1 MSTORE PUSH1 0x40 SWAP1 SWAP2 KECCAK256 ADD SLOAD PUSH3 0x10000 SWAP1 DIV PUSH1 0x1 PUSH1 0x1 PUSH1 0xA0 SHL SUB AND CALLER EQ PUSH2 0x1E93 JUMPI PUSH1 0x40 MLOAD PUSH3 0x461BCD PUSH1 0xE5 SHL DUP2 MSTORE PUSH1 0x20 PUSH1 0x4 DUP3 ADD MSTORE PUSH1 0x30 PUSH1 0x24 DUP3 ADD MSTORE PUSH32 0x4F6E6C79204C616E64204F776E657220697320616C6C6F77656420746F207472 PUSH1 0x44 DUP3 ADD MSTORE PUSH16 0x616E73666572204F776E65727368697 PUSH1 0x84 SHL PUSH1 0x64 DUP3 ADD MSTORE PUSH1 0x84 ADD PUSH2 0x8ED JUMP JUMPDEST PUSH1 0x0 DUP3 DUP2 MSTORE PUSH1 0x5 PUSH1 0x20 DUP2 DUP2 MSTORE PUSH1 0x40 DUP1 DUP5 KECCAK256 DUP1 DUP5 ADD DUP1 SLOAD PUSH3 0x10000 PUSH1 0x1 PUSH1 0xB0 SHL SUB NOT AND PUSH3 0x10000 PUSH1 0x1 PUSH1 0x1 PUSH1 0xA0 SHL SUB DUP10 AND SWAP1 DUP2 MUL SWAP2 SWAP1 SWAP2 OR SWAP1 SWAP2 SSTORE DUP6 MSTORE PUSH1 0x7 DUP4 MSTORE SWAP1 DUP5 KECCAK256 SWAP4 DUP7 SWAP1 MSTORE SWAP2 SWAP1 MSTORE PUSH1 0x6 ADD SWAP1 PUSH2 0x1EEB SWAP1 DUP3 PUSH2 0x326D JUMP JUMPDEST POP PUSH1 0x1 PUSH1 0x1 PUSH1 0xA0 SHL SUB DUP2 AND PUSH1 0x0 SWAP1 DUP2 MSTORE PUSH1 0x7 PUSH1 0x20 MSTORE PUSH1 0x40 SWAP1 DUP2 SWAP1 KECCAK256 SWAP1 MLOAD PUSH1 0x0 DUP1 MLOAD PUSH1 0x20 PUSH2 0x3748 DUP4 CODECOPY DUP2 MLOAD SWAP2 MSTORE SWAP2 PUSH2 0x171B SWAP2 DUP5 SWAP1 PUSH2 0x3651 JUMP JUMPDEST PUSH1 0x0 SLOAD PUSH1 0x1 PUSH1 0x1 PUSH1 0xA0 SHL SUB AND CALLER EQ PUSH2 0x1F4D JUMPI PUSH1 0x40 MLOAD PUSH3 0x461BCD PUSH1 0xE5 SHL DUP2 MSTORE PUSH1 0x4 ADD PUSH2 0x8ED SWAP1 PUSH2 0x31CC JUMP JUMPDEST PUSH1 0x1 PUSH1 0x1 PUSH1 0xA0 SHL SUB DUP2 AND PUSH1 0x0 SWAP1 DUP2 MSTORE PUSH1 0x9 PUSH1 0x20 MSTORE PUSH1 0x40 SWAP1 KECCAK256 SLOAD PUSH1 0xFF AND ISZERO ISZERO PUSH1 0x1 EQ PUSH2 0x1FD2 JUMPI PUSH1 0x40 MLOAD PUSH3 0x461BCD PUSH1 0xE5 SHL DUP2 MSTORE PUSH1 0x20 PUSH1 0x4 DUP3 ADD MSTORE PUSH1 0x2F PUSH1 0x24 DUP3 ADD MSTORE PUSH32 0x53656C6C65722077697468207468652070726F76696465642041646472657373 PUSH1 0x44 DUP3 ADD MSTORE PUSH15 0x8191BD95CC81B9BDD08115E1A5CDD PUSH1 0x8A SHL PUSH1 0x64 DUP3 ADD MSTORE PUSH1 0x84 ADD PUSH2 0x8ED JUMP JUMPDEST PUSH1 0x1 PUSH1 0x1 PUSH1 0xA0 SHL SUB DUP2 AND PUSH1 0x0 SWAP1 DUP2 MSTORE PUSH1 0x7 PUSH1 0x20 MSTORE PUSH1 0x40 SWAP1 KECCAK256 PUSH1 0x5 ADD SLOAD PUSH1 0xFF AND ISZERO PUSH2 0x2058 JUMPI PUSH1 0x40 MLOAD PUSH3 0x461BCD PUSH1 0xE5 SHL DUP2 MSTORE PUSH1 0x20 PUSH1 0x4 DUP3 ADD MSTORE PUSH1 0x31 PUSH1 0x24 DUP3 ADD MSTORE PUSH32 0x53656C6C65722073776974682070726F76696465642061646472657373206973 PUSH1 0x44 DUP3 ADD MSTORE PUSH17 0x8185B1C9958591E481D995C9A599A5959 PUSH1 0x7A SHL PUSH1 0x64 DUP3 ADD MSTORE PUSH1 0x84 ADD PUSH2 0x8ED JUMP JUMPDEST PUSH1 0x1 PUSH1 0x1 PUSH1 0xA0 SHL SUB DUP2 AND PUSH1 0x0 SWAP1 DUP2 MSTORE PUSH1 0xA PUSH1 0x20 MSTORE PUSH1 0x40 SWAP1 KECCAK256 SLOAD PUSH1 0xFF AND ISZERO PUSH2 0x20D4 JUMPI PUSH1 0x40 MLOAD PUSH3 0x461BCD PUSH1 0xE5 SHL DUP2 MSTORE PUSH1 0x20 PUSH1 0x4 DUP3 ADD MSTORE PUSH1 0x2A PUSH1 0x24 DUP3 ADD MSTORE PUSH32 0x427579657220776974682070726F7669646564206164647265737320616C7265 PUSH1 0x44 DUP3 ADD MSTORE PUSH10 0x30B23C9032BC34B9BA17 PUSH1 0xB1 SHL PUSH1 0x64 DUP3 ADD MSTORE PUSH1 0x84 ADD PUSH2 0x8ED JUMP JUMPDEST PUSH1 0x1 PUSH1 0x1 PUSH1 0xA0 SHL SUB DUP2 AND PUSH1 0x0 SWAP1 DUP2 MSTORE PUSH1 0x7 PUSH1 0x20 MSTORE PUSH1 0x40 SWAP1 DUP2 SWAP1 KECCAK256 PUSH1 0x5 DUP2 ADD DUP1 SLOAD PUSH1 0xFF NOT AND PUSH1 0x1 OR SWAP1 SSTORE SWAP1 MLOAD PUSH1 0x0 DUP1 MLOAD PUSH1 0x20 PUSH2 0x3748 DUP4 CODECOPY DUP2 MLOAD SWAP2 MSTORE SWAP2 PUSH2 0xEAC SWAP2 DUP5 SWAP1 PUSH2 0x340D JUMP JUMPDEST PUSH1 0x0 SLOAD PUSH1 0x1 PUSH1 0x1 PUSH1 0xA0 SHL SUB AND CALLER EQ PUSH2 0x2144 JUMPI PUSH1 0x40 MLOAD PUSH3 0x461BCD PUSH1 0xE5 SHL DUP2 MSTORE PUSH1 0x4 ADD PUSH2 0x8ED SWAP1 PUSH2 0x31CC JUMP JUMPDEST PUSH1 0x1 PUSH1 0x1 PUSH1 0xA0 SHL SUB DUP2 AND PUSH1 0x0 SWAP1 DUP2 MSTORE PUSH1 0xA PUSH1 0x20 MSTORE PUSH1 0x40 SWAP1 KECCAK256 SLOAD PUSH1 0xFF AND ISZERO ISZERO PUSH1 0x1 EQ PUSH2 0x21CB JUMPI PUSH1 0x40 MLOAD PUSH3 0x461BCD PUSH1 0xE5 SHL DUP2 MSTORE PUSH1 0x20 PUSH1 0x4 DUP3 ADD MSTORE PUSH1 0x31 PUSH1 0x24 DUP3 ADD MSTORE PUSH32 0x4275796572206973206E6F742072656769737465726564207769746820746865 PUSH1 0x44 DUP3 ADD MSTORE PUSH17 0x2070726F76696465642041646472657373 PUSH1 0x78 SHL PUSH1 0x64 DUP3 ADD MSTORE PUSH1 0x84 ADD PUSH2 0x8ED JUMP JUMPDEST PUSH1 0x1 PUSH1 0x1 PUSH1 0xA0 SHL SUB DUP2 AND PUSH1 0x0 SWAP1 DUP2 MSTORE PUSH1 0x8 PUSH1 0x20 MSTORE PUSH1 0x40 SWAP1 KECCAK256 PUSH1 0x5 ADD SLOAD PUSH1 0xFF AND ISZERO ISZERO PUSH1 0x1 EQ PUSH2 0x224F JUMPI PUSH1 0x40 MLOAD PUSH3 0x461BCD PUSH1 0xE5 SHL DUP2 MSTORE PUSH1 0x20 PUSH1 0x4 DUP3 ADD MSTORE PUSH1 0x2B PUSH1 0x24 DUP3 ADD MSTORE PUSH32 0x4275796572206973206E6F7420766572696669656420627920746865204C616E PUSH1 0x44 DUP3 ADD MSTORE PUSH11 0x321024B739B832B1BA37B9 PUSH1 0xA9 SHL PUSH1 0x64 DUP3 ADD MSTORE PUSH1 0x84 ADD PUSH2 0x8ED JUMP JUMPDEST PUSH1 0x1 PUSH1 0x1 PUSH1 0xA0 SHL SUB DUP2 AND PUSH1 0x0 SWAP1 DUP2 MSTORE PUSH1 0x8 PUSH1 0x20 SWAP1 DUP2 MSTORE PUSH1 0x40 DUP1 DUP4 KECCAK256 PUSH1 0x7 SWAP1 SWAP3 MSTORE SWAP1 SWAP2 KECCAK256 SWAP1 PUSH2 0x227D SWAP1 DUP3 PUSH2 0x326D JUMP JUMPDEST POP PUSH1 0x1 PUSH1 0x1 PUSH1 0xA0 SHL SUB DUP2 AND PUSH1 0x0 SWAP1 DUP2 MSTORE PUSH1 0x8 PUSH1 0x20 SWAP1 DUP2 MSTORE PUSH1 0x40 DUP1 DUP4 KECCAK256 PUSH1 0x1 DUP1 DUP3 ADD SLOAD PUSH1 0x7 SWAP1 SWAP5 MSTORE SWAP2 SWAP1 SWAP4 KECCAK256 SWAP1 DUP2 ADD SWAP2 SWAP1 SWAP2 SSTORE PUSH1 0x2 SWAP1 DUP2 ADD SWAP2 PUSH2 0x22C0 SWAP2 ADD DUP3 PUSH2 0x326D JUMP JUMPDEST POP PUSH1 0x1 PUSH1 0x1 PUSH1 0xA0 SHL SUB DUP2 AND PUSH1 0x0 SWAP1 DUP2 MSTORE PUSH1 0x8 PUSH1 0x20 SWAP1 DUP2 MSTORE PUSH1 0x40 DUP1 DUP4 KECCAK256 PUSH1 0x3 DUP1 DUP3 ADD SLOAD PUSH1 0x7 SWAP1 SWAP5 MSTORE SWAP2 SWAP1 SWAP4 KECCAK256 SWAP1 DUP2 ADD SWAP2 SWAP1 SWAP2 SSTORE PUSH1 0x4 SWAP1 DUP2 ADD SWAP2 PUSH2 0x2303 SWAP2 ADD DUP3 PUSH2 0x326D JUMP JUMPDEST POP PUSH1 0x1 PUSH1 0x1 PUSH1 0xA0 SHL SUB DUP2 AND PUSH1 0x0 SWAP1 DUP2 MSTORE PUSH1 0x7 PUSH1 0x20 SWAP1 DUP2 MSTORE PUSH1 0x40 DUP1 DUP4 KECCAK256 PUSH1 0x5 ADD DUP1 SLOAD PUSH1 0xFF NOT SWAP1 DUP2 AND SWAP1 SWAP2 SSTORE PUSH1 0xA DUP4 MSTORE DUP2 DUP5 KECCAK256 DUP1 SLOAD DUP3 AND SWAP1 SSTORE PUSH1 0x9 SWAP1 SWAP3 MSTORE DUP3 KECCAK256 DUP1 SLOAD SWAP1 SWAP2 AND PUSH1 0x1 SWAP1 DUP2 OR SWAP1 SWAP2 SSTORE PUSH1 0x3 DUP1 SLOAD SWAP2 SWAP3 SWAP1 SWAP2 PUSH2 0x2361 SWAP1 DUP5 SWAP1 PUSH2 0x337D JUMP JUMPDEST SWAP3 POP POP DUP2 SWAP1 SSTORE POP PUSH1 0x1 PUSH1 0x4 PUSH1 0x0 DUP3 DUP3 SLOAD PUSH2 0x237B SWAP2 SWAP1 PUSH2 0x3364 JUMP JUMPDEST SWAP1 SWAP2 SSTORE POP POP PUSH1 0x1 PUSH1 0x1 PUSH1 0xA0 SHL SUB DUP2 AND PUSH1 0x0 SWAP1 DUP2 MSTORE PUSH1 0x8 PUSH1 0x20 MSTORE PUSH1 0x40 DUP2 KECCAK256 SWAP1 PUSH2 0xB58 DUP3 DUP3 PUSH2 0x2C1C JUMP JUMPDEST PUSH1 0x7 PUSH1 0x20 MSTORE PUSH1 0x0 SWAP1 DUP2 MSTORE PUSH1 0x40 SWAP1 KECCAK256 DUP1 SLOAD DUP2 SWAP1 PUSH2 0x1B85 SWAP1 PUSH2 0x3192 JUMP JUMPDEST PUSH1 0x6 PUSH1 0x20 MSTORE PUSH1 0x0 SWAP1 DUP2 MSTORE PUSH1 0x40 SWAP1 KECCAK256 DUP1 SLOAD PUSH1 0x1 DUP3 ADD DUP1 SLOAD PUSH1 0x1 PUSH1 0x1 PUSH1 0xA0 SHL SUB SWAP1 SWAP3 AND SWAP3 SWAP2 PUSH2 0x23EA SWAP1 PUSH2 0x3192 JUMP JUMPDEST DUP1 PUSH1 0x1F ADD PUSH1 0x20 DUP1 SWAP2 DIV MUL PUSH1 0x20 ADD PUSH1 0x40 MLOAD SWAP1 DUP2 ADD PUSH1 0x40 MSTORE DUP1 SWAP3 SWAP2 SWAP1 DUP2 DUP2 MSTORE PUSH1 0x20 ADD DUP3 DUP1 SLOAD PUSH2 0x2416 SWAP1 PUSH2 0x3192 JUMP JUMPDEST DUP1 ISZERO PUSH2 0x2463 JUMPI DUP1 PUSH1 0x1F LT PUSH2 0x2438 JUMPI PUSH2 0x100 DUP1 DUP4 SLOAD DIV MUL DUP4 MSTORE SWAP2 PUSH1 0x20 ADD SWAP2 PUSH2 0x2463 JUMP JUMPDEST DUP3 ADD SWAP2 SWAP1 PUSH1 0x0 MSTORE PUSH1 0x20 PUSH1 0x0 KECCAK256 SWAP1 JUMPDEST DUP2 SLOAD DUP2 MSTORE SWAP1 PUSH1 0x1 ADD SWAP1 PUSH1 0x20 ADD DUP1 DUP4 GT PUSH2 0x2446 JUMPI DUP3 SWAP1 SUB PUSH1 0x1F AND DUP3 ADD SWAP2 JUMPDEST POP POP POP POP POP SWAP1 DUP1 PUSH1 0x2 ADD SLOAD SWAP1 DUP1 PUSH1 0x3 ADD DUP1 SLOAD PUSH2 0x247E SWAP1 PUSH2 0x3192 JUMP JUMPDEST DUP1 PUSH1 0x1F ADD PUSH1 0x20 DUP1 SWAP2 DIV MUL PUSH1 0x20 ADD PUSH1 0x40 MLOAD SWAP1 DUP2 ADD PUSH1 0x40 MSTORE DUP1 SWAP3 SWAP2 SWAP1 DUP2 DUP2 MSTORE PUSH1 0x20 ADD DUP3 DUP1 SLOAD PUSH2 0x24AA SWAP1 PUSH2 0x3192 JUMP JUMPDEST DUP1 ISZERO PUSH2 0x24F7 JUMPI DUP1 PUSH1 0x1F LT PUSH2 0x24CC JUMPI PUSH2 0x100 DUP1 DUP4 SLOAD DIV MUL DUP4 MSTORE SWAP2 PUSH1 0x20 ADD SWAP2 PUSH2 0x24F7 JUMP JUMPDEST DUP3 ADD SWAP2 SWAP1 PUSH1 0x0 MSTORE PUSH1 0x20 PUSH1 0x0 KECCAK256 SWAP1 JUMPDEST DUP2 SLOAD DUP2 MSTORE SWAP1 PUSH1 0x1 ADD SWAP1 PUSH1 0x20 ADD DUP1 DUP4 GT PUSH2 0x24DA JUMPI DUP3 SWAP1 SUB PUSH1 0x1F AND DUP3 ADD SWAP2 JUMPDEST POP POP POP POP POP SWAP1 POP DUP5 JUMP JUMPDEST CALLER PUSH1 0x0 SWAP1 DUP2 MSTORE PUSH1 0xA PUSH1 0x20 MSTORE PUSH1 0x40 SWAP1 KECCAK256 SLOAD PUSH1 0xFF AND ISZERO ISZERO PUSH1 0x1 EQ PUSH2 0x2565 JUMPI PUSH1 0x40 MLOAD PUSH3 0x461BCD PUSH1 0xE5 SHL DUP2 MSTORE PUSH1 0x20 PUSH1 0x4 DUP3 ADD MSTORE PUSH1 0x18 PUSH1 0x24 DUP3 ADD MSTORE PUSH32 0x4275796572206973206E6F7420526567697374657265642E0000000000000000 PUSH1 0x44 DUP3 ADD MSTORE PUSH1 0x64 ADD PUSH2 0x8ED JUMP JUMPDEST CALLER PUSH1 0x0 SWAP1 DUP2 MSTORE PUSH1 0x8 PUSH1 0x20 MSTORE PUSH1 0x40 DUP2 KECCAK256 PUSH1 0x3 ADD SLOAD SWAP1 SUB PUSH2 0x25C6 JUMPI PUSH1 0x40 MLOAD PUSH3 0x461BCD PUSH1 0xE5 SHL DUP2 MSTORE PUSH1 0x20 PUSH1 0x4 DUP3 ADD MSTORE PUSH1 0x17 PUSH1 0x24 DUP3 ADD MSTORE PUSH32 0x4275796572206973206E6F742072656769737465726564000000000000000000 PUSH1 0x44 DUP3 ADD MSTORE PUSH1 0x64 ADD PUSH2 0x8ED JUMP JUMPDEST PUSH1 0x40 DUP1 MLOAD PUSH1 0xC0 DUP2 ADD DUP3 MSTORE DUP7 DUP2 MSTORE PUSH1 0x20 DUP1 DUP3 ADD DUP8 SWAP1 MSTORE DUP2 DUP4 ADD DUP7 SWAP1 MSTORE PUSH1 0x60 DUP3 ADD DUP6 SWAP1 MSTORE PUSH1 0x80 DUP3 ADD DUP5 SWAP1 MSTORE PUSH1 0x0 PUSH1 0xA0 DUP4 ADD DUP2 SWAP1 MSTORE CALLER DUP2 MSTORE PUSH1 0x8 SWAP1 SWAP2 MSTORE SWAP2 SWAP1 SWAP2 KECCAK256 DUP2 MLOAD DUP2 SWAP1 PUSH2 0x2612 SWAP1 DUP3 PUSH2 0x3515 JUMP JUMPDEST POP PUSH1 0x20 DUP3 ADD MLOAD PUSH1 0x1 DUP3 ADD SSTORE PUSH1 0x40 DUP3 ADD MLOAD PUSH1 0x2 DUP3 ADD SWAP1 PUSH2 0x2631 SWAP1 DUP3 PUSH2 0x3515 JUMP JUMPDEST POP PUSH1 0x60 DUP3 ADD MLOAD PUSH1 0x3 DUP3 ADD SSTORE PUSH1 0x80 DUP3 ADD MLOAD PUSH1 0x4 DUP3 ADD SWAP1 PUSH2 0x2650 SWAP1 DUP3 PUSH2 0x3515 JUMP JUMPDEST POP PUSH1 0xA0 SWAP2 SWAP1 SWAP2 ADD MLOAD PUSH1 0x5 SWAP1 SWAP2 ADD DUP1 SLOAD PUSH1 0xFF NOT AND SWAP2 ISZERO ISZERO SWAP2 SWAP1 SWAP2 OR SWAP1 SSTORE PUSH1 0x40 MLOAD PUSH1 0x0 DUP1 MLOAD PUSH1 0x20 PUSH2 0x3748 DUP4 CODECOPY DUP2 MLOAD SWAP2 MSTORE SWAP1 PUSH2 0x18B2 SWAP1 DUP8 SWAP1 CALLER SWAP1 PUSH2 0x370E JUMP JUMPDEST CALLER PUSH1 0x0 SWAP1 DUP2 MSTORE PUSH1 0x9 PUSH1 0x20 MSTORE PUSH1 0x40 SWAP1 KECCAK256 SLOAD PUSH1 0xFF AND ISZERO ISZERO PUSH1 0x1 EQ PUSH2 0x2709 JUMPI PUSH1 0x40 MLOAD PUSH3 0x461BCD PUSH1 0xE5 SHL DUP2 MSTORE PUSH1 0x20 PUSH1 0x4 DUP3 ADD MSTORE PUSH1 0x30 PUSH1 0x24 DUP3 ADD MSTORE PUSH32 0x53656C6C6572206973206E6F7420726567697374657265642C20736F2063616E PUSH1 0x44 DUP3 ADD MSTORE PUSH16 0x9DD081C9959DA5CDD195C881B185B99 PUSH1 0x82 SHL PUSH1 0x64 DUP3 ADD MSTORE PUSH1 0x84 ADD PUSH2 0x8ED JUMP JUMPDEST CALLER PUSH1 0x0 SWAP1 DUP2 MSTORE PUSH1 0x7 PUSH1 0x20 MSTORE PUSH1 0x40 SWAP1 KECCAK256 PUSH1 0x5 ADD SLOAD PUSH1 0xFF AND ISZERO ISZERO PUSH1 0x1 EQ PUSH2 0x2785 JUMPI PUSH1 0x40 MLOAD PUSH3 0x461BCD PUSH1 0xE5 SHL DUP2 MSTORE PUSH1 0x20 PUSH1 0x4 DUP3 ADD MSTORE PUSH1 0x2C PUSH1 0x24 DUP3 ADD MSTORE PUSH32 0x53656C6C6572206973206E6F7420766572696669656420627920746865206C61 PUSH1 0x44 DUP3 ADD MSTORE PUSH12 0x37321034B739B832B1BA37B9 PUSH1 0xA1 SHL PUSH1 0x64 DUP3 ADD MSTORE PUSH1 0x84 ADD PUSH2 0x8ED JUMP JUMPDEST PUSH1 0x0 DUP6 DUP2 MSTORE PUSH1 0xB PUSH1 0x20 MSTORE PUSH1 0x40 SWAP1 KECCAK256 SLOAD PUSH1 0xFF AND ISZERO PUSH2 0x27F8 JUMPI PUSH1 0x40 MLOAD PUSH3 0x461BCD PUSH1 0xE5 SHL DUP2 MSTORE PUSH1 0x20 PUSH1 0x4 DUP3 ADD MSTORE PUSH1 0x2B PUSH1 0x24 DUP3 ADD MSTORE PUSH32 0x4C616E6420697320616C72656164792052656769737465726564207769746820 PUSH1 0x44 DUP3 ADD MSTORE PUSH11 0x1D1A19481CD85B59481A59 PUSH1 0xAA SHL PUSH1 0x64 DUP3 ADD MSTORE PUSH1 0x84 ADD PUSH2 0x8ED JUMP JUMPDEST PUSH1 0x0 SLOAD PUSH1 0x1 PUSH1 0x1 PUSH1 0xA0 SHL SUB AND CALLER SUB PUSH2 0x2860 JUMPI PUSH1 0x40 MLOAD PUSH3 0x461BCD PUSH1 0xE5 SHL DUP2 MSTORE PUSH1 0x20 PUSH1 0x4 DUP3 ADD MSTORE PUSH1 0x25 PUSH1 0x24 DUP3 ADD MSTORE PUSH32 0x4C616E642063616E206F6E6C7920626520726567697374657265642062792073 PUSH1 0x44 DUP3 ADD MSTORE PUSH5 0x32B63632B9 PUSH1 0xD9 SHL PUSH1 0x64 DUP3 ADD MSTORE PUSH1 0x84 ADD PUSH2 0x8ED JUMP JUMPDEST PUSH1 0x0 DUP6 DUP2 MSTORE PUSH1 0x5 PUSH1 0x20 MSTORE PUSH1 0x40 SWAP1 KECCAK256 DUP6 DUP2 SSTORE PUSH1 0x1 ADD PUSH2 0x287E DUP6 DUP3 PUSH2 0x3515 JUMP JUMPDEST POP PUSH1 0x0 DUP6 DUP2 MSTORE PUSH1 0x5 PUSH1 0x20 MSTORE PUSH1 0x40 SWAP1 KECCAK256 PUSH1 0x2 ADD PUSH2 0x289A DUP5 DUP3 PUSH2 0x3515 JUMP JUMPDEST POP PUSH1 0x0 DUP6 DUP2 MSTORE PUSH1 0x5 PUSH1 0x20 MSTORE PUSH1 0x40 SWAP1 KECCAK256 PUSH1 0x3 ADD PUSH2 0x28B6 DUP4 DUP3 PUSH2 0x3515 JUMP JUMPDEST POP PUSH1 0x0 DUP6 DUP2 MSTORE PUSH1 0x5 PUSH1 0x20 DUP2 DUP2 MSTORE PUSH1 0x40 DUP1 DUP5 KECCAK256 PUSH1 0x4 DUP2 ADD DUP7 SWAP1 SSTORE DUP1 DUP5 ADD DUP1 SLOAD PUSH3 0x10000 PUSH1 0x1 PUSH1 0xB0 SHL SUB NOT AND CALLER PUSH3 0x10000 DUP2 MUL SWAP2 SWAP1 SWAP2 OR SWAP1 SWAP2 SSTORE DUP6 MSTORE PUSH1 0x7 DUP4 MSTORE SWAP1 DUP5 KECCAK256 SWAP4 DUP10 SWAP1 MSTORE SWAP2 SWAP1 MSTORE PUSH1 0x6 ADD SWAP1 PUSH2 0x290C SWAP1 DUP3 PUSH2 0x326D JUMP JUMPDEST POP PUSH1 0x0 DUP6 DUP2 MSTORE PUSH1 0xB PUSH1 0x20 MSTORE PUSH1 0x40 DUP2 KECCAK256 DUP1 SLOAD PUSH1 0xFF NOT AND PUSH1 0x1 SWAP1 DUP2 OR SWAP1 SWAP2 SSTORE PUSH1 0x2 DUP1 SLOAD SWAP2 SWAP3 SWAP1 SWAP2 PUSH2 0x293C SWAP1 DUP5 SWAP1 PUSH2 0x337D JUMP JUMPDEST SWAP1 SWAP2 SSTORE POP POP PUSH1 0x40 DUP1 MLOAD DUP2 DUP2 MSTORE PUSH1 0x11 SWAP2 DUP2 ADD SWAP2 SWAP1 SWAP2 MSTORE PUSH17 0x2630B732102932B3B4B9BA32B932B21D1 PUSH1 0x7D SHL PUSH1 0x60 DUP3 ADD MSTORE PUSH1 0x20 DUP2 ADD DUP7 SWAP1 MSTORE PUSH32 0xE5F0E14DE14B66D6262EF8AC911C347DC802A85ECEC178CD931841B9DB32BD91 SWAP1 PUSH1 0x80 ADD PUSH2 0x18B2 JUMP JUMPDEST PUSH1 0x1 DUP1 SLOAD PUSH1 0x0 SWAP1 DUP2 MSTORE PUSH1 0x6 PUSH1 0x20 MSTORE PUSH1 0x40 DUP2 KECCAK256 SLOAD SWAP2 DUP2 MSTORE PUSH32 0x3E5FEC24AA4DC4E5AEE2E025E51E1392C72A2500577559FAE9665C6D52BD6A32 DUP1 SLOAD SWAP2 SWAP3 PUSH1 0x60 SWAP3 PUSH1 0x1 PUSH1 0x1 PUSH1 0xA0 SHL SUB SWAP1 SWAP2 AND SWAP2 SWAP1 DUP2 SWAP1 PUSH2 0x29F2 SWAP1 PUSH2 0x3192 JUMP JUMPDEST DUP1 PUSH1 0x1F ADD PUSH1 0x20 DUP1 SWAP2 DIV MUL PUSH1 0x20 ADD PUSH1 0x40 MLOAD SWAP1 DUP2 ADD PUSH1 0x40 MSTORE DUP1 SWAP3 SWAP2 SWAP1 DUP2 DUP2 MSTORE PUSH1 0x20 ADD DUP3 DUP1 SLOAD PUSH2 0x2A1E SWAP1 PUSH2 0x3192 JUMP JUMPDEST DUP1 ISZERO PUSH2 0x2A6B JUMPI DUP1 PUSH1 0x1F LT PUSH2 0x2A40 JUMPI PUSH2 0x100 DUP1 DUP4 SLOAD DIV MUL DUP4 MSTORE SWAP2 PUSH1 0x20 ADD SWAP2 PUSH2 0x2A6B JUMP JUMPDEST DUP3 ADD SWAP2 SWAP1 PUSH1 0x0 MSTORE PUSH1 0x20 PUSH1 0x0 KECCAK256 SWAP1 JUMPDEST DUP2 SLOAD DUP2 MSTORE SWAP1 PUSH1 0x1 ADD SWAP1 PUSH1 0x20 ADD DUP1 DUP4 GT PUSH2 0x2A4E JUMPI DUP3 SWAP1 SUB PUSH1 0x1F AND DUP3 ADD SWAP2 JUMPDEST POP POP POP POP POP SWAP1 POP SWAP2 POP SWAP2 POP SWAP1 SWAP2 JUMP JUMPDEST PUSH1 0x0 SLOAD PUSH1 0x1 PUSH1 0x1 PUSH1 0xA0 SHL SUB AND CALLER EQ PUSH2 0x2AA4 JUMPI PUSH1 0x40 MLOAD PUSH3 0x461BCD PUSH1 0xE5 SHL DUP2 MSTORE PUSH1 0x4 ADD PUSH2 0x8ED SWAP1 PUSH2 0x31CC JUMP JUMPDEST PUSH1 0x0 DUP2 DUP2 MSTORE PUSH1 0xB PUSH1 0x20 MSTORE PUSH1 0x40 SWAP1 KECCAK256 SLOAD PUSH1 0xFF AND ISZERO ISZERO PUSH1 0x1 EQ PUSH2 0x2B18 JUMPI PUSH1 0x40 MLOAD PUSH3 0x461BCD PUSH1 0xE5 SHL DUP2 MSTORE PUSH1 0x20 PUSH1 0x4 DUP3 ADD MSTORE PUSH1 0x28 PUSH1 0x24 DUP3 ADD MSTORE PUSH32 0x4C616E6420646F6573206E6F742065786974732077697468207468652070726F PUSH1 0x44 DUP3 ADD MSTORE PUSH8 0x1D9A591959081A59 PUSH1 0xC2 SHL PUSH1 0x64 DUP3 ADD MSTORE PUSH1 0x84 ADD PUSH2 0x8ED JUMP JUMPDEST PUSH1 0x0 DUP2 DUP2 MSTORE PUSH1 0x5 PUSH1 0x20 DUP2 SWAP1 MSTORE PUSH1 0x40 SWAP1 SWAP2 KECCAK256 ADD SLOAD PUSH2 0x100 SWAP1 DIV PUSH1 0xFF AND ISZERO PUSH2 0x2B80 JUMPI PUSH1 0x40 MLOAD PUSH3 0x461BCD PUSH1 0xE5 SHL DUP2 MSTORE PUSH1 0x20 PUSH1 0x4 DUP3 ADD MSTORE PUSH1 0x18 PUSH1 0x24 DUP3 ADD MSTORE PUSH32 0x4C616E6420697320616C72656164792076657269666965640000000000000000 PUSH1 0x44 DUP3 ADD MSTORE PUSH1 0x64 ADD PUSH2 0x8ED JUMP JUMPDEST PUSH1 0x0 DUP2 DUP2 MSTORE PUSH1 0x5 PUSH1 0x20 DUP2 SWAP1 MSTORE PUSH1 0x40 SWAP2 DUP3 SWAP1 KECCAK256 ADD DUP1 SLOAD PUSH2 0xFF00 NOT AND PUSH2 0x100 OR SWAP1 SSTORE MLOAD PUSH32 0xE5F0E14DE14B66D6262EF8AC911C347DC802A85ECEC178CD931841B9DB32BD91 SWAP1 PUSH2 0xEAC SWAP1 DUP4 SWAP1 PUSH1 0x40 DUP1 DUP3 MSTORE PUSH1 0x2B SWAP1 DUP3 ADD MSTORE PUSH32 0x4C616E64206973207665726966696564206279206C616E64496E73706563746F PUSH1 0x60 DUP3 ADD MSTORE PUSH11 0x39103BB4BA341034B21D1 PUSH1 0xAD SHL PUSH1 0x80 DUP3 ADD MSTORE PUSH1 0x20 DUP2 ADD SWAP2 SWAP1 SWAP2 MSTORE PUSH1 0xA0 ADD SWAP1 JUMP JUMPDEST POP DUP1 SLOAD PUSH2 0x2C28 SWAP1 PUSH2 0x3192 JUMP JUMPDEST PUSH1 0x0 DUP3 SSTORE DUP1 PUSH1 0x1F LT PUSH2 0x2C38 JUMPI POP POP JUMP JUMPDEST PUSH1 0x1F ADD PUSH1 0x20 SWAP1 DIV SWAP1 PUSH1 0x0 MSTORE PUSH1 0x20 PUSH1 0x0 KECCAK256 SWAP1 DUP2 ADD SWAP1 PUSH2 0x2C56 SWAP2 SWAP1 PUSH2 0x2C59 JUMP JUMPDEST POP JUMP JUMPDEST JUMPDEST DUP1 DUP3 GT ISZERO PUSH2 0x2C6E JUMPI PUSH1 0x0 DUP2 SSTORE PUSH1 0x1 ADD PUSH2 0x2C5A JUMP JUMPDEST POP SWAP1 JUMP JUMPDEST PUSH1 0x0 PUSH1 0x20 DUP3 DUP5 SUB SLT ISZERO PUSH2 0x2C84 JUMPI PUSH1 0x0 DUP1 REVERT JUMPDEST POP CALLDATALOAD SWAP2 SWAP1 POP JUMP JUMPDEST PUSH1 0x0 DUP2 MLOAD DUP1 DUP5 MSTORE PUSH1 0x0 JUMPDEST DUP2 DUP2 LT ISZERO PUSH2 0x2CB1 JUMPI PUSH1 0x20 DUP2 DUP6 ADD DUP2 ADD MLOAD DUP7 DUP4 ADD DUP3 ADD MSTORE ADD PUSH2 0x2C95 JUMP JUMPDEST POP PUSH1 0x0 PUSH1 0x20 DUP3 DUP7 ADD ADD MSTORE PUSH1 0x20 PUSH1 0x1F NOT PUSH1 0x1F DUP4 ADD AND DUP6 ADD ADD SWAP2 POP POP SWAP3 SWAP2 POP POP JUMP JUMPDEST PUSH1 0x0 PUSH2 0x120 DUP12 DUP4 MSTORE DUP1 PUSH1 0x20 DUP5 ADD MSTORE PUSH2 0x2CEB DUP2 DUP5 ADD DUP13 PUSH2 0x2C8B JUMP JUMPDEST SWAP1 POP DUP3 DUP2 SUB PUSH1 0x40 DUP5 ADD MSTORE PUSH2 0x2CFF DUP2 DUP12 PUSH2 0x2C8B JUMP JUMPDEST SWAP1 POP DUP3 DUP2 SUB PUSH1 0x60 DUP5 ADD MSTORE PUSH2 0x2D13 DUP2 DUP11 PUSH2 0x2C8B JUMP JUMPDEST PUSH1 0x80 DUP5 ADD DUP10 SWAP1 MSTORE DUP8 ISZERO ISZERO PUSH1 0xA0 DUP6 ADD MSTORE DUP7 ISZERO ISZERO PUSH1 0xC0 DUP6 ADD MSTORE PUSH1 0x1 PUSH1 0x1 PUSH1 0xA0 SHL SUB DUP7 AND PUSH1 0xE0 DUP6 ADD MSTORE DUP4 DUP2 SUB PUSH2 0x100 DUP6 ADD MSTORE SWAP1 POP PUSH2 0x2D4E DUP2 DUP6 PUSH2 0x2C8B JUMP JUMPDEST SWAP13 SWAP12 POP POP POP POP POP POP POP POP POP POP POP POP JUMP JUMPDEST PUSH1 0x1 PUSH1 0x1 PUSH1 0xA0 SHL SUB DUP2 AND DUP2 EQ PUSH2 0x2C56 JUMPI PUSH1 0x0 DUP1 REVERT JUMPDEST PUSH1 0x0 PUSH1 0x20 DUP3 DUP5 SUB SLT ISZERO PUSH2 0x2D85 JUMPI PUSH1 0x0 DUP1 REVERT JUMPDEST DUP2 CALLDATALOAD PUSH2 0x2D90 DUP2 PUSH2 0x2D5E JUMP JUMPDEST SWAP4 SWAP3 POP POP POP JUMP JUMPDEST PUSH1 0x1 PUSH1 0x1 PUSH1 0xA0 SHL SUB DUP4 AND DUP2 MSTORE PUSH1 0x40 PUSH1 0x20 DUP3 ADD DUP2 SWAP1 MSTORE PUSH1 0x0 SWAP1 PUSH2 0x2DBB SWAP1 DUP4 ADD DUP5 PUSH2 0x2C8B JUMP JUMPDEST SWAP5 SWAP4 POP POP POP POP JUMP JUMPDEST DUP8 DUP2 MSTORE PUSH1 0xE0 PUSH1 0x20 DUP3 ADD MSTORE PUSH1 0x0 PUSH2 0x2DDC PUSH1 0xE0 DUP4 ADD DUP10 PUSH2 0x2C8B JUMP JUMPDEST DUP3 DUP2 SUB PUSH1 0x40 DUP5 ADD MSTORE PUSH2 0x2DEE DUP2 DUP10 PUSH2 0x2C8B JUMP JUMPDEST SWAP1 POP DUP3 DUP2 SUB PUSH1 0x60 DUP5 ADD MSTORE PUSH2 0x2E02 DUP2 DUP9 PUSH2 0x2C8B JUMP JUMPDEST PUSH1 0x80 DUP5 ADD DUP8 SWAP1 MSTORE PUSH1 0x1 PUSH1 0x1 PUSH1 0xA0 SHL SUB DUP7 AND PUSH1 0xA0 DUP6 ADD MSTORE DUP4 DUP2 SUB PUSH1 0xC0 DUP6 ADD MSTORE SWAP1 POP PUSH2 0x2E2C DUP2 DUP6 PUSH2 0x2C8B JUMP JUMPDEST SWAP11 SWAP10 POP POP POP POP POP POP POP POP POP POP JUMP JUMPDEST PUSH4 0x4E487B71 PUSH1 0xE0 SHL PUSH1 0x0 MSTORE PUSH1 0x41 PUSH1 0x4 MSTORE PUSH1 0x24 PUSH1 0x0 REVERT JUMPDEST PUSH1 0x0 DUP3 PUSH1 0x1F DUP4 ADD SLT PUSH2 0x2E61 JUMPI PUSH1 0x0 DUP1 REVERT JUMPDEST DUP2 CALLDATALOAD PUSH8 0xFFFFFFFFFFFFFFFF DUP1 DUP3 GT ISZERO PUSH2 0x2E7C JUMPI PUSH2 0x2E7C PUSH2 0x2E3A JUMP JUMPDEST PUSH1 0x40 MLOAD PUSH1 0x1F DUP4 ADD PUSH1 0x1F NOT SWAP1 DUP2 AND PUSH1 0x3F ADD AND DUP2 ADD SWAP1 DUP3 DUP3 GT DUP2 DUP4 LT OR ISZERO PUSH2 0x2EA4 JUMPI PUSH2 0x2EA4 PUSH2 0x2E3A JUMP JUMPDEST DUP2 PUSH1 0x40 MSTORE DUP4 DUP2 MSTORE DUP7 PUSH1 0x20 DUP6 DUP9 ADD ADD GT ISZERO PUSH2 0x2EBD JUMPI PUSH1 0x0 DUP1 REVERT JUMPDEST DUP4 PUSH1 0x20 DUP8 ADD PUSH1 0x20 DUP4 ADD CALLDATACOPY PUSH1 0x0 PUSH1 0x20 DUP6 DUP4 ADD ADD MSTORE DUP1 SWAP5 POP POP POP POP POP SWAP3 SWAP2 POP POP JUMP JUMPDEST PUSH1 0x0 DUP1 PUSH1 0x0 DUP1 PUSH1 0x0 DUP1 PUSH1 0xC0 DUP8 DUP10 SUB SLT ISZERO PUSH2 0x2EF6 JUMPI PUSH1 0x0 DUP1 REVERT JUMPDEST DUP7 CALLDATALOAD PUSH2 0x2F01 DUP2 PUSH2 0x2D5E JUMP JUMPDEST SWAP6 POP PUSH1 0x20 DUP8 ADD CALLDATALOAD PUSH8 0xFFFFFFFFFFFFFFFF DUP1 DUP3 GT ISZERO PUSH2 0x2F1E JUMPI PUSH1 0x0 DUP1 REVERT JUMPDEST PUSH2 0x2F2A DUP11 DUP4 DUP12 ADD PUSH2 0x2E50 JUMP JUMPDEST SWAP7 POP PUSH1 0x40 DUP10 ADD CALLDATALOAD SWAP6 POP PUSH1 0x60 DUP10 ADD CALLDATALOAD SWAP2 POP DUP1 DUP3 GT ISZERO PUSH2 0x2F47 JUMPI PUSH1 0x0 DUP1 REVERT JUMPDEST PUSH2 0x2F53 DUP11 DUP4 DUP12 ADD PUSH2 0x2E50 JUMP JUMPDEST SWAP5 POP PUSH1 0x80 DUP10 ADD CALLDATALOAD SWAP4 POP PUSH1 0xA0 DUP10 ADD CALLDATALOAD SWAP2 POP DUP1 DUP3 GT ISZERO PUSH2 0x2F70 JUMPI PUSH1 0x0 DUP1 REVERT JUMPDEST POP PUSH2 0x2F7D DUP10 DUP3 DUP11 ADD PUSH2 0x2E50 JUMP JUMPDEST SWAP2 POP POP SWAP3 SWAP6 POP SWAP3 SWAP6 POP SWAP3 SWAP6 JUMP JUMPDEST PUSH1 0x0 DUP1 PUSH1 0x40 DUP4 DUP6 SUB SLT ISZERO PUSH2 0x2F9D JUMPI PUSH1 0x0 DUP1 REVERT JUMPDEST DUP3 CALLDATALOAD SWAP2 POP PUSH1 0x20 DUP4 ADD CALLDATALOAD PUSH2 0x2FAF DUP2 PUSH2 0x2D5E JUMP JUMPDEST DUP1 SWAP2 POP POP SWAP3 POP SWAP3 SWAP1 POP JUMP JUMPDEST PUSH1 0x0 DUP1 PUSH1 0x0 DUP1 PUSH1 0x0 PUSH1 0xA0 DUP7 DUP9 SUB SLT ISZERO PUSH2 0x2FD2 JUMPI PUSH1 0x0 DUP1 REVERT JUMPDEST DUP6 CALLDATALOAD PUSH8 0xFFFFFFFFFFFFFFFF DUP1 DUP3 GT ISZERO PUSH2 0x2FEA JUMPI PUSH1 0x0 DUP1 REVERT JUMPDEST PUSH2 0x2FF6 DUP10 DUP4 DUP11 ADD PUSH2 0x2E50 JUMP JUMPDEST SWAP7 POP PUSH1 0x20 DUP9 ADD CALLDATALOAD SWAP6 POP PUSH1 0x40 DUP9 ADD CALLDATALOAD SWAP2 POP DUP1 DUP3 GT ISZERO PUSH2 0x3013 JUMPI PUSH1 0x0 DUP1 REVERT JUMPDEST PUSH2 0x301F DUP10 DUP4 DUP11 ADD PUSH2 0x2E50 JUMP JUMPDEST SWAP5 POP PUSH1 0x60 DUP9 ADD CALLDATALOAD SWAP4 POP PUSH1 0x80 DUP9 ADD CALLDATALOAD SWAP2 POP DUP1 DUP3 GT ISZERO PUSH2 0x303C JUMPI PUSH1 0x0 DUP1 REVERT JUMPDEST POP PUSH2 0x3049 DUP9 DUP3 DUP10 ADD PUSH2 0x2E50 JUMP JUMPDEST SWAP2 POP POP SWAP3 SWAP6 POP SWAP3 SWAP6 SWAP1 SWAP4 POP JUMP JUMPDEST PUSH1 0xC0 DUP2 MSTORE PUSH1 0x0 PUSH2 0x3069 PUSH1 0xC0 DUP4 ADD DUP10 PUSH2 0x2C8B JUMP JUMPDEST DUP8 PUSH1 0x20 DUP5 ADD MSTORE DUP3 DUP2 SUB PUSH1 0x40 DUP5 ADD MSTORE PUSH2 0x3081 DUP2 DUP9 PUSH2 0x2C8B JUMP JUMPDEST SWAP1 POP DUP6 PUSH1 0x60 DUP5 ADD MSTORE DUP3 DUP2 SUB PUSH1 0x80 DUP5 ADD MSTORE PUSH2 0x309B DUP2 DUP7 PUSH2 0x2C8B JUMP JUMPDEST SWAP2 POP POP DUP3 ISZERO ISZERO PUSH1 0xA0 DUP4 ADD MSTORE SWAP8 SWAP7 POP POP POP POP POP POP POP JUMP JUMPDEST PUSH1 0x1 PUSH1 0x1 PUSH1 0xA0 SHL SUB DUP6 AND DUP2 MSTORE PUSH1 0x80 PUSH1 0x20 DUP3 ADD DUP2 SWAP1 MSTORE PUSH1 0x0 SWAP1 PUSH2 0x30D5 SWAP1 DUP4 ADD DUP7 PUSH2 0x2C8B JUMP JUMPDEST DUP5 PUSH1 0x40 DUP5 ADD MSTORE DUP3 DUP2 SUB PUSH1 0x60 DUP5 ADD MSTORE PUSH2 0x30ED DUP2 DUP6 PUSH2 0x2C8B JUMP JUMPDEST SWAP8 SWAP7 POP POP POP POP POP POP POP JUMP JUMPDEST PUSH1 0x0 DUP1 PUSH1 0x0 DUP1 PUSH1 0x0 PUSH1 0xA0 DUP7 DUP9 SUB SLT ISZERO PUSH2 0x3110 JUMPI PUSH1 0x0 DUP1 REVERT JUMPDEST DUP6 CALLDATALOAD SWAP5 POP PUSH1 0x20 DUP7 ADD CALLDATALOAD PUSH8 0xFFFFFFFFFFFFFFFF DUP1 DUP3 GT ISZERO PUSH2 0x312F JUMPI PUSH1 0x0 DUP1 REVERT JUMPDEST PUSH2 0x313B DUP10 DUP4 DUP11 ADD PUSH2 0x2E50 JUMP JUMPDEST SWAP6 POP PUSH1 0x40 DUP9 ADD CALLDATALOAD SWAP2 POP DUP1 DUP3 GT ISZERO PUSH2 0x3151 JUMPI PUSH1 0x0 DUP1 REVERT JUMPDEST PUSH2 0x315D DUP10 DUP4 DUP11 ADD PUSH2 0x2E50 JUMP JUMPDEST SWAP5 POP PUSH1 0x60 DUP9 ADD CALLDATALOAD SWAP2 POP DUP1 DUP3 GT ISZERO PUSH2 0x3173 JUMPI PUSH1 0x0 DUP1 REVERT JUMPDEST POP PUSH2 0x3180 DUP9 DUP3 DUP10 ADD PUSH2 0x2E50 JUMP JUMPDEST SWAP6 SWAP9 SWAP5 SWAP8 POP SWAP3 SWAP6 PUSH1 0x80 ADD CALLDATALOAD SWAP4 SWAP3 POP POP POP JUMP JUMPDEST PUSH1 0x1 DUP2 DUP2 SHR SWAP1 DUP3 AND DUP1 PUSH2 0x31A6 JUMPI PUSH1 0x7F DUP3 AND SWAP2 POP JUMPDEST PUSH1 0x20 DUP3 LT DUP2 SUB PUSH2 0x31C6 JUMPI PUSH4 0x4E487B71 PUSH1 0xE0 SHL PUSH1 0x0 MSTORE PUSH1 0x22 PUSH1 0x4 MSTORE PUSH1 0x24 PUSH1 0x0 REVERT JUMPDEST POP SWAP2 SWAP1 POP JUMP JUMPDEST PUSH1 0x20 DUP1 DUP3 MSTORE PUSH1 0x32 SWAP1 DUP3 ADD MSTORE PUSH32 0x596F7520617265206E6F7420617574686F72697A656420746F20657865637574 PUSH1 0x40 DUP3 ADD MSTORE PUSH18 0x32903A3434B9903A3930B739B0B1BA34B7B7 PUSH1 0x71 SHL PUSH1 0x60 DUP3 ADD MSTORE PUSH1 0x80 ADD SWAP1 JUMP JUMPDEST PUSH1 0x1F DUP3 GT ISZERO PUSH2 0x3268 JUMPI PUSH1 0x0 DUP2 DUP2 MSTORE PUSH1 0x20 DUP2 KECCAK256 PUSH1 0x1F DUP6 ADD PUSH1 0x5 SHR DUP2 ADD PUSH1 0x20 DUP7 LT ISZERO PUSH2 0x3245 JUMPI POP DUP1 JUMPDEST PUSH1 0x1F DUP6 ADD PUSH1 0x5 SHR DUP3 ADD SWAP2 POP JUMPDEST DUP2 DUP2 LT ISZERO PUSH2 0x3264 JUMPI DUP3 DUP2 SSTORE PUSH1 0x1 ADD PUSH2 0x3251 JUMP JUMPDEST POP POP POP JUMPDEST POP POP POP JUMP JUMPDEST DUP2 DUP2 SUB PUSH2 0x3278 JUMPI POP POP JUMP JUMPDEST PUSH2 0x3282 DUP3 SLOAD PUSH2 0x3192 JUMP JUMPDEST PUSH8 0xFFFFFFFFFFFFFFFF DUP2 GT ISZERO PUSH2 0x329A JUMPI PUSH2 0x329A PUSH2 0x2E3A JUMP JUMPDEST PUSH2 0x32AE DUP2 PUSH2 0x32A8 DUP5 SLOAD PUSH2 0x3192 JUMP JUMPDEST DUP5 PUSH2 0x321E JUMP JUMPDEST PUSH1 0x0 PUSH1 0x1F DUP3 GT PUSH1 0x1 DUP2 EQ PUSH2 0x32E2 JUMPI PUSH1 0x0 DUP4 ISZERO PUSH2 0x32CA JUMPI POP DUP5 DUP3 ADD SLOAD JUMPDEST PUSH1 0x0 NOT PUSH1 0x3 DUP6 SWAP1 SHL SHR NOT AND PUSH1 0x1 DUP5 SWAP1 SHL OR DUP5 SSTORE PUSH2 0x3347 JUMP JUMPDEST PUSH1 0x0 DUP6 DUP2 MSTORE PUSH1 0x20 SWAP1 KECCAK256 PUSH1 0x1F NOT DUP5 AND SWAP1 PUSH1 0x0 DUP7 DUP2 MSTORE PUSH1 0x20 SWAP1 KECCAK256 DUP5 JUMPDEST DUP4 DUP2 LT ISZERO PUSH2 0x331C JUMPI DUP3 DUP7 ADD SLOAD DUP3 SSTORE PUSH1 0x1 SWAP6 DUP7 ADD SWAP6 SWAP1 SWAP2 ADD SWAP1 PUSH1 0x20 ADD PUSH2 0x32FC JUMP JUMPDEST POP DUP6 DUP4 LT ISZERO PUSH2 0x333A JUMPI DUP2 DUP6 ADD SLOAD PUSH1 0x0 NOT PUSH1 0x3 DUP9 SWAP1 SHL PUSH1 0xF8 AND SHR NOT AND DUP2 SSTORE JUMPDEST POP POP POP PUSH1 0x1 DUP4 PUSH1 0x1 SHL ADD DUP5 SSTORE JUMPDEST POP POP POP POP POP JUMP JUMPDEST PUSH4 0x4E487B71 PUSH1 0xE0 SHL PUSH1 0x0 MSTORE PUSH1 0x11 PUSH1 0x4 MSTORE PUSH1 0x24 PUSH1 0x0 REVERT JUMPDEST DUP2 DUP2 SUB DUP2 DUP2 GT ISZERO PUSH2 0x3377 JUMPI PUSH2 0x3377 PUSH2 0x334E JUMP JUMPDEST SWAP3 SWAP2 POP POP JUMP JUMPDEST DUP1 DUP3 ADD DUP1 DUP3 GT ISZERO PUSH2 0x3377 JUMPI PUSH2 0x3377 PUSH2 0x334E JUMP JUMPDEST PUSH1 0x0 DUP2 SLOAD PUSH2 0x339D DUP2 PUSH2 0x3192 JUMP JUMPDEST DUP1 DUP6 MSTORE PUSH1 0x20 PUSH1 0x1 DUP4 DUP2 AND DUP1 ISZERO PUSH2 0x33BA JUMPI PUSH1 0x1 DUP2 EQ PUSH2 0x33D4 JUMPI PUSH2 0x3402 JUMP JUMPDEST PUSH1 0xFF NOT DUP6 AND DUP9 DUP5 ADD MSTORE DUP4 ISZERO ISZERO PUSH1 0x5 SHL DUP9 ADD DUP4 ADD SWAP6 POP PUSH2 0x3402 JUMP JUMPDEST DUP7 PUSH1 0x0 MSTORE DUP3 PUSH1 0x0 KECCAK256 PUSH1 0x0 JUMPDEST DUP6 DUP2 LT ISZERO PUSH2 0x33FA JUMPI DUP2 SLOAD DUP11 DUP3 ADD DUP7 ADD MSTORE SWAP1 DUP4 ADD SWAP1 DUP5 ADD PUSH2 0x33DF JUMP JUMPDEST DUP10 ADD DUP5 ADD SWAP7 POP POP JUMPDEST POP POP POP POP POP SWAP3 SWAP2 POP POP JUMP JUMPDEST PUSH1 0x60 DUP2 MSTORE PUSH1 0x2D PUSH1 0x60 DUP3 ADD MSTORE PUSH32 0x53656C6C65722067657473205665726966696564206279204C616E6420496E73 PUSH1 0x80 DUP3 ADD MSTORE PUSH13 0x3832B1BA37B9103BB4BA341D1 PUSH1 0x9D SHL PUSH1 0xA0 DUP3 ADD MSTORE PUSH1 0xC0 PUSH1 0x20 DUP3 ADD MSTORE PUSH1 0x0 PUSH2 0x346A PUSH1 0xC0 DUP4 ADD DUP6 PUSH2 0x3390 JUMP JUMPDEST SWAP1 POP PUSH1 0x1 DUP1 PUSH1 0xA0 SHL SUB DUP4 AND PUSH1 0x40 DUP4 ADD MSTORE SWAP4 SWAP3 POP POP POP JUMP JUMPDEST PUSH1 0x20 DUP1 DUP3 MSTORE PUSH1 0x29 SWAP1 DUP3 ADD MSTORE PUSH32 0x496E73706563746F722069732072656769737465726564207769746820746869 PUSH1 0x40 DUP3 ADD MSTORE PUSH9 0x732041646472657373 PUSH1 0xB8 SHL PUSH1 0x60 DUP3 ADD MSTORE PUSH1 0x80 ADD SWAP1 JUMP JUMPDEST PUSH1 0x20 DUP1 DUP3 MSTORE PUSH1 0x2B SWAP1 DUP3 ADD MSTORE PUSH32 0x53656C6C657220616C7265616479204578697374732077697468207468652073 PUSH1 0x40 DUP3 ADD MSTORE PUSH11 0x616D652061646472657373 PUSH1 0xA8 SHL PUSH1 0x60 DUP3 ADD MSTORE PUSH1 0x80 ADD SWAP1 JUMP JUMPDEST DUP2 MLOAD PUSH8 0xFFFFFFFFFFFFFFFF DUP2 GT ISZERO PUSH2 0x352F JUMPI PUSH2 0x352F PUSH2 0x2E3A JUMP JUMPDEST PUSH2 0x353D DUP2 PUSH2 0x32A8 DUP5 SLOAD PUSH2 0x3192 JUMP JUMPDEST PUSH1 0x20 DUP1 PUSH1 0x1F DUP4 GT PUSH1 0x1 DUP2 EQ PUSH2 0x3572 JUMPI PUSH1 0x0 DUP5 ISZERO PUSH2 0x355A JUMPI POP DUP6 DUP4 ADD MLOAD JUMPDEST PUSH1 0x0 NOT PUSH1 0x3 DUP7 SWAP1 SHL SHR NOT AND PUSH1 0x1 DUP6 SWAP1 SHL OR DUP6 SSTORE PUSH2 0x3264 JUMP JUMPDEST PUSH1 0x0 DUP6 DUP2 MSTORE PUSH1 0x20 DUP2 KECCAK256 PUSH1 0x1F NOT DUP7 AND SWAP2 JUMPDEST DUP3 DUP2 LT ISZERO PUSH2 0x35A1 JUMPI DUP9 DUP7 ADD MLOAD DUP3 SSTORE SWAP5 DUP5 ADD SWAP5 PUSH1 0x1 SWAP1 SWAP2 ADD SWAP1 DUP5 ADD PUSH2 0x3582 JUMP JUMPDEST POP DUP6 DUP3 LT ISZERO PUSH2 0x35BF JUMPI DUP8 DUP6 ADD MLOAD PUSH1 0x0 NOT PUSH1 0x3 DUP9 SWAP1 SHL PUSH1 0xF8 AND SHR NOT AND DUP2 SSTORE JUMPDEST POP POP POP POP POP PUSH1 0x1 SWAP1 DUP2 SHL ADD SWAP1 SSTORE POP JUMP JUMPDEST PUSH1 0x60 DUP2 MSTORE PUSH1 0x13 PUSH1 0x60 DUP3 ADD MSTORE PUSH19 0x29B2B63632B9102932B3B4B9BA32B932B21D1 PUSH1 0x6D SHL PUSH1 0x80 DUP3 ADD MSTORE PUSH1 0xA0 PUSH1 0x20 DUP3 ADD MSTORE PUSH1 0x0 PUSH2 0x346A PUSH1 0xA0 DUP4 ADD DUP6 PUSH2 0x2C8B JUMP JUMPDEST PUSH1 0x20 DUP1 DUP3 MSTORE PUSH1 0x25 SWAP1 DUP3 ADD MSTORE PUSH32 0x53656C6C6572206E6F74207665726966696564206279206C616E6420696E7370 PUSH1 0x40 DUP3 ADD MSTORE PUSH5 0x32B1BA37B9 PUSH1 0xD9 SHL PUSH1 0x60 DUP3 ADD MSTORE PUSH1 0x80 ADD SWAP1 JUMP JUMPDEST PUSH1 0x60 DUP2 MSTORE PUSH1 0x1B PUSH1 0x60 DUP3 ADD MSTORE PUSH32 0x4F776E657273686970206973207472616E7366657272656420746F0000000000 PUSH1 0x80 DUP3 ADD MSTORE PUSH1 0xA0 PUSH1 0x20 DUP3 ADD MSTORE PUSH1 0x0 PUSH2 0x346A PUSH1 0xA0 DUP4 ADD DUP6 PUSH2 0x3390 JUMP JUMPDEST PUSH1 0x60 DUP2 MSTORE PUSH1 0x10 PUSH1 0x60 DUP3 ADD MSTORE PUSH16 0x29B2B63632B9102AB83230BA32B21D1 PUSH1 0x85 SHL PUSH1 0x80 DUP3 ADD MSTORE PUSH1 0xA0 PUSH1 0x20 DUP3 ADD MSTORE PUSH1 0x0 PUSH2 0x346A PUSH1 0xA0 DUP4 ADD DUP6 PUSH2 0x2C8B JUMP JUMPDEST PUSH1 0x60 DUP2 MSTORE PUSH1 0x12 PUSH1 0x60 DUP3 ADD MSTORE PUSH18 0x213ABCB2B9102932B3B4B9BA32B932B21D1 PUSH1 0x75 SHL PUSH1 0x80 DUP3 ADD MSTORE PUSH1 0xA0 PUSH1 0x20 DUP3 ADD MSTORE PUSH1 0x0 PUSH2 0x346A PUSH1 0xA0 DUP4 ADD DUP6 PUSH2 0x2C8B JUMP JUMPDEST PUSH1 0x60 DUP2 MSTORE PUSH1 0xF PUSH1 0x60 DUP3 ADD MSTORE PUSH15 0x213ABCB2B9102AB83230BA32B21D1 PUSH1 0x8D SHL PUSH1 0x80 DUP3 ADD MSTORE PUSH1 0xA0 PUSH1 0x20 DUP3 ADD MSTORE PUSH1 0x0 PUSH2 0x346A PUSH1 0xA0 DUP4 ADD DUP6 PUSH2 0x2C8B JUMP INVALID 0xE6 DUP3 LOG0 PUSH20 0xCB99A4F3EFC2D12900FBC67D6FBDF6A8E7279087 0xBD PUSH18 0x7F0A2621E148A26469706673582212209299 SWAP11 0xCF 0xC1 0x49 RETURN 0xD8 0xA6 SWAP3 SIGNEXTEND PUSH1 0xCF 0xCF 0xD4 0xFC LOG0 0x4B BALANCE 0xE6 LOG1 PUSH22 0x9E497C5100D3D845F84164736F6C6343000813003300 "
				},
				"gasEstimates": {
					"creation": {
						"codeDepositCost": "2847400",
						"executionCost": "infinite",
						"totalCost": "infinite"
					},
					"external": {
						"BuyerMapping(address)": "infinite",
						"CheckBuyerRegistration(address)": "2614",
						"CheckLandRegistration(uint256)": "2496",
						"CheckSellerRegistration(address)": "2593",
						"InspectorMapping(uint256)": "infinite",
						"Lands(uint256)": "infinite",
						"SellerMapping(address)": "infinite",
						"buyLand(uint256,address)": "infinite",
						"changeBuyertoSeller(address)": "infinite",
						"changeSellertoBuyer(address)": "infinite",
						"checkIsBuyer(address)": "2595",
						"checkIsSeller(address)": "2617",
						"checkIsland(uint256)": "2562",
						"getLandById(uint256)": "infinite",
						"inspector()": "infinite",
						"inspectorAddress()": "2427",
						"landOwner(uint256)": "infinite",
						"registerBuyer(address,string,uint256,string,uint256,string)": "infinite",
						"registerLand(uint256,string,string,string,uint256)": "infinite",
						"registerSeller(address,string,uint256,string,uint256,string)": "infinite",
						"totalBuyers()": "2374",
						"totalLands()": "2331",
						"totalSellers()": "2329",
						"transferLand(uint256,address)": "infinite",
						"updateBuyer(string,uint256,string,uint256,string)": "infinite",
						"updateSeller(string,uint256,string,uint256,string)": "infinite",
						"verifyBuyer(address)": "infinite",
						"verifyLand(uint256)": "33383",
						"verifySeller(address)": "infinite"
					}
				},
				"methodIdentifiers": {
					"BuyerMapping(address)": "ab517074",
					"CheckBuyerRegistration(address)": "76aa67e3",
					"CheckLandRegistration(uint256)": "32be894b",
					"CheckSellerRegistration(address)": "8a733aa7",
					"InspectorMapping(uint256)": "def936c3",
					"Lands(uint256)": "226897b5",
					"SellerMapping(address)": "dec091ad",
					"buyLand(uint256,address)": "7ed11e62",
					"changeBuyertoSeller(address)": "dd4d181f",
					"changeSellertoBuyer(address)": "2658d9ac",
					"checkIsBuyer(address)": "52959ea2",
					"checkIsSeller(address)": "3923a853",
					"checkIsland(uint256)": "bf68808d",
					"getLandById(uint256)": "727c04c8",
					"inspector()": "ed2cee9e",
					"inspectorAddress()": "696f8c57",
					"landOwner(uint256)": "4dcb280e",
					"registerBuyer(address,string,uint256,string,uint256,string)": "985e2b57",
					"registerLand(uint256,string,string,string,uint256)": "e9db0fcc",
					"registerSeller(address,string,uint256,string,uint256,string)": "7c46e851",
					"totalBuyers()": "3abd0136",
					"totalLands()": "1d8de063",
					"totalSellers()": "6d3f4b7a",
					"transferLand(uint256,address)": "c798ff7d",
					"updateBuyer(string,uint256,string,uint256,string)": "e43bf1f4",
					"updateSeller(string,uint256,string,uint256,string)": "96c331bb",
					"verifyBuyer(address)": "6814800b",
					"verifyLand(uint256)": "f9c43bdf",
					"verifySeller(address)": "d1760e60"
				}
			},
			"storageLayout": {
				"storage": [
					{
						"astId": 57,
						"contract": "contracts/Project1/Real_State.sol:RealState",
						"label": "inspectorAddress",
						"offset": 0,
						"slot": "0",
						"type": "t_address"
					},
					{
						"astId": 59,
						"contract": "contracts/Project1/Real_State.sol:RealState",
						"label": "inspectorId",
						"offset": 0,
						"slot": "1",
						"type": "t_uint256"
					},
					{
						"astId": 61,
						"contract": "contracts/Project1/Real_State.sol:RealState",
						"label": "totalLands",
						"offset": 0,
						"slot": "2",
						"type": "t_uint256"
					},
					{
						"astId": 63,
						"contract": "contracts/Project1/Real_State.sol:RealState",
						"label": "totalSellers",
						"offset": 0,
						"slot": "3",
						"type": "t_uint256"
					},
					{
						"astId": 65,
						"contract": "contracts/Project1/Real_State.sol:RealState",
						"label": "totalBuyers",
						"offset": 0,
						"slot": "4",
						"type": "t_uint256"
					},
					{
						"astId": 70,
						"contract": "contracts/Project1/Real_State.sol:RealState",
						"label": "Lands",
						"offset": 0,
						"slot": "5",
						"type": "t_mapping(t_uint256,t_struct(LandInfo)20_storage)"
					},
					{
						"astId": 75,
						"contract": "contracts/Project1/Real_State.sol:RealState",
						"label": "InspectorMapping",
						"offset": 0,
						"slot": "6",
						"type": "t_mapping(t_uint256,t_struct(LandInspector)55_storage)"
					},
					{
						"astId": 80,
						"contract": "contracts/Project1/Real_State.sol:RealState",
						"label": "SellerMapping",
						"offset": 0,
						"slot": "7",
						"type": "t_mapping(t_address,t_struct(SellerInfo)46_storage)"
					},
					{
						"astId": 85,
						"contract": "contracts/Project1/Real_State.sol:RealState",
						"label": "BuyerMapping",
						"offset": 0,
						"slot": "8",
						"type": "t_mapping(t_address,t_struct(BuyerInfo)33_storage)"
					},
					{
						"astId": 89,
						"contract": "contracts/Project1/Real_State.sol:RealState",
						"label": "CheckSellerRegistration",
						"offset": 0,
						"slot": "9",
						"type": "t_mapping(t_address,t_bool)"
					},
					{
						"astId": 93,
						"contract": "contracts/Project1/Real_State.sol:RealState",
						"label": "CheckBuyerRegistration",
						"offset": 0,
						"slot": "10",
						"type": "t_mapping(t_address,t_bool)"
					},
					{
						"astId": 97,
						"contract": "contracts/Project1/Real_State.sol:RealState",
						"label": "CheckLandRegistration",
						"offset": 0,
						"slot": "11",
						"type": "t_mapping(t_uint256,t_bool)"
					}
				],
				"types": {
					"t_address": {
						"encoding": "inplace",
						"label": "address",
						"numberOfBytes": "20"
					},
					"t_bool": {
						"encoding": "inplace",
						"label": "bool",
						"numberOfBytes": "1"
					},
					"t_mapping(t_address,t_bool)": {
						"encoding": "mapping",
						"key": "t_address",
						"label": "mapping(address => bool)",
						"numberOfBytes": "32",
						"value": "t_bool"
					},
					"t_mapping(t_address,t_struct(BuyerInfo)33_storage)": {
						"encoding": "mapping",
						"key": "t_address",
						"label": "mapping(address => struct BuyerInfo)",
						"numberOfBytes": "32",
						"value": "t_struct(BuyerInfo)33_storage"
					},
					"t_mapping(t_address,t_struct(SellerInfo)46_storage)": {
						"encoding": "mapping",
						"key": "t_address",
						"label": "mapping(address => struct SellerInfo)",
						"numberOfBytes": "32",
						"value": "t_struct(SellerInfo)46_storage"
					},
					"t_mapping(t_uint256,t_bool)": {
						"encoding": "mapping",
						"key": "t_uint256",
						"label": "mapping(uint256 => bool)",
						"numberOfBytes": "32",
						"value": "t_bool"
					},
					"t_mapping(t_uint256,t_struct(LandInfo)20_storage)": {
						"encoding": "mapping",
						"key": "t_uint256",
						"label": "mapping(uint256 => struct LandInfo)",
						"numberOfBytes": "32",
						"value": "t_struct(LandInfo)20_storage"
					},
					"t_mapping(t_uint256,t_struct(LandInspector)55_storage)": {
						"encoding": "mapping",
						"key": "t_uint256",
						"label": "mapping(uint256 => struct LandInspector)",
						"numberOfBytes": "32",
						"value": "t_struct(LandInspector)55_storage"
					},
					"t_string_storage": {
						"encoding": "bytes",
						"label": "string",
						"numberOfBytes": "32"
					},
					"t_struct(BuyerInfo)33_storage": {
						"encoding": "inplace",
						"label": "struct BuyerInfo",
						"members": [
							{
								"astId": 22,
								"contract": "contracts/Project1/Real_State.sol:RealState",
								"label": "buyerName",
								"offset": 0,
								"slot": "0",
								"type": "t_string_storage"
							},
							{
								"astId": 24,
								"contract": "contracts/Project1/Real_State.sol:RealState",
								"label": "buyerAge",
								"offset": 0,
								"slot": "1",
								"type": "t_uint256"
							},
							{
								"astId": 26,
								"contract": "contracts/Project1/Real_State.sol:RealState",
								"label": "city",
								"offset": 0,
								"slot": "2",
								"type": "t_string_storage"
							},
							{
								"astId": 28,
								"contract": "contracts/Project1/Real_State.sol:RealState",
								"label": "cnic",
								"offset": 0,
								"slot": "3",
								"type": "t_uint256"
							},
							{
								"astId": 30,
								"contract": "contracts/Project1/Real_State.sol:RealState",
								"label": "email",
								"offset": 0,
								"slot": "4",
								"type": "t_string_storage"
							},
							{
								"astId": 32,
								"contract": "contracts/Project1/Real_State.sol:RealState",
								"label": "isBuyerVerified",
								"offset": 0,
								"slot": "5",
								"type": "t_bool"
							}
						],
						"numberOfBytes": "192"
					},
					"t_struct(LandInfo)20_storage": {
						"encoding": "inplace",
						"label": "struct LandInfo",
						"members": [
							{
								"astId": 3,
								"contract": "contracts/Project1/Real_State.sol:RealState",
								"label": "landId",
								"offset": 0,
								"slot": "0",
								"type": "t_uint256"
							},
							{
								"astId": 5,
								"contract": "contracts/Project1/Real_State.sol:RealState",
								"label": "area",
								"offset": 0,
								"slot": "1",
								"type": "t_string_storage"
							},
							{
								"astId": 7,
								"contract": "contracts/Project1/Real_State.sol:RealState",
								"label": "city",
								"offset": 0,
								"slot": "2",
								"type": "t_string_storage"
							},
							{
								"astId": 9,
								"contract": "contracts/Project1/Real_State.sol:RealState",
								"label": "state",
								"offset": 0,
								"slot": "3",
								"type": "t_string_storage"
							},
							{
								"astId": 11,
								"contract": "contracts/Project1/Real_State.sol:RealState",
								"label": "landPrice",
								"offset": 0,
								"slot": "4",
								"type": "t_uint256"
							},
							{
								"astId": 13,
								"contract": "contracts/Project1/Real_State.sol:RealState",
								"label": "isLandSold",
								"offset": 0,
								"slot": "5",
								"type": "t_bool"
							},
							{
								"astId": 15,
								"contract": "contracts/Project1/Real_State.sol:RealState",
								"label": "isLandVerified",
								"offset": 1,
								"slot": "5",
								"type": "t_bool"
							},
							{
								"astId": 17,
								"contract": "contracts/Project1/Real_State.sol:RealState",
								"label": "propertyOwner",
								"offset": 2,
								"slot": "5",
								"type": "t_address"
							},
							{
								"astId": 19,
								"contract": "contracts/Project1/Real_State.sol:RealState",
								"label": "propertyOwnerName",
								"offset": 0,
								"slot": "6",
								"type": "t_string_storage"
							}
						],
						"numberOfBytes": "224"
					},
					"t_struct(LandInspector)55_storage": {
						"encoding": "inplace",
						"label": "struct LandInspector",
						"members": [
							{
								"astId": 48,
								"contract": "contracts/Project1/Real_State.sol:RealState",
								"label": "landInspectorId",
								"offset": 0,
								"slot": "0",
								"type": "t_address"
							},
							{
								"astId": 50,
								"contract": "contracts/Project1/Real_State.sol:RealState",
								"label": "inspectorName",
								"offset": 0,
								"slot": "1",
								"type": "t_string_storage"
							},
							{
								"astId": 52,
								"contract": "contracts/Project1/Real_State.sol:RealState",
								"label": "inspectorAge",
								"offset": 0,
								"slot": "2",
								"type": "t_uint256"
							},
							{
								"astId": 54,
								"contract": "contracts/Project1/Real_State.sol:RealState",
								"label": "desgination",
								"offset": 0,
								"slot": "3",
								"type": "t_string_storage"
							}
						],
						"numberOfBytes": "128"
					},
					"t_struct(SellerInfo)46_storage": {
						"encoding": "inplace",
						"label": "struct SellerInfo",
						"members": [
							{
								"astId": 35,
								"contract": "contracts/Project1/Real_State.sol:RealState",
								"label": "sellerName",
								"offset": 0,
								"slot": "0",
								"type": "t_string_storage"
							},
							{
								"astId": 37,
								"contract": "contracts/Project1/Real_State.sol:RealState",
								"label": "sellerAge",
								"offset": 0,
								"slot": "1",
								"type": "t_uint256"
							},
							{
								"astId": 39,
								"contract": "contracts/Project1/Real_State.sol:RealState",
								"label": "city",
								"offset": 0,
								"slot": "2",
								"type": "t_string_storage"
							},
							{
								"astId": 41,
								"contract": "contracts/Project1/Real_State.sol:RealState",
								"label": "sellerCNIC",
								"offset": 0,
								"slot": "3",
								"type": "t_uint256"
							},
							{
								"astId": 43,
								"contract": "contracts/Project1/Real_State.sol:RealState",
								"label": "email",
								"offset": 0,
								"slot": "4",
								"type": "t_string_storage"
							},
							{
								"astId": 45,
								"contract": "contracts/Project1/Real_State.sol:RealState",
								"label": "isSellerVerified",
								"offset": 0,
								"slot": "5",
								"type": "t_bool"
							}
						],
						"numberOfBytes": "192"
					},
					"t_uint256": {
						"encoding": "inplace",
						"label": "uint256",
						"numberOfBytes": "32"
					}
				}
			},
			"userdoc": {
				"kind": "user",
				"methods": {},
				"version": 1
			}
		}
	}
}